{
	"contracts/TokenStaking.sol": {
		"TokenStaking": {
			"abi": [
				{
					"inputs": [
						{
							"internalType": "address",
							"name": "_HackToken",
							"type": "address"
						},
						{
							"internalType": "address",
							"name": "_HackInterestToken",
							"type": "address"
						}
					],
					"stateMutability": "nonpayable",
					"type": "constructor"
				},
				{
					"anonymous": false,
					"inputs": [
						{
							"indexed": true,
							"internalType": "address",
							"name": "user",
							"type": "address"
						},
						{
							"indexed": false,
							"internalType": "uint256",
							"name": "amount",
							"type": "uint256"
						}
					],
					"name": "Deposit",
					"type": "event"
				},
				{
					"anonymous": false,
					"inputs": [
						{
							"indexed": true,
							"internalType": "address",
							"name": "user",
							"type": "address"
						}
					],
					"name": "RedeemInterest",
					"type": "event"
				},
				{
					"anonymous": false,
					"inputs": [
						{
							"indexed": true,
							"internalType": "address",
							"name": "user",
							"type": "address"
						},
						{
							"indexed": false,
							"internalType": "uint256",
							"name": "amount",
							"type": "uint256"
						}
					],
					"name": "Unstake",
					"type": "event"
				},
				{
					"anonymous": false,
					"inputs": [
						{
							"indexed": true,
							"internalType": "address",
							"name": "user",
							"type": "address"
						},
						{
							"indexed": false,
							"internalType": "uint256",
							"name": "day",
							"type": "uint256"
						},
						{
							"indexed": false,
							"internalType": "uint256",
							"name": "index",
							"type": "uint256"
						}
					],
					"name": "UpdateDateTest",
					"type": "event"
				},
				{
					"inputs": [],
					"name": "HackInterestToken",
					"outputs": [
						{
							"internalType": "contract IHackInterestToken",
							"name": "",
							"type": "address"
						}
					],
					"stateMutability": "view",
					"type": "function"
				},
				{
					"inputs": [],
					"name": "HackToken",
					"outputs": [
						{
							"internalType": "contract IHackToken",
							"name": "",
							"type": "address"
						}
					],
					"stateMutability": "view",
					"type": "function"
				},
				{
					"inputs": [],
					"name": "PRECISION_FACTOR",
					"outputs": [
						{
							"internalType": "uint256",
							"name": "",
							"type": "uint256"
						}
					],
					"stateMutability": "view",
					"type": "function"
				},
				{
					"inputs": [],
					"name": "buybackRate",
					"outputs": [
						{
							"internalType": "uint256",
							"name": "",
							"type": "uint256"
						}
					],
					"stateMutability": "view",
					"type": "function"
				},
				{
					"inputs": [
						{
							"internalType": "uint256",
							"name": "amount",
							"type": "uint256"
						}
					],
					"name": "deposit",
					"outputs": [],
					"stateMutability": "nonpayable",
					"type": "function"
				},
				{
					"inputs": [
						{
							"internalType": "address",
							"name": "account",
							"type": "address"
						},
						{
							"internalType": "uint256",
							"name": "index",
							"type": "uint256"
						}
					],
					"name": "getRedeemableAmount",
					"outputs": [
						{
							"internalType": "string[]",
							"name": "",
							"type": "string[]"
						},
						{
							"components": [
								{
									"internalType": "uint256",
									"name": "buybackAmount",
									"type": "uint256"
								},
								{
									"internalType": "uint256",
									"name": "interestAmount",
									"type": "uint256"
								},
								{
									"internalType": "uint256",
									"name": "redeemableAmount",
									"type": "uint256"
								}
							],
							"internalType": "struct TokenStaking.RedeemInfo",
							"name": "",
							"type": "tuple"
						}
					],
					"stateMutability": "view",
					"type": "function"
				},
				{
					"inputs": [
						{
							"internalType": "address",
							"name": "account",
							"type": "address"
						}
					],
					"name": "getStakeCount",
					"outputs": [
						{
							"internalType": "uint256",
							"name": "",
							"type": "uint256"
						}
					],
					"stateMutability": "view",
					"type": "function"
				},
				{
					"inputs": [
						{
							"internalType": "address",
							"name": "account",
							"type": "address"
						}
					],
					"name": "getTotalRedeemableAmount",
					"outputs": [
						{
							"components": [
								{
									"internalType": "uint256",
									"name": "buybackAmount",
									"type": "uint256"
								},
								{
									"internalType": "uint256",
									"name": "interestAmount",
									"type": "uint256"
								},
								{
									"internalType": "uint256",
									"name": "redeemableAmount",
									"type": "uint256"
								}
							],
							"internalType": "struct TokenStaking.RedeemInfo",
							"name": "",
							"type": "tuple"
						}
					],
					"stateMutability": "view",
					"type": "function"
				},
				{
					"inputs": [],
					"name": "interestRate",
					"outputs": [
						{
							"internalType": "uint256",
							"name": "",
							"type": "uint256"
						}
					],
					"stateMutability": "view",
					"type": "function"
				},
				{
					"inputs": [],
					"name": "redeemInterest",
					"outputs": [],
					"stateMutability": "nonpayable",
					"type": "function"
				},
				{
					"inputs": [],
					"name": "stakeLimit",
					"outputs": [
						{
							"internalType": "uint256",
							"name": "",
							"type": "uint256"
						}
					],
					"stateMutability": "view",
					"type": "function"
				},
				{
					"inputs": [
						{
							"internalType": "address",
							"name": "",
							"type": "address"
						},
						{
							"internalType": "uint256",
							"name": "",
							"type": "uint256"
						}
					],
					"name": "stakeMapping",
					"outputs": [
						{
							"internalType": "uint256",
							"name": "dateStaked",
							"type": "uint256"
						},
						{
							"internalType": "uint256",
							"name": "initialAmount",
							"type": "uint256"
						},
						{
							"internalType": "uint256",
							"name": "balanceAmount",
							"type": "uint256"
						},
						{
							"internalType": "uint256",
							"name": "redeemedAmount",
							"type": "uint256"
						},
						{
							"internalType": "uint256",
							"name": "interestAmount",
							"type": "uint256"
						},
						{
							"internalType": "uint256",
							"name": "buybackAmount",
							"type": "uint256"
						}
					],
					"stateMutability": "view",
					"type": "function"
				},
				{
					"inputs": [],
					"name": "totalAmountStaked",
					"outputs": [
						{
							"internalType": "uint256",
							"name": "",
							"type": "uint256"
						}
					],
					"stateMutability": "view",
					"type": "function"
				},
				{
					"inputs": [
						{
							"internalType": "uint256",
							"name": "stakeId",
							"type": "uint256"
						}
					],
					"name": "unstake",
					"outputs": [],
					"stateMutability": "nonpayable",
					"type": "function"
				},
				{
					"inputs": [
						{
							"internalType": "uint256",
							"name": "day",
							"type": "uint256"
						},
						{
							"internalType": "uint256",
							"name": "index",
							"type": "uint256"
						}
					],
					"name": "updateDateTest",
					"outputs": [],
					"stateMutability": "nonpayable",
					"type": "function"
				},
				{
					"inputs": [
						{
							"internalType": "address",
							"name": "",
							"type": "address"
						}
					],
					"name": "userMapping",
					"outputs": [
						{
							"internalType": "uint256",
							"name": "totalInitialAmount",
							"type": "uint256"
						},
						{
							"internalType": "uint256",
							"name": "totalBalanceAmount",
							"type": "uint256"
						},
						{
							"internalType": "uint256",
							"name": "totalRedeemedAmount",
							"type": "uint256"
						},
						{
							"internalType": "uint256",
							"name": "totalBuybackAmount",
							"type": "uint256"
						},
						{
							"internalType": "uint256",
							"name": "totalInterestAmount",
							"type": "uint256"
						}
					],
					"stateMutability": "view",
					"type": "function"
				}
			],
			"devdoc": {
				"kind": "dev",
				"methods": {
					"constructor": {
						"params": {
							"_HackInterestToken": "token address",
							"_HackToken": "token address"
						}
					},
					"deposit(uint256)": {
						"params": {
							"amount": "amount to deposit (in HACK)"
						}
					}
				},
				"title": "TokenDistributor",
				"version": 1
			},
			"evm": {
				"assembly": "    /* \"contracts/TokenStaking.sol\":443:9167  contract TokenStaking is ReentrancyGuard {... */\n  mstore(0x40, 0xc0)\n    /* \"contracts/TokenStaking.sol\":1290:1291  2 */\n  0x02\n    /* \"contracts/TokenStaking.sol\":1261:1291  uint256 public buybackRate = 2 */\n  0x01\n  sstore\n    /* \"contracts/TokenStaking.sol\":1327:1328  9 */\n  0x09\n    /* \"contracts/TokenStaking.sol\":1297:1328  uint256 public interestRate = 9 */\n  0x02\n  sstore\n    /* \"contracts/TokenStaking.sol\":1250:1255  10**8 */\n  0x05f5e100\n    /* \"contracts/TokenStaking.sol\":1362:1369  5000000 */\n  0x4c4b40\n    /* \"contracts/TokenStaking.sol\":1362:1388  5000000 * PRECISION_FACTOR */\n  tag_1\n  swap2\n  swap1\n  tag_2\n  jump\t// in\ntag_1:\n    /* \"contracts/TokenStaking.sol\":1334:1388  uint256 public stakeLimit = 5000000 * PRECISION_FACTOR */\n  0x03\n  sstore\n    /* \"contracts/TokenStaking.sol\":2044:2246  constructor(... */\n  callvalue\n  dup1\n  iszero\n  tag_3\n  jumpi\n  0x00\n  dup1\n  revert\ntag_3:\n  pop\n  mload(0x40)\n  sub(codesize, bytecodeSize)\n  dup1\n  bytecodeSize\n  dup4\n  codecopy\n  dup2\n  dup2\n  add\n  0x40\n  mstore\n  dup2\n  add\n  swap1\n  tag_4\n  swap2\n  swap1\n  tag_5\n  jump\t// in\ntag_4:\n    /* \"@openzeppelin/contracts@4.7.0/security/ReentrancyGuard.sol\":1701:1702  1 */\n  0x01\n    /* \"@openzeppelin/contracts@4.7.0/security/ReentrancyGuard.sol\":1806:1813  _status */\n  0x00\n    /* \"@openzeppelin/contracts@4.7.0/security/ReentrancyGuard.sol\":1806:1828  _status = _NOT_ENTERED */\n  dup2\n  swap1\n  sstore\n  pop\n    /* \"contracts/TokenStaking.sol\":2160:2170  _HackToken */\n  dup2\n    /* \"contracts/TokenStaking.sol\":2137:2171  HackToken = IHackToken(_HackToken) */\n  0xffffffffffffffffffffffffffffffffffffffff\n  and\n  0x80\n  dup2\n  0xffffffffffffffffffffffffffffffffffffffff\n  and\n  0x60\n  shl\n  dup2\n  mstore\n  pop\n  pop\n    /* \"contracts/TokenStaking.sol\":2220:2238  _HackInterestToken */\n  dup1\n    /* \"contracts/TokenStaking.sol\":2181:2239  HackInterestToken = IHackInterestToken(_HackInterestToken) */\n  0xffffffffffffffffffffffffffffffffffffffff\n  and\n  0xa0\n  dup2\n  0xffffffffffffffffffffffffffffffffffffffff\n  and\n  0x60\n  shl\n  dup2\n  mstore\n  pop\n  pop\n    /* \"contracts/TokenStaking.sol\":2044:2246  constructor(... */\n  pop\n  pop\n    /* \"contracts/TokenStaking.sol\":443:9167  contract TokenStaking is ReentrancyGuard {... */\n  jump(tag_10)\n    /* \"#utility.yul\":7:150   */\ntag_12:\n    /* \"#utility.yul\":64:69   */\n  0x00\n    /* \"#utility.yul\":95:101   */\n  dup2\n    /* \"#utility.yul\":89:102   */\n  mload\n    /* \"#utility.yul\":80:102   */\n  swap1\n  pop\n    /* \"#utility.yul\":111:144   */\n  tag_14\n    /* \"#utility.yul\":138:143   */\n  dup2\n    /* \"#utility.yul\":111:144   */\n  tag_15\n  jump\t// in\ntag_14:\n    /* \"#utility.yul\":7:150   */\n  swap3\n  swap2\n  pop\n  pop\n  jump\t// out\n    /* \"#utility.yul\":156:663   */\ntag_5:\n    /* \"#utility.yul\":235:241   */\n  0x00\n    /* \"#utility.yul\":243:249   */\n  dup1\n    /* \"#utility.yul\":292:294   */\n  0x40\n    /* \"#utility.yul\":280:289   */\n  dup4\n    /* \"#utility.yul\":271:278   */\n  dup6\n    /* \"#utility.yul\":267:290   */\n  sub\n    /* \"#utility.yul\":263:295   */\n  slt\n    /* \"#utility.yul\":260:379   */\n  iszero\n  tag_17\n  jumpi\n    /* \"#utility.yul\":298:377   */\n  tag_18\n  tag_19\n  jump\t// in\ntag_18:\n    /* \"#utility.yul\":260:379   */\ntag_17:\n    /* \"#utility.yul\":418:419   */\n  0x00\n    /* \"#utility.yul\":443:507   */\n  tag_20\n    /* \"#utility.yul\":499:506   */\n  dup6\n    /* \"#utility.yul\":490:496   */\n  dup3\n    /* \"#utility.yul\":479:488   */\n  dup7\n    /* \"#utility.yul\":475:497   */\n  add\n    /* \"#utility.yul\":443:507   */\n  tag_12\n  jump\t// in\ntag_20:\n    /* \"#utility.yul\":433:507   */\n  swap3\n  pop\n    /* \"#utility.yul\":389:517   */\n  pop\n    /* \"#utility.yul\":556:558   */\n  0x20\n    /* \"#utility.yul\":582:646   */\n  tag_21\n    /* \"#utility.yul\":638:645   */\n  dup6\n    /* \"#utility.yul\":629:635   */\n  dup3\n    /* \"#utility.yul\":618:627   */\n  dup7\n    /* \"#utility.yul\":614:636   */\n  add\n    /* \"#utility.yul\":582:646   */\n  tag_12\n  jump\t// in\ntag_21:\n    /* \"#utility.yul\":572:646   */\n  swap2\n  pop\n    /* \"#utility.yul\":527:656   */\n  pop\n    /* \"#utility.yul\":156:663   */\n  swap3\n  pop\n  swap3\n  swap1\n  pop\n  jump\t// out\n    /* \"#utility.yul\":750:1098   */\ntag_2:\n    /* \"#utility.yul\":790:797   */\n  0x00\n    /* \"#utility.yul\":813:833   */\n  tag_25\n    /* \"#utility.yul\":831:832   */\n  dup3\n    /* \"#utility.yul\":813:833   */\n  tag_26\n  jump\t// in\ntag_25:\n    /* \"#utility.yul\":808:833   */\n  swap2\n  pop\n    /* \"#utility.yul\":847:867   */\n  tag_27\n    /* \"#utility.yul\":865:866   */\n  dup4\n    /* \"#utility.yul\":847:867   */\n  tag_26\n  jump\t// in\ntag_27:\n    /* \"#utility.yul\":842:867   */\n  swap3\n  pop\n    /* \"#utility.yul\":1035:1036   */\n  dup2\n    /* \"#utility.yul\":967:1033   */\n  0xffffffffffffffffffffffffffffffffffffffffffffffffffffffffffffffff\n    /* \"#utility.yul\":963:1037   */\n  div\n    /* \"#utility.yul\":960:961   */\n  dup4\n    /* \"#utility.yul\":957:1038   */\n  gt\n    /* \"#utility.yul\":952:953   */\n  dup3\n    /* \"#utility.yul\":945:954   */\n  iszero\n    /* \"#utility.yul\":938:955   */\n  iszero\n    /* \"#utility.yul\":934:1039   */\n  and\n    /* \"#utility.yul\":931:1062   */\n  iszero\n  tag_28\n  jumpi\n    /* \"#utility.yul\":1042:1060   */\n  tag_29\n  tag_30\n  jump\t// in\ntag_29:\n    /* \"#utility.yul\":931:1062   */\ntag_28:\n    /* \"#utility.yul\":1090:1091   */\n  dup3\n    /* \"#utility.yul\":1087:1088   */\n  dup3\n    /* \"#utility.yul\":1083:1092   */\n  mul\n    /* \"#utility.yul\":1072:1092   */\n  swap1\n  pop\n    /* \"#utility.yul\":750:1098   */\n  swap3\n  swap2\n  pop\n  pop\n  jump\t// out\n    /* \"#utility.yul\":1104:1200   */\ntag_31:\n    /* \"#utility.yul\":1141:1148   */\n  0x00\n    /* \"#utility.yul\":1170:1194   */\n  tag_33\n    /* \"#utility.yul\":1188:1193   */\n  dup3\n    /* \"#utility.yul\":1170:1194   */\n  tag_34\n  jump\t// in\ntag_33:\n    /* \"#utility.yul\":1159:1194   */\n  swap1\n  pop\n    /* \"#utility.yul\":1104:1200   */\n  swap2\n  swap1\n  pop\n  jump\t// out\n    /* \"#utility.yul\":1206:1332   */\ntag_34:\n    /* \"#utility.yul\":1243:1250   */\n  0x00\n    /* \"#utility.yul\":1283:1325   */\n  0xffffffffffffffffffffffffffffffffffffffff\n    /* \"#utility.yul\":1276:1281   */\n  dup3\n    /* \"#utility.yul\":1272:1326   */\n  and\n    /* \"#utility.yul\":1261:1326   */\n  swap1\n  pop\n    /* \"#utility.yul\":1206:1332   */\n  swap2\n  swap1\n  pop\n  jump\t// out\n    /* \"#utility.yul\":1338:1415   */\ntag_26:\n    /* \"#utility.yul\":1375:1382   */\n  0x00\n    /* \"#utility.yul\":1404:1409   */\n  dup2\n    /* \"#utility.yul\":1393:1409   */\n  swap1\n  pop\n    /* \"#utility.yul\":1338:1415   */\n  swap2\n  swap1\n  pop\n  jump\t// out\n    /* \"#utility.yul\":1421:1601   */\ntag_30:\n    /* \"#utility.yul\":1469:1546   */\n  0x4e487b7100000000000000000000000000000000000000000000000000000000\n    /* \"#utility.yul\":1466:1467   */\n  0x00\n    /* \"#utility.yul\":1459:1547   */\n  mstore\n    /* \"#utility.yul\":1566:1570   */\n  0x11\n    /* \"#utility.yul\":1563:1564   */\n  0x04\n    /* \"#utility.yul\":1556:1571   */\n  mstore\n    /* \"#utility.yul\":1590:1594   */\n  0x24\n    /* \"#utility.yul\":1587:1588   */\n  0x00\n    /* \"#utility.yul\":1580:1595   */\n  revert\n    /* \"#utility.yul\":1730:1847   */\ntag_19:\n    /* \"#utility.yul\":1839:1840   */\n  0x00\n    /* \"#utility.yul\":1836:1837   */\n  dup1\n    /* \"#utility.yul\":1829:1841   */\n  revert\n    /* \"#utility.yul\":1853:1975   */\ntag_15:\n    /* \"#utility.yul\":1926:1950   */\n  tag_42\n    /* \"#utility.yul\":1944:1949   */\n  dup2\n    /* \"#utility.yul\":1926:1950   */\n  tag_31\n  jump\t// in\ntag_42:\n    /* \"#utility.yul\":1919:1924   */\n  dup2\n    /* \"#utility.yul\":1916:1951   */\n  eq\n    /* \"#utility.yul\":1906:1969   */\n  tag_43\n  jumpi\n    /* \"#utility.yul\":1965:1966   */\n  0x00\n    /* \"#utility.yul\":1962:1963   */\n  dup1\n    /* \"#utility.yul\":1955:1967   */\n  revert\n    /* \"#utility.yul\":1906:1969   */\ntag_43:\n    /* \"#utility.yul\":1853:1975   */\n  pop\n  jump\t// out\n    /* \"contracts/TokenStaking.sol\":443:9167  contract TokenStaking is ReentrancyGuard {... */\ntag_10:\n  shr(0x60, mload(0x80))\n  shr(0x60, mload(0xa0))\n  codecopy(0x00, dataOffset(sub_0), dataSize(sub_0))\n  0x00\n  assignImmutable(\"0x5002dac29dd1f5eca27c266c7f22886fef1ca01133bd005217e0a31b1b246599\")\n  0x00\n  assignImmutable(\"0xcb8dea2ffab2268b31b9e4c08a2727c08f47205d0ab1e6e9f5077b89e0fb5b9d\")\n  return(0x00, dataSize(sub_0))\nstop\n\nsub_0: assembly {\n        /* \"contracts/TokenStaking.sol\":443:9167  contract TokenStaking is ReentrancyGuard {... */\n      mstore(0x40, 0x80)\n      callvalue\n      dup1\n      iszero\n      tag_1\n      jumpi\n      0x00\n      dup1\n      revert\n    tag_1:\n      pop\n      jumpi(tag_2, lt(calldatasize, 0x04))\n      shr(0xe0, calldataload(0x00))\n      dup1\n      0xccd34cd5\n      gt\n      tag_19\n      jumpi\n      dup1\n      0xf5bb23ab\n      gt\n      tag_20\n      jumpi\n      dup1\n      0xf5bb23ab\n      eq\n      tag_15\n      jumpi\n      dup1\n      0xf71f71af\n      eq\n      tag_16\n      jumpi\n      dup1\n      0xf76024c4\n      eq\n      tag_17\n      jumpi\n      dup1\n      0xfe961f61\n      eq\n      tag_18\n      jumpi\n      jump(tag_2)\n    tag_20:\n      dup1\n      0xccd34cd5\n      eq\n      tag_11\n      jumpi\n      dup1\n      0xcf57ee69\n      eq\n      tag_12\n      jumpi\n      dup1\n      0xd0a47247\n      eq\n      tag_13\n      jumpi\n      dup1\n      0xd720a515\n      eq\n      tag_14\n      jumpi\n      jump(tag_2)\n    tag_19:\n      dup1\n      0x9b147bc6\n      gt\n      tag_21\n      jumpi\n      dup1\n      0x9b147bc6\n      eq\n      tag_7\n      jumpi\n      dup1\n      0x9fd53034\n      eq\n      tag_8\n      jumpi\n      dup1\n      0xb0797b8e\n      eq\n      tag_9\n      jumpi\n      dup1\n      0xb6b55f25\n      eq\n      tag_10\n      jumpi\n      jump(tag_2)\n    tag_21:\n      dup1\n      0x118b9535\n      eq\n      tag_3\n      jumpi\n      dup1\n      0x2e17de78\n      eq\n      tag_4\n      jumpi\n      dup1\n      0x45ef79af\n      eq\n      tag_5\n      jumpi\n      dup1\n      0x7c3a00fd\n      eq\n      tag_6\n      jumpi\n    tag_2:\n      0x00\n      dup1\n      revert\n        /* \"contracts/TokenStaking.sol\":1565:1612  mapping(address => UserInfo) public userMapping */\n    tag_3:\n      tag_22\n      0x04\n      dup1\n      calldatasize\n      sub\n      dup2\n      add\n      swap1\n      tag_23\n      swap2\n      swap1\n      tag_24\n      jump\t// in\n    tag_23:\n      tag_25\n      jump\t// in\n    tag_22:\n      mload(0x40)\n      tag_26\n      swap6\n      swap5\n      swap4\n      swap3\n      swap2\n      swap1\n      tag_27\n      jump\t// in\n    tag_26:\n      mload(0x40)\n      dup1\n      swap2\n      sub\n      swap1\n      return\n        /* \"contracts/TokenStaking.sol\":5322:6559  function unstake(uint stakeId) external nonReentrant {... */\n    tag_4:\n      tag_28\n      0x04\n      dup1\n      calldatasize\n      sub\n      dup2\n      add\n      swap1\n      tag_29\n      swap2\n      swap1\n      tag_30\n      jump\t// in\n    tag_29:\n      tag_31\n      jump\t// in\n    tag_28:\n      stop\n        /* \"contracts/TokenStaking.sol\":1334:1388  uint256 public stakeLimit = 5000000 * PRECISION_FACTOR */\n    tag_5:\n      tag_32\n      tag_33\n      jump\t// in\n    tag_32:\n      mload(0x40)\n      tag_34\n      swap2\n      swap1\n      tag_35\n      jump\t// in\n    tag_34:\n      mload(0x40)\n      dup1\n      swap2\n      sub\n      swap1\n      return\n        /* \"contracts/TokenStaking.sol\":1297:1328  uint256 public interestRate = 9 */\n    tag_6:\n      tag_36\n      tag_37\n      jump\t// in\n    tag_36:\n      mload(0x40)\n      tag_38\n      swap2\n      swap1\n      tag_35\n      jump\t// in\n    tag_38:\n      mload(0x40)\n      dup1\n      swap2\n      sub\n      swap1\n      return\n        /* \"contracts/TokenStaking.sol\":6787:7243  function getRedeemableAmount(address account, uint256 index) external view returns (string[] memory, RedeemInfo memory) {... */\n    tag_7:\n      tag_39\n      0x04\n      dup1\n      calldatasize\n      sub\n      dup2\n      add\n      swap1\n      tag_40\n      swap2\n      swap1\n      tag_41\n      jump\t// in\n    tag_40:\n      tag_42\n      jump\t// in\n    tag_39:\n      mload(0x40)\n      tag_43\n      swap3\n      swap2\n      swap1\n      tag_44\n      jump\t// in\n    tag_43:\n      mload(0x40)\n      dup1\n      swap2\n      sub\n      swap1\n      return\n        /* \"contracts/TokenStaking.sol\":2967:5238  function redeemInterest() external nonReentrant {... */\n    tag_8:\n      tag_45\n      tag_46\n      jump\t// in\n    tag_45:\n      stop\n        /* \"contracts/TokenStaking.sol\":6565:6781  function getTotalRedeemableAmount(address account) external view returns (RedeemInfo memory) {... */\n    tag_9:\n      tag_47\n      0x04\n      dup1\n      calldatasize\n      sub\n      dup2\n      add\n      swap1\n      tag_48\n      swap2\n      swap1\n      tag_24\n      jump\t// in\n    tag_48:\n      tag_49\n      jump\t// in\n    tag_47:\n      mload(0x40)\n      tag_50\n      swap2\n      swap1\n      tag_51\n      jump\t// in\n    tag_50:\n      mload(0x40)\n      dup1\n      swap2\n      sub\n      swap1\n      return\n        /* \"contracts/TokenStaking.sol\":2372:2961  function deposit(uint256 amount) external nonReentrant {... */\n    tag_10:\n      tag_52\n      0x04\n      dup1\n      calldatasize\n      sub\n      dup2\n      add\n      swap1\n      tag_53\n      swap2\n      swap1\n      tag_30\n      jump\t// in\n    tag_53:\n      tag_54\n      jump\t// in\n    tag_52:\n      stop\n        /* \"contracts/TokenStaking.sol\":1207:1255  uint256 public constant PRECISION_FACTOR = 10**8 */\n    tag_11:\n      tag_55\n      tag_56\n      jump\t// in\n    tag_55:\n      mload(0x40)\n      tag_57\n      swap2\n      swap1\n      tag_35\n      jump\t// in\n    tag_57:\n      mload(0x40)\n      dup1\n      swap2\n      sub\n      swap1\n      return\n        /* \"contracts/TokenStaking.sol\":7249:7380  function getStakeCount(address account) external view returns (uint) {... */\n    tag_12:\n      tag_58\n      0x04\n      dup1\n      calldatasize\n      sub\n      dup2\n      add\n      swap1\n      tag_59\n      swap2\n      swap1\n      tag_24\n      jump\t// in\n    tag_59:\n      tag_60\n      jump\t// in\n    tag_58:\n      mload(0x40)\n      tag_61\n      swap2\n      swap1\n      tag_35\n      jump\t// in\n    tag_61:\n      mload(0x40)\n      dup1\n      swap2\n      sub\n      swap1\n      return\n        /* \"contracts/TokenStaking.sol\":1439:1492  IHackInterestToken public immutable HackInterestToken */\n    tag_13:\n      tag_62\n      tag_63\n      jump\t// in\n    tag_62:\n      mload(0x40)\n      tag_64\n      swap2\n      swap1\n      tag_65\n      jump\t// in\n    tag_64:\n      mload(0x40)\n      dup1\n      swap2\n      sub\n      swap1\n      return\n        /* \"contracts/TokenStaking.sol\":8961:9164  function updateDateTest(uint256 day, uint256 index) external nonReentrant {... */\n    tag_14:\n      tag_66\n      0x04\n      dup1\n      calldatasize\n      sub\n      dup2\n      add\n      swap1\n      tag_67\n      swap2\n      swap1\n      tag_68\n      jump\t// in\n    tag_67:\n      tag_69\n      jump\t// in\n    tag_66:\n      stop\n        /* \"contracts/TokenStaking.sol\":1618:1669  mapping(address => StakeInfo[]) public stakeMapping */\n    tag_15:\n      tag_70\n      0x04\n      dup1\n      calldatasize\n      sub\n      dup2\n      add\n      swap1\n      tag_71\n      swap2\n      swap1\n      tag_41\n      jump\t// in\n    tag_71:\n      tag_72\n      jump\t// in\n    tag_70:\n      mload(0x40)\n      tag_73\n      swap7\n      swap6\n      swap5\n      swap4\n      swap3\n      swap2\n      swap1\n      tag_74\n      jump\t// in\n    tag_73:\n      mload(0x40)\n      dup1\n      swap2\n      sub\n      swap1\n      return\n        /* \"contracts/TokenStaking.sol\":1396:1433  IHackToken public immutable HackToken */\n    tag_16:\n      tag_75\n      tag_76\n      jump\t// in\n    tag_75:\n      mload(0x40)\n      tag_77\n      swap2\n      swap1\n      tag_78\n      jump\t// in\n    tag_77:\n      mload(0x40)\n      dup1\n      swap2\n      sub\n      swap1\n      return\n        /* \"contracts/TokenStaking.sol\":1261:1291  uint256 public buybackRate = 2 */\n    tag_17:\n      tag_79\n      tag_80\n      jump\t// in\n    tag_79:\n      mload(0x40)\n      tag_81\n      swap2\n      swap1\n      tag_35\n      jump\t// in\n    tag_81:\n      mload(0x40)\n      dup1\n      swap2\n      sub\n      swap1\n      return\n        /* \"contracts/TokenStaking.sol\":1526:1558  uint256 public totalAmountStaked */\n    tag_18:\n      tag_82\n      tag_83\n      jump\t// in\n    tag_82:\n      mload(0x40)\n      tag_84\n      swap2\n      swap1\n      tag_35\n      jump\t// in\n    tag_84:\n      mload(0x40)\n      dup1\n      swap2\n      sub\n      swap1\n      return\n        /* \"contracts/TokenStaking.sol\":1565:1612  mapping(address => UserInfo) public userMapping */\n    tag_25:\n      mstore(0x20, 0x05)\n      dup1\n      0x00\n      mstore\n      keccak256(0x00, 0x40)\n      0x00\n      swap2\n      pop\n      swap1\n      pop\n      dup1\n      0x00\n      add\n      sload\n      swap1\n      dup1\n      0x01\n      add\n      sload\n      swap1\n      dup1\n      0x02\n      add\n      sload\n      swap1\n      dup1\n      0x03\n      add\n      sload\n      swap1\n      dup1\n      0x04\n      add\n      sload\n      swap1\n      pop\n      dup6\n      jump\t// out\n        /* \"contracts/TokenStaking.sol\":5322:6559  function unstake(uint stakeId) external nonReentrant {... */\n    tag_31:\n        /* \"@openzeppelin/contracts@4.7.0/security/ReentrancyGuard.sol\":1744:1745  2 */\n      0x02\n        /* \"@openzeppelin/contracts@4.7.0/security/ReentrancyGuard.sol\":2325:2332  _status */\n      sload(0x00)\n        /* \"@openzeppelin/contracts@4.7.0/security/ReentrancyGuard.sol\":2325:2344  _status != _ENTERED */\n      eq\n      iszero\n        /* \"@openzeppelin/contracts@4.7.0/security/ReentrancyGuard.sol\":2317:2380  require(_status != _ENTERED, \"ReentrancyGuard: reentrant call\") */\n      tag_86\n      jumpi\n      mload(0x40)\n      0x08c379a000000000000000000000000000000000000000000000000000000000\n      dup2\n      mstore\n      0x04\n      add\n      tag_87\n      swap1\n      tag_88\n      jump\t// in\n    tag_87:\n      mload(0x40)\n      dup1\n      swap2\n      sub\n      swap1\n      revert\n    tag_86:\n        /* \"@openzeppelin/contracts@4.7.0/security/ReentrancyGuard.sol\":1744:1745  2 */\n      0x02\n        /* \"@openzeppelin/contracts@4.7.0/security/ReentrancyGuard.sol\":2455:2462  _status */\n      0x00\n        /* \"@openzeppelin/contracts@4.7.0/security/ReentrancyGuard.sol\":2455:2473  _status = _ENTERED */\n      dup2\n      swap1\n      sstore\n      pop\n        /* \"contracts/TokenStaking.sol\":5386:5416  RedeemInfo memory redeemResult */\n      0x00\n        /* \"contracts/TokenStaking.sol\":5419:5459  calculateRedeemable(msg.sender, stakeId) */\n      tag_90\n        /* \"contracts/TokenStaking.sol\":5439:5449  msg.sender */\n      caller\n        /* \"contracts/TokenStaking.sol\":5451:5458  stakeId */\n      dup4\n        /* \"contracts/TokenStaking.sol\":5419:5438  calculateRedeemable */\n      tag_91\n        /* \"contracts/TokenStaking.sol\":5419:5459  calculateRedeemable(msg.sender, stakeId) */\n      jump\t// in\n    tag_90:\n        /* \"contracts/TokenStaking.sol\":5386:5459  RedeemInfo memory redeemResult = calculateRedeemable(msg.sender, stakeId) */\n      swap1\n      pop\n        /* \"contracts/TokenStaking.sol\":5519:5520  0 */\n      0x00\n        /* \"contracts/TokenStaking.sol\":5486:5498  redeemResult */\n      dup2\n        /* \"contracts/TokenStaking.sol\":5486:5515  redeemResult.redeemableAmount */\n      0x40\n      add\n      mload\n        /* \"contracts/TokenStaking.sol\":5486:5520  redeemResult.redeemableAmount == 0 */\n      eq\n        /* \"contracts/TokenStaking.sol\":5478:5558  require(redeemResult.redeemableAmount == 0, \"Unstake: Redeemable token unclaim\") */\n      tag_92\n      jumpi\n      mload(0x40)\n      0x08c379a000000000000000000000000000000000000000000000000000000000\n      dup2\n      mstore\n      0x04\n      add\n      tag_93\n      swap1\n      tag_94\n      jump\t// in\n    tag_93:\n      mload(0x40)\n      dup1\n      swap2\n      sub\n      swap1\n      revert\n    tag_92:\n        /* \"contracts/TokenStaking.sol\":5627:5628  0 */\n      0x00\n        /* \"contracts/TokenStaking.sol\":5577:5589  stakeMapping */\n      0x06\n        /* \"contracts/TokenStaking.sol\":5577:5601  stakeMapping[msg.sender] */\n      0x00\n        /* \"contracts/TokenStaking.sol\":5590:5600  msg.sender */\n      caller\n        /* \"contracts/TokenStaking.sol\":5577:5601  stakeMapping[msg.sender] */\n      0xffffffffffffffffffffffffffffffffffffffff\n      and\n      0xffffffffffffffffffffffffffffffffffffffff\n      and\n      dup2\n      mstore\n      0x20\n      add\n      swap1\n      dup2\n      mstore\n      0x20\n      add\n      0x00\n      keccak256\n        /* \"contracts/TokenStaking.sol\":5602:5609  stakeId */\n      dup4\n        /* \"contracts/TokenStaking.sol\":5577:5610  stakeMapping[msg.sender][stakeId] */\n      dup2\n      sload\n      dup2\n      lt\n      tag_95\n      jumpi\n      tag_96\n      tag_97\n      jump\t// in\n    tag_96:\n    tag_95:\n      swap1\n      0x00\n      mstore\n      keccak256(0x00, 0x20)\n      swap1\n      0x06\n      mul\n      add\n        /* \"contracts/TokenStaking.sol\":5577:5624  stakeMapping[msg.sender][stakeId].balanceAmount */\n      0x02\n      add\n      sload\n        /* \"contracts/TokenStaking.sol\":5577:5628  stakeMapping[msg.sender][stakeId].balanceAmount > 0 */\n      gt\n        /* \"contracts/TokenStaking.sol\":5569:5661  require(stakeMapping[msg.sender][stakeId].balanceAmount > 0, \"Withdraw: Amount must be > 0\") */\n      tag_99\n      jumpi\n      mload(0x40)\n      0x08c379a000000000000000000000000000000000000000000000000000000000\n      dup2\n      mstore\n      0x04\n      add\n      tag_100\n      swap1\n      tag_101\n      jump\t// in\n    tag_100:\n      mload(0x40)\n      dup1\n      swap2\n      sub\n      swap1\n      revert\n    tag_99:\n        /* \"contracts/TokenStaking.sol\":5672:5696  uint256 amountToTransfer */\n      0x00\n        /* \"contracts/TokenStaking.sol\":5699:5711  stakeMapping */\n      0x06\n        /* \"contracts/TokenStaking.sol\":5699:5723  stakeMapping[msg.sender] */\n      0x00\n        /* \"contracts/TokenStaking.sol\":5712:5722  msg.sender */\n      caller\n        /* \"contracts/TokenStaking.sol\":5699:5723  stakeMapping[msg.sender] */\n      0xffffffffffffffffffffffffffffffffffffffff\n      and\n      0xffffffffffffffffffffffffffffffffffffffff\n      and\n      dup2\n      mstore\n      0x20\n      add\n      swap1\n      dup2\n      mstore\n      0x20\n      add\n      0x00\n      keccak256\n        /* \"contracts/TokenStaking.sol\":5724:5731  stakeId */\n      dup4\n        /* \"contracts/TokenStaking.sol\":5699:5732  stakeMapping[msg.sender][stakeId] */\n      dup2\n      sload\n      dup2\n      lt\n      tag_102\n      jumpi\n      tag_103\n      tag_97\n      jump\t// in\n    tag_103:\n    tag_102:\n      swap1\n      0x00\n      mstore\n      keccak256(0x00, 0x20)\n      swap1\n      0x06\n      mul\n      add\n        /* \"contracts/TokenStaking.sol\":5699:5746  stakeMapping[msg.sender][stakeId].balanceAmount */\n      0x02\n      add\n      sload\n        /* \"contracts/TokenStaking.sol\":5672:5746  uint256 amountToTransfer = stakeMapping[msg.sender][stakeId].balanceAmount */\n      swap1\n      pop\n        /* \"contracts/TokenStaking.sol\":5843:5855  stakeMapping */\n      0x06\n        /* \"contracts/TokenStaking.sol\":5843:5867  stakeMapping[msg.sender] */\n      0x00\n        /* \"contracts/TokenStaking.sol\":5856:5866  msg.sender */\n      caller\n        /* \"contracts/TokenStaking.sol\":5843:5867  stakeMapping[msg.sender] */\n      0xffffffffffffffffffffffffffffffffffffffff\n      and\n      0xffffffffffffffffffffffffffffffffffffffff\n      and\n      dup2\n      mstore\n      0x20\n      add\n      swap1\n      dup2\n      mstore\n      0x20\n      add\n      0x00\n      keccak256\n        /* \"contracts/TokenStaking.sol\":5868:5875  stakeId */\n      dup4\n        /* \"contracts/TokenStaking.sol\":5843:5876  stakeMapping[msg.sender][stakeId] */\n      dup2\n      sload\n      dup2\n      lt\n      tag_105\n      jumpi\n      tag_106\n      tag_97\n      jump\t// in\n    tag_106:\n    tag_105:\n      swap1\n      0x00\n      mstore\n      keccak256(0x00, 0x20)\n      swap1\n      0x06\n      mul\n      add\n        /* \"contracts/TokenStaking.sol\":5843:5890  stakeMapping[msg.sender][stakeId].balanceAmount */\n      0x02\n      add\n      sload\n        /* \"contracts/TokenStaking.sol\":5823:5840  totalAmountStaked */\n      sload(0x04)\n        /* \"contracts/TokenStaking.sol\":5823:5890  totalAmountStaked - stakeMapping[msg.sender][stakeId].balanceAmount */\n      tag_108\n      swap2\n      swap1\n      tag_109\n      jump\t// in\n    tag_108:\n        /* \"contracts/TokenStaking.sol\":5803:5820  totalAmountStaked */\n      0x04\n        /* \"contracts/TokenStaking.sol\":5803:5890  totalAmountStaked = totalAmountStaked - stakeMapping[msg.sender][stakeId].balanceAmount */\n      dup2\n      swap1\n      sstore\n      pop\n        /* \"contracts/TokenStaking.sol\":5947:5959  stakeMapping */\n      0x06\n        /* \"contracts/TokenStaking.sol\":5947:5971  stakeMapping[msg.sender] */\n      0x00\n        /* \"contracts/TokenStaking.sol\":5960:5970  msg.sender */\n      caller\n        /* \"contracts/TokenStaking.sol\":5947:5971  stakeMapping[msg.sender] */\n      0xffffffffffffffffffffffffffffffffffffffff\n      and\n      0xffffffffffffffffffffffffffffffffffffffff\n      and\n      dup2\n      mstore\n      0x20\n      add\n      swap1\n      dup2\n      mstore\n      0x20\n      add\n      0x00\n      keccak256\n        /* \"contracts/TokenStaking.sol\":5972:5979  stakeId */\n      dup4\n        /* \"contracts/TokenStaking.sol\":5947:5980  stakeMapping[msg.sender][stakeId] */\n      dup2\n      sload\n      dup2\n      lt\n      tag_110\n      jumpi\n      tag_111\n      tag_97\n      jump\t// in\n    tag_111:\n    tag_110:\n      swap1\n      0x00\n      mstore\n      keccak256(0x00, 0x20)\n      swap1\n      0x06\n      mul\n      add\n        /* \"contracts/TokenStaking.sol\":5947:5994  stakeMapping[msg.sender][stakeId].balanceAmount */\n      0x02\n      add\n      sload\n        /* \"contracts/TokenStaking.sol\":5901:5912  userMapping */\n      0x05\n        /* \"contracts/TokenStaking.sol\":5901:5924  userMapping[msg.sender] */\n      0x00\n        /* \"contracts/TokenStaking.sol\":5913:5923  msg.sender */\n      caller\n        /* \"contracts/TokenStaking.sol\":5901:5924  userMapping[msg.sender] */\n      0xffffffffffffffffffffffffffffffffffffffff\n      and\n      0xffffffffffffffffffffffffffffffffffffffff\n      and\n      dup2\n      mstore\n      0x20\n      add\n      swap1\n      dup2\n      mstore\n      0x20\n      add\n      0x00\n      keccak256\n        /* \"contracts/TokenStaking.sol\":5901:5943  userMapping[msg.sender].totalInitialAmount */\n      0x00\n      add\n      0x00\n        /* \"contracts/TokenStaking.sol\":5901:5994  userMapping[msg.sender].totalInitialAmount -= stakeMapping[msg.sender][stakeId].balanceAmount */\n      dup3\n      dup3\n      sload\n      tag_113\n      swap2\n      swap1\n      tag_109\n      jump\t// in\n    tag_113:\n      swap3\n      pop\n      pop\n      dup2\n      swap1\n      sstore\n      pop\n        /* \"contracts/TokenStaking.sol\":6050:6062  stakeMapping */\n      0x06\n        /* \"contracts/TokenStaking.sol\":6050:6074  stakeMapping[msg.sender] */\n      0x00\n        /* \"contracts/TokenStaking.sol\":6063:6073  msg.sender */\n      caller\n        /* \"contracts/TokenStaking.sol\":6050:6074  stakeMapping[msg.sender] */\n      0xffffffffffffffffffffffffffffffffffffffff\n      and\n      0xffffffffffffffffffffffffffffffffffffffff\n      and\n      dup2\n      mstore\n      0x20\n      add\n      swap1\n      dup2\n      mstore\n      0x20\n      add\n      0x00\n      keccak256\n        /* \"contracts/TokenStaking.sol\":6075:6082  stakeId */\n      dup4\n        /* \"contracts/TokenStaking.sol\":6050:6083  stakeMapping[msg.sender][stakeId] */\n      dup2\n      sload\n      dup2\n      lt\n      tag_114\n      jumpi\n      tag_115\n      tag_97\n      jump\t// in\n    tag_115:\n    tag_114:\n      swap1\n      0x00\n      mstore\n      keccak256(0x00, 0x20)\n      swap1\n      0x06\n      mul\n      add\n        /* \"contracts/TokenStaking.sol\":6050:6097  stakeMapping[msg.sender][stakeId].balanceAmount */\n      0x02\n      add\n      sload\n        /* \"contracts/TokenStaking.sol\":6004:6015  userMapping */\n      0x05\n        /* \"contracts/TokenStaking.sol\":6004:6027  userMapping[msg.sender] */\n      0x00\n        /* \"contracts/TokenStaking.sol\":6016:6026  msg.sender */\n      caller\n        /* \"contracts/TokenStaking.sol\":6004:6027  userMapping[msg.sender] */\n      0xffffffffffffffffffffffffffffffffffffffff\n      and\n      0xffffffffffffffffffffffffffffffffffffffff\n      and\n      dup2\n      mstore\n      0x20\n      add\n      swap1\n      dup2\n      mstore\n      0x20\n      add\n      0x00\n      keccak256\n        /* \"contracts/TokenStaking.sol\":6004:6046  userMapping[msg.sender].totalBalanceAmount */\n      0x01\n      add\n      0x00\n        /* \"contracts/TokenStaking.sol\":6004:6097  userMapping[msg.sender].totalBalanceAmount -= stakeMapping[msg.sender][stakeId].balanceAmount */\n      dup3\n      dup3\n      sload\n      tag_117\n      swap2\n      swap1\n      tag_109\n      jump\t// in\n    tag_117:\n      swap3\n      pop\n      pop\n      dup2\n      swap1\n      sstore\n      pop\n        /* \"contracts/TokenStaking.sol\":6134:6146  stakeMapping */\n      0x06\n        /* \"contracts/TokenStaking.sol\":6134:6158  stakeMapping[msg.sender] */\n      0x00\n        /* \"contracts/TokenStaking.sol\":6147:6157  msg.sender */\n      caller\n        /* \"contracts/TokenStaking.sol\":6134:6158  stakeMapping[msg.sender] */\n      0xffffffffffffffffffffffffffffffffffffffff\n      and\n      0xffffffffffffffffffffffffffffffffffffffff\n      and\n      dup2\n      mstore\n      0x20\n      add\n      swap1\n      dup2\n      mstore\n      0x20\n      add\n      0x00\n      keccak256\n        /* \"contracts/TokenStaking.sol\":6159:6166  stakeId */\n      dup4\n        /* \"contracts/TokenStaking.sol\":6134:6167  stakeMapping[msg.sender][stakeId] */\n      dup2\n      sload\n      dup2\n      lt\n      tag_118\n      jumpi\n      tag_119\n      tag_97\n      jump\t// in\n    tag_119:\n    tag_118:\n      swap1\n      0x00\n      mstore\n      keccak256(0x00, 0x20)\n      swap1\n      0x06\n      mul\n      add\n        /* \"contracts/TokenStaking.sol\":6134:6181  stakeMapping[msg.sender][stakeId].balanceAmount */\n      0x02\n      add\n      sload\n        /* \"contracts/TokenStaking.sol\":6121:6131  stakeLimit */\n      sload(0x03)\n        /* \"contracts/TokenStaking.sol\":6121:6181  stakeLimit + stakeMapping[msg.sender][stakeId].balanceAmount */\n      tag_121\n      swap2\n      swap1\n      tag_122\n      jump\t// in\n    tag_121:\n        /* \"contracts/TokenStaking.sol\":6108:6118  stakeLimit */\n      0x03\n        /* \"contracts/TokenStaking.sol\":6108:6181  stakeLimit = stakeLimit + stakeMapping[msg.sender][stakeId].balanceAmount */\n      dup2\n      swap1\n      sstore\n      pop\n        /* \"contracts/TokenStaking.sol\":6196:6202  uint i */\n      0x00\n        /* \"contracts/TokenStaking.sol\":6205:6212  stakeId */\n      dup4\n        /* \"contracts/TokenStaking.sol\":6196:6212  uint i = stakeId */\n      swap1\n      pop\n        /* \"contracts/TokenStaking.sol\":6192:6351  for(uint i = stakeId; i < stakeMapping[msg.sender].length - 1; i++){... */\n    tag_123:\n        /* \"contracts/TokenStaking.sol\":6252:6253  1 */\n      0x01\n        /* \"contracts/TokenStaking.sol\":6218:6230  stakeMapping */\n      0x06\n        /* \"contracts/TokenStaking.sol\":6218:6242  stakeMapping[msg.sender] */\n      0x00\n        /* \"contracts/TokenStaking.sol\":6231:6241  msg.sender */\n      caller\n        /* \"contracts/TokenStaking.sol\":6218:6242  stakeMapping[msg.sender] */\n      0xffffffffffffffffffffffffffffffffffffffff\n      and\n      0xffffffffffffffffffffffffffffffffffffffff\n      and\n      dup2\n      mstore\n      0x20\n      add\n      swap1\n      dup2\n      mstore\n      0x20\n      add\n      0x00\n      keccak256\n        /* \"contracts/TokenStaking.sol\":6218:6249  stakeMapping[msg.sender].length */\n      dup1\n      sload\n      swap1\n      pop\n        /* \"contracts/TokenStaking.sol\":6218:6253  stakeMapping[msg.sender].length - 1 */\n      tag_126\n      swap2\n      swap1\n      tag_109\n      jump\t// in\n    tag_126:\n        /* \"contracts/TokenStaking.sol\":6214:6215  i */\n      dup2\n        /* \"contracts/TokenStaking.sol\":6214:6253  i < stakeMapping[msg.sender].length - 1 */\n      lt\n        /* \"contracts/TokenStaking.sol\":6192:6351  for(uint i = stakeId; i < stakeMapping[msg.sender].length - 1; i++){... */\n      iszero\n      tag_124\n      jumpi\n        /* \"contracts/TokenStaking.sol\":6303:6315  stakeMapping */\n      0x06\n        /* \"contracts/TokenStaking.sol\":6303:6327  stakeMapping[msg.sender] */\n      0x00\n        /* \"contracts/TokenStaking.sol\":6316:6326  msg.sender */\n      caller\n        /* \"contracts/TokenStaking.sol\":6303:6327  stakeMapping[msg.sender] */\n      0xffffffffffffffffffffffffffffffffffffffff\n      and\n      0xffffffffffffffffffffffffffffffffffffffff\n      and\n      dup2\n      mstore\n      0x20\n      add\n      swap1\n      dup2\n      mstore\n      0x20\n      add\n      0x00\n      keccak256\n        /* \"contracts/TokenStaking.sol\":6332:6333  1 */\n      0x01\n        /* \"contracts/TokenStaking.sol\":6328:6329  i */\n      dup3\n        /* \"contracts/TokenStaking.sol\":6328:6333  i + 1 */\n      tag_127\n      swap2\n      swap1\n      tag_122\n      jump\t// in\n    tag_127:\n        /* \"contracts/TokenStaking.sol\":6303:6334  stakeMapping[msg.sender][i + 1] */\n      dup2\n      sload\n      dup2\n      lt\n      tag_128\n      jumpi\n      tag_129\n      tag_97\n      jump\t// in\n    tag_129:\n    tag_128:\n      swap1\n      0x00\n      mstore\n      keccak256(0x00, 0x20)\n      swap1\n      0x06\n      mul\n      add\n        /* \"contracts/TokenStaking.sol\":6273:6285  stakeMapping */\n      0x06\n        /* \"contracts/TokenStaking.sol\":6273:6297  stakeMapping[msg.sender] */\n      0x00\n        /* \"contracts/TokenStaking.sol\":6286:6296  msg.sender */\n      caller\n        /* \"contracts/TokenStaking.sol\":6273:6297  stakeMapping[msg.sender] */\n      0xffffffffffffffffffffffffffffffffffffffff\n      and\n      0xffffffffffffffffffffffffffffffffffffffff\n      and\n      dup2\n      mstore\n      0x20\n      add\n      swap1\n      dup2\n      mstore\n      0x20\n      add\n      0x00\n      keccak256\n        /* \"contracts/TokenStaking.sol\":6298:6299  i */\n      dup3\n        /* \"contracts/TokenStaking.sol\":6273:6300  stakeMapping[msg.sender][i] */\n      dup2\n      sload\n      dup2\n      lt\n      tag_131\n      jumpi\n      tag_132\n      tag_97\n      jump\t// in\n    tag_132:\n    tag_131:\n      swap1\n      0x00\n      mstore\n      keccak256(0x00, 0x20)\n      swap1\n      0x06\n      mul\n      add\n        /* \"contracts/TokenStaking.sol\":6273:6334  stakeMapping[msg.sender][i] = stakeMapping[msg.sender][i + 1] */\n      0x00\n      dup3\n      add\n      sload\n      dup2\n      0x00\n      add\n      sstore\n      0x01\n      dup3\n      add\n      sload\n      dup2\n      0x01\n      add\n      sstore\n      0x02\n      dup3\n      add\n      sload\n      dup2\n      0x02\n      add\n      sstore\n      0x03\n      dup3\n      add\n      sload\n      dup2\n      0x03\n      add\n      sstore\n      0x04\n      dup3\n      add\n      sload\n      dup2\n      0x04\n      add\n      sstore\n      0x05\n      dup3\n      add\n      sload\n      dup2\n      0x05\n      add\n      sstore\n      swap1\n      pop\n      pop\n        /* \"contracts/TokenStaking.sol\":6255:6258  i++ */\n      dup1\n      dup1\n      tag_134\n      swap1\n      tag_135\n      jump\t// in\n    tag_134:\n      swap2\n      pop\n      pop\n        /* \"contracts/TokenStaking.sol\":6192:6351  for(uint i = stakeId; i < stakeMapping[msg.sender].length - 1; i++){... */\n      jump(tag_123)\n    tag_124:\n      pop\n        /* \"contracts/TokenStaking.sol\":6360:6372  stakeMapping */\n      0x06\n        /* \"contracts/TokenStaking.sol\":6360:6384  stakeMapping[msg.sender] */\n      0x00\n        /* \"contracts/TokenStaking.sol\":6373:6383  msg.sender */\n      caller\n        /* \"contracts/TokenStaking.sol\":6360:6384  stakeMapping[msg.sender] */\n      0xffffffffffffffffffffffffffffffffffffffff\n      and\n      0xffffffffffffffffffffffffffffffffffffffff\n      and\n      dup2\n      mstore\n      0x20\n      add\n      swap1\n      dup2\n      mstore\n      0x20\n      add\n      0x00\n      keccak256\n        /* \"contracts/TokenStaking.sol\":6360:6390  stakeMapping[msg.sender].pop() */\n      dup1\n      sload\n      dup1\n      tag_136\n      jumpi\n      tag_137\n      tag_138\n      jump\t// in\n    tag_137:\n    tag_136:\n      0x01\n      swap1\n      sub\n      dup2\n      dup2\n      swap1\n      0x00\n      mstore\n      keccak256(0x00, 0x20)\n      swap1\n      0x06\n      mul\n      add\n      0x00\n      dup1\n      dup3\n      add\n      0x00\n      swap1\n      sstore\n      0x01\n      dup3\n      add\n      0x00\n      swap1\n      sstore\n      0x02\n      dup3\n      add\n      0x00\n      swap1\n      sstore\n      0x03\n      dup3\n      add\n      0x00\n      swap1\n      sstore\n      0x04\n      dup3\n      add\n      0x00\n      swap1\n      sstore\n      0x05\n      dup3\n      add\n      0x00\n      swap1\n      sstore\n      pop\n      pop\n      swap1\n      sstore\n        /* \"contracts/TokenStaking.sol\":6447:6499  HackToken.safeTransfer(msg.sender, amountToTransfer) */\n      tag_140\n        /* \"contracts/TokenStaking.sol\":6470:6480  msg.sender */\n      caller\n        /* \"contracts/TokenStaking.sol\":6482:6498  amountToTransfer */\n      dup3\n        /* \"contracts/TokenStaking.sol\":6447:6456  HackToken */\n      immutable(\"0xcb8dea2ffab2268b31b9e4c08a2727c08f47205d0ab1e6e9f5077b89e0fb5b9d\")\n        /* \"contracts/TokenStaking.sol\":6447:6469  HackToken.safeTransfer */\n      0xffffffffffffffffffffffffffffffffffffffff\n      and\n      tag_141\n      swap1\n        /* \"contracts/TokenStaking.sol\":6447:6499  HackToken.safeTransfer(msg.sender, amountToTransfer) */\n      swap3\n      swap2\n      swap1\n      0xffffffff\n      and\n      jump\t// in\n    tag_140:\n        /* \"contracts/TokenStaking.sol\":6523:6533  msg.sender */\n      caller\n        /* \"contracts/TokenStaking.sol\":6515:6552  Unstake(msg.sender, amountToTransfer) */\n      0xffffffffffffffffffffffffffffffffffffffff\n      and\n      0x85082129d87b2fe11527cb1b3b7a520aeb5aa6913f88a3d8757fe40d1db02fdd\n        /* \"contracts/TokenStaking.sol\":6535:6551  amountToTransfer */\n      dup3\n        /* \"contracts/TokenStaking.sol\":6515:6552  Unstake(msg.sender, amountToTransfer) */\n      mload(0x40)\n      tag_142\n      swap2\n      swap1\n      tag_35\n      jump\t// in\n    tag_142:\n      mload(0x40)\n      dup1\n      swap2\n      sub\n      swap1\n      log2\n        /* \"contracts/TokenStaking.sol\":5375:6559  {... */\n      pop\n      pop\n        /* \"@openzeppelin/contracts@4.7.0/security/ReentrancyGuard.sol\":1701:1702  1 */\n      0x01\n        /* \"@openzeppelin/contracts@4.7.0/security/ReentrancyGuard.sol\":2628:2635  _status */\n      0x00\n        /* \"@openzeppelin/contracts@4.7.0/security/ReentrancyGuard.sol\":2628:2650  _status = _NOT_ENTERED */\n      dup2\n      swap1\n      sstore\n      pop\n        /* \"contracts/TokenStaking.sol\":5322:6559  function unstake(uint stakeId) external nonReentrant {... */\n      pop\n      jump\t// out\n        /* \"contracts/TokenStaking.sol\":1334:1388  uint256 public stakeLimit = 5000000 * PRECISION_FACTOR */\n    tag_33:\n      sload(0x03)\n      dup2\n      jump\t// out\n        /* \"contracts/TokenStaking.sol\":1297:1328  uint256 public interestRate = 9 */\n    tag_37:\n      sload(0x02)\n      dup2\n      jump\t// out\n        /* \"contracts/TokenStaking.sol\":6787:7243  function getRedeemableAmount(address account, uint256 index) external view returns (string[] memory, RedeemInfo memory) {... */\n    tag_42:\n        /* \"contracts/TokenStaking.sol\":6871:6886  string[] memory */\n      0x60\n        /* \"contracts/TokenStaking.sol\":6888:6905  RedeemInfo memory */\n      tag_143\n      tag_144\n      jump\t// in\n    tag_143:\n        /* \"contracts/TokenStaking.sol\":6918:6948  RedeemInfo memory redeemResult */\n      0x00\n        /* \"contracts/TokenStaking.sol\":6951:6986  calculateRedeemable(account, index) */\n      tag_146\n        /* \"contracts/TokenStaking.sol\":6971:6978  account */\n      dup6\n        /* \"contracts/TokenStaking.sol\":6980:6985  index */\n      dup6\n        /* \"contracts/TokenStaking.sol\":6951:6970  calculateRedeemable */\n      tag_91\n        /* \"contracts/TokenStaking.sol\":6951:6986  calculateRedeemable(account, index) */\n      jump\t// in\n    tag_146:\n        /* \"contracts/TokenStaking.sol\":6918:6986  RedeemInfo memory redeemResult = calculateRedeemable(account, index) */\n      swap1\n      pop\n        /* \"contracts/TokenStaking.sol\":6997:7022  string[]  memory category */\n      0x00\n        /* \"contracts/TokenStaking.sol\":7038:7039  3 */\n      0x03\n        /* \"contracts/TokenStaking.sol\":7025:7040  new string[](3) */\n      0xffffffffffffffff\n      dup2\n      gt\n      iszero\n      tag_147\n      jumpi\n      tag_148\n      tag_149\n      jump\t// in\n    tag_148:\n    tag_147:\n      mload(0x40)\n      swap1\n      dup1\n      dup3\n      mstore\n      dup1\n      0x20\n      mul\n      0x20\n      add\n      dup3\n      add\n      0x40\n      mstore\n      dup1\n      iszero\n      tag_150\n      jumpi\n      dup2\n      0x20\n      add\n    tag_151:\n      0x60\n      dup2\n      mstore\n      0x20\n      add\n      swap1\n      0x01\n      swap1\n      sub\n      swap1\n      dup2\n      tag_151\n      jumpi\n      swap1\n      pop\n    tag_150:\n      pop\n        /* \"contracts/TokenStaking.sol\":6997:7040  string[]  memory category = new string[](3) */\n      swap1\n      pop\n        /* \"contracts/TokenStaking.sol\":7064:7087  string('buybackAmount') */\n      mload(0x40)\n      dup1\n      0x40\n      add\n      0x40\n      mstore\n      dup1\n      0x0d\n      dup2\n      mstore\n      0x20\n      add\n      0x6275796261636b416d6f756e7400000000000000000000000000000000000000\n      dup2\n      mstore\n      pop\n        /* \"contracts/TokenStaking.sol\":7050:7058  category */\n      dup2\n        /* \"contracts/TokenStaking.sol\":7059:7060  0 */\n      0x00\n        /* \"contracts/TokenStaking.sol\":7050:7061  category[0] */\n      dup2\n      mload\n      dup2\n      lt\n      tag_152\n      jumpi\n      tag_153\n      tag_97\n      jump\t// in\n    tag_153:\n    tag_152:\n      0x20\n      mul\n      0x20\n      add\n      add\n        /* \"contracts/TokenStaking.sol\":7050:7087  category[0] = string('buybackAmount') */\n      dup2\n      swap1\n      mstore\n      pop\n        /* \"contracts/TokenStaking.sol\":7111:7135  string('interestAmount') */\n      mload(0x40)\n      dup1\n      0x40\n      add\n      0x40\n      mstore\n      dup1\n      0x0e\n      dup2\n      mstore\n      0x20\n      add\n      0x696e746572657374416d6f756e74000000000000000000000000000000000000\n      dup2\n      mstore\n      pop\n        /* \"contracts/TokenStaking.sol\":7097:7105  category */\n      dup2\n        /* \"contracts/TokenStaking.sol\":7106:7107  1 */\n      0x01\n        /* \"contracts/TokenStaking.sol\":7097:7108  category[1] */\n      dup2\n      mload\n      dup2\n      lt\n      tag_154\n      jumpi\n      tag_155\n      tag_97\n      jump\t// in\n    tag_155:\n    tag_154:\n      0x20\n      mul\n      0x20\n      add\n      add\n        /* \"contracts/TokenStaking.sol\":7097:7135  category[1] = string('interestAmount') */\n      dup2\n      swap1\n      mstore\n      pop\n        /* \"contracts/TokenStaking.sol\":7159:7185  string('redeemableAmount') */\n      mload(0x40)\n      dup1\n      0x40\n      add\n      0x40\n      mstore\n      dup1\n      0x10\n      dup2\n      mstore\n      0x20\n      add\n      0x72656465656d61626c65416d6f756e7400000000000000000000000000000000\n      dup2\n      mstore\n      pop\n        /* \"contracts/TokenStaking.sol\":7145:7153  category */\n      dup2\n        /* \"contracts/TokenStaking.sol\":7154:7155  2 */\n      0x02\n        /* \"contracts/TokenStaking.sol\":7145:7156  category[2] */\n      dup2\n      mload\n      dup2\n      lt\n      tag_156\n      jumpi\n      tag_157\n      tag_97\n      jump\t// in\n    tag_157:\n    tag_156:\n      0x20\n      mul\n      0x20\n      add\n      add\n        /* \"contracts/TokenStaking.sol\":7145:7185  category[2] = string('redeemableAmount') */\n      dup2\n      swap1\n      mstore\n      pop\n        /* \"contracts/TokenStaking.sol\":7204:7212  category */\n      dup1\n        /* \"contracts/TokenStaking.sol\":7214:7226  redeemResult */\n      dup3\n        /* \"contracts/TokenStaking.sol\":7196:7227  return (category, redeemResult) */\n      swap4\n      pop\n      swap4\n      pop\n      pop\n      pop\n        /* \"contracts/TokenStaking.sol\":6787:7243  function getRedeemableAmount(address account, uint256 index) external view returns (string[] memory, RedeemInfo memory) {... */\n      swap3\n      pop\n      swap3\n      swap1\n      pop\n      jump\t// out\n        /* \"contracts/TokenStaking.sol\":2967:5238  function redeemInterest() external nonReentrant {... */\n    tag_46:\n        /* \"@openzeppelin/contracts@4.7.0/security/ReentrancyGuard.sol\":1744:1745  2 */\n      0x02\n        /* \"@openzeppelin/contracts@4.7.0/security/ReentrancyGuard.sol\":2325:2332  _status */\n      sload(0x00)\n        /* \"@openzeppelin/contracts@4.7.0/security/ReentrancyGuard.sol\":2325:2344  _status != _ENTERED */\n      eq\n      iszero\n        /* \"@openzeppelin/contracts@4.7.0/security/ReentrancyGuard.sol\":2317:2380  require(_status != _ENTERED, \"ReentrancyGuard: reentrant call\") */\n      tag_159\n      jumpi\n      mload(0x40)\n      0x08c379a000000000000000000000000000000000000000000000000000000000\n      dup2\n      mstore\n      0x04\n      add\n      tag_160\n      swap1\n      tag_88\n      jump\t// in\n    tag_160:\n      mload(0x40)\n      dup1\n      swap2\n      sub\n      swap1\n      revert\n    tag_159:\n        /* \"@openzeppelin/contracts@4.7.0/security/ReentrancyGuard.sol\":1744:1745  2 */\n      0x02\n        /* \"@openzeppelin/contracts@4.7.0/security/ReentrancyGuard.sol\":2455:2462  _status */\n      0x00\n        /* \"@openzeppelin/contracts@4.7.0/security/ReentrancyGuard.sol\":2455:2473  _status = _ENTERED */\n      dup2\n      swap1\n      sstore\n      pop\n        /* \"contracts/TokenStaking.sol\":3026:3056  RedeemInfo memory redeemResult */\n      0x00\n        /* \"contracts/TokenStaking.sol\":3059:3095  calculateTotalRedeemable(msg.sender) */\n      tag_162\n        /* \"contracts/TokenStaking.sol\":3084:3094  msg.sender */\n      caller\n        /* \"contracts/TokenStaking.sol\":3059:3083  calculateTotalRedeemable */\n      tag_163\n        /* \"contracts/TokenStaking.sol\":3059:3095  calculateTotalRedeemable(msg.sender) */\n      jump\t// in\n    tag_162:\n        /* \"contracts/TokenStaking.sol\":3026:3095  RedeemInfo memory redeemResult = calculateTotalRedeemable(msg.sender) */\n      swap1\n      pop\n        /* \"contracts/TokenStaking.sol\":3155:3156  0 */\n      0x00\n        /* \"contracts/TokenStaking.sol\":3122:3134  redeemResult */\n      dup2\n        /* \"contracts/TokenStaking.sol\":3122:3151  redeemResult.redeemableAmount */\n      0x40\n      add\n      mload\n        /* \"contracts/TokenStaking.sol\":3122:3156  redeemResult.redeemableAmount != 0 */\n      eq\n      iszero\n        /* \"contracts/TokenStaking.sol\":3114:3188  require(redeemResult.redeemableAmount != 0, \"Interest: Nothing to redeem\") */\n      tag_164\n      jumpi\n      mload(0x40)\n      0x08c379a000000000000000000000000000000000000000000000000000000000\n      dup2\n      mstore\n      0x04\n      add\n      tag_165\n      swap1\n      tag_166\n      jump\t// in\n    tag_165:\n      mload(0x40)\n      dup1\n      swap2\n      sub\n      swap1\n      revert\n    tag_164:\n        /* \"contracts/TokenStaking.sol\":3234:3235  0 */\n      0x00\n        /* \"contracts/TokenStaking.sol\":3203:3215  redeemResult */\n      dup2\n        /* \"contracts/TokenStaking.sol\":3203:3230  redeemResult.interestAmount */\n      0x20\n      add\n      mload\n        /* \"contracts/TokenStaking.sol\":3203:3235  redeemResult.interestAmount != 0 */\n      eq\n        /* \"contracts/TokenStaking.sol\":3199:3333  if (redeemResult.interestAmount != 0) {... */\n      tag_167\n      jumpi\n        /* \"contracts/TokenStaking.sol\":3251:3268  HackInterestToken */\n      immutable(\"0x5002dac29dd1f5eca27c266c7f22886fef1ca01133bd005217e0a31b1b246599\")\n        /* \"contracts/TokenStaking.sol\":3251:3281  HackInterestToken.mintInterest */\n      0xffffffffffffffffffffffffffffffffffffffff\n      and\n      0x74920d30\n        /* \"contracts/TokenStaking.sol\":3282:3292  msg.sender */\n      caller\n        /* \"contracts/TokenStaking.sol\":3294:3306  redeemResult */\n      dup4\n        /* \"contracts/TokenStaking.sol\":3294:3321  redeemResult.interestAmount */\n      0x20\n      add\n      mload\n        /* \"contracts/TokenStaking.sol\":3251:3322  HackInterestToken.mintInterest(msg.sender, redeemResult.interestAmount) */\n      mload(0x40)\n      dup4\n      0xffffffff\n      and\n      0xe0\n      shl\n      dup2\n      mstore\n      0x04\n      add\n      tag_168\n      swap3\n      swap2\n      swap1\n      tag_169\n      jump\t// in\n    tag_168:\n      0x20\n      mload(0x40)\n      dup1\n      dup4\n      sub\n      dup2\n      0x00\n      dup8\n      dup1\n      extcodesize\n      iszero\n      dup1\n      iszero\n      tag_170\n      jumpi\n      0x00\n      dup1\n      revert\n    tag_170:\n      pop\n      gas\n      call\n      iszero\n      dup1\n      iszero\n      tag_172\n      jumpi\n      returndatasize\n      0x00\n      dup1\n      returndatacopy\n      revert(0x00, returndatasize)\n    tag_172:\n      pop\n      pop\n      pop\n      pop\n      mload(0x40)\n      returndatasize\n      not(0x1f)\n      0x1f\n      dup3\n      add\n      and\n      dup3\n      add\n      dup1\n      0x40\n      mstore\n      pop\n      dup2\n      add\n      swap1\n      tag_173\n      swap2\n      swap1\n      tag_174\n      jump\t// in\n    tag_173:\n      pop\n        /* \"contracts/TokenStaking.sol\":3199:3333  if (redeemResult.interestAmount != 0) {... */\n    tag_167:\n        /* \"contracts/TokenStaking.sol\":3378:3379  0 */\n      0x00\n        /* \"contracts/TokenStaking.sol\":3348:3360  redeemResult */\n      dup2\n        /* \"contracts/TokenStaking.sol\":3348:3374  redeemResult.buybackAmount */\n      0x00\n      add\n      mload\n        /* \"contracts/TokenStaking.sol\":3348:3379  redeemResult.buybackAmount != 0 */\n      eq\n        /* \"contracts/TokenStaking.sol\":3344:3468  if (redeemResult.buybackAmount != 0) {... */\n      tag_175\n      jumpi\n        /* \"contracts/TokenStaking.sol\":3395:3457  HackToken.safeTransfer(msg.sender, redeemResult.buybackAmount) */\n      tag_176\n        /* \"contracts/TokenStaking.sol\":3418:3428  msg.sender */\n      caller\n        /* \"contracts/TokenStaking.sol\":3430:3442  redeemResult */\n      dup3\n        /* \"contracts/TokenStaking.sol\":3430:3456  redeemResult.buybackAmount */\n      0x00\n      add\n      mload\n        /* \"contracts/TokenStaking.sol\":3395:3404  HackToken */\n      immutable(\"0xcb8dea2ffab2268b31b9e4c08a2727c08f47205d0ab1e6e9f5077b89e0fb5b9d\")\n        /* \"contracts/TokenStaking.sol\":3395:3417  HackToken.safeTransfer */\n      0xffffffffffffffffffffffffffffffffffffffff\n      and\n      tag_141\n      swap1\n        /* \"contracts/TokenStaking.sol\":3395:3457  HackToken.safeTransfer(msg.sender, redeemResult.buybackAmount) */\n      swap3\n      swap2\n      swap1\n      0xffffffff\n      and\n      jump\t// in\n    tag_176:\n        /* \"contracts/TokenStaking.sol\":3344:3468  if (redeemResult.buybackAmount != 0) {... */\n    tag_175:\n        /* \"contracts/TokenStaking.sol\":3487:3496  HackToken */\n      immutable(\"0xcb8dea2ffab2268b31b9e4c08a2727c08f47205d0ab1e6e9f5077b89e0fb5b9d\")\n        /* \"contracts/TokenStaking.sol\":3487:3510  HackToken.burnTokenFrom */\n      0xffffffffffffffffffffffffffffffffffffffff\n      and\n      0x71c2fc9e\n        /* \"contracts/TokenStaking.sol\":3511:3521  msg.sender */\n      caller\n        /* \"contracts/TokenStaking.sol\":3523:3535  redeemResult */\n      dup4\n        /* \"contracts/TokenStaking.sol\":3523:3549  redeemResult.buybackAmount */\n      0x00\n      add\n      mload\n        /* \"contracts/TokenStaking.sol\":3487:3550  HackToken.burnTokenFrom(msg.sender, redeemResult.buybackAmount) */\n      mload(0x40)\n      dup4\n      0xffffffff\n      and\n      0xe0\n      shl\n      dup2\n      mstore\n      0x04\n      add\n      tag_177\n      swap3\n      swap2\n      swap1\n      tag_169\n      jump\t// in\n    tag_177:\n      0x20\n      mload(0x40)\n      dup1\n      dup4\n      sub\n      dup2\n      0x00\n      dup8\n      dup1\n      extcodesize\n      iszero\n      dup1\n      iszero\n      tag_178\n      jumpi\n      0x00\n      dup1\n      revert\n    tag_178:\n      pop\n      gas\n      call\n      iszero\n      dup1\n      iszero\n      tag_180\n      jumpi\n      returndatasize\n      0x00\n      dup1\n      returndatacopy\n      revert(0x00, returndatasize)\n    tag_180:\n      pop\n      pop\n      pop\n      pop\n      mload(0x40)\n      returndatasize\n      not(0x1f)\n      0x1f\n      dup3\n      add\n      and\n      dup3\n      add\n      dup1\n      0x40\n      mstore\n      pop\n      dup2\n      add\n      swap1\n      tag_181\n      swap2\n      swap1\n      tag_174\n      jump\t// in\n    tag_181:\n      pop\n        /* \"contracts/TokenStaking.sol\":3560:3577  HackInterestToken */\n      immutable(\"0x5002dac29dd1f5eca27c266c7f22886fef1ca01133bd005217e0a31b1b246599\")\n        /* \"contracts/TokenStaking.sol\":3560:3591  HackInterestToken.burnTokenFrom */\n      0xffffffffffffffffffffffffffffffffffffffff\n      and\n      0x71c2fc9e\n        /* \"contracts/TokenStaking.sol\":3592:3602  msg.sender */\n      caller\n        /* \"contracts/TokenStaking.sol\":3604:3616  redeemResult */\n      dup4\n        /* \"contracts/TokenStaking.sol\":3604:3631  redeemResult.interestAmount */\n      0x20\n      add\n      mload\n        /* \"contracts/TokenStaking.sol\":3560:3632  HackInterestToken.burnTokenFrom(msg.sender, redeemResult.interestAmount) */\n      mload(0x40)\n      dup4\n      0xffffffff\n      and\n      0xe0\n      shl\n      dup2\n      mstore\n      0x04\n      add\n      tag_182\n      swap3\n      swap2\n      swap1\n      tag_169\n      jump\t// in\n    tag_182:\n      0x20\n      mload(0x40)\n      dup1\n      dup4\n      sub\n      dup2\n      0x00\n      dup8\n      dup1\n      extcodesize\n      iszero\n      dup1\n      iszero\n      tag_183\n      jumpi\n      0x00\n      dup1\n      revert\n    tag_183:\n      pop\n      gas\n      call\n      iszero\n      dup1\n      iszero\n      tag_185\n      jumpi\n      returndatasize\n      0x00\n      dup1\n      returndatacopy\n      revert(0x00, returndatasize)\n    tag_185:\n      pop\n      pop\n      pop\n      pop\n      mload(0x40)\n      returndatasize\n      not(0x1f)\n      0x1f\n      dup3\n      add\n      and\n      dup3\n      add\n      dup1\n      0x40\n      mstore\n      pop\n      dup2\n      add\n      swap1\n      tag_186\n      swap2\n      swap1\n      tag_174\n      jump\t// in\n    tag_186:\n      pop\n        /* \"contracts/TokenStaking.sol\":3648:3654  uint i */\n      0x00\n        /* \"contracts/TokenStaking.sol\":3643:5190  for (uint i = 0; i < stakeMapping[msg.sender].length; i++) {... */\n    tag_187:\n        /* \"contracts/TokenStaking.sol\":3664:3676  stakeMapping */\n      0x06\n        /* \"contracts/TokenStaking.sol\":3664:3688  stakeMapping[msg.sender] */\n      0x00\n        /* \"contracts/TokenStaking.sol\":3677:3687  msg.sender */\n      caller\n        /* \"contracts/TokenStaking.sol\":3664:3688  stakeMapping[msg.sender] */\n      0xffffffffffffffffffffffffffffffffffffffff\n      and\n      0xffffffffffffffffffffffffffffffffffffffff\n      and\n      dup2\n      mstore\n      0x20\n      add\n      swap1\n      dup2\n      mstore\n      0x20\n      add\n      0x00\n      keccak256\n        /* \"contracts/TokenStaking.sol\":3664:3695  stakeMapping[msg.sender].length */\n      dup1\n      sload\n      swap1\n      pop\n        /* \"contracts/TokenStaking.sol\":3660:3661  i */\n      dup2\n        /* \"contracts/TokenStaking.sol\":3660:3695  i < stakeMapping[msg.sender].length */\n      lt\n        /* \"contracts/TokenStaking.sol\":3643:5190  for (uint i = 0; i < stakeMapping[msg.sender].length; i++) {... */\n      iszero\n      tag_188\n      jumpi\n        /* \"contracts/TokenStaking.sol\":3716:3733  uint buybackCount */\n      0x00\n        /* \"contracts/TokenStaking.sol\":3802:3812  86400 * 30 */\n      0x278d00\n        /* \"contracts/TokenStaking.sol\":3759:3771  stakeMapping */\n      0x06\n        /* \"contracts/TokenStaking.sol\":3759:3783  stakeMapping[msg.sender] */\n      0x00\n        /* \"contracts/TokenStaking.sol\":3772:3782  msg.sender */\n      caller\n        /* \"contracts/TokenStaking.sol\":3759:3783  stakeMapping[msg.sender] */\n      0xffffffffffffffffffffffffffffffffffffffff\n      and\n      0xffffffffffffffffffffffffffffffffffffffff\n      and\n      dup2\n      mstore\n      0x20\n      add\n      swap1\n      dup2\n      mstore\n      0x20\n      add\n      0x00\n      keccak256\n        /* \"contracts/TokenStaking.sol\":3784:3785  i */\n      dup4\n        /* \"contracts/TokenStaking.sol\":3759:3786  stakeMapping[msg.sender][i] */\n      dup2\n      sload\n      dup2\n      lt\n      tag_190\n      jumpi\n      tag_191\n      tag_97\n      jump\t// in\n    tag_191:\n    tag_190:\n      swap1\n      0x00\n      mstore\n      keccak256(0x00, 0x20)\n      swap1\n      0x06\n      mul\n      add\n        /* \"contracts/TokenStaking.sol\":3759:3797  stakeMapping[msg.sender][i].dateStaked */\n      0x00\n      add\n      sload\n        /* \"contracts/TokenStaking.sol\":3741:3756  block.timestamp */\n      timestamp\n        /* \"contracts/TokenStaking.sol\":3741:3797  block.timestamp - stakeMapping[msg.sender][i].dateStaked */\n      tag_193\n      swap2\n      swap1\n      tag_109\n      jump\t// in\n    tag_193:\n        /* \"contracts/TokenStaking.sol\":3736:3813  uint(block.timestamp - stakeMapping[msg.sender][i].dateStaked) / (86400 * 30) */\n      tag_194\n      swap2\n      swap1\n      tag_195\n      jump\t// in\n    tag_194:\n        /* \"contracts/TokenStaking.sol\":3716:3813  uint buybackCount = uint(block.timestamp - stakeMapping[msg.sender][i].dateStaked) / (86400 * 30) */\n      swap1\n      pop\n        /* \"contracts/TokenStaking.sol\":3853:3864  buybackRate */\n      sload(0x01)\n        /* \"contracts/TokenStaking.sol\":3847:3850  100 */\n      0x64\n        /* \"contracts/TokenStaking.sol\":3847:3864  100 / buybackRate */\n      tag_196\n      swap2\n      swap1\n      tag_195\n      jump\t// in\n    tag_196:\n        /* \"contracts/TokenStaking.sol\":3831:3843  buybackCount */\n      dup2\n        /* \"contracts/TokenStaking.sol\":3831:3865  buybackCount > (100 / buybackRate) */\n      gt\n        /* \"contracts/TokenStaking.sol\":3827:3933  if (buybackCount > (100 / buybackRate) ) {... */\n      iszero\n      tag_197\n      jumpi\n        /* \"contracts/TokenStaking.sol\":3907:3918  buybackRate */\n      sload(0x01)\n        /* \"contracts/TokenStaking.sol\":3901:3904  100 */\n      0x64\n        /* \"contracts/TokenStaking.sol\":3901:3918  100 / buybackRate */\n      tag_198\n      swap2\n      swap1\n      tag_195\n      jump\t// in\n    tag_198:\n        /* \"contracts/TokenStaking.sol\":3886:3918  buybackCount = 100 / buybackRate */\n      swap1\n      pop\n        /* \"contracts/TokenStaking.sol\":3827:3933  if (buybackCount > (100 / buybackRate) ) {... */\n    tag_197:\n        /* \"contracts/TokenStaking.sol\":3946:3958  uint buyback */\n      0x00\n        /* \"contracts/TokenStaking.sol\":4040:4043  100 */\n      0x64\n        /* \"contracts/TokenStaking.sol\":4024:4036  buybackCount */\n      dup3\n        /* \"contracts/TokenStaking.sol\":3980:3992  stakeMapping */\n      0x06\n        /* \"contracts/TokenStaking.sol\":3980:4004  stakeMapping[msg.sender] */\n      0x00\n        /* \"contracts/TokenStaking.sol\":3993:4003  msg.sender */\n      caller\n        /* \"contracts/TokenStaking.sol\":3980:4004  stakeMapping[msg.sender] */\n      0xffffffffffffffffffffffffffffffffffffffff\n      and\n      0xffffffffffffffffffffffffffffffffffffffff\n      and\n      dup2\n      mstore\n      0x20\n      add\n      swap1\n      dup2\n      mstore\n      0x20\n      add\n      0x00\n      keccak256\n        /* \"contracts/TokenStaking.sol\":4005:4006  i */\n      dup6\n        /* \"contracts/TokenStaking.sol\":3980:4007  stakeMapping[msg.sender][i] */\n      dup2\n      sload\n      dup2\n      lt\n      tag_199\n      jumpi\n      tag_200\n      tag_97\n      jump\t// in\n    tag_200:\n    tag_199:\n      swap1\n      0x00\n      mstore\n      keccak256(0x00, 0x20)\n      swap1\n      0x06\n      mul\n      add\n        /* \"contracts/TokenStaking.sol\":3980:4021  stakeMapping[msg.sender][i].initialAmount */\n      0x01\n      add\n      sload\n        /* \"contracts/TokenStaking.sol\":3966:3977  buybackRate */\n      sload(0x01)\n        /* \"contracts/TokenStaking.sol\":3966:4021  buybackRate * stakeMapping[msg.sender][i].initialAmount */\n      tag_202\n      swap2\n      swap1\n      tag_203\n      jump\t// in\n    tag_202:\n        /* \"contracts/TokenStaking.sol\":3966:4036  buybackRate * stakeMapping[msg.sender][i].initialAmount * buybackCount */\n      tag_204\n      swap2\n      swap1\n      tag_203\n      jump\t// in\n    tag_204:\n        /* \"contracts/TokenStaking.sol\":3961:4043  uint(buybackRate * stakeMapping[msg.sender][i].initialAmount * buybackCount) / 100 */\n      tag_205\n      swap2\n      swap1\n      tag_195\n      jump\t// in\n    tag_205:\n        /* \"contracts/TokenStaking.sol\":3946:4043  uint buyback = uint(buybackRate * stakeMapping[msg.sender][i].initialAmount * buybackCount) / 100 */\n      swap1\n      pop\n        /* \"contracts/TokenStaking.sol\":4058:4070  uint balance */\n      0x00\n        /* \"contracts/TokenStaking.sol\":4073:4085  stakeMapping */\n      0x06\n        /* \"contracts/TokenStaking.sol\":4073:4097  stakeMapping[msg.sender] */\n      0x00\n        /* \"contracts/TokenStaking.sol\":4086:4096  msg.sender */\n      caller\n        /* \"contracts/TokenStaking.sol\":4073:4097  stakeMapping[msg.sender] */\n      0xffffffffffffffffffffffffffffffffffffffff\n      and\n      0xffffffffffffffffffffffffffffffffffffffff\n      and\n      dup2\n      mstore\n      0x20\n      add\n      swap1\n      dup2\n      mstore\n      0x20\n      add\n      0x00\n      keccak256\n        /* \"contracts/TokenStaking.sol\":4098:4099  i */\n      dup5\n        /* \"contracts/TokenStaking.sol\":4073:4100  stakeMapping[msg.sender][i] */\n      dup2\n      sload\n      dup2\n      lt\n      tag_206\n      jumpi\n      tag_207\n      tag_97\n      jump\t// in\n    tag_207:\n    tag_206:\n      swap1\n      0x00\n      mstore\n      keccak256(0x00, 0x20)\n      swap1\n      0x06\n      mul\n      add\n        /* \"contracts/TokenStaking.sol\":4073:4114  stakeMapping[msg.sender][i].initialAmount */\n      0x01\n      add\n      sload\n        /* \"contracts/TokenStaking.sol\":4058:4114  uint balance = stakeMapping[msg.sender][i].initialAmount */\n      swap1\n      pop\n        /* \"contracts/TokenStaking.sol\":4128:4141  uint interest */\n      0x00\n        /* \"contracts/TokenStaking.sol\":4164:4170  uint j */\n      dup1\n        /* \"contracts/TokenStaking.sol\":4159:4381  for (uint j = 0; j < buybackCount; j++) {... */\n    tag_209:\n        /* \"contracts/TokenStaking.sol\":4180:4192  buybackCount */\n      dup5\n        /* \"contracts/TokenStaking.sol\":4176:4177  j */\n      dup2\n        /* \"contracts/TokenStaking.sol\":4176:4192  j < buybackCount */\n      lt\n        /* \"contracts/TokenStaking.sol\":4159:4381  for (uint j = 0; j < buybackCount; j++) {... */\n      iszero\n      tag_210\n      jumpi\n        /* \"contracts/TokenStaking.sol\":4266:4268  12 */\n      0x0c\n        /* \"contracts/TokenStaking.sol\":4260:4263  100 */\n      0x64\n        /* \"contracts/TokenStaking.sol\":4249:4256  balance */\n      dup5\n        /* \"contracts/TokenStaking.sol\":4234:4246  interestRate */\n      sload(0x02)\n        /* \"contracts/TokenStaking.sol\":4234:4256  interestRate * balance */\n      tag_212\n      swap2\n      swap1\n      tag_203\n      jump\t// in\n    tag_212:\n        /* \"contracts/TokenStaking.sol\":4229:4263  uint(interestRate * balance) / 100 */\n      tag_213\n      swap2\n      swap1\n      tag_195\n      jump\t// in\n    tag_213:\n        /* \"contracts/TokenStaking.sol\":4229:4268  uint(interestRate * balance) / 100 / 12 */\n      tag_214\n      swap2\n      swap1\n      tag_195\n      jump\t// in\n    tag_214:\n        /* \"contracts/TokenStaking.sol\":4217:4268  interest += uint(interestRate * balance) / 100 / 12 */\n      dup3\n      tag_215\n      swap2\n      swap1\n      tag_122\n      jump\t// in\n    tag_215:\n      swap2\n      pop\n        /* \"contracts/TokenStaking.sol\":4363:4366  100 */\n      0x64\n        /* \"contracts/TokenStaking.sol\":4318:4330  stakeMapping */\n      0x06\n        /* \"contracts/TokenStaking.sol\":4318:4342  stakeMapping[msg.sender] */\n      0x00\n        /* \"contracts/TokenStaking.sol\":4331:4341  msg.sender */\n      caller\n        /* \"contracts/TokenStaking.sol\":4318:4342  stakeMapping[msg.sender] */\n      0xffffffffffffffffffffffffffffffffffffffff\n      and\n      0xffffffffffffffffffffffffffffffffffffffff\n      and\n      dup2\n      mstore\n      0x20\n      add\n      swap1\n      dup2\n      mstore\n      0x20\n      add\n      0x00\n      keccak256\n        /* \"contracts/TokenStaking.sol\":4343:4344  i */\n      dup8\n        /* \"contracts/TokenStaking.sol\":4318:4345  stakeMapping[msg.sender][i] */\n      dup2\n      sload\n      dup2\n      lt\n      tag_216\n      jumpi\n      tag_217\n      tag_97\n      jump\t// in\n    tag_217:\n    tag_216:\n      swap1\n      0x00\n      mstore\n      keccak256(0x00, 0x20)\n      swap1\n      0x06\n      mul\n      add\n        /* \"contracts/TokenStaking.sol\":4318:4359  stakeMapping[msg.sender][i].initialAmount */\n      0x01\n      add\n      sload\n        /* \"contracts/TokenStaking.sol\":4304:4315  buybackRate */\n      sload(0x01)\n        /* \"contracts/TokenStaking.sol\":4304:4359  buybackRate * stakeMapping[msg.sender][i].initialAmount */\n      tag_219\n      swap2\n      swap1\n      tag_203\n      jump\t// in\n    tag_219:\n        /* \"contracts/TokenStaking.sol\":4299:4366  uint(buybackRate * stakeMapping[msg.sender][i].initialAmount) / 100 */\n      tag_220\n      swap2\n      swap1\n      tag_195\n      jump\t// in\n    tag_220:\n        /* \"contracts/TokenStaking.sol\":4288:4366  balance -= uint(buybackRate * stakeMapping[msg.sender][i].initialAmount) / 100 */\n      dup4\n      tag_221\n      swap2\n      swap1\n      tag_109\n      jump\t// in\n    tag_221:\n      swap3\n      pop\n        /* \"contracts/TokenStaking.sol\":4194:4197  j++ */\n      dup1\n      dup1\n      tag_222\n      swap1\n      tag_135\n      jump\t// in\n    tag_222:\n      swap2\n      pop\n      pop\n        /* \"contracts/TokenStaking.sol\":4159:4381  for (uint j = 0; j < buybackCount; j++) {... */\n      jump(tag_209)\n    tag_210:\n      pop\n        /* \"contracts/TokenStaking.sol\":4394:4412  uint buybackAmount */\n      0x00\n        /* \"contracts/TokenStaking.sol\":4425:4437  stakeMapping */\n      0x06\n        /* \"contracts/TokenStaking.sol\":4425:4449  stakeMapping[msg.sender] */\n      0x00\n        /* \"contracts/TokenStaking.sol\":4438:4448  msg.sender */\n      caller\n        /* \"contracts/TokenStaking.sol\":4425:4449  stakeMapping[msg.sender] */\n      0xffffffffffffffffffffffffffffffffffffffff\n      and\n      0xffffffffffffffffffffffffffffffffffffffff\n      and\n      dup2\n      mstore\n      0x20\n      add\n      swap1\n      dup2\n      mstore\n      0x20\n      add\n      0x00\n      keccak256\n        /* \"contracts/TokenStaking.sol\":4450:4451  i */\n      dup7\n        /* \"contracts/TokenStaking.sol\":4425:4452  stakeMapping[msg.sender][i] */\n      dup2\n      sload\n      dup2\n      lt\n      tag_223\n      jumpi\n      tag_224\n      tag_97\n      jump\t// in\n    tag_224:\n    tag_223:\n      swap1\n      0x00\n      mstore\n      keccak256(0x00, 0x20)\n      swap1\n      0x06\n      mul\n      add\n        /* \"contracts/TokenStaking.sol\":4425:4466  stakeMapping[msg.sender][i].buybackAmount */\n      0x05\n      add\n      sload\n        /* \"contracts/TokenStaking.sol\":4415:4422  buyback */\n      dup5\n        /* \"contracts/TokenStaking.sol\":4415:4466  buyback - stakeMapping[msg.sender][i].buybackAmount */\n      tag_226\n      swap2\n      swap1\n      tag_109\n      jump\t// in\n    tag_226:\n        /* \"contracts/TokenStaking.sol\":4394:4466  uint buybackAmount = buyback - stakeMapping[msg.sender][i].buybackAmount */\n      swap1\n      pop\n        /* \"contracts/TokenStaking.sol\":4480:4499  uint interestAmount */\n      0x00\n        /* \"contracts/TokenStaking.sol\":4513:4525  stakeMapping */\n      0x06\n        /* \"contracts/TokenStaking.sol\":4513:4537  stakeMapping[msg.sender] */\n      0x00\n        /* \"contracts/TokenStaking.sol\":4526:4536  msg.sender */\n      caller\n        /* \"contracts/TokenStaking.sol\":4513:4537  stakeMapping[msg.sender] */\n      0xffffffffffffffffffffffffffffffffffffffff\n      and\n      0xffffffffffffffffffffffffffffffffffffffff\n      and\n      dup2\n      mstore\n      0x20\n      add\n      swap1\n      dup2\n      mstore\n      0x20\n      add\n      0x00\n      keccak256\n        /* \"contracts/TokenStaking.sol\":4538:4539  i */\n      dup8\n        /* \"contracts/TokenStaking.sol\":4513:4540  stakeMapping[msg.sender][i] */\n      dup2\n      sload\n      dup2\n      lt\n      tag_227\n      jumpi\n      tag_228\n      tag_97\n      jump\t// in\n    tag_228:\n    tag_227:\n      swap1\n      0x00\n      mstore\n      keccak256(0x00, 0x20)\n      swap1\n      0x06\n      mul\n      add\n        /* \"contracts/TokenStaking.sol\":4513:4555  stakeMapping[msg.sender][i].interestAmount */\n      0x04\n      add\n      sload\n        /* \"contracts/TokenStaking.sol\":4502:4510  interest */\n      dup4\n        /* \"contracts/TokenStaking.sol\":4502:4555  interest - stakeMapping[msg.sender][i].interestAmount */\n      tag_230\n      swap2\n      swap1\n      tag_109\n      jump\t// in\n    tag_230:\n        /* \"contracts/TokenStaking.sol\":4480:4555  uint interestAmount = interest - stakeMapping[msg.sender][i].interestAmount */\n      swap1\n      pop\n        /* \"contracts/TokenStaking.sol\":4615:4628  buybackAmount */\n      dup2\n        /* \"contracts/TokenStaking.sol\":4570:4582  stakeMapping */\n      0x06\n        /* \"contracts/TokenStaking.sol\":4570:4594  stakeMapping[msg.sender] */\n      0x00\n        /* \"contracts/TokenStaking.sol\":4583:4593  msg.sender */\n      caller\n        /* \"contracts/TokenStaking.sol\":4570:4594  stakeMapping[msg.sender] */\n      0xffffffffffffffffffffffffffffffffffffffff\n      and\n      0xffffffffffffffffffffffffffffffffffffffff\n      and\n      dup2\n      mstore\n      0x20\n      add\n      swap1\n      dup2\n      mstore\n      0x20\n      add\n      0x00\n      keccak256\n        /* \"contracts/TokenStaking.sol\":4595:4596  i */\n      dup9\n        /* \"contracts/TokenStaking.sol\":4570:4597  stakeMapping[msg.sender][i] */\n      dup2\n      sload\n      dup2\n      lt\n      tag_231\n      jumpi\n      tag_232\n      tag_97\n      jump\t// in\n    tag_232:\n    tag_231:\n      swap1\n      0x00\n      mstore\n      keccak256(0x00, 0x20)\n      swap1\n      0x06\n      mul\n      add\n        /* \"contracts/TokenStaking.sol\":4570:4611  stakeMapping[msg.sender][i].balanceAmount */\n      0x02\n      add\n      0x00\n        /* \"contracts/TokenStaking.sol\":4570:4628  stakeMapping[msg.sender][i].balanceAmount -= buybackAmount */\n      dup3\n      dup3\n      sload\n      tag_234\n      swap2\n      swap1\n      tag_109\n      jump\t// in\n    tag_234:\n      swap3\n      pop\n      pop\n      dup2\n      swap1\n      sstore\n      pop\n        /* \"contracts/TokenStaking.sol\":4688:4701  buybackAmount */\n      dup2\n        /* \"contracts/TokenStaking.sol\":4642:4653  userMapping */\n      0x05\n        /* \"contracts/TokenStaking.sol\":4642:4665  userMapping[msg.sender] */\n      0x00\n        /* \"contracts/TokenStaking.sol\":4654:4664  msg.sender */\n      caller\n        /* \"contracts/TokenStaking.sol\":4642:4665  userMapping[msg.sender] */\n      0xffffffffffffffffffffffffffffffffffffffff\n      and\n      0xffffffffffffffffffffffffffffffffffffffff\n      and\n      dup2\n      mstore\n      0x20\n      add\n      swap1\n      dup2\n      mstore\n      0x20\n      add\n      0x00\n      keccak256\n        /* \"contracts/TokenStaking.sol\":4642:4684  userMapping[msg.sender].totalBalanceAmount */\n      0x01\n      add\n      0x00\n        /* \"contracts/TokenStaking.sol\":4642:4701  userMapping[msg.sender].totalBalanceAmount -= buybackAmount */\n      dup3\n      dup3\n      sload\n      tag_235\n      swap2\n      swap1\n      tag_109\n      jump\t// in\n    tag_235:\n      swap3\n      pop\n      pop\n      dup2\n      swap1\n      sstore\n      pop\n        /* \"contracts/TokenStaking.sol\":4762:4776  interestAmount */\n      dup1\n        /* \"contracts/TokenStaking.sol\":4716:4728  stakeMapping */\n      0x06\n        /* \"contracts/TokenStaking.sol\":4716:4740  stakeMapping[msg.sender] */\n      0x00\n        /* \"contracts/TokenStaking.sol\":4729:4739  msg.sender */\n      caller\n        /* \"contracts/TokenStaking.sol\":4716:4740  stakeMapping[msg.sender] */\n      0xffffffffffffffffffffffffffffffffffffffff\n      and\n      0xffffffffffffffffffffffffffffffffffffffff\n      and\n      dup2\n      mstore\n      0x20\n      add\n      swap1\n      dup2\n      mstore\n      0x20\n      add\n      0x00\n      keccak256\n        /* \"contracts/TokenStaking.sol\":4741:4742  i */\n      dup9\n        /* \"contracts/TokenStaking.sol\":4716:4743  stakeMapping[msg.sender][i] */\n      dup2\n      sload\n      dup2\n      lt\n      tag_236\n      jumpi\n      tag_237\n      tag_97\n      jump\t// in\n    tag_237:\n    tag_236:\n      swap1\n      0x00\n      mstore\n      keccak256(0x00, 0x20)\n      swap1\n      0x06\n      mul\n      add\n        /* \"contracts/TokenStaking.sol\":4716:4758  stakeMapping[msg.sender][i].interestAmount */\n      0x04\n      add\n      0x00\n        /* \"contracts/TokenStaking.sol\":4716:4776  stakeMapping[msg.sender][i].interestAmount += interestAmount */\n      dup3\n      dup3\n      sload\n      tag_239\n      swap2\n      swap1\n      tag_122\n      jump\t// in\n    tag_239:\n      swap3\n      pop\n      pop\n      dup2\n      swap1\n      sstore\n      pop\n        /* \"contracts/TokenStaking.sol\":4837:4851  interestAmount */\n      dup1\n        /* \"contracts/TokenStaking.sol\":4790:4801  userMapping */\n      0x05\n        /* \"contracts/TokenStaking.sol\":4790:4813  userMapping[msg.sender] */\n      0x00\n        /* \"contracts/TokenStaking.sol\":4802:4812  msg.sender */\n      caller\n        /* \"contracts/TokenStaking.sol\":4790:4813  userMapping[msg.sender] */\n      0xffffffffffffffffffffffffffffffffffffffff\n      and\n      0xffffffffffffffffffffffffffffffffffffffff\n      and\n      dup2\n      mstore\n      0x20\n      add\n      swap1\n      dup2\n      mstore\n      0x20\n      add\n      0x00\n      keccak256\n        /* \"contracts/TokenStaking.sol\":4790:4833  userMapping[msg.sender].totalInterestAmount */\n      0x04\n      add\n      0x00\n        /* \"contracts/TokenStaking.sol\":4790:4851  userMapping[msg.sender].totalInterestAmount += interestAmount */\n      dup3\n      dup3\n      sload\n      tag_240\n      swap2\n      swap1\n      tag_122\n      jump\t// in\n    tag_240:\n      swap3\n      pop\n      pop\n      dup2\n      swap1\n      sstore\n      pop\n        /* \"contracts/TokenStaking.sol\":4911:4924  buybackAmount */\n      dup2\n        /* \"contracts/TokenStaking.sol\":4866:4878  stakeMapping */\n      0x06\n        /* \"contracts/TokenStaking.sol\":4866:4890  stakeMapping[msg.sender] */\n      0x00\n        /* \"contracts/TokenStaking.sol\":4879:4889  msg.sender */\n      caller\n        /* \"contracts/TokenStaking.sol\":4866:4890  stakeMapping[msg.sender] */\n      0xffffffffffffffffffffffffffffffffffffffff\n      and\n      0xffffffffffffffffffffffffffffffffffffffff\n      and\n      dup2\n      mstore\n      0x20\n      add\n      swap1\n      dup2\n      mstore\n      0x20\n      add\n      0x00\n      keccak256\n        /* \"contracts/TokenStaking.sol\":4891:4892  i */\n      dup9\n        /* \"contracts/TokenStaking.sol\":4866:4893  stakeMapping[msg.sender][i] */\n      dup2\n      sload\n      dup2\n      lt\n      tag_241\n      jumpi\n      tag_242\n      tag_97\n      jump\t// in\n    tag_242:\n    tag_241:\n      swap1\n      0x00\n      mstore\n      keccak256(0x00, 0x20)\n      swap1\n      0x06\n      mul\n      add\n        /* \"contracts/TokenStaking.sol\":4866:4907  stakeMapping[msg.sender][i].buybackAmount */\n      0x05\n      add\n      0x00\n        /* \"contracts/TokenStaking.sol\":4866:4924  stakeMapping[msg.sender][i].buybackAmount += buybackAmount */\n      dup3\n      dup3\n      sload\n      tag_244\n      swap2\n      swap1\n      tag_122\n      jump\t// in\n    tag_244:\n      swap3\n      pop\n      pop\n      dup2\n      swap1\n      sstore\n      pop\n        /* \"contracts/TokenStaking.sol\":4984:4997  buybackAmount */\n      dup2\n        /* \"contracts/TokenStaking.sol\":4938:4949  userMapping */\n      0x05\n        /* \"contracts/TokenStaking.sol\":4938:4961  userMapping[msg.sender] */\n      0x00\n        /* \"contracts/TokenStaking.sol\":4950:4960  msg.sender */\n      caller\n        /* \"contracts/TokenStaking.sol\":4938:4961  userMapping[msg.sender] */\n      0xffffffffffffffffffffffffffffffffffffffff\n      and\n      0xffffffffffffffffffffffffffffffffffffffff\n      and\n      dup2\n      mstore\n      0x20\n      add\n      swap1\n      dup2\n      mstore\n      0x20\n      add\n      0x00\n      keccak256\n        /* \"contracts/TokenStaking.sol\":4938:4980  userMapping[msg.sender].totalBuybackAmount */\n      0x03\n      add\n      0x00\n        /* \"contracts/TokenStaking.sol\":4938:4997  userMapping[msg.sender].totalBuybackAmount += buybackAmount */\n      dup3\n      dup3\n      sload\n      tag_245\n      swap2\n      swap1\n      tag_122\n      jump\t// in\n    tag_245:\n      swap3\n      pop\n      pop\n      dup2\n      swap1\n      sstore\n      pop\n        /* \"contracts/TokenStaking.sol\":5074:5088  interestAmount */\n      dup1\n        /* \"contracts/TokenStaking.sol\":5058:5071  buybackAmount */\n      dup3\n        /* \"contracts/TokenStaking.sol\":5058:5088  buybackAmount + interestAmount */\n      tag_246\n      swap2\n      swap1\n      tag_122\n      jump\t// in\n    tag_246:\n        /* \"contracts/TokenStaking.sol\":5012:5024  stakeMapping */\n      0x06\n        /* \"contracts/TokenStaking.sol\":5012:5036  stakeMapping[msg.sender] */\n      0x00\n        /* \"contracts/TokenStaking.sol\":5025:5035  msg.sender */\n      caller\n        /* \"contracts/TokenStaking.sol\":5012:5036  stakeMapping[msg.sender] */\n      0xffffffffffffffffffffffffffffffffffffffff\n      and\n      0xffffffffffffffffffffffffffffffffffffffff\n      and\n      dup2\n      mstore\n      0x20\n      add\n      swap1\n      dup2\n      mstore\n      0x20\n      add\n      0x00\n      keccak256\n        /* \"contracts/TokenStaking.sol\":5037:5038  i */\n      dup9\n        /* \"contracts/TokenStaking.sol\":5012:5039  stakeMapping[msg.sender][i] */\n      dup2\n      sload\n      dup2\n      lt\n      tag_247\n      jumpi\n      tag_248\n      tag_97\n      jump\t// in\n    tag_248:\n    tag_247:\n      swap1\n      0x00\n      mstore\n      keccak256(0x00, 0x20)\n      swap1\n      0x06\n      mul\n      add\n        /* \"contracts/TokenStaking.sol\":5012:5054  stakeMapping[msg.sender][i].redeemedAmount */\n      0x03\n      add\n      0x00\n        /* \"contracts/TokenStaking.sol\":5012:5088  stakeMapping[msg.sender][i].redeemedAmount += buybackAmount + interestAmount */\n      dup3\n      dup3\n      sload\n      tag_250\n      swap2\n      swap1\n      tag_122\n      jump\t// in\n    tag_250:\n      swap3\n      pop\n      pop\n      dup2\n      swap1\n      sstore\n      pop\n        /* \"contracts/TokenStaking.sol\":5165:5179  interestAmount */\n      dup1\n        /* \"contracts/TokenStaking.sol\":5149:5162  buybackAmount */\n      dup3\n        /* \"contracts/TokenStaking.sol\":5149:5179  buybackAmount + interestAmount */\n      tag_251\n      swap2\n      swap1\n      tag_122\n      jump\t// in\n    tag_251:\n        /* \"contracts/TokenStaking.sol\":5102:5113  userMapping */\n      0x05\n        /* \"contracts/TokenStaking.sol\":5102:5125  userMapping[msg.sender] */\n      0x00\n        /* \"contracts/TokenStaking.sol\":5114:5124  msg.sender */\n      caller\n        /* \"contracts/TokenStaking.sol\":5102:5125  userMapping[msg.sender] */\n      0xffffffffffffffffffffffffffffffffffffffff\n      and\n      0xffffffffffffffffffffffffffffffffffffffff\n      and\n      dup2\n      mstore\n      0x20\n      add\n      swap1\n      dup2\n      mstore\n      0x20\n      add\n      0x00\n      keccak256\n        /* \"contracts/TokenStaking.sol\":5102:5145  userMapping[msg.sender].totalRedeemedAmount */\n      0x02\n      add\n      0x00\n        /* \"contracts/TokenStaking.sol\":5102:5179  userMapping[msg.sender].totalRedeemedAmount += buybackAmount + interestAmount */\n      dup3\n      dup3\n      sload\n      tag_252\n      swap2\n      swap1\n      tag_122\n      jump\t// in\n    tag_252:\n      swap3\n      pop\n      pop\n      dup2\n      swap1\n      sstore\n      pop\n        /* \"contracts/TokenStaking.sol\":3702:5190  {... */\n      pop\n      pop\n      pop\n      pop\n      pop\n      pop\n        /* \"contracts/TokenStaking.sol\":3697:3700  i++ */\n      dup1\n      dup1\n      tag_253\n      swap1\n      tag_135\n      jump\t// in\n    tag_253:\n      swap2\n      pop\n      pop\n        /* \"contracts/TokenStaking.sol\":3643:5190  for (uint i = 0; i < stakeMapping[msg.sender].length; i++) {... */\n      jump(tag_187)\n    tag_188:\n      pop\n        /* \"contracts/TokenStaking.sol\":5220:5230  msg.sender */\n      caller\n        /* \"contracts/TokenStaking.sol\":5205:5231  RedeemInterest(msg.sender) */\n      0xffffffffffffffffffffffffffffffffffffffff\n      and\n      0xd2c2928212b87e3b9cb2cf37231739682c8bec99936d3798e7386ca23ea133a3\n      mload(0x40)\n      mload(0x40)\n      dup1\n      swap2\n      sub\n      swap1\n      log2\n        /* \"contracts/TokenStaking.sol\":3015:5238  {... */\n      pop\n        /* \"@openzeppelin/contracts@4.7.0/security/ReentrancyGuard.sol\":1701:1702  1 */\n      0x01\n        /* \"@openzeppelin/contracts@4.7.0/security/ReentrancyGuard.sol\":2628:2635  _status */\n      0x00\n        /* \"@openzeppelin/contracts@4.7.0/security/ReentrancyGuard.sol\":2628:2650  _status = _NOT_ENTERED */\n      dup2\n      swap1\n      sstore\n      pop\n        /* \"contracts/TokenStaking.sol\":2967:5238  function redeemInterest() external nonReentrant {... */\n      jump\t// out\n        /* \"contracts/TokenStaking.sol\":6565:6781  function getTotalRedeemableAmount(address account) external view returns (RedeemInfo memory) {... */\n    tag_49:\n        /* \"contracts/TokenStaking.sol\":6639:6656  RedeemInfo memory */\n      tag_254\n      tag_144\n      jump\t// in\n    tag_254:\n        /* \"contracts/TokenStaking.sol\":6669:6699  RedeemInfo memory redeemResult */\n      0x00\n        /* \"contracts/TokenStaking.sol\":6702:6735  calculateTotalRedeemable(account) */\n      tag_256\n        /* \"contracts/TokenStaking.sol\":6727:6734  account */\n      dup4\n        /* \"contracts/TokenStaking.sol\":6702:6726  calculateTotalRedeemable */\n      tag_163\n        /* \"contracts/TokenStaking.sol\":6702:6735  calculateTotalRedeemable(account) */\n      jump\t// in\n    tag_256:\n        /* \"contracts/TokenStaking.sol\":6669:6735  RedeemInfo memory redeemResult = calculateTotalRedeemable(account) */\n      swap1\n      pop\n        /* \"contracts/TokenStaking.sol\":6753:6765  redeemResult */\n      dup1\n        /* \"contracts/TokenStaking.sol\":6746:6765  return redeemResult */\n      swap2\n      pop\n      pop\n        /* \"contracts/TokenStaking.sol\":6565:6781  function getTotalRedeemableAmount(address account) external view returns (RedeemInfo memory) {... */\n      swap2\n      swap1\n      pop\n      jump\t// out\n        /* \"contracts/TokenStaking.sol\":2372:2961  function deposit(uint256 amount) external nonReentrant {... */\n    tag_54:\n        /* \"@openzeppelin/contracts@4.7.0/security/ReentrancyGuard.sol\":1744:1745  2 */\n      0x02\n        /* \"@openzeppelin/contracts@4.7.0/security/ReentrancyGuard.sol\":2325:2332  _status */\n      sload(0x00)\n        /* \"@openzeppelin/contracts@4.7.0/security/ReentrancyGuard.sol\":2325:2344  _status != _ENTERED */\n      eq\n      iszero\n        /* \"@openzeppelin/contracts@4.7.0/security/ReentrancyGuard.sol\":2317:2380  require(_status != _ENTERED, \"ReentrancyGuard: reentrant call\") */\n      tag_258\n      jumpi\n      mload(0x40)\n      0x08c379a000000000000000000000000000000000000000000000000000000000\n      dup2\n      mstore\n      0x04\n      add\n      tag_259\n      swap1\n      tag_88\n      jump\t// in\n    tag_259:\n      mload(0x40)\n      dup1\n      swap2\n      sub\n      swap1\n      revert\n    tag_258:\n        /* \"@openzeppelin/contracts@4.7.0/security/ReentrancyGuard.sol\":1744:1745  2 */\n      0x02\n        /* \"@openzeppelin/contracts@4.7.0/security/ReentrancyGuard.sol\":2455:2462  _status */\n      0x00\n        /* \"@openzeppelin/contracts@4.7.0/security/ReentrancyGuard.sol\":2455:2473  _status = _ENTERED */\n      dup2\n      swap1\n      sstore\n      pop\n        /* \"contracts/TokenStaking.sol\":2454:2455  0 */\n      0x00\n        /* \"contracts/TokenStaking.sol\":2445:2451  amount */\n      dup2\n        /* \"contracts/TokenStaking.sol\":2445:2455  amount > 0 */\n      gt\n        /* \"contracts/TokenStaking.sol\":2437:2487  require(amount > 0, \"Deposit: Amount must be > 0\") */\n      tag_261\n      jumpi\n      mload(0x40)\n      0x08c379a000000000000000000000000000000000000000000000000000000000\n      dup2\n      mstore\n      0x04\n      add\n      tag_262\n      swap1\n      tag_263\n      jump\t// in\n    tag_262:\n      mload(0x40)\n      dup1\n      swap2\n      sub\n      swap1\n      revert\n    tag_261:\n        /* \"contracts/TokenStaking.sol\":2547:2608  HackToken.safeTransferFrom(msg.sender, address(this), amount) */\n      tag_264\n        /* \"contracts/TokenStaking.sol\":2574:2584  msg.sender */\n      caller\n        /* \"contracts/TokenStaking.sol\":2594:2598  this */\n      address\n        /* \"contracts/TokenStaking.sol\":2601:2607  amount */\n      dup4\n        /* \"contracts/TokenStaking.sol\":2547:2556  HackToken */\n      immutable(\"0xcb8dea2ffab2268b31b9e4c08a2727c08f47205d0ab1e6e9f5077b89e0fb5b9d\")\n        /* \"contracts/TokenStaking.sol\":2547:2573  HackToken.safeTransferFrom */\n      0xffffffffffffffffffffffffffffffffffffffff\n      and\n      tag_265\n      swap1\n        /* \"contracts/TokenStaking.sol\":2547:2608  HackToken.safeTransferFrom(msg.sender, address(this), amount) */\n      swap4\n      swap3\n      swap2\n      swap1\n      0xffffffff\n      and\n      jump\t// in\n    tag_264:\n        /* \"contracts/TokenStaking.sol\":2665:2671  amount */\n      dup1\n        /* \"contracts/TokenStaking.sol\":2619:2630  userMapping */\n      0x05\n        /* \"contracts/TokenStaking.sol\":2619:2642  userMapping[msg.sender] */\n      0x00\n        /* \"contracts/TokenStaking.sol\":2631:2641  msg.sender */\n      caller\n        /* \"contracts/TokenStaking.sol\":2619:2642  userMapping[msg.sender] */\n      0xffffffffffffffffffffffffffffffffffffffff\n      and\n      0xffffffffffffffffffffffffffffffffffffffff\n      and\n      dup2\n      mstore\n      0x20\n      add\n      swap1\n      dup2\n      mstore\n      0x20\n      add\n      0x00\n      keccak256\n        /* \"contracts/TokenStaking.sol\":2619:2661  userMapping[msg.sender].totalInitialAmount */\n      0x00\n      add\n      0x00\n        /* \"contracts/TokenStaking.sol\":2619:2671  userMapping[msg.sender].totalInitialAmount += amount */\n      dup3\n      dup3\n      sload\n      tag_266\n      swap2\n      swap1\n      tag_122\n      jump\t// in\n    tag_266:\n      swap3\n      pop\n      pop\n      dup2\n      swap1\n      sstore\n      pop\n        /* \"contracts/TokenStaking.sol\":2727:2733  amount */\n      dup1\n        /* \"contracts/TokenStaking.sol\":2681:2692  userMapping */\n      0x05\n        /* \"contracts/TokenStaking.sol\":2681:2704  userMapping[msg.sender] */\n      0x00\n        /* \"contracts/TokenStaking.sol\":2693:2703  msg.sender */\n      caller\n        /* \"contracts/TokenStaking.sol\":2681:2704  userMapping[msg.sender] */\n      0xffffffffffffffffffffffffffffffffffffffff\n      and\n      0xffffffffffffffffffffffffffffffffffffffff\n      and\n      dup2\n      mstore\n      0x20\n      add\n      swap1\n      dup2\n      mstore\n      0x20\n      add\n      0x00\n      keccak256\n        /* \"contracts/TokenStaking.sol\":2681:2723  userMapping[msg.sender].totalBalanceAmount */\n      0x01\n      add\n      0x00\n        /* \"contracts/TokenStaking.sol\":2681:2733  userMapping[msg.sender].totalBalanceAmount += amount */\n      dup3\n      dup3\n      sload\n      tag_267\n      swap2\n      swap1\n      tag_122\n      jump\t// in\n    tag_267:\n      swap3\n      pop\n      pop\n      dup2\n      swap1\n      sstore\n      pop\n        /* \"contracts/TokenStaking.sol\":2743:2755  stakeMapping */\n      0x06\n        /* \"contracts/TokenStaking.sol\":2743:2767  stakeMapping[msg.sender] */\n      0x00\n        /* \"contracts/TokenStaking.sol\":2756:2766  msg.sender */\n      caller\n        /* \"contracts/TokenStaking.sol\":2743:2767  stakeMapping[msg.sender] */\n      0xffffffffffffffffffffffffffffffffffffffff\n      and\n      0xffffffffffffffffffffffffffffffffffffffff\n      and\n      dup2\n      mstore\n      0x20\n      add\n      swap1\n      dup2\n      mstore\n      0x20\n      add\n      0x00\n      keccak256\n        /* \"contracts/TokenStaking.sol\":2773:2824  StakeInfo(block.timestamp, amount, amount, 0, 0, 0) */\n      mload(0x40)\n      dup1\n      0xc0\n      add\n      0x40\n      mstore\n      dup1\n        /* \"contracts/TokenStaking.sol\":2783:2798  block.timestamp */\n      timestamp\n        /* \"contracts/TokenStaking.sol\":2773:2824  StakeInfo(block.timestamp, amount, amount, 0, 0, 0) */\n      dup2\n      mstore\n      0x20\n      add\n        /* \"contracts/TokenStaking.sol\":2800:2806  amount */\n      dup4\n        /* \"contracts/TokenStaking.sol\":2773:2824  StakeInfo(block.timestamp, amount, amount, 0, 0, 0) */\n      dup2\n      mstore\n      0x20\n      add\n        /* \"contracts/TokenStaking.sol\":2808:2814  amount */\n      dup4\n        /* \"contracts/TokenStaking.sol\":2773:2824  StakeInfo(block.timestamp, amount, amount, 0, 0, 0) */\n      dup2\n      mstore\n      0x20\n      add\n        /* \"contracts/TokenStaking.sol\":2816:2817  0 */\n      0x00\n        /* \"contracts/TokenStaking.sol\":2773:2824  StakeInfo(block.timestamp, amount, amount, 0, 0, 0) */\n      dup2\n      mstore\n      0x20\n      add\n        /* \"contracts/TokenStaking.sol\":2819:2820  0 */\n      0x00\n        /* \"contracts/TokenStaking.sol\":2773:2824  StakeInfo(block.timestamp, amount, amount, 0, 0, 0) */\n      dup2\n      mstore\n      0x20\n      add\n        /* \"contracts/TokenStaking.sol\":2822:2823  0 */\n      0x00\n        /* \"contracts/TokenStaking.sol\":2773:2824  StakeInfo(block.timestamp, amount, amount, 0, 0, 0) */\n      dup2\n      mstore\n      pop\n        /* \"contracts/TokenStaking.sol\":2743:2825  stakeMapping[msg.sender].push(StakeInfo(block.timestamp, amount, amount, 0, 0, 0)) */\n      swap1\n      dup1\n      0x01\n      dup2\n      sload\n      add\n      dup1\n      dup3\n      sstore\n      dup1\n      swap2\n      pop\n      pop\n      0x01\n      swap1\n      sub\n      swap1\n      0x00\n      mstore\n      keccak256(0x00, 0x20)\n      swap1\n      0x06\n      mul\n      add\n      0x00\n      swap1\n      swap2\n      swap1\n      swap2\n      swap1\n      swap2\n      pop\n      0x00\n      dup3\n      add\n      mload\n      dup2\n      0x00\n      add\n      sstore\n      0x20\n      dup3\n      add\n      mload\n      dup2\n      0x01\n      add\n      sstore\n      0x40\n      dup3\n      add\n      mload\n      dup2\n      0x02\n      add\n      sstore\n      0x60\n      dup3\n      add\n      mload\n      dup2\n      0x03\n      add\n      sstore\n      0x80\n      dup3\n      add\n      mload\n      dup2\n      0x04\n      add\n      sstore\n      0xa0\n      dup3\n      add\n      mload\n      dup2\n      0x05\n      add\n      sstore\n      pop\n      pop\n        /* \"contracts/TokenStaking.sol\":2904:2910  amount */\n      dup1\n        /* \"contracts/TokenStaking.sol\":2882:2899  totalAmountStaked */\n      0x04\n      0x00\n        /* \"contracts/TokenStaking.sol\":2882:2911  totalAmountStaked += (amount) */\n      dup3\n      dup3\n      sload\n      tag_269\n      swap2\n      swap1\n      tag_122\n      jump\t// in\n    tag_269:\n      swap3\n      pop\n      pop\n      dup2\n      swap1\n      sstore\n      pop\n        /* \"contracts/TokenStaking.sol\":2935:2945  msg.sender */\n      caller\n        /* \"contracts/TokenStaking.sol\":2927:2954  Deposit(msg.sender, amount) */\n      0xffffffffffffffffffffffffffffffffffffffff\n      and\n      0xe1fffcc4923d04b559f4d29a8bfc6cda04eb5b0d3c460751c2402c5c5cc9109c\n        /* \"contracts/TokenStaking.sol\":2947:2953  amount */\n      dup3\n        /* \"contracts/TokenStaking.sol\":2927:2954  Deposit(msg.sender, amount) */\n      mload(0x40)\n      tag_270\n      swap2\n      swap1\n      tag_35\n      jump\t// in\n    tag_270:\n      mload(0x40)\n      dup1\n      swap2\n      sub\n      swap1\n      log2\n        /* \"@openzeppelin/contracts@4.7.0/security/ReentrancyGuard.sol\":1701:1702  1 */\n      0x01\n        /* \"@openzeppelin/contracts@4.7.0/security/ReentrancyGuard.sol\":2628:2635  _status */\n      0x00\n        /* \"@openzeppelin/contracts@4.7.0/security/ReentrancyGuard.sol\":2628:2650  _status = _NOT_ENTERED */\n      dup2\n      swap1\n      sstore\n      pop\n        /* \"contracts/TokenStaking.sol\":2372:2961  function deposit(uint256 amount) external nonReentrant {... */\n      pop\n      jump\t// out\n        /* \"contracts/TokenStaking.sol\":1207:1255  uint256 public constant PRECISION_FACTOR = 10**8 */\n    tag_56:\n        /* \"contracts/TokenStaking.sol\":1250:1255  10**8 */\n      0x05f5e100\n        /* \"contracts/TokenStaking.sol\":1207:1255  uint256 public constant PRECISION_FACTOR = 10**8 */\n      dup2\n      jump\t// out\n        /* \"contracts/TokenStaking.sol\":7249:7380  function getStakeCount(address account) external view returns (uint) {... */\n    tag_60:\n        /* \"contracts/TokenStaking.sol\":7312:7316  uint */\n      0x00\n        /* \"contracts/TokenStaking.sol\":7336:7348  stakeMapping */\n      0x06\n        /* \"contracts/TokenStaking.sol\":7336:7357  stakeMapping[account] */\n      0x00\n        /* \"contracts/TokenStaking.sol\":7349:7356  account */\n      dup4\n        /* \"contracts/TokenStaking.sol\":7336:7357  stakeMapping[account] */\n      0xffffffffffffffffffffffffffffffffffffffff\n      and\n      0xffffffffffffffffffffffffffffffffffffffff\n      and\n      dup2\n      mstore\n      0x20\n      add\n      swap1\n      dup2\n      mstore\n      0x20\n      add\n      0x00\n      keccak256\n        /* \"contracts/TokenStaking.sol\":7336:7364  stakeMapping[account].length */\n      dup1\n      sload\n      swap1\n      pop\n        /* \"contracts/TokenStaking.sol\":7329:7364  return stakeMapping[account].length */\n      swap1\n      pop\n        /* \"contracts/TokenStaking.sol\":7249:7380  function getStakeCount(address account) external view returns (uint) {... */\n      swap2\n      swap1\n      pop\n      jump\t// out\n        /* \"contracts/TokenStaking.sol\":1439:1492  IHackInterestToken public immutable HackInterestToken */\n    tag_63:\n      immutable(\"0x5002dac29dd1f5eca27c266c7f22886fef1ca01133bd005217e0a31b1b246599\")\n      dup2\n      jump\t// out\n        /* \"contracts/TokenStaking.sol\":8961:9164  function updateDateTest(uint256 day, uint256 index) external nonReentrant {... */\n    tag_69:\n        /* \"@openzeppelin/contracts@4.7.0/security/ReentrancyGuard.sol\":1744:1745  2 */\n      0x02\n        /* \"@openzeppelin/contracts@4.7.0/security/ReentrancyGuard.sol\":2325:2332  _status */\n      sload(0x00)\n        /* \"@openzeppelin/contracts@4.7.0/security/ReentrancyGuard.sol\":2325:2344  _status != _ENTERED */\n      eq\n      iszero\n        /* \"@openzeppelin/contracts@4.7.0/security/ReentrancyGuard.sol\":2317:2380  require(_status != _ENTERED, \"ReentrancyGuard: reentrant call\") */\n      tag_273\n      jumpi\n      mload(0x40)\n      0x08c379a000000000000000000000000000000000000000000000000000000000\n      dup2\n      mstore\n      0x04\n      add\n      tag_274\n      swap1\n      tag_88\n      jump\t// in\n    tag_274:\n      mload(0x40)\n      dup1\n      swap2\n      sub\n      swap1\n      revert\n    tag_273:\n        /* \"@openzeppelin/contracts@4.7.0/security/ReentrancyGuard.sol\":1744:1745  2 */\n      0x02\n        /* \"@openzeppelin/contracts@4.7.0/security/ReentrancyGuard.sol\":2455:2462  _status */\n      0x00\n        /* \"@openzeppelin/contracts@4.7.0/security/ReentrancyGuard.sol\":2455:2473  _status = _ENTERED */\n      dup2\n      swap1\n      sstore\n      pop\n        /* \"contracts/TokenStaking.sol\":9100:9103  day */\n      dup2\n        /* \"contracts/TokenStaking.sol\":9092:9097  86400 */\n      0x015180\n        /* \"contracts/TokenStaking.sol\":9092:9103  86400 * day */\n      tag_276\n      swap2\n      swap1\n      tag_203\n      jump\t// in\n    tag_276:\n        /* \"contracts/TokenStaking.sol\":9046:9058  stakeMapping */\n      0x06\n        /* \"contracts/TokenStaking.sol\":9046:9070  stakeMapping[msg.sender] */\n      0x00\n        /* \"contracts/TokenStaking.sol\":9059:9069  msg.sender */\n      caller\n        /* \"contracts/TokenStaking.sol\":9046:9070  stakeMapping[msg.sender] */\n      0xffffffffffffffffffffffffffffffffffffffff\n      and\n      0xffffffffffffffffffffffffffffffffffffffff\n      and\n      dup2\n      mstore\n      0x20\n      add\n      swap1\n      dup2\n      mstore\n      0x20\n      add\n      0x00\n      keccak256\n        /* \"contracts/TokenStaking.sol\":9071:9076  index */\n      dup3\n        /* \"contracts/TokenStaking.sol\":9046:9077  stakeMapping[msg.sender][index] */\n      dup2\n      sload\n      dup2\n      lt\n      tag_277\n      jumpi\n      tag_278\n      tag_97\n      jump\t// in\n    tag_278:\n    tag_277:\n      swap1\n      0x00\n      mstore\n      keccak256(0x00, 0x20)\n      swap1\n      0x06\n      mul\n      add\n        /* \"contracts/TokenStaking.sol\":9046:9088  stakeMapping[msg.sender][index].dateStaked */\n      0x00\n      add\n      0x00\n        /* \"contracts/TokenStaking.sol\":9046:9103  stakeMapping[msg.sender][index].dateStaked -= 86400 * day */\n      dup3\n      dup3\n      sload\n      tag_280\n      swap2\n      swap1\n      tag_109\n      jump\t// in\n    tag_280:\n      swap3\n      pop\n      pop\n      dup2\n      swap1\n      sstore\n      pop\n        /* \"contracts/TokenStaking.sol\":9134:9144  msg.sender */\n      caller\n        /* \"contracts/TokenStaking.sol\":9119:9157  UpdateDateTest(msg.sender, day, index) */\n      0xffffffffffffffffffffffffffffffffffffffff\n      and\n      0x6dc049a7e6a75ca211ecf0c13acc2e9556629b677527cfbe710f1fdb5c330af5\n        /* \"contracts/TokenStaking.sol\":9146:9149  day */\n      dup4\n        /* \"contracts/TokenStaking.sol\":9151:9156  index */\n      dup4\n        /* \"contracts/TokenStaking.sol\":9119:9157  UpdateDateTest(msg.sender, day, index) */\n      mload(0x40)\n      tag_281\n      swap3\n      swap2\n      swap1\n      tag_282\n      jump\t// in\n    tag_281:\n      mload(0x40)\n      dup1\n      swap2\n      sub\n      swap1\n      log2\n        /* \"@openzeppelin/contracts@4.7.0/security/ReentrancyGuard.sol\":1701:1702  1 */\n      0x01\n        /* \"@openzeppelin/contracts@4.7.0/security/ReentrancyGuard.sol\":2628:2635  _status */\n      0x00\n        /* \"@openzeppelin/contracts@4.7.0/security/ReentrancyGuard.sol\":2628:2650  _status = _NOT_ENTERED */\n      dup2\n      swap1\n      sstore\n      pop\n        /* \"contracts/TokenStaking.sol\":8961:9164  function updateDateTest(uint256 day, uint256 index) external nonReentrant {... */\n      pop\n      pop\n      jump\t// out\n        /* \"contracts/TokenStaking.sol\":1618:1669  mapping(address => StakeInfo[]) public stakeMapping */\n    tag_72:\n      mstore(0x20, 0x06)\n      dup2\n      0x00\n      mstore\n      keccak256(0x00, 0x40)\n      dup2\n      dup2\n      sload\n      dup2\n      lt\n      tag_283\n      jumpi\n      0x00\n      dup1\n      revert\n    tag_283:\n      swap1\n      0x00\n      mstore\n      keccak256(0x00, 0x20)\n      swap1\n      0x06\n      mul\n      add\n      0x00\n      swap2\n      pop\n      swap2\n      pop\n      pop\n      dup1\n      0x00\n      add\n      sload\n      swap1\n      dup1\n      0x01\n      add\n      sload\n      swap1\n      dup1\n      0x02\n      add\n      sload\n      swap1\n      dup1\n      0x03\n      add\n      sload\n      swap1\n      dup1\n      0x04\n      add\n      sload\n      swap1\n      dup1\n      0x05\n      add\n      sload\n      swap1\n      pop\n      dup7\n      jump\t// out\n        /* \"contracts/TokenStaking.sol\":1396:1433  IHackToken public immutable HackToken */\n    tag_76:\n      immutable(\"0xcb8dea2ffab2268b31b9e4c08a2727c08f47205d0ab1e6e9f5077b89e0fb5b9d\")\n      dup2\n      jump\t// out\n        /* \"contracts/TokenStaking.sol\":1261:1291  uint256 public buybackRate = 2 */\n    tag_80:\n      sload(0x01)\n      dup2\n      jump\t// out\n        /* \"contracts/TokenStaking.sol\":1526:1558  uint256 public totalAmountStaked */\n    tag_83:\n      sload(0x04)\n      dup2\n      jump\t// out\n        /* \"contracts/TokenStaking.sol\":7995:8954  function calculateRedeemable(address account, uint256 index) internal view returns (RedeemInfo memory) {... */\n    tag_91:\n        /* \"contracts/TokenStaking.sol\":8079:8096  RedeemInfo memory */\n      tag_285\n      tag_144\n      jump\t// in\n    tag_285:\n        /* \"contracts/TokenStaking.sol\":8109:8126  uint buybackCount */\n      0x00\n        /* \"contracts/TokenStaking.sol\":8196:8206  86400 * 30 */\n      0x278d00\n        /* \"contracts/TokenStaking.sol\":8152:8164  stakeMapping */\n      0x06\n        /* \"contracts/TokenStaking.sol\":8152:8173  stakeMapping[account] */\n      0x00\n        /* \"contracts/TokenStaking.sol\":8165:8172  account */\n      dup7\n        /* \"contracts/TokenStaking.sol\":8152:8173  stakeMapping[account] */\n      0xffffffffffffffffffffffffffffffffffffffff\n      and\n      0xffffffffffffffffffffffffffffffffffffffff\n      and\n      dup2\n      mstore\n      0x20\n      add\n      swap1\n      dup2\n      mstore\n      0x20\n      add\n      0x00\n      keccak256\n        /* \"contracts/TokenStaking.sol\":8174:8179  index */\n      dup5\n        /* \"contracts/TokenStaking.sol\":8152:8180  stakeMapping[account][index] */\n      dup2\n      sload\n      dup2\n      lt\n      tag_287\n      jumpi\n      tag_288\n      tag_97\n      jump\t// in\n    tag_288:\n    tag_287:\n      swap1\n      0x00\n      mstore\n      keccak256(0x00, 0x20)\n      swap1\n      0x06\n      mul\n      add\n        /* \"contracts/TokenStaking.sol\":8152:8191  stakeMapping[account][index].dateStaked */\n      0x00\n      add\n      sload\n        /* \"contracts/TokenStaking.sol\":8134:8149  block.timestamp */\n      timestamp\n        /* \"contracts/TokenStaking.sol\":8134:8191  block.timestamp - stakeMapping[account][index].dateStaked */\n      tag_290\n      swap2\n      swap1\n      tag_109\n      jump\t// in\n    tag_290:\n        /* \"contracts/TokenStaking.sol\":8129:8207  uint(block.timestamp - stakeMapping[account][index].dateStaked) / (86400 * 30) */\n      tag_291\n      swap2\n      swap1\n      tag_195\n      jump\t// in\n    tag_291:\n        /* \"contracts/TokenStaking.sol\":8109:8207  uint buybackCount = uint(block.timestamp - stakeMapping[account][index].dateStaked) / (86400 * 30) */\n      swap1\n      pop\n        /* \"contracts/TokenStaking.sol\":8217:8229  uint buyback */\n      0x00\n        /* \"contracts/TokenStaking.sol\":8312:8315  100 */\n      0x64\n        /* \"contracts/TokenStaking.sol\":8296:8308  buybackCount */\n      dup3\n        /* \"contracts/TokenStaking.sol\":8251:8263  stakeMapping */\n      0x06\n        /* \"contracts/TokenStaking.sol\":8251:8272  stakeMapping[account] */\n      0x00\n        /* \"contracts/TokenStaking.sol\":8264:8271  account */\n      dup9\n        /* \"contracts/TokenStaking.sol\":8251:8272  stakeMapping[account] */\n      0xffffffffffffffffffffffffffffffffffffffff\n      and\n      0xffffffffffffffffffffffffffffffffffffffff\n      and\n      dup2\n      mstore\n      0x20\n      add\n      swap1\n      dup2\n      mstore\n      0x20\n      add\n      0x00\n      keccak256\n        /* \"contracts/TokenStaking.sol\":8273:8278  index */\n      dup7\n        /* \"contracts/TokenStaking.sol\":8251:8279  stakeMapping[account][index] */\n      dup2\n      sload\n      dup2\n      lt\n      tag_292\n      jumpi\n      tag_293\n      tag_97\n      jump\t// in\n    tag_293:\n    tag_292:\n      swap1\n      0x00\n      mstore\n      keccak256(0x00, 0x20)\n      swap1\n      0x06\n      mul\n      add\n        /* \"contracts/TokenStaking.sol\":8251:8293  stakeMapping[account][index].initialAmount */\n      0x01\n      add\n      sload\n        /* \"contracts/TokenStaking.sol\":8237:8248  buybackRate */\n      sload(0x01)\n        /* \"contracts/TokenStaking.sol\":8237:8293  buybackRate * stakeMapping[account][index].initialAmount */\n      tag_295\n      swap2\n      swap1\n      tag_203\n      jump\t// in\n    tag_295:\n        /* \"contracts/TokenStaking.sol\":8237:8308  buybackRate * stakeMapping[account][index].initialAmount * buybackCount */\n      tag_296\n      swap2\n      swap1\n      tag_203\n      jump\t// in\n    tag_296:\n        /* \"contracts/TokenStaking.sol\":8232:8315  uint(buybackRate * stakeMapping[account][index].initialAmount * buybackCount) / 100 */\n      tag_297\n      swap2\n      swap1\n      tag_195\n      jump\t// in\n    tag_297:\n        /* \"contracts/TokenStaking.sol\":8217:8315  uint buyback = uint(buybackRate * stakeMapping[account][index].initialAmount * buybackCount) / 100 */\n      swap1\n      pop\n        /* \"contracts/TokenStaking.sol\":8326:8338  uint balance */\n      0x00\n        /* \"contracts/TokenStaking.sol\":8341:8353  stakeMapping */\n      0x06\n        /* \"contracts/TokenStaking.sol\":8341:8362  stakeMapping[account] */\n      0x00\n        /* \"contracts/TokenStaking.sol\":8354:8361  account */\n      dup8\n        /* \"contracts/TokenStaking.sol\":8341:8362  stakeMapping[account] */\n      0xffffffffffffffffffffffffffffffffffffffff\n      and\n      0xffffffffffffffffffffffffffffffffffffffff\n      and\n      dup2\n      mstore\n      0x20\n      add\n      swap1\n      dup2\n      mstore\n      0x20\n      add\n      0x00\n      keccak256\n        /* \"contracts/TokenStaking.sol\":8363:8368  index */\n      dup6\n        /* \"contracts/TokenStaking.sol\":8341:8369  stakeMapping[account][index] */\n      dup2\n      sload\n      dup2\n      lt\n      tag_298\n      jumpi\n      tag_299\n      tag_97\n      jump\t// in\n    tag_299:\n    tag_298:\n      swap1\n      0x00\n      mstore\n      keccak256(0x00, 0x20)\n      swap1\n      0x06\n      mul\n      add\n        /* \"contracts/TokenStaking.sol\":8341:8383  stakeMapping[account][index].initialAmount */\n      0x01\n      add\n      sload\n        /* \"contracts/TokenStaking.sol\":8326:8383  uint balance = stakeMapping[account][index].initialAmount */\n      swap1\n      pop\n        /* \"contracts/TokenStaking.sol\":8393:8406  uint interest */\n      0x00\n        /* \"contracts/TokenStaking.sol\":8425:8431  uint j */\n      dup1\n        /* \"contracts/TokenStaking.sol\":8420:8631  for (uint j = 0; j < buybackCount; j++) {... */\n    tag_301:\n        /* \"contracts/TokenStaking.sol\":8441:8453  buybackCount */\n      dup5\n        /* \"contracts/TokenStaking.sol\":8437:8438  j */\n      dup2\n        /* \"contracts/TokenStaking.sol\":8437:8453  j < buybackCount */\n      lt\n        /* \"contracts/TokenStaking.sol\":8420:8631  for (uint j = 0; j < buybackCount; j++) {... */\n      iszero\n      tag_302\n      jumpi\n        /* \"contracts/TokenStaking.sol\":8523:8525  12 */\n      0x0c\n        /* \"contracts/TokenStaking.sol\":8517:8520  100 */\n      0x64\n        /* \"contracts/TokenStaking.sol\":8506:8513  balance */\n      dup5\n        /* \"contracts/TokenStaking.sol\":8491:8503  interestRate */\n      sload(0x02)\n        /* \"contracts/TokenStaking.sol\":8491:8513  interestRate * balance */\n      tag_304\n      swap2\n      swap1\n      tag_203\n      jump\t// in\n    tag_304:\n        /* \"contracts/TokenStaking.sol\":8486:8520  uint(interestRate * balance) / 100 */\n      tag_305\n      swap2\n      swap1\n      tag_195\n      jump\t// in\n    tag_305:\n        /* \"contracts/TokenStaking.sol\":8486:8525  uint(interestRate * balance) / 100 / 12 */\n      tag_306\n      swap2\n      swap1\n      tag_195\n      jump\t// in\n    tag_306:\n        /* \"contracts/TokenStaking.sol\":8474:8525  interest += uint(interestRate * balance) / 100 / 12 */\n      dup3\n      tag_307\n      swap2\n      swap1\n      tag_122\n      jump\t// in\n    tag_307:\n      swap2\n      pop\n        /* \"contracts/TokenStaking.sol\":8617:8620  100 */\n      0x64\n        /* \"contracts/TokenStaking.sol\":8571:8583  stakeMapping */\n      0x06\n        /* \"contracts/TokenStaking.sol\":8571:8592  stakeMapping[account] */\n      0x00\n        /* \"contracts/TokenStaking.sol\":8584:8591  account */\n      dup11\n        /* \"contracts/TokenStaking.sol\":8571:8592  stakeMapping[account] */\n      0xffffffffffffffffffffffffffffffffffffffff\n      and\n      0xffffffffffffffffffffffffffffffffffffffff\n      and\n      dup2\n      mstore\n      0x20\n      add\n      swap1\n      dup2\n      mstore\n      0x20\n      add\n      0x00\n      keccak256\n        /* \"contracts/TokenStaking.sol\":8593:8598  index */\n      dup9\n        /* \"contracts/TokenStaking.sol\":8571:8599  stakeMapping[account][index] */\n      dup2\n      sload\n      dup2\n      lt\n      tag_308\n      jumpi\n      tag_309\n      tag_97\n      jump\t// in\n    tag_309:\n    tag_308:\n      swap1\n      0x00\n      mstore\n      keccak256(0x00, 0x20)\n      swap1\n      0x06\n      mul\n      add\n        /* \"contracts/TokenStaking.sol\":8571:8613  stakeMapping[account][index].initialAmount */\n      0x01\n      add\n      sload\n        /* \"contracts/TokenStaking.sol\":8557:8568  buybackRate */\n      sload(0x01)\n        /* \"contracts/TokenStaking.sol\":8557:8613  buybackRate * stakeMapping[account][index].initialAmount */\n      tag_311\n      swap2\n      swap1\n      tag_203\n      jump\t// in\n    tag_311:\n        /* \"contracts/TokenStaking.sol\":8552:8620  uint(buybackRate * stakeMapping[account][index].initialAmount) / 100 */\n      tag_312\n      swap2\n      swap1\n      tag_195\n      jump\t// in\n    tag_312:\n        /* \"contracts/TokenStaking.sol\":8541:8620  balance -= uint(buybackRate * stakeMapping[account][index].initialAmount) / 100 */\n      dup4\n      tag_313\n      swap2\n      swap1\n      tag_109\n      jump\t// in\n    tag_313:\n      swap3\n      pop\n        /* \"contracts/TokenStaking.sol\":8455:8458  j++ */\n      dup1\n      dup1\n      tag_314\n      swap1\n      tag_135\n      jump\t// in\n    tag_314:\n      swap2\n      pop\n      pop\n        /* \"contracts/TokenStaking.sol\":8420:8631  for (uint j = 0; j < buybackCount; j++) {... */\n      jump(tag_301)\n    tag_302:\n      pop\n        /* \"contracts/TokenStaking.sol\":8641:8659  uint buybackAmount */\n      0x00\n        /* \"contracts/TokenStaking.sol\":8672:8684  stakeMapping */\n      0x06\n        /* \"contracts/TokenStaking.sol\":8672:8693  stakeMapping[account] */\n      0x00\n        /* \"contracts/TokenStaking.sol\":8685:8692  account */\n      dup10\n        /* \"contracts/TokenStaking.sol\":8672:8693  stakeMapping[account] */\n      0xffffffffffffffffffffffffffffffffffffffff\n      and\n      0xffffffffffffffffffffffffffffffffffffffff\n      and\n      dup2\n      mstore\n      0x20\n      add\n      swap1\n      dup2\n      mstore\n      0x20\n      add\n      0x00\n      keccak256\n        /* \"contracts/TokenStaking.sol\":8694:8699  index */\n      dup8\n        /* \"contracts/TokenStaking.sol\":8672:8700  stakeMapping[account][index] */\n      dup2\n      sload\n      dup2\n      lt\n      tag_315\n      jumpi\n      tag_316\n      tag_97\n      jump\t// in\n    tag_316:\n    tag_315:\n      swap1\n      0x00\n      mstore\n      keccak256(0x00, 0x20)\n      swap1\n      0x06\n      mul\n      add\n        /* \"contracts/TokenStaking.sol\":8672:8714  stakeMapping[account][index].buybackAmount */\n      0x05\n      add\n      sload\n        /* \"contracts/TokenStaking.sol\":8662:8669  buyback */\n      dup5\n        /* \"contracts/TokenStaking.sol\":8662:8714  buyback - stakeMapping[account][index].buybackAmount */\n      tag_318\n      swap2\n      swap1\n      tag_109\n      jump\t// in\n    tag_318:\n        /* \"contracts/TokenStaking.sol\":8641:8714  uint buybackAmount = buyback - stakeMapping[account][index].buybackAmount */\n      swap1\n      pop\n        /* \"contracts/TokenStaking.sol\":8724:8743  uint interestAmount */\n      0x00\n        /* \"contracts/TokenStaking.sol\":8757:8769  stakeMapping */\n      0x06\n        /* \"contracts/TokenStaking.sol\":8757:8778  stakeMapping[account] */\n      0x00\n        /* \"contracts/TokenStaking.sol\":8770:8777  account */\n      dup11\n        /* \"contracts/TokenStaking.sol\":8757:8778  stakeMapping[account] */\n      0xffffffffffffffffffffffffffffffffffffffff\n      and\n      0xffffffffffffffffffffffffffffffffffffffff\n      and\n      dup2\n      mstore\n      0x20\n      add\n      swap1\n      dup2\n      mstore\n      0x20\n      add\n      0x00\n      keccak256\n        /* \"contracts/TokenStaking.sol\":8779:8784  index */\n      dup9\n        /* \"contracts/TokenStaking.sol\":8757:8785  stakeMapping[account][index] */\n      dup2\n      sload\n      dup2\n      lt\n      tag_319\n      jumpi\n      tag_320\n      tag_97\n      jump\t// in\n    tag_320:\n    tag_319:\n      swap1\n      0x00\n      mstore\n      keccak256(0x00, 0x20)\n      swap1\n      0x06\n      mul\n      add\n        /* \"contracts/TokenStaking.sol\":8757:8800  stakeMapping[account][index].interestAmount */\n      0x04\n      add\n      sload\n        /* \"contracts/TokenStaking.sol\":8746:8754  interest */\n      dup4\n        /* \"contracts/TokenStaking.sol\":8746:8800  interest - stakeMapping[account][index].interestAmount */\n      tag_322\n      swap2\n      swap1\n      tag_109\n      jump\t// in\n    tag_322:\n        /* \"contracts/TokenStaking.sol\":8724:8800  uint interestAmount = interest - stakeMapping[account][index].interestAmount */\n      swap1\n      pop\n        /* \"contracts/TokenStaking.sol\":8811:8841  RedeemInfo memory redeemResult */\n      0x00\n        /* \"contracts/TokenStaking.sol\":8844:8917  RedeemInfo(buybackAmount, interestAmount, buybackAmount + interestAmount) */\n      mload(0x40)\n      dup1\n      0x60\n      add\n      0x40\n      mstore\n      dup1\n        /* \"contracts/TokenStaking.sol\":8855:8868  buybackAmount */\n      dup5\n        /* \"contracts/TokenStaking.sol\":8844:8917  RedeemInfo(buybackAmount, interestAmount, buybackAmount + interestAmount) */\n      dup2\n      mstore\n      0x20\n      add\n        /* \"contracts/TokenStaking.sol\":8870:8884  interestAmount */\n      dup4\n        /* \"contracts/TokenStaking.sol\":8844:8917  RedeemInfo(buybackAmount, interestAmount, buybackAmount + interestAmount) */\n      dup2\n      mstore\n      0x20\n      add\n        /* \"contracts/TokenStaking.sol\":8902:8916  interestAmount */\n      dup4\n        /* \"contracts/TokenStaking.sol\":8886:8899  buybackAmount */\n      dup6\n        /* \"contracts/TokenStaking.sol\":8886:8916  buybackAmount + interestAmount */\n      tag_323\n      swap2\n      swap1\n      tag_122\n      jump\t// in\n    tag_323:\n        /* \"contracts/TokenStaking.sol\":8844:8917  RedeemInfo(buybackAmount, interestAmount, buybackAmount + interestAmount) */\n      dup2\n      mstore\n      pop\n        /* \"contracts/TokenStaking.sol\":8811:8917  RedeemInfo memory redeemResult = RedeemInfo(buybackAmount, interestAmount, buybackAmount + interestAmount) */\n      swap1\n      pop\n        /* \"contracts/TokenStaking.sol\":8935:8947  redeemResult */\n      dup1\n        /* \"contracts/TokenStaking.sol\":8928:8947  return redeemResult */\n      swap8\n      pop\n      pop\n      pop\n      pop\n      pop\n      pop\n      pop\n      pop\n        /* \"contracts/TokenStaking.sol\":7995:8954  function calculateRedeemable(address account, uint256 index) internal view returns (RedeemInfo memory) {... */\n      swap3\n      swap2\n      pop\n      pop\n      jump\t// out\n        /* \"@openzeppelin/contracts@4.7.0/token/ERC20/utils/SafeERC20.sol\":763:968  function safeTransfer(... */\n    tag_141:\n        /* \"@openzeppelin/contracts@4.7.0/token/ERC20/utils/SafeERC20.sol\":875:961  _callOptionalReturn(token, abi.encodeWithSelector(token.transfer.selector, to, value)) */\n      tag_325\n        /* \"@openzeppelin/contracts@4.7.0/token/ERC20/utils/SafeERC20.sol\":895:900  token */\n      dup4\n        /* \"@openzeppelin/contracts@4.7.0/token/ERC20/utils/SafeERC20.sol\":925:948  token.transfer.selector */\n      shl(0xe0, 0xa9059cbb)\n        /* \"@openzeppelin/contracts@4.7.0/token/ERC20/utils/SafeERC20.sol\":950:952  to */\n      dup5\n        /* \"@openzeppelin/contracts@4.7.0/token/ERC20/utils/SafeERC20.sol\":954:959  value */\n      dup5\n        /* \"@openzeppelin/contracts@4.7.0/token/ERC20/utils/SafeERC20.sol\":902:960  abi.encodeWithSelector(token.transfer.selector, to, value) */\n      add(0x24, mload(0x40))\n      tag_326\n      swap3\n      swap2\n      swap1\n      tag_169\n      jump\t// in\n    tag_326:\n      mload(0x40)\n      0x20\n      dup2\n      dup4\n      sub\n      sub\n      dup2\n      mstore\n      swap1\n      0x40\n      mstore\n      swap1\n      not(0xffffffffffffffffffffffffffffffffffffffffffffffffffffffff)\n      and\n      0x20\n      dup3\n      add\n      dup1\n      mload\n      0xffffffffffffffffffffffffffffffffffffffffffffffffffffffff\n      dup4\n      dup2\n      dup4\n      and\n      or\n      dup4\n      mstore\n      pop\n      pop\n      pop\n      pop\n        /* \"@openzeppelin/contracts@4.7.0/token/ERC20/utils/SafeERC20.sol\":875:894  _callOptionalReturn */\n      tag_327\n        /* \"@openzeppelin/contracts@4.7.0/token/ERC20/utils/SafeERC20.sol\":875:961  _callOptionalReturn(token, abi.encodeWithSelector(token.transfer.selector, to, value)) */\n      jump\t// in\n    tag_325:\n        /* \"@openzeppelin/contracts@4.7.0/token/ERC20/utils/SafeERC20.sol\":763:968  function safeTransfer(... */\n      pop\n      pop\n      pop\n      jump\t// out\n        /* \"contracts/TokenStaking.sol\":7386:7989  function calculateTotalRedeemable(address account) internal view returns (RedeemInfo memory) {... */\n    tag_163:\n        /* \"contracts/TokenStaking.sol\":7460:7477  RedeemInfo memory */\n      tag_328\n      tag_144\n      jump\t// in\n    tag_328:\n        /* \"contracts/TokenStaking.sol\":7490:7511  uint256 buybackAmount */\n      0x00\n        /* \"contracts/TokenStaking.sol\":7525:7547  uint256 interestAmount */\n      dup1\n        /* \"contracts/TokenStaking.sol\":7567:7573  uint i */\n      0x00\n        /* \"contracts/TokenStaking.sol\":7562:7825  for (uint i = 0; i < stakeMapping[account].length; i++) {... */\n    tag_330:\n        /* \"contracts/TokenStaking.sol\":7583:7595  stakeMapping */\n      0x06\n        /* \"contracts/TokenStaking.sol\":7583:7604  stakeMapping[account] */\n      0x00\n        /* \"contracts/TokenStaking.sol\":7596:7603  account */\n      dup7\n        /* \"contracts/TokenStaking.sol\":7583:7604  stakeMapping[account] */\n      0xffffffffffffffffffffffffffffffffffffffff\n      and\n      0xffffffffffffffffffffffffffffffffffffffff\n      and\n      dup2\n      mstore\n      0x20\n      add\n      swap1\n      dup2\n      mstore\n      0x20\n      add\n      0x00\n      keccak256\n        /* \"contracts/TokenStaking.sol\":7583:7611  stakeMapping[account].length */\n      dup1\n      sload\n      swap1\n      pop\n        /* \"contracts/TokenStaking.sol\":7579:7580  i */\n      dup2\n        /* \"contracts/TokenStaking.sol\":7579:7611  i < stakeMapping[account].length */\n      lt\n        /* \"contracts/TokenStaking.sol\":7562:7825  for (uint i = 0; i < stakeMapping[account].length; i++) {... */\n      iszero\n      tag_331\n      jumpi\n        /* \"contracts/TokenStaking.sol\":7633:7663  RedeemInfo memory redeemResult */\n      0x00\n        /* \"contracts/TokenStaking.sol\":7666:7697  calculateRedeemable(account, i) */\n      tag_333\n        /* \"contracts/TokenStaking.sol\":7686:7693  account */\n      dup7\n        /* \"contracts/TokenStaking.sol\":7695:7696  i */\n      dup4\n        /* \"contracts/TokenStaking.sol\":7666:7685  calculateRedeemable */\n      tag_91\n        /* \"contracts/TokenStaking.sol\":7666:7697  calculateRedeemable(account, i) */\n      jump\t// in\n    tag_333:\n        /* \"contracts/TokenStaking.sol\":7633:7697  RedeemInfo memory redeemResult = calculateRedeemable(account, i) */\n      swap1\n      pop\n        /* \"contracts/TokenStaking.sol\":7729:7741  redeemResult */\n      dup1\n        /* \"contracts/TokenStaking.sol\":7729:7755  redeemResult.buybackAmount */\n      0x00\n      add\n      mload\n        /* \"contracts/TokenStaking.sol\":7712:7755  buybackAmount += redeemResult.buybackAmount */\n      dup5\n      tag_334\n      swap2\n      swap1\n      tag_122\n      jump\t// in\n    tag_334:\n      swap4\n      pop\n        /* \"contracts/TokenStaking.sol\":7787:7799  redeemResult */\n      dup1\n        /* \"contracts/TokenStaking.sol\":7787:7814  redeemResult.interestAmount */\n      0x20\n      add\n      mload\n        /* \"contracts/TokenStaking.sol\":7769:7814  interestAmount += redeemResult.interestAmount */\n      dup4\n      tag_335\n      swap2\n      swap1\n      tag_122\n      jump\t// in\n    tag_335:\n      swap3\n      pop\n        /* \"contracts/TokenStaking.sol\":7618:7825  {... */\n      pop\n        /* \"contracts/TokenStaking.sol\":7613:7616  i++ */\n      dup1\n      dup1\n      tag_336\n      swap1\n      tag_135\n      jump\t// in\n    tag_336:\n      swap2\n      pop\n      pop\n        /* \"contracts/TokenStaking.sol\":7562:7825  for (uint i = 0; i < stakeMapping[account].length; i++) {... */\n      jump(tag_330)\n    tag_331:\n      pop\n        /* \"contracts/TokenStaking.sol\":7835:7870  RedeemInfo memory totalRedeemResult */\n      0x00\n        /* \"contracts/TokenStaking.sol\":7873:7946  RedeemInfo(buybackAmount, interestAmount, buybackAmount + interestAmount) */\n      mload(0x40)\n      dup1\n      0x60\n      add\n      0x40\n      mstore\n      dup1\n        /* \"contracts/TokenStaking.sol\":7884:7897  buybackAmount */\n      dup5\n        /* \"contracts/TokenStaking.sol\":7873:7946  RedeemInfo(buybackAmount, interestAmount, buybackAmount + interestAmount) */\n      dup2\n      mstore\n      0x20\n      add\n        /* \"contracts/TokenStaking.sol\":7899:7913  interestAmount */\n      dup4\n        /* \"contracts/TokenStaking.sol\":7873:7946  RedeemInfo(buybackAmount, interestAmount, buybackAmount + interestAmount) */\n      dup2\n      mstore\n      0x20\n      add\n        /* \"contracts/TokenStaking.sol\":7931:7945  interestAmount */\n      dup4\n        /* \"contracts/TokenStaking.sol\":7915:7928  buybackAmount */\n      dup6\n        /* \"contracts/TokenStaking.sol\":7915:7945  buybackAmount + interestAmount */\n      tag_337\n      swap2\n      swap1\n      tag_122\n      jump\t// in\n    tag_337:\n        /* \"contracts/TokenStaking.sol\":7873:7946  RedeemInfo(buybackAmount, interestAmount, buybackAmount + interestAmount) */\n      dup2\n      mstore\n      pop\n        /* \"contracts/TokenStaking.sol\":7835:7946  RedeemInfo memory totalRedeemResult = RedeemInfo(buybackAmount, interestAmount, buybackAmount + interestAmount) */\n      swap1\n      pop\n        /* \"contracts/TokenStaking.sol\":7964:7981  totalRedeemResult */\n      dup1\n        /* \"contracts/TokenStaking.sol\":7957:7981  return totalRedeemResult */\n      swap4\n      pop\n      pop\n      pop\n      pop\n        /* \"contracts/TokenStaking.sol\":7386:7989  function calculateTotalRedeemable(address account) internal view returns (RedeemInfo memory) {... */\n      swap2\n      swap1\n      pop\n      jump\t// out\n        /* \"@openzeppelin/contracts@4.7.0/token/ERC20/utils/SafeERC20.sol\":974:1215  function safeTransferFrom(... */\n    tag_265:\n        /* \"@openzeppelin/contracts@4.7.0/token/ERC20/utils/SafeERC20.sol\":1112:1208  _callOptionalReturn(token, abi.encodeWithSelector(token.transferFrom.selector, from, to, value)) */\n      tag_339\n        /* \"@openzeppelin/contracts@4.7.0/token/ERC20/utils/SafeERC20.sol\":1132:1137  token */\n      dup5\n        /* \"@openzeppelin/contracts@4.7.0/token/ERC20/utils/SafeERC20.sol\":1162:1189  token.transferFrom.selector */\n      shl(0xe0, 0x23b872dd)\n        /* \"@openzeppelin/contracts@4.7.0/token/ERC20/utils/SafeERC20.sol\":1191:1195  from */\n      dup6\n        /* \"@openzeppelin/contracts@4.7.0/token/ERC20/utils/SafeERC20.sol\":1197:1199  to */\n      dup6\n        /* \"@openzeppelin/contracts@4.7.0/token/ERC20/utils/SafeERC20.sol\":1201:1206  value */\n      dup6\n        /* \"@openzeppelin/contracts@4.7.0/token/ERC20/utils/SafeERC20.sol\":1139:1207  abi.encodeWithSelector(token.transferFrom.selector, from, to, value) */\n      add(0x24, mload(0x40))\n      tag_340\n      swap4\n      swap3\n      swap2\n      swap1\n      tag_341\n      jump\t// in\n    tag_340:\n      mload(0x40)\n      0x20\n      dup2\n      dup4\n      sub\n      sub\n      dup2\n      mstore\n      swap1\n      0x40\n      mstore\n      swap1\n      not(0xffffffffffffffffffffffffffffffffffffffffffffffffffffffff)\n      and\n      0x20\n      dup3\n      add\n      dup1\n      mload\n      0xffffffffffffffffffffffffffffffffffffffffffffffffffffffff\n      dup4\n      dup2\n      dup4\n      and\n      or\n      dup4\n      mstore\n      pop\n      pop\n      pop\n      pop\n        /* \"@openzeppelin/contracts@4.7.0/token/ERC20/utils/SafeERC20.sol\":1112:1131  _callOptionalReturn */\n      tag_327\n        /* \"@openzeppelin/contracts@4.7.0/token/ERC20/utils/SafeERC20.sol\":1112:1208  _callOptionalReturn(token, abi.encodeWithSelector(token.transferFrom.selector, from, to, value)) */\n      jump\t// in\n    tag_339:\n        /* \"@openzeppelin/contracts@4.7.0/token/ERC20/utils/SafeERC20.sol\":974:1215  function safeTransferFrom(... */\n      pop\n      pop\n      pop\n      pop\n      jump\t// out\n        /* \"@openzeppelin/contracts@4.7.0/token/ERC20/utils/SafeERC20.sol\":3747:4453  function _callOptionalReturn(IERC20 token, bytes memory data) private {... */\n    tag_327:\n        /* \"@openzeppelin/contracts@4.7.0/token/ERC20/utils/SafeERC20.sol\":4166:4189  bytes memory returndata */\n      0x00\n        /* \"@openzeppelin/contracts@4.7.0/token/ERC20/utils/SafeERC20.sol\":4192:4261  address(token).functionCall(data, \"SafeERC20: low-level call failed\") */\n      tag_343\n        /* \"@openzeppelin/contracts@4.7.0/token/ERC20/utils/SafeERC20.sol\":4220:4224  data */\n      dup3\n        /* \"@openzeppelin/contracts@4.7.0/token/ERC20/utils/SafeERC20.sol\":4192:4261  address(token).functionCall(data, \"SafeERC20: low-level call failed\") */\n      mload(0x40)\n      dup1\n      0x40\n      add\n      0x40\n      mstore\n      dup1\n      0x20\n      dup2\n      mstore\n      0x20\n      add\n      0x5361666545524332303a206c6f772d6c6576656c2063616c6c206661696c6564\n      dup2\n      mstore\n      pop\n        /* \"@openzeppelin/contracts@4.7.0/token/ERC20/utils/SafeERC20.sol\":4200:4205  token */\n      dup6\n        /* \"@openzeppelin/contracts@4.7.0/token/ERC20/utils/SafeERC20.sol\":4192:4219  address(token).functionCall */\n      0xffffffffffffffffffffffffffffffffffffffff\n      and\n      tag_344\n      swap1\n        /* \"@openzeppelin/contracts@4.7.0/token/ERC20/utils/SafeERC20.sol\":4192:4261  address(token).functionCall(data, \"SafeERC20: low-level call failed\") */\n      swap3\n      swap2\n      swap1\n      0xffffffff\n      and\n      jump\t// in\n    tag_343:\n        /* \"@openzeppelin/contracts@4.7.0/token/ERC20/utils/SafeERC20.sol\":4166:4261  bytes memory returndata = address(token).functionCall(data, \"SafeERC20: low-level call failed\") */\n      swap1\n      pop\n        /* \"@openzeppelin/contracts@4.7.0/token/ERC20/utils/SafeERC20.sol\":4295:4296  0 */\n      0x00\n        /* \"@openzeppelin/contracts@4.7.0/token/ERC20/utils/SafeERC20.sol\":4275:4285  returndata */\n      dup2\n        /* \"@openzeppelin/contracts@4.7.0/token/ERC20/utils/SafeERC20.sol\":4275:4292  returndata.length */\n      mload\n        /* \"@openzeppelin/contracts@4.7.0/token/ERC20/utils/SafeERC20.sol\":4275:4296  returndata.length > 0 */\n      gt\n        /* \"@openzeppelin/contracts@4.7.0/token/ERC20/utils/SafeERC20.sol\":4271:4447  if (returndata.length > 0) {... */\n      iszero\n      tag_345\n      jumpi\n        /* \"@openzeppelin/contracts@4.7.0/token/ERC20/utils/SafeERC20.sol\":4370:4380  returndata */\n      dup1\n        /* \"@openzeppelin/contracts@4.7.0/token/ERC20/utils/SafeERC20.sol\":4359:4389  abi.decode(returndata, (bool)) */\n      dup1\n      0x20\n      add\n      swap1\n      mload\n      dup2\n      add\n      swap1\n      tag_346\n      swap2\n      swap1\n      tag_174\n      jump\t// in\n    tag_346:\n        /* \"@openzeppelin/contracts@4.7.0/token/ERC20/utils/SafeERC20.sol\":4351:4436  require(abi.decode(returndata, (bool)), \"SafeERC20: ERC20 operation did not succeed\") */\n      tag_347\n      jumpi\n      mload(0x40)\n      0x08c379a000000000000000000000000000000000000000000000000000000000\n      dup2\n      mstore\n      0x04\n      add\n      tag_348\n      swap1\n      tag_349\n      jump\t// in\n    tag_348:\n      mload(0x40)\n      dup1\n      swap2\n      sub\n      swap1\n      revert\n    tag_347:\n        /* \"@openzeppelin/contracts@4.7.0/token/ERC20/utils/SafeERC20.sol\":4271:4447  if (returndata.length > 0) {... */\n    tag_345:\n        /* \"@openzeppelin/contracts@4.7.0/token/ERC20/utils/SafeERC20.sol\":3817:4453  {... */\n      pop\n        /* \"@openzeppelin/contracts@4.7.0/token/ERC20/utils/SafeERC20.sol\":3747:4453  function _callOptionalReturn(IERC20 token, bytes memory data) private {... */\n      pop\n      pop\n      jump\t// out\n        /* \"@openzeppelin/contracts@4.7.0/utils/Address.sol\":3861:4084  function functionCall(... */\n    tag_344:\n        /* \"@openzeppelin/contracts@4.7.0/utils/Address.sol\":3994:4006  bytes memory */\n      0x60\n        /* \"@openzeppelin/contracts@4.7.0/utils/Address.sol\":4025:4077  functionCallWithValue(target, data, 0, errorMessage) */\n      tag_351\n        /* \"@openzeppelin/contracts@4.7.0/utils/Address.sol\":4047:4053  target */\n      dup5\n        /* \"@openzeppelin/contracts@4.7.0/utils/Address.sol\":4055:4059  data */\n      dup5\n        /* \"@openzeppelin/contracts@4.7.0/utils/Address.sol\":4061:4062  0 */\n      0x00\n        /* \"@openzeppelin/contracts@4.7.0/utils/Address.sol\":4064:4076  errorMessage */\n      dup6\n        /* \"@openzeppelin/contracts@4.7.0/utils/Address.sol\":4025:4046  functionCallWithValue */\n      tag_352\n        /* \"@openzeppelin/contracts@4.7.0/utils/Address.sol\":4025:4077  functionCallWithValue(target, data, 0, errorMessage) */\n      jump\t// in\n    tag_351:\n        /* \"@openzeppelin/contracts@4.7.0/utils/Address.sol\":4018:4077  return functionCallWithValue(target, data, 0, errorMessage) */\n      swap1\n      pop\n        /* \"@openzeppelin/contracts@4.7.0/utils/Address.sol\":3861:4084  function functionCall(... */\n      swap4\n      swap3\n      pop\n      pop\n      pop\n      jump\t// out\n        /* \"@openzeppelin/contracts@4.7.0/utils/Address.sol\":4948:5447  function functionCallWithValue(... */\n    tag_352:\n        /* \"@openzeppelin/contracts@4.7.0/utils/Address.sol\":5113:5125  bytes memory */\n      0x60\n        /* \"@openzeppelin/contracts@4.7.0/utils/Address.sol\":5170:5175  value */\n      dup3\n        /* \"@openzeppelin/contracts@4.7.0/utils/Address.sol\":5145:5166  address(this).balance */\n      selfbalance\n        /* \"@openzeppelin/contracts@4.7.0/utils/Address.sol\":5145:5175  address(this).balance >= value */\n      lt\n      iszero\n        /* \"@openzeppelin/contracts@4.7.0/utils/Address.sol\":5137:5218  require(address(this).balance >= value, \"Address: insufficient balance for call\") */\n      tag_354\n      jumpi\n      mload(0x40)\n      0x08c379a000000000000000000000000000000000000000000000000000000000\n      dup2\n      mstore\n      0x04\n      add\n      tag_355\n      swap1\n      tag_356\n      jump\t// in\n    tag_355:\n      mload(0x40)\n      dup1\n      swap2\n      sub\n      swap1\n      revert\n    tag_354:\n        /* \"@openzeppelin/contracts@4.7.0/utils/Address.sol\":5236:5254  isContract(target) */\n      tag_357\n        /* \"@openzeppelin/contracts@4.7.0/utils/Address.sol\":5247:5253  target */\n      dup6\n        /* \"@openzeppelin/contracts@4.7.0/utils/Address.sol\":5236:5246  isContract */\n      tag_358\n        /* \"@openzeppelin/contracts@4.7.0/utils/Address.sol\":5236:5254  isContract(target) */\n      jump\t// in\n    tag_357:\n        /* \"@openzeppelin/contracts@4.7.0/utils/Address.sol\":5228:5288  require(isContract(target), \"Address: call to non-contract\") */\n      tag_359\n      jumpi\n      mload(0x40)\n      0x08c379a000000000000000000000000000000000000000000000000000000000\n      dup2\n      mstore\n      0x04\n      add\n      tag_360\n      swap1\n      tag_361\n      jump\t// in\n    tag_360:\n      mload(0x40)\n      dup1\n      swap2\n      sub\n      swap1\n      revert\n    tag_359:\n        /* \"@openzeppelin/contracts@4.7.0/utils/Address.sol\":5300:5312  bool success */\n      0x00\n        /* \"@openzeppelin/contracts@4.7.0/utils/Address.sol\":5314:5337  bytes memory returndata */\n      dup1\n        /* \"@openzeppelin/contracts@4.7.0/utils/Address.sol\":5341:5347  target */\n      dup7\n        /* \"@openzeppelin/contracts@4.7.0/utils/Address.sol\":5341:5352  target.call */\n      0xffffffffffffffffffffffffffffffffffffffff\n      and\n        /* \"@openzeppelin/contracts@4.7.0/utils/Address.sol\":5360:5365  value */\n      dup6\n        /* \"@openzeppelin/contracts@4.7.0/utils/Address.sol\":5367:5371  data */\n      dup8\n        /* \"@openzeppelin/contracts@4.7.0/utils/Address.sol\":5341:5372  target.call{value: value}(data) */\n      mload(0x40)\n      tag_362\n      swap2\n      swap1\n      tag_363\n      jump\t// in\n    tag_362:\n      0x00\n      mload(0x40)\n      dup1\n      dup4\n      sub\n      dup2\n      dup6\n      dup8\n      gas\n      call\n      swap3\n      pop\n      pop\n      pop\n      returndatasize\n      dup1\n      0x00\n      dup2\n      eq\n      tag_366\n      jumpi\n      mload(0x40)\n      swap2\n      pop\n      and(add(returndatasize, 0x3f), not(0x1f))\n      dup3\n      add\n      0x40\n      mstore\n      returndatasize\n      dup3\n      mstore\n      returndatasize\n      0x00\n      0x20\n      dup5\n      add\n      returndatacopy\n      jump(tag_365)\n    tag_366:\n      0x60\n      swap2\n      pop\n    tag_365:\n      pop\n        /* \"@openzeppelin/contracts@4.7.0/utils/Address.sol\":5299:5372  (bool success, bytes memory returndata) = target.call{value: value}(data) */\n      swap2\n      pop\n      swap2\n      pop\n        /* \"@openzeppelin/contracts@4.7.0/utils/Address.sol\":5389:5440  verifyCallResult(success, returndata, errorMessage) */\n      tag_367\n        /* \"@openzeppelin/contracts@4.7.0/utils/Address.sol\":5406:5413  success */\n      dup3\n        /* \"@openzeppelin/contracts@4.7.0/utils/Address.sol\":5415:5425  returndata */\n      dup3\n        /* \"@openzeppelin/contracts@4.7.0/utils/Address.sol\":5427:5439  errorMessage */\n      dup7\n        /* \"@openzeppelin/contracts@4.7.0/utils/Address.sol\":5389:5405  verifyCallResult */\n      tag_368\n        /* \"@openzeppelin/contracts@4.7.0/utils/Address.sol\":5389:5440  verifyCallResult(success, returndata, errorMessage) */\n      jump\t// in\n    tag_367:\n        /* \"@openzeppelin/contracts@4.7.0/utils/Address.sol\":5382:5440  return verifyCallResult(success, returndata, errorMessage) */\n      swap3\n      pop\n      pop\n      pop\n        /* \"@openzeppelin/contracts@4.7.0/utils/Address.sol\":4948:5447  function functionCallWithValue(... */\n      swap5\n      swap4\n      pop\n      pop\n      pop\n      pop\n      jump\t// out\n        /* \"@openzeppelin/contracts@4.7.0/utils/Address.sol\":1175:1495  function isContract(address account) internal view returns (bool) {... */\n    tag_358:\n        /* \"@openzeppelin/contracts@4.7.0/utils/Address.sol\":1235:1239  bool */\n      0x00\n        /* \"@openzeppelin/contracts@4.7.0/utils/Address.sol\":1487:1488  0 */\n      dup1\n        /* \"@openzeppelin/contracts@4.7.0/utils/Address.sol\":1465:1472  account */\n      dup3\n        /* \"@openzeppelin/contracts@4.7.0/utils/Address.sol\":1465:1484  account.code.length */\n      0xffffffffffffffffffffffffffffffffffffffff\n      and\n      extcodesize\n        /* \"@openzeppelin/contracts@4.7.0/utils/Address.sol\":1465:1488  account.code.length > 0 */\n      gt\n        /* \"@openzeppelin/contracts@4.7.0/utils/Address.sol\":1458:1488  return account.code.length > 0 */\n      swap1\n      pop\n        /* \"@openzeppelin/contracts@4.7.0/utils/Address.sol\":1175:1495  function isContract(address account) internal view returns (bool) {... */\n      swap2\n      swap1\n      pop\n      jump\t// out\n        /* \"@openzeppelin/contracts@4.7.0/utils/Address.sol\":7561:8303  function verifyCallResult(... */\n    tag_368:\n        /* \"@openzeppelin/contracts@4.7.0/utils/Address.sol\":7707:7719  bytes memory */\n      0x60\n        /* \"@openzeppelin/contracts@4.7.0/utils/Address.sol\":7735:7742  success */\n      dup4\n        /* \"@openzeppelin/contracts@4.7.0/utils/Address.sol\":7731:8297  if (success) {... */\n      iszero\n      tag_371\n      jumpi\n        /* \"@openzeppelin/contracts@4.7.0/utils/Address.sol\":7765:7775  returndata */\n      dup3\n        /* \"@openzeppelin/contracts@4.7.0/utils/Address.sol\":7758:7775  return returndata */\n      swap1\n      pop\n      jump(tag_370)\n        /* \"@openzeppelin/contracts@4.7.0/utils/Address.sol\":7731:8297  if (success) {... */\n    tag_371:\n        /* \"@openzeppelin/contracts@4.7.0/utils/Address.sol\":7896:7897  0 */\n      0x00\n        /* \"@openzeppelin/contracts@4.7.0/utils/Address.sol\":7876:7886  returndata */\n      dup4\n        /* \"@openzeppelin/contracts@4.7.0/utils/Address.sol\":7876:7893  returndata.length */\n      mload\n        /* \"@openzeppelin/contracts@4.7.0/utils/Address.sol\":7876:7897  returndata.length > 0 */\n      gt\n        /* \"@openzeppelin/contracts@4.7.0/utils/Address.sol\":7872:8287  if (returndata.length > 0) {... */\n      iszero\n      tag_373\n      jumpi\n        /* \"@openzeppelin/contracts@4.7.0/utils/Address.sol\":8120:8130  returndata */\n      dup3\n        /* \"@openzeppelin/contracts@4.7.0/utils/Address.sol\":8114:8131  mload(returndata) */\n      mload\n        /* \"@openzeppelin/contracts@4.7.0/utils/Address.sol\":8180:8195  returndata_size */\n      dup1\n        /* \"@openzeppelin/contracts@4.7.0/utils/Address.sol\":8167:8177  returndata */\n      dup5\n        /* \"@openzeppelin/contracts@4.7.0/utils/Address.sol\":8163:8165  32 */\n      0x20\n        /* \"@openzeppelin/contracts@4.7.0/utils/Address.sol\":8159:8178  add(32, returndata) */\n      add\n        /* \"@openzeppelin/contracts@4.7.0/utils/Address.sol\":8152:8196  revert(add(32, returndata), returndata_size) */\n      revert\n        /* \"@openzeppelin/contracts@4.7.0/utils/Address.sol\":7872:8287  if (returndata.length > 0) {... */\n    tag_373:\n        /* \"@openzeppelin/contracts@4.7.0/utils/Address.sol\":8259:8271  errorMessage */\n      dup2\n        /* \"@openzeppelin/contracts@4.7.0/utils/Address.sol\":8252:8272  revert(errorMessage) */\n      mload(0x40)\n      0x08c379a000000000000000000000000000000000000000000000000000000000\n      dup2\n      mstore\n      0x04\n      add\n      tag_375\n      swap2\n      swap1\n      tag_376\n      jump\t// in\n    tag_375:\n      mload(0x40)\n      dup1\n      swap2\n      sub\n      swap1\n      revert\n        /* \"@openzeppelin/contracts@4.7.0/utils/Address.sol\":7561:8303  function verifyCallResult(... */\n    tag_370:\n      swap4\n      swap3\n      pop\n      pop\n      pop\n      jump\t// out\n    tag_144:\n      mload(0x40)\n      dup1\n      0x60\n      add\n      0x40\n      mstore\n      dup1\n      0x00\n      dup2\n      mstore\n      0x20\n      add\n      0x00\n      dup2\n      mstore\n      0x20\n      add\n      0x00\n      dup2\n      mstore\n      pop\n      swap1\n      jump\t// out\n        /* \"#utility.yul\":7:146   */\n    tag_378:\n        /* \"#utility.yul\":53:58   */\n      0x00\n        /* \"#utility.yul\":91:97   */\n      dup2\n        /* \"#utility.yul\":78:98   */\n      calldataload\n        /* \"#utility.yul\":69:98   */\n      swap1\n      pop\n        /* \"#utility.yul\":107:140   */\n      tag_380\n        /* \"#utility.yul\":134:139   */\n      dup2\n        /* \"#utility.yul\":107:140   */\n      tag_381\n      jump\t// in\n    tag_380:\n        /* \"#utility.yul\":7:146   */\n      swap3\n      swap2\n      pop\n      pop\n      jump\t// out\n        /* \"#utility.yul\":152:289   */\n    tag_382:\n        /* \"#utility.yul\":206:211   */\n      0x00\n        /* \"#utility.yul\":237:243   */\n      dup2\n        /* \"#utility.yul\":231:244   */\n      mload\n        /* \"#utility.yul\":222:244   */\n      swap1\n      pop\n        /* \"#utility.yul\":253:283   */\n      tag_384\n        /* \"#utility.yul\":277:282   */\n      dup2\n        /* \"#utility.yul\":253:283   */\n      tag_385\n      jump\t// in\n    tag_384:\n        /* \"#utility.yul\":152:289   */\n      swap3\n      swap2\n      pop\n      pop\n      jump\t// out\n        /* \"#utility.yul\":295:434   */\n    tag_386:\n        /* \"#utility.yul\":341:346   */\n      0x00\n        /* \"#utility.yul\":379:385   */\n      dup2\n        /* \"#utility.yul\":366:386   */\n      calldataload\n        /* \"#utility.yul\":357:386   */\n      swap1\n      pop\n        /* \"#utility.yul\":395:428   */\n      tag_388\n        /* \"#utility.yul\":422:427   */\n      dup2\n        /* \"#utility.yul\":395:428   */\n      tag_389\n      jump\t// in\n    tag_388:\n        /* \"#utility.yul\":295:434   */\n      swap3\n      swap2\n      pop\n      pop\n      jump\t// out\n        /* \"#utility.yul\":440:769   */\n    tag_24:\n        /* \"#utility.yul\":499:505   */\n      0x00\n        /* \"#utility.yul\":548:550   */\n      0x20\n        /* \"#utility.yul\":536:545   */\n      dup3\n        /* \"#utility.yul\":527:534   */\n      dup5\n        /* \"#utility.yul\":523:546   */\n      sub\n        /* \"#utility.yul\":519:551   */\n      slt\n        /* \"#utility.yul\":516:635   */\n      iszero\n      tag_391\n      jumpi\n        /* \"#utility.yul\":554:633   */\n      tag_392\n      tag_393\n      jump\t// in\n    tag_392:\n        /* \"#utility.yul\":516:635   */\n    tag_391:\n        /* \"#utility.yul\":674:675   */\n      0x00\n        /* \"#utility.yul\":699:752   */\n      tag_394\n        /* \"#utility.yul\":744:751   */\n      dup5\n        /* \"#utility.yul\":735:741   */\n      dup3\n        /* \"#utility.yul\":724:733   */\n      dup6\n        /* \"#utility.yul\":720:742   */\n      add\n        /* \"#utility.yul\":699:752   */\n      tag_378\n      jump\t// in\n    tag_394:\n        /* \"#utility.yul\":689:752   */\n      swap2\n      pop\n        /* \"#utility.yul\":645:762   */\n      pop\n        /* \"#utility.yul\":440:769   */\n      swap3\n      swap2\n      pop\n      pop\n      jump\t// out\n        /* \"#utility.yul\":775:1249   */\n    tag_41:\n        /* \"#utility.yul\":843:849   */\n      0x00\n        /* \"#utility.yul\":851:857   */\n      dup1\n        /* \"#utility.yul\":900:902   */\n      0x40\n        /* \"#utility.yul\":888:897   */\n      dup4\n        /* \"#utility.yul\":879:886   */\n      dup6\n        /* \"#utility.yul\":875:898   */\n      sub\n        /* \"#utility.yul\":871:903   */\n      slt\n        /* \"#utility.yul\":868:987   */\n      iszero\n      tag_396\n      jumpi\n        /* \"#utility.yul\":906:985   */\n      tag_397\n      tag_393\n      jump\t// in\n    tag_397:\n        /* \"#utility.yul\":868:987   */\n    tag_396:\n        /* \"#utility.yul\":1026:1027   */\n      0x00\n        /* \"#utility.yul\":1051:1104   */\n      tag_398\n        /* \"#utility.yul\":1096:1103   */\n      dup6\n        /* \"#utility.yul\":1087:1093   */\n      dup3\n        /* \"#utility.yul\":1076:1085   */\n      dup7\n        /* \"#utility.yul\":1072:1094   */\n      add\n        /* \"#utility.yul\":1051:1104   */\n      tag_378\n      jump\t// in\n    tag_398:\n        /* \"#utility.yul\":1041:1104   */\n      swap3\n      pop\n        /* \"#utility.yul\":997:1114   */\n      pop\n        /* \"#utility.yul\":1153:1155   */\n      0x20\n        /* \"#utility.yul\":1179:1232   */\n      tag_399\n        /* \"#utility.yul\":1224:1231   */\n      dup6\n        /* \"#utility.yul\":1215:1221   */\n      dup3\n        /* \"#utility.yul\":1204:1213   */\n      dup7\n        /* \"#utility.yul\":1200:1222   */\n      add\n        /* \"#utility.yul\":1179:1232   */\n      tag_386\n      jump\t// in\n    tag_399:\n        /* \"#utility.yul\":1169:1232   */\n      swap2\n      pop\n        /* \"#utility.yul\":1124:1242   */\n      pop\n        /* \"#utility.yul\":775:1249   */\n      swap3\n      pop\n      swap3\n      swap1\n      pop\n      jump\t// out\n        /* \"#utility.yul\":1255:1600   */\n    tag_174:\n        /* \"#utility.yul\":1322:1328   */\n      0x00\n        /* \"#utility.yul\":1371:1373   */\n      0x20\n        /* \"#utility.yul\":1359:1368   */\n      dup3\n        /* \"#utility.yul\":1350:1357   */\n      dup5\n        /* \"#utility.yul\":1346:1369   */\n      sub\n        /* \"#utility.yul\":1342:1374   */\n      slt\n        /* \"#utility.yul\":1339:1458   */\n      iszero\n      tag_401\n      jumpi\n        /* \"#utility.yul\":1377:1456   */\n      tag_402\n      tag_393\n      jump\t// in\n    tag_402:\n        /* \"#utility.yul\":1339:1458   */\n    tag_401:\n        /* \"#utility.yul\":1497:1498   */\n      0x00\n        /* \"#utility.yul\":1522:1583   */\n      tag_403\n        /* \"#utility.yul\":1575:1582   */\n      dup5\n        /* \"#utility.yul\":1566:1572   */\n      dup3\n        /* \"#utility.yul\":1555:1564   */\n      dup6\n        /* \"#utility.yul\":1551:1573   */\n      add\n        /* \"#utility.yul\":1522:1583   */\n      tag_382\n      jump\t// in\n    tag_403:\n        /* \"#utility.yul\":1512:1583   */\n      swap2\n      pop\n        /* \"#utility.yul\":1468:1593   */\n      pop\n        /* \"#utility.yul\":1255:1600   */\n      swap3\n      swap2\n      pop\n      pop\n      jump\t// out\n        /* \"#utility.yul\":1606:1935   */\n    tag_30:\n        /* \"#utility.yul\":1665:1671   */\n      0x00\n        /* \"#utility.yul\":1714:1716   */\n      0x20\n        /* \"#utility.yul\":1702:1711   */\n      dup3\n        /* \"#utility.yul\":1693:1700   */\n      dup5\n        /* \"#utility.yul\":1689:1712   */\n      sub\n        /* \"#utility.yul\":1685:1717   */\n      slt\n        /* \"#utility.yul\":1682:1801   */\n      iszero\n      tag_405\n      jumpi\n        /* \"#utility.yul\":1720:1799   */\n      tag_406\n      tag_393\n      jump\t// in\n    tag_406:\n        /* \"#utility.yul\":1682:1801   */\n    tag_405:\n        /* \"#utility.yul\":1840:1841   */\n      0x00\n        /* \"#utility.yul\":1865:1918   */\n      tag_407\n        /* \"#utility.yul\":1910:1917   */\n      dup5\n        /* \"#utility.yul\":1901:1907   */\n      dup3\n        /* \"#utility.yul\":1890:1899   */\n      dup6\n        /* \"#utility.yul\":1886:1908   */\n      add\n        /* \"#utility.yul\":1865:1918   */\n      tag_386\n      jump\t// in\n    tag_407:\n        /* \"#utility.yul\":1855:1918   */\n      swap2\n      pop\n        /* \"#utility.yul\":1811:1928   */\n      pop\n        /* \"#utility.yul\":1606:1935   */\n      swap3\n      swap2\n      pop\n      pop\n      jump\t// out\n        /* \"#utility.yul\":1941:2415   */\n    tag_68:\n        /* \"#utility.yul\":2009:2015   */\n      0x00\n        /* \"#utility.yul\":2017:2023   */\n      dup1\n        /* \"#utility.yul\":2066:2068   */\n      0x40\n        /* \"#utility.yul\":2054:2063   */\n      dup4\n        /* \"#utility.yul\":2045:2052   */\n      dup6\n        /* \"#utility.yul\":2041:2064   */\n      sub\n        /* \"#utility.yul\":2037:2069   */\n      slt\n        /* \"#utility.yul\":2034:2153   */\n      iszero\n      tag_409\n      jumpi\n        /* \"#utility.yul\":2072:2151   */\n      tag_410\n      tag_393\n      jump\t// in\n    tag_410:\n        /* \"#utility.yul\":2034:2153   */\n    tag_409:\n        /* \"#utility.yul\":2192:2193   */\n      0x00\n        /* \"#utility.yul\":2217:2270   */\n      tag_411\n        /* \"#utility.yul\":2262:2269   */\n      dup6\n        /* \"#utility.yul\":2253:2259   */\n      dup3\n        /* \"#utility.yul\":2242:2251   */\n      dup7\n        /* \"#utility.yul\":2238:2260   */\n      add\n        /* \"#utility.yul\":2217:2270   */\n      tag_386\n      jump\t// in\n    tag_411:\n        /* \"#utility.yul\":2207:2270   */\n      swap3\n      pop\n        /* \"#utility.yul\":2163:2280   */\n      pop\n        /* \"#utility.yul\":2319:2321   */\n      0x20\n        /* \"#utility.yul\":2345:2398   */\n      tag_412\n        /* \"#utility.yul\":2390:2397   */\n      dup6\n        /* \"#utility.yul\":2381:2387   */\n      dup3\n        /* \"#utility.yul\":2370:2379   */\n      dup7\n        /* \"#utility.yul\":2366:2388   */\n      add\n        /* \"#utility.yul\":2345:2398   */\n      tag_386\n      jump\t// in\n    tag_412:\n        /* \"#utility.yul\":2335:2398   */\n      swap2\n      pop\n        /* \"#utility.yul\":2290:2408   */\n      pop\n        /* \"#utility.yul\":1941:2415   */\n      swap3\n      pop\n      swap3\n      swap1\n      pop\n      jump\t// out\n        /* \"#utility.yul\":2421:2617   */\n    tag_413:\n        /* \"#utility.yul\":2510:2520   */\n      0x00\n        /* \"#utility.yul\":2545:2611   */\n      tag_415\n        /* \"#utility.yul\":2607:2610   */\n      dup4\n        /* \"#utility.yul\":2599:2605   */\n      dup4\n        /* \"#utility.yul\":2545:2611   */\n      tag_416\n      jump\t// in\n    tag_415:\n        /* \"#utility.yul\":2531:2611   */\n      swap1\n      pop\n        /* \"#utility.yul\":2421:2617   */\n      swap3\n      swap2\n      pop\n      pop\n      jump\t// out\n        /* \"#utility.yul\":2623:2741   */\n    tag_417:\n        /* \"#utility.yul\":2710:2734   */\n      tag_419\n        /* \"#utility.yul\":2728:2733   */\n      dup2\n        /* \"#utility.yul\":2710:2734   */\n      tag_420\n      jump\t// in\n    tag_419:\n        /* \"#utility.yul\":2705:2708   */\n      dup3\n        /* \"#utility.yul\":2698:2735   */\n      mstore\n        /* \"#utility.yul\":2623:2741   */\n      pop\n      pop\n      jump\t// out\n        /* \"#utility.yul\":2775:3766   */\n    tag_421:\n        /* \"#utility.yul\":2914:2917   */\n      0x00\n        /* \"#utility.yul\":2943:3007   */\n      tag_423\n        /* \"#utility.yul\":3001:3006   */\n      dup3\n        /* \"#utility.yul\":2943:3007   */\n      tag_424\n      jump\t// in\n    tag_423:\n        /* \"#utility.yul\":3023:3119   */\n      tag_425\n        /* \"#utility.yul\":3112:3118   */\n      dup2\n        /* \"#utility.yul\":3107:3110   */\n      dup6\n        /* \"#utility.yul\":3023:3119   */\n      tag_426\n      jump\t// in\n    tag_425:\n        /* \"#utility.yul\":3016:3119   */\n      swap4\n      pop\n        /* \"#utility.yul\":3145:3148   */\n      dup4\n        /* \"#utility.yul\":3190:3194   */\n      0x20\n        /* \"#utility.yul\":3182:3188   */\n      dup3\n        /* \"#utility.yul\":3178:3195   */\n      mul\n        /* \"#utility.yul\":3173:3176   */\n      dup6\n        /* \"#utility.yul\":3169:3196   */\n      add\n        /* \"#utility.yul\":3220:3286   */\n      tag_427\n        /* \"#utility.yul\":3280:3285   */\n      dup6\n        /* \"#utility.yul\":3220:3286   */\n      tag_428\n      jump\t// in\n    tag_427:\n        /* \"#utility.yul\":3309:3316   */\n      dup1\n        /* \"#utility.yul\":3340:3341   */\n      0x00\n        /* \"#utility.yul\":3325:3721   */\n    tag_429:\n        /* \"#utility.yul\":3350:3356   */\n      dup6\n        /* \"#utility.yul\":3347:3348   */\n      dup2\n        /* \"#utility.yul\":3344:3357   */\n      lt\n        /* \"#utility.yul\":3325:3721   */\n      iszero\n      tag_431\n      jumpi\n        /* \"#utility.yul\":3421:3430   */\n      dup5\n        /* \"#utility.yul\":3415:3419   */\n      dup5\n        /* \"#utility.yul\":3411:3431   */\n      sub\n        /* \"#utility.yul\":3406:3409   */\n      dup10\n        /* \"#utility.yul\":3399:3432   */\n      mstore\n        /* \"#utility.yul\":3472:3478   */\n      dup2\n        /* \"#utility.yul\":3466:3479   */\n      mload\n        /* \"#utility.yul\":3500:3584   */\n      tag_432\n        /* \"#utility.yul\":3579:3583   */\n      dup6\n        /* \"#utility.yul\":3564:3577   */\n      dup3\n        /* \"#utility.yul\":3500:3584   */\n      tag_413\n      jump\t// in\n    tag_432:\n        /* \"#utility.yul\":3492:3584   */\n      swap5\n      pop\n        /* \"#utility.yul\":3607:3677   */\n      tag_433\n        /* \"#utility.yul\":3670:3676   */\n      dup4\n        /* \"#utility.yul\":3607:3677   */\n      tag_434\n      jump\t// in\n    tag_433:\n        /* \"#utility.yul\":3597:3677   */\n      swap3\n      pop\n        /* \"#utility.yul\":3706:3710   */\n      0x20\n        /* \"#utility.yul\":3701:3704   */\n      dup11\n        /* \"#utility.yul\":3697:3711   */\n      add\n        /* \"#utility.yul\":3690:3711   */\n      swap10\n      pop\n        /* \"#utility.yul\":3385:3721   */\n      pop\n        /* \"#utility.yul\":3372:3373   */\n      0x01\n        /* \"#utility.yul\":3369:3370   */\n      dup2\n        /* \"#utility.yul\":3365:3374   */\n      add\n        /* \"#utility.yul\":3360:3374   */\n      swap1\n      pop\n        /* \"#utility.yul\":3325:3721   */\n      jump(tag_429)\n    tag_431:\n        /* \"#utility.yul\":3329:3343   */\n      pop\n        /* \"#utility.yul\":3737:3741   */\n      dup3\n        /* \"#utility.yul\":3730:3741   */\n      swap8\n      pop\n        /* \"#utility.yul\":3757:3760   */\n      dup8\n        /* \"#utility.yul\":3750:3760   */\n      swap6\n      pop\n        /* \"#utility.yul\":2919:3766   */\n      pop\n      pop\n      pop\n      pop\n      pop\n        /* \"#utility.yul\":2775:3766   */\n      swap3\n      swap2\n      pop\n      pop\n      jump\t// out\n        /* \"#utility.yul\":3772:4145   */\n    tag_435:\n        /* \"#utility.yul\":3876:3879   */\n      0x00\n        /* \"#utility.yul\":3904:3942   */\n      tag_437\n        /* \"#utility.yul\":3936:3941   */\n      dup3\n        /* \"#utility.yul\":3904:3942   */\n      tag_438\n      jump\t// in\n    tag_437:\n        /* \"#utility.yul\":3958:4046   */\n      tag_439\n        /* \"#utility.yul\":4039:4045   */\n      dup2\n        /* \"#utility.yul\":4034:4037   */\n      dup6\n        /* \"#utility.yul\":3958:4046   */\n      tag_440\n      jump\t// in\n    tag_439:\n        /* \"#utility.yul\":3951:4046   */\n      swap4\n      pop\n        /* \"#utility.yul\":4055:4107   */\n      tag_441\n        /* \"#utility.yul\":4100:4106   */\n      dup2\n        /* \"#utility.yul\":4095:4098   */\n      dup6\n        /* \"#utility.yul\":4088:4092   */\n      0x20\n        /* \"#utility.yul\":4081:4086   */\n      dup7\n        /* \"#utility.yul\":4077:4093   */\n      add\n        /* \"#utility.yul\":4055:4107   */\n      tag_442\n      jump\t// in\n    tag_441:\n        /* \"#utility.yul\":4132:4138   */\n      dup1\n        /* \"#utility.yul\":4127:4130   */\n      dup5\n        /* \"#utility.yul\":4123:4139   */\n      add\n        /* \"#utility.yul\":4116:4139   */\n      swap2\n      pop\n        /* \"#utility.yul\":3880:4145   */\n      pop\n        /* \"#utility.yul\":3772:4145   */\n      swap3\n      swap2\n      pop\n      pop\n      jump\t// out\n        /* \"#utility.yul\":4151:4334   */\n    tag_443:\n        /* \"#utility.yul\":4264:4327   */\n      tag_445\n        /* \"#utility.yul\":4321:4326   */\n      dup2\n        /* \"#utility.yul\":4264:4327   */\n      tag_446\n      jump\t// in\n    tag_445:\n        /* \"#utility.yul\":4259:4262   */\n      dup3\n        /* \"#utility.yul\":4252:4328   */\n      mstore\n        /* \"#utility.yul\":4151:4334   */\n      pop\n      pop\n      jump\t// out\n        /* \"#utility.yul\":4340:4507   */\n    tag_447:\n        /* \"#utility.yul\":4445:4500   */\n      tag_449\n        /* \"#utility.yul\":4494:4499   */\n      dup2\n        /* \"#utility.yul\":4445:4500   */\n      tag_450\n      jump\t// in\n    tag_449:\n        /* \"#utility.yul\":4440:4443   */\n      dup3\n        /* \"#utility.yul\":4433:4501   */\n      mstore\n        /* \"#utility.yul\":4340:4507   */\n      pop\n      pop\n      jump\t// out\n        /* \"#utility.yul\":4513:4857   */\n    tag_416:\n        /* \"#utility.yul\":4591:4594   */\n      0x00\n        /* \"#utility.yul\":4619:4658   */\n      tag_452\n        /* \"#utility.yul\":4652:4657   */\n      dup3\n        /* \"#utility.yul\":4619:4658   */\n      tag_453\n      jump\t// in\n    tag_452:\n        /* \"#utility.yul\":4674:4735   */\n      tag_454\n        /* \"#utility.yul\":4728:4734   */\n      dup2\n        /* \"#utility.yul\":4723:4726   */\n      dup6\n        /* \"#utility.yul\":4674:4735   */\n      tag_455\n      jump\t// in\n    tag_454:\n        /* \"#utility.yul\":4667:4735   */\n      swap4\n      pop\n        /* \"#utility.yul\":4744:4796   */\n      tag_456\n        /* \"#utility.yul\":4789:4795   */\n      dup2\n        /* \"#utility.yul\":4784:4787   */\n      dup6\n        /* \"#utility.yul\":4777:4781   */\n      0x20\n        /* \"#utility.yul\":4770:4775   */\n      dup7\n        /* \"#utility.yul\":4766:4782   */\n      add\n        /* \"#utility.yul\":4744:4796   */\n      tag_442\n      jump\t// in\n    tag_456:\n        /* \"#utility.yul\":4821:4850   */\n      tag_457\n        /* \"#utility.yul\":4843:4849   */\n      dup2\n        /* \"#utility.yul\":4821:4850   */\n      tag_458\n      jump\t// in\n    tag_457:\n        /* \"#utility.yul\":4816:4819   */\n      dup5\n        /* \"#utility.yul\":4812:4851   */\n      add\n        /* \"#utility.yul\":4805:4851   */\n      swap2\n      pop\n        /* \"#utility.yul\":4595:4857   */\n      pop\n        /* \"#utility.yul\":4513:4857   */\n      swap3\n      swap2\n      pop\n      pop\n      jump\t// out\n        /* \"#utility.yul\":4863:5227   */\n    tag_459:\n        /* \"#utility.yul\":4951:4954   */\n      0x00\n        /* \"#utility.yul\":4979:5018   */\n      tag_461\n        /* \"#utility.yul\":5012:5017   */\n      dup3\n        /* \"#utility.yul\":4979:5018   */\n      tag_453\n      jump\t// in\n    tag_461:\n        /* \"#utility.yul\":5034:5105   */\n      tag_462\n        /* \"#utility.yul\":5098:5104   */\n      dup2\n        /* \"#utility.yul\":5093:5096   */\n      dup6\n        /* \"#utility.yul\":5034:5105   */\n      tag_463\n      jump\t// in\n    tag_462:\n        /* \"#utility.yul\":5027:5105   */\n      swap4\n      pop\n        /* \"#utility.yul\":5114:5166   */\n      tag_464\n        /* \"#utility.yul\":5159:5165   */\n      dup2\n        /* \"#utility.yul\":5154:5157   */\n      dup6\n        /* \"#utility.yul\":5147:5151   */\n      0x20\n        /* \"#utility.yul\":5140:5145   */\n      dup7\n        /* \"#utility.yul\":5136:5152   */\n      add\n        /* \"#utility.yul\":5114:5166   */\n      tag_442\n      jump\t// in\n    tag_464:\n        /* \"#utility.yul\":5191:5220   */\n      tag_465\n        /* \"#utility.yul\":5213:5219   */\n      dup2\n        /* \"#utility.yul\":5191:5220   */\n      tag_458\n      jump\t// in\n    tag_465:\n        /* \"#utility.yul\":5186:5189   */\n      dup5\n        /* \"#utility.yul\":5182:5221   */\n      add\n        /* \"#utility.yul\":5175:5221   */\n      swap2\n      pop\n        /* \"#utility.yul\":4955:5227   */\n      pop\n        /* \"#utility.yul\":4863:5227   */\n      swap3\n      swap2\n      pop\n      pop\n      jump\t// out\n        /* \"#utility.yul\":5233:5599   */\n    tag_466:\n        /* \"#utility.yul\":5375:5378   */\n      0x00\n        /* \"#utility.yul\":5396:5463   */\n      tag_468\n        /* \"#utility.yul\":5460:5462   */\n      0x21\n        /* \"#utility.yul\":5455:5458   */\n      dup4\n        /* \"#utility.yul\":5396:5463   */\n      tag_463\n      jump\t// in\n    tag_468:\n        /* \"#utility.yul\":5389:5463   */\n      swap2\n      pop\n        /* \"#utility.yul\":5472:5565   */\n      tag_469\n        /* \"#utility.yul\":5561:5564   */\n      dup3\n        /* \"#utility.yul\":5472:5565   */\n      tag_470\n      jump\t// in\n    tag_469:\n        /* \"#utility.yul\":5590:5592   */\n      0x40\n        /* \"#utility.yul\":5585:5588   */\n      dup3\n        /* \"#utility.yul\":5581:5593   */\n      add\n        /* \"#utility.yul\":5574:5593   */\n      swap1\n      pop\n        /* \"#utility.yul\":5233:5599   */\n      swap2\n      swap1\n      pop\n      jump\t// out\n        /* \"#utility.yul\":5605:5971   */\n    tag_471:\n        /* \"#utility.yul\":5747:5750   */\n      0x00\n        /* \"#utility.yul\":5768:5835   */\n      tag_473\n        /* \"#utility.yul\":5832:5834   */\n      0x1b\n        /* \"#utility.yul\":5827:5830   */\n      dup4\n        /* \"#utility.yul\":5768:5835   */\n      tag_463\n      jump\t// in\n    tag_473:\n        /* \"#utility.yul\":5761:5835   */\n      swap2\n      pop\n        /* \"#utility.yul\":5844:5937   */\n      tag_474\n        /* \"#utility.yul\":5933:5936   */\n      dup3\n        /* \"#utility.yul\":5844:5937   */\n      tag_475\n      jump\t// in\n    tag_474:\n        /* \"#utility.yul\":5962:5964   */\n      0x20\n        /* \"#utility.yul\":5957:5960   */\n      dup3\n        /* \"#utility.yul\":5953:5965   */\n      add\n        /* \"#utility.yul\":5946:5965   */\n      swap1\n      pop\n        /* \"#utility.yul\":5605:5971   */\n      swap2\n      swap1\n      pop\n      jump\t// out\n        /* \"#utility.yul\":5977:6343   */\n    tag_476:\n        /* \"#utility.yul\":6119:6122   */\n      0x00\n        /* \"#utility.yul\":6140:6207   */\n      tag_478\n        /* \"#utility.yul\":6204:6206   */\n      0x26\n        /* \"#utility.yul\":6199:6202   */\n      dup4\n        /* \"#utility.yul\":6140:6207   */\n      tag_463\n      jump\t// in\n    tag_478:\n        /* \"#utility.yul\":6133:6207   */\n      swap2\n      pop\n        /* \"#utility.yul\":6216:6309   */\n      tag_479\n        /* \"#utility.yul\":6305:6308   */\n      dup3\n        /* \"#utility.yul\":6216:6309   */\n      tag_480\n      jump\t// in\n    tag_479:\n        /* \"#utility.yul\":6334:6336   */\n      0x40\n        /* \"#utility.yul\":6329:6332   */\n      dup3\n        /* \"#utility.yul\":6325:6337   */\n      add\n        /* \"#utility.yul\":6318:6337   */\n      swap1\n      pop\n        /* \"#utility.yul\":5977:6343   */\n      swap2\n      swap1\n      pop\n      jump\t// out\n        /* \"#utility.yul\":6349:6715   */\n    tag_481:\n        /* \"#utility.yul\":6491:6494   */\n      0x00\n        /* \"#utility.yul\":6512:6579   */\n      tag_483\n        /* \"#utility.yul\":6576:6578   */\n      0x1c\n        /* \"#utility.yul\":6571:6574   */\n      dup4\n        /* \"#utility.yul\":6512:6579   */\n      tag_463\n      jump\t// in\n    tag_483:\n        /* \"#utility.yul\":6505:6579   */\n      swap2\n      pop\n        /* \"#utility.yul\":6588:6681   */\n      tag_484\n        /* \"#utility.yul\":6677:6680   */\n      dup3\n        /* \"#utility.yul\":6588:6681   */\n      tag_485\n      jump\t// in\n    tag_484:\n        /* \"#utility.yul\":6706:6708   */\n      0x20\n        /* \"#utility.yul\":6701:6704   */\n      dup3\n        /* \"#utility.yul\":6697:6709   */\n      add\n        /* \"#utility.yul\":6690:6709   */\n      swap1\n      pop\n        /* \"#utility.yul\":6349:6715   */\n      swap2\n      swap1\n      pop\n      jump\t// out\n        /* \"#utility.yul\":6721:7087   */\n    tag_486:\n        /* \"#utility.yul\":6863:6866   */\n      0x00\n        /* \"#utility.yul\":6884:6951   */\n      tag_488\n        /* \"#utility.yul\":6948:6950   */\n      0x1d\n        /* \"#utility.yul\":6943:6946   */\n      dup4\n        /* \"#utility.yul\":6884:6951   */\n      tag_463\n      jump\t// in\n    tag_488:\n        /* \"#utility.yul\":6877:6951   */\n      swap2\n      pop\n        /* \"#utility.yul\":6960:7053   */\n      tag_489\n        /* \"#utility.yul\":7049:7052   */\n      dup3\n        /* \"#utility.yul\":6960:7053   */\n      tag_490\n      jump\t// in\n    tag_489:\n        /* \"#utility.yul\":7078:7080   */\n      0x20\n        /* \"#utility.yul\":7073:7076   */\n      dup3\n        /* \"#utility.yul\":7069:7081   */\n      add\n        /* \"#utility.yul\":7062:7081   */\n      swap1\n      pop\n        /* \"#utility.yul\":6721:7087   */\n      swap2\n      swap1\n      pop\n      jump\t// out\n        /* \"#utility.yul\":7093:7459   */\n    tag_491:\n        /* \"#utility.yul\":7235:7238   */\n      0x00\n        /* \"#utility.yul\":7256:7323   */\n      tag_493\n        /* \"#utility.yul\":7320:7322   */\n      0x2a\n        /* \"#utility.yul\":7315:7318   */\n      dup4\n        /* \"#utility.yul\":7256:7323   */\n      tag_463\n      jump\t// in\n    tag_493:\n        /* \"#utility.yul\":7249:7323   */\n      swap2\n      pop\n        /* \"#utility.yul\":7332:7425   */\n      tag_494\n        /* \"#utility.yul\":7421:7424   */\n      dup3\n        /* \"#utility.yul\":7332:7425   */\n      tag_495\n      jump\t// in\n    tag_494:\n        /* \"#utility.yul\":7450:7452   */\n      0x40\n        /* \"#utility.yul\":7445:7448   */\n      dup3\n        /* \"#utility.yul\":7441:7453   */\n      add\n        /* \"#utility.yul\":7434:7453   */\n      swap1\n      pop\n        /* \"#utility.yul\":7093:7459   */\n      swap2\n      swap1\n      pop\n      jump\t// out\n        /* \"#utility.yul\":7465:7831   */\n    tag_496:\n        /* \"#utility.yul\":7607:7610   */\n      0x00\n        /* \"#utility.yul\":7628:7695   */\n      tag_498\n        /* \"#utility.yul\":7692:7694   */\n      0x1f\n        /* \"#utility.yul\":7687:7690   */\n      dup4\n        /* \"#utility.yul\":7628:7695   */\n      tag_463\n      jump\t// in\n    tag_498:\n        /* \"#utility.yul\":7621:7695   */\n      swap2\n      pop\n        /* \"#utility.yul\":7704:7797   */\n      tag_499\n        /* \"#utility.yul\":7793:7796   */\n      dup3\n        /* \"#utility.yul\":7704:7797   */\n      tag_500\n      jump\t// in\n    tag_499:\n        /* \"#utility.yul\":7822:7824   */\n      0x20\n        /* \"#utility.yul\":7817:7820   */\n      dup3\n        /* \"#utility.yul\":7813:7825   */\n      add\n        /* \"#utility.yul\":7806:7825   */\n      swap1\n      pop\n        /* \"#utility.yul\":7465:7831   */\n      swap2\n      swap1\n      pop\n      jump\t// out\n        /* \"#utility.yul\":7837:8203   */\n    tag_501:\n        /* \"#utility.yul\":7979:7982   */\n      0x00\n        /* \"#utility.yul\":8000:8067   */\n      tag_503\n        /* \"#utility.yul\":8064:8066   */\n      0x1b\n        /* \"#utility.yul\":8059:8062   */\n      dup4\n        /* \"#utility.yul\":8000:8067   */\n      tag_463\n      jump\t// in\n    tag_503:\n        /* \"#utility.yul\":7993:8067   */\n      swap2\n      pop\n        /* \"#utility.yul\":8076:8169   */\n      tag_504\n        /* \"#utility.yul\":8165:8168   */\n      dup3\n        /* \"#utility.yul\":8076:8169   */\n      tag_505\n      jump\t// in\n    tag_504:\n        /* \"#utility.yul\":8194:8196   */\n      0x20\n        /* \"#utility.yul\":8189:8192   */\n      dup3\n        /* \"#utility.yul\":8185:8197   */\n      add\n        /* \"#utility.yul\":8178:8197   */\n      swap1\n      pop\n        /* \"#utility.yul\":7837:8203   */\n      swap2\n      swap1\n      pop\n      jump\t// out\n        /* \"#utility.yul\":8281:8997   */\n    tag_506:\n        /* \"#utility.yul\":8432:8436   */\n      0x60\n        /* \"#utility.yul\":8427:8430   */\n      dup3\n        /* \"#utility.yul\":8423:8437   */\n      add\n        /* \"#utility.yul\":8528:8532   */\n      0x00\n        /* \"#utility.yul\":8521:8526   */\n      dup3\n        /* \"#utility.yul\":8517:8533   */\n      add\n        /* \"#utility.yul\":8511:8534   */\n      mload\n        /* \"#utility.yul\":8547:8610   */\n      tag_508\n        /* \"#utility.yul\":8604:8608   */\n      0x00\n        /* \"#utility.yul\":8599:8602   */\n      dup6\n        /* \"#utility.yul\":8595:8609   */\n      add\n        /* \"#utility.yul\":8581:8593   */\n      dup3\n        /* \"#utility.yul\":8547:8610   */\n      tag_509\n      jump\t// in\n    tag_508:\n        /* \"#utility.yul\":8447:8620   */\n      pop\n        /* \"#utility.yul\":8712:8716   */\n      0x20\n        /* \"#utility.yul\":8705:8710   */\n      dup3\n        /* \"#utility.yul\":8701:8717   */\n      add\n        /* \"#utility.yul\":8695:8718   */\n      mload\n        /* \"#utility.yul\":8731:8794   */\n      tag_510\n        /* \"#utility.yul\":8788:8792   */\n      0x20\n        /* \"#utility.yul\":8783:8786   */\n      dup6\n        /* \"#utility.yul\":8779:8793   */\n      add\n        /* \"#utility.yul\":8765:8777   */\n      dup3\n        /* \"#utility.yul\":8731:8794   */\n      tag_509\n      jump\t// in\n    tag_510:\n        /* \"#utility.yul\":8630:8804   */\n      pop\n        /* \"#utility.yul\":8898:8902   */\n      0x40\n        /* \"#utility.yul\":8891:8896   */\n      dup3\n        /* \"#utility.yul\":8887:8903   */\n      add\n        /* \"#utility.yul\":8881:8904   */\n      mload\n        /* \"#utility.yul\":8917:8980   */\n      tag_511\n        /* \"#utility.yul\":8974:8978   */\n      0x40\n        /* \"#utility.yul\":8969:8972   */\n      dup6\n        /* \"#utility.yul\":8965:8979   */\n      add\n        /* \"#utility.yul\":8951:8963   */\n      dup3\n        /* \"#utility.yul\":8917:8980   */\n      tag_509\n      jump\t// in\n    tag_511:\n        /* \"#utility.yul\":8814:8990   */\n      pop\n        /* \"#utility.yul\":8401:8997   */\n      pop\n        /* \"#utility.yul\":8281:8997   */\n      pop\n      pop\n      jump\t// out\n        /* \"#utility.yul\":9003:9111   */\n    tag_509:\n        /* \"#utility.yul\":9080:9104   */\n      tag_513\n        /* \"#utility.yul\":9098:9103   */\n      dup2\n        /* \"#utility.yul\":9080:9104   */\n      tag_514\n      jump\t// in\n    tag_513:\n        /* \"#utility.yul\":9075:9078   */\n      dup3\n        /* \"#utility.yul\":9068:9105   */\n      mstore\n        /* \"#utility.yul\":9003:9111   */\n      pop\n      pop\n      jump\t// out\n        /* \"#utility.yul\":9117:9235   */\n    tag_515:\n        /* \"#utility.yul\":9204:9228   */\n      tag_517\n        /* \"#utility.yul\":9222:9227   */\n      dup2\n        /* \"#utility.yul\":9204:9228   */\n      tag_514\n      jump\t// in\n    tag_517:\n        /* \"#utility.yul\":9199:9202   */\n      dup3\n        /* \"#utility.yul\":9192:9229   */\n      mstore\n        /* \"#utility.yul\":9117:9235   */\n      pop\n      pop\n      jump\t// out\n        /* \"#utility.yul\":9241:9512   */\n    tag_363:\n        /* \"#utility.yul\":9371:9374   */\n      0x00\n        /* \"#utility.yul\":9393:9486   */\n      tag_519\n        /* \"#utility.yul\":9482:9485   */\n      dup3\n        /* \"#utility.yul\":9473:9479   */\n      dup5\n        /* \"#utility.yul\":9393:9486   */\n      tag_435\n      jump\t// in\n    tag_519:\n        /* \"#utility.yul\":9386:9486   */\n      swap2\n      pop\n        /* \"#utility.yul\":9503:9506   */\n      dup2\n        /* \"#utility.yul\":9496:9506   */\n      swap1\n      pop\n        /* \"#utility.yul\":9241:9512   */\n      swap3\n      swap2\n      pop\n      pop\n      jump\t// out\n        /* \"#utility.yul\":9518:9960   */\n    tag_341:\n        /* \"#utility.yul\":9667:9671   */\n      0x00\n        /* \"#utility.yul\":9705:9707   */\n      0x60\n        /* \"#utility.yul\":9694:9703   */\n      dup3\n        /* \"#utility.yul\":9690:9708   */\n      add\n        /* \"#utility.yul\":9682:9708   */\n      swap1\n      pop\n        /* \"#utility.yul\":9718:9789   */\n      tag_521\n        /* \"#utility.yul\":9786:9787   */\n      0x00\n        /* \"#utility.yul\":9775:9784   */\n      dup4\n        /* \"#utility.yul\":9771:9788   */\n      add\n        /* \"#utility.yul\":9762:9768   */\n      dup7\n        /* \"#utility.yul\":9718:9789   */\n      tag_417\n      jump\t// in\n    tag_521:\n        /* \"#utility.yul\":9799:9871   */\n      tag_522\n        /* \"#utility.yul\":9867:9869   */\n      0x20\n        /* \"#utility.yul\":9856:9865   */\n      dup4\n        /* \"#utility.yul\":9852:9870   */\n      add\n        /* \"#utility.yul\":9843:9849   */\n      dup6\n        /* \"#utility.yul\":9799:9871   */\n      tag_417\n      jump\t// in\n    tag_522:\n        /* \"#utility.yul\":9881:9953   */\n      tag_523\n        /* \"#utility.yul\":9949:9951   */\n      0x40\n        /* \"#utility.yul\":9938:9947   */\n      dup4\n        /* \"#utility.yul\":9934:9952   */\n      add\n        /* \"#utility.yul\":9925:9931   */\n      dup5\n        /* \"#utility.yul\":9881:9953   */\n      tag_515\n      jump\t// in\n    tag_523:\n        /* \"#utility.yul\":9518:9960   */\n      swap5\n      swap4\n      pop\n      pop\n      pop\n      pop\n      jump\t// out\n        /* \"#utility.yul\":9966:10298   */\n    tag_169:\n        /* \"#utility.yul\":10087:10091   */\n      0x00\n        /* \"#utility.yul\":10125:10127   */\n      0x40\n        /* \"#utility.yul\":10114:10123   */\n      dup3\n        /* \"#utility.yul\":10110:10128   */\n      add\n        /* \"#utility.yul\":10102:10128   */\n      swap1\n      pop\n        /* \"#utility.yul\":10138:10209   */\n      tag_525\n        /* \"#utility.yul\":10206:10207   */\n      0x00\n        /* \"#utility.yul\":10195:10204   */\n      dup4\n        /* \"#utility.yul\":10191:10208   */\n      add\n        /* \"#utility.yul\":10182:10188   */\n      dup6\n        /* \"#utility.yul\":10138:10209   */\n      tag_417\n      jump\t// in\n    tag_525:\n        /* \"#utility.yul\":10219:10291   */\n      tag_526\n        /* \"#utility.yul\":10287:10289   */\n      0x20\n        /* \"#utility.yul\":10276:10285   */\n      dup4\n        /* \"#utility.yul\":10272:10290   */\n      add\n        /* \"#utility.yul\":10263:10269   */\n      dup5\n        /* \"#utility.yul\":10219:10291   */\n      tag_515\n      jump\t// in\n    tag_526:\n        /* \"#utility.yul\":9966:10298   */\n      swap4\n      swap3\n      pop\n      pop\n      pop\n      jump\t// out\n        /* \"#utility.yul\":10304:10936   */\n    tag_44:\n        /* \"#utility.yul\":10549:10553   */\n      0x00\n        /* \"#utility.yul\":10587:10590   */\n      0x80\n        /* \"#utility.yul\":10576:10585   */\n      dup3\n        /* \"#utility.yul\":10572:10591   */\n      add\n        /* \"#utility.yul\":10564:10591   */\n      swap1\n      pop\n        /* \"#utility.yul\":10637:10646   */\n      dup2\n        /* \"#utility.yul\":10631:10635   */\n      dup2\n        /* \"#utility.yul\":10627:10647   */\n      sub\n        /* \"#utility.yul\":10623:10624   */\n      0x00\n        /* \"#utility.yul\":10612:10621   */\n      dup4\n        /* \"#utility.yul\":10608:10625   */\n      add\n        /* \"#utility.yul\":10601:10648   */\n      mstore\n        /* \"#utility.yul\":10665:10793   */\n      tag_528\n        /* \"#utility.yul\":10788:10792   */\n      dup2\n        /* \"#utility.yul\":10779:10785   */\n      dup6\n        /* \"#utility.yul\":10665:10793   */\n      tag_421\n      jump\t// in\n    tag_528:\n        /* \"#utility.yul\":10657:10793   */\n      swap1\n      pop\n        /* \"#utility.yul\":10803:10929   */\n      tag_529\n        /* \"#utility.yul\":10925:10927   */\n      0x20\n        /* \"#utility.yul\":10914:10923   */\n      dup4\n        /* \"#utility.yul\":10910:10928   */\n      add\n        /* \"#utility.yul\":10901:10907   */\n      dup5\n        /* \"#utility.yul\":10803:10929   */\n      tag_506\n      jump\t// in\n    tag_529:\n        /* \"#utility.yul\":10304:10936   */\n      swap4\n      swap3\n      pop\n      pop\n      pop\n      jump\t// out\n        /* \"#utility.yul\":10942:11216   */\n    tag_65:\n        /* \"#utility.yul\":11061:11065   */\n      0x00\n        /* \"#utility.yul\":11099:11101   */\n      0x20\n        /* \"#utility.yul\":11088:11097   */\n      dup3\n        /* \"#utility.yul\":11084:11102   */\n      add\n        /* \"#utility.yul\":11076:11102   */\n      swap1\n      pop\n        /* \"#utility.yul\":11112:11209   */\n      tag_531\n        /* \"#utility.yul\":11206:11207   */\n      0x00\n        /* \"#utility.yul\":11195:11204   */\n      dup4\n        /* \"#utility.yul\":11191:11208   */\n      add\n        /* \"#utility.yul\":11182:11188   */\n      dup5\n        /* \"#utility.yul\":11112:11209   */\n      tag_443\n      jump\t// in\n    tag_531:\n        /* \"#utility.yul\":10942:11216   */\n      swap3\n      swap2\n      pop\n      pop\n      jump\t// out\n        /* \"#utility.yul\":11222:11480   */\n    tag_78:\n        /* \"#utility.yul\":11333:11337   */\n      0x00\n        /* \"#utility.yul\":11371:11373   */\n      0x20\n        /* \"#utility.yul\":11360:11369   */\n      dup3\n        /* \"#utility.yul\":11356:11374   */\n      add\n        /* \"#utility.yul\":11348:11374   */\n      swap1\n      pop\n        /* \"#utility.yul\":11384:11473   */\n      tag_533\n        /* \"#utility.yul\":11470:11471   */\n      0x00\n        /* \"#utility.yul\":11459:11468   */\n      dup4\n        /* \"#utility.yul\":11455:11472   */\n      add\n        /* \"#utility.yul\":11446:11452   */\n      dup5\n        /* \"#utility.yul\":11384:11473   */\n      tag_447\n      jump\t// in\n    tag_533:\n        /* \"#utility.yul\":11222:11480   */\n      swap3\n      swap2\n      pop\n      pop\n      jump\t// out\n        /* \"#utility.yul\":11486:11799   */\n    tag_376:\n        /* \"#utility.yul\":11599:11603   */\n      0x00\n        /* \"#utility.yul\":11637:11639   */\n      0x20\n        /* \"#utility.yul\":11626:11635   */\n      dup3\n        /* \"#utility.yul\":11622:11640   */\n      add\n        /* \"#utility.yul\":11614:11640   */\n      swap1\n      pop\n        /* \"#utility.yul\":11686:11695   */\n      dup2\n        /* \"#utility.yul\":11680:11684   */\n      dup2\n        /* \"#utility.yul\":11676:11696   */\n      sub\n        /* \"#utility.yul\":11672:11673   */\n      0x00\n        /* \"#utility.yul\":11661:11670   */\n      dup4\n        /* \"#utility.yul\":11657:11674   */\n      add\n        /* \"#utility.yul\":11650:11697   */\n      mstore\n        /* \"#utility.yul\":11714:11792   */\n      tag_535\n        /* \"#utility.yul\":11787:11791   */\n      dup2\n        /* \"#utility.yul\":11778:11784   */\n      dup5\n        /* \"#utility.yul\":11714:11792   */\n      tag_459\n      jump\t// in\n    tag_535:\n        /* \"#utility.yul\":11706:11792   */\n      swap1\n      pop\n        /* \"#utility.yul\":11486:11799   */\n      swap3\n      swap2\n      pop\n      pop\n      jump\t// out\n        /* \"#utility.yul\":11805:12224   */\n    tag_94:\n        /* \"#utility.yul\":11971:11975   */\n      0x00\n        /* \"#utility.yul\":12009:12011   */\n      0x20\n        /* \"#utility.yul\":11998:12007   */\n      dup3\n        /* \"#utility.yul\":11994:12012   */\n      add\n        /* \"#utility.yul\":11986:12012   */\n      swap1\n      pop\n        /* \"#utility.yul\":12058:12067   */\n      dup2\n        /* \"#utility.yul\":12052:12056   */\n      dup2\n        /* \"#utility.yul\":12048:12068   */\n      sub\n        /* \"#utility.yul\":12044:12045   */\n      0x00\n        /* \"#utility.yul\":12033:12042   */\n      dup4\n        /* \"#utility.yul\":12029:12046   */\n      add\n        /* \"#utility.yul\":12022:12069   */\n      mstore\n        /* \"#utility.yul\":12086:12217   */\n      tag_537\n        /* \"#utility.yul\":12212:12216   */\n      dup2\n        /* \"#utility.yul\":12086:12217   */\n      tag_466\n      jump\t// in\n    tag_537:\n        /* \"#utility.yul\":12078:12217   */\n      swap1\n      pop\n        /* \"#utility.yul\":11805:12224   */\n      swap2\n      swap1\n      pop\n      jump\t// out\n        /* \"#utility.yul\":12230:12649   */\n    tag_166:\n        /* \"#utility.yul\":12396:12400   */\n      0x00\n        /* \"#utility.yul\":12434:12436   */\n      0x20\n        /* \"#utility.yul\":12423:12432   */\n      dup3\n        /* \"#utility.yul\":12419:12437   */\n      add\n        /* \"#utility.yul\":12411:12437   */\n      swap1\n      pop\n        /* \"#utility.yul\":12483:12492   */\n      dup2\n        /* \"#utility.yul\":12477:12481   */\n      dup2\n        /* \"#utility.yul\":12473:12493   */\n      sub\n        /* \"#utility.yul\":12469:12470   */\n      0x00\n        /* \"#utility.yul\":12458:12467   */\n      dup4\n        /* \"#utility.yul\":12454:12471   */\n      add\n        /* \"#utility.yul\":12447:12494   */\n      mstore\n        /* \"#utility.yul\":12511:12642   */\n      tag_539\n        /* \"#utility.yul\":12637:12641   */\n      dup2\n        /* \"#utility.yul\":12511:12642   */\n      tag_471\n      jump\t// in\n    tag_539:\n        /* \"#utility.yul\":12503:12642   */\n      swap1\n      pop\n        /* \"#utility.yul\":12230:12649   */\n      swap2\n      swap1\n      pop\n      jump\t// out\n        /* \"#utility.yul\":12655:13074   */\n    tag_356:\n        /* \"#utility.yul\":12821:12825   */\n      0x00\n        /* \"#utility.yul\":12859:12861   */\n      0x20\n        /* \"#utility.yul\":12848:12857   */\n      dup3\n        /* \"#utility.yul\":12844:12862   */\n      add\n        /* \"#utility.yul\":12836:12862   */\n      swap1\n      pop\n        /* \"#utility.yul\":12908:12917   */\n      dup2\n        /* \"#utility.yul\":12902:12906   */\n      dup2\n        /* \"#utility.yul\":12898:12918   */\n      sub\n        /* \"#utility.yul\":12894:12895   */\n      0x00\n        /* \"#utility.yul\":12883:12892   */\n      dup4\n        /* \"#utility.yul\":12879:12896   */\n      add\n        /* \"#utility.yul\":12872:12919   */\n      mstore\n        /* \"#utility.yul\":12936:13067   */\n      tag_541\n        /* \"#utility.yul\":13062:13066   */\n      dup2\n        /* \"#utility.yul\":12936:13067   */\n      tag_476\n      jump\t// in\n    tag_541:\n        /* \"#utility.yul\":12928:13067   */\n      swap1\n      pop\n        /* \"#utility.yul\":12655:13074   */\n      swap2\n      swap1\n      pop\n      jump\t// out\n        /* \"#utility.yul\":13080:13499   */\n    tag_101:\n        /* \"#utility.yul\":13246:13250   */\n      0x00\n        /* \"#utility.yul\":13284:13286   */\n      0x20\n        /* \"#utility.yul\":13273:13282   */\n      dup3\n        /* \"#utility.yul\":13269:13287   */\n      add\n        /* \"#utility.yul\":13261:13287   */\n      swap1\n      pop\n        /* \"#utility.yul\":13333:13342   */\n      dup2\n        /* \"#utility.yul\":13327:13331   */\n      dup2\n        /* \"#utility.yul\":13323:13343   */\n      sub\n        /* \"#utility.yul\":13319:13320   */\n      0x00\n        /* \"#utility.yul\":13308:13317   */\n      dup4\n        /* \"#utility.yul\":13304:13321   */\n      add\n        /* \"#utility.yul\":13297:13344   */\n      mstore\n        /* \"#utility.yul\":13361:13492   */\n      tag_543\n        /* \"#utility.yul\":13487:13491   */\n      dup2\n        /* \"#utility.yul\":13361:13492   */\n      tag_481\n      jump\t// in\n    tag_543:\n        /* \"#utility.yul\":13353:13492   */\n      swap1\n      pop\n        /* \"#utility.yul\":13080:13499   */\n      swap2\n      swap1\n      pop\n      jump\t// out\n        /* \"#utility.yul\":13505:13924   */\n    tag_361:\n        /* \"#utility.yul\":13671:13675   */\n      0x00\n        /* \"#utility.yul\":13709:13711   */\n      0x20\n        /* \"#utility.yul\":13698:13707   */\n      dup3\n        /* \"#utility.yul\":13694:13712   */\n      add\n        /* \"#utility.yul\":13686:13712   */\n      swap1\n      pop\n        /* \"#utility.yul\":13758:13767   */\n      dup2\n        /* \"#utility.yul\":13752:13756   */\n      dup2\n        /* \"#utility.yul\":13748:13768   */\n      sub\n        /* \"#utility.yul\":13744:13745   */\n      0x00\n        /* \"#utility.yul\":13733:13742   */\n      dup4\n        /* \"#utility.yul\":13729:13746   */\n      add\n        /* \"#utility.yul\":13722:13769   */\n      mstore\n        /* \"#utility.yul\":13786:13917   */\n      tag_545\n        /* \"#utility.yul\":13912:13916   */\n      dup2\n        /* \"#utility.yul\":13786:13917   */\n      tag_486\n      jump\t// in\n    tag_545:\n        /* \"#utility.yul\":13778:13917   */\n      swap1\n      pop\n        /* \"#utility.yul\":13505:13924   */\n      swap2\n      swap1\n      pop\n      jump\t// out\n        /* \"#utility.yul\":13930:14349   */\n    tag_349:\n        /* \"#utility.yul\":14096:14100   */\n      0x00\n        /* \"#utility.yul\":14134:14136   */\n      0x20\n        /* \"#utility.yul\":14123:14132   */\n      dup3\n        /* \"#utility.yul\":14119:14137   */\n      add\n        /* \"#utility.yul\":14111:14137   */\n      swap1\n      pop\n        /* \"#utility.yul\":14183:14192   */\n      dup2\n        /* \"#utility.yul\":14177:14181   */\n      dup2\n        /* \"#utility.yul\":14173:14193   */\n      sub\n        /* \"#utility.yul\":14169:14170   */\n      0x00\n        /* \"#utility.yul\":14158:14167   */\n      dup4\n        /* \"#utility.yul\":14154:14171   */\n      add\n        /* \"#utility.yul\":14147:14194   */\n      mstore\n        /* \"#utility.yul\":14211:14342   */\n      tag_547\n        /* \"#utility.yul\":14337:14341   */\n      dup2\n        /* \"#utility.yul\":14211:14342   */\n      tag_491\n      jump\t// in\n    tag_547:\n        /* \"#utility.yul\":14203:14342   */\n      swap1\n      pop\n        /* \"#utility.yul\":13930:14349   */\n      swap2\n      swap1\n      pop\n      jump\t// out\n        /* \"#utility.yul\":14355:14774   */\n    tag_88:\n        /* \"#utility.yul\":14521:14525   */\n      0x00\n        /* \"#utility.yul\":14559:14561   */\n      0x20\n        /* \"#utility.yul\":14548:14557   */\n      dup3\n        /* \"#utility.yul\":14544:14562   */\n      add\n        /* \"#utility.yul\":14536:14562   */\n      swap1\n      pop\n        /* \"#utility.yul\":14608:14617   */\n      dup2\n        /* \"#utility.yul\":14602:14606   */\n      dup2\n        /* \"#utility.yul\":14598:14618   */\n      sub\n        /* \"#utility.yul\":14594:14595   */\n      0x00\n        /* \"#utility.yul\":14583:14592   */\n      dup4\n        /* \"#utility.yul\":14579:14596   */\n      add\n        /* \"#utility.yul\":14572:14619   */\n      mstore\n        /* \"#utility.yul\":14636:14767   */\n      tag_549\n        /* \"#utility.yul\":14762:14766   */\n      dup2\n        /* \"#utility.yul\":14636:14767   */\n      tag_496\n      jump\t// in\n    tag_549:\n        /* \"#utility.yul\":14628:14767   */\n      swap1\n      pop\n        /* \"#utility.yul\":14355:14774   */\n      swap2\n      swap1\n      pop\n      jump\t// out\n        /* \"#utility.yul\":14780:15199   */\n    tag_263:\n        /* \"#utility.yul\":14946:14950   */\n      0x00\n        /* \"#utility.yul\":14984:14986   */\n      0x20\n        /* \"#utility.yul\":14973:14982   */\n      dup3\n        /* \"#utility.yul\":14969:14987   */\n      add\n        /* \"#utility.yul\":14961:14987   */\n      swap1\n      pop\n        /* \"#utility.yul\":15033:15042   */\n      dup2\n        /* \"#utility.yul\":15027:15031   */\n      dup2\n        /* \"#utility.yul\":15023:15043   */\n      sub\n        /* \"#utility.yul\":15019:15020   */\n      0x00\n        /* \"#utility.yul\":15008:15017   */\n      dup4\n        /* \"#utility.yul\":15004:15021   */\n      add\n        /* \"#utility.yul\":14997:15044   */\n      mstore\n        /* \"#utility.yul\":15061:15192   */\n      tag_551\n        /* \"#utility.yul\":15187:15191   */\n      dup2\n        /* \"#utility.yul\":15061:15192   */\n      tag_501\n      jump\t// in\n    tag_551:\n        /* \"#utility.yul\":15053:15192   */\n      swap1\n      pop\n        /* \"#utility.yul\":14780:15199   */\n      swap2\n      swap1\n      pop\n      jump\t// out\n        /* \"#utility.yul\":15205:15535   */\n    tag_51:\n        /* \"#utility.yul\":15352:15356   */\n      0x00\n        /* \"#utility.yul\":15390:15392   */\n      0x60\n        /* \"#utility.yul\":15379:15388   */\n      dup3\n        /* \"#utility.yul\":15375:15393   */\n      add\n        /* \"#utility.yul\":15367:15393   */\n      swap1\n      pop\n        /* \"#utility.yul\":15403:15528   */\n      tag_553\n        /* \"#utility.yul\":15525:15526   */\n      0x00\n        /* \"#utility.yul\":15514:15523   */\n      dup4\n        /* \"#utility.yul\":15510:15527   */\n      add\n        /* \"#utility.yul\":15501:15507   */\n      dup5\n        /* \"#utility.yul\":15403:15528   */\n      tag_506\n      jump\t// in\n    tag_553:\n        /* \"#utility.yul\":15205:15535   */\n      swap3\n      swap2\n      pop\n      pop\n      jump\t// out\n        /* \"#utility.yul\":15541:15763   */\n    tag_35:\n        /* \"#utility.yul\":15634:15638   */\n      0x00\n        /* \"#utility.yul\":15672:15674   */\n      0x20\n        /* \"#utility.yul\":15661:15670   */\n      dup3\n        /* \"#utility.yul\":15657:15675   */\n      add\n        /* \"#utility.yul\":15649:15675   */\n      swap1\n      pop\n        /* \"#utility.yul\":15685:15756   */\n      tag_555\n        /* \"#utility.yul\":15753:15754   */\n      0x00\n        /* \"#utility.yul\":15742:15751   */\n      dup4\n        /* \"#utility.yul\":15738:15755   */\n      add\n        /* \"#utility.yul\":15729:15735   */\n      dup5\n        /* \"#utility.yul\":15685:15756   */\n      tag_515\n      jump\t// in\n    tag_555:\n        /* \"#utility.yul\":15541:15763   */\n      swap3\n      swap2\n      pop\n      pop\n      jump\t// out\n        /* \"#utility.yul\":15769:16101   */\n    tag_282:\n        /* \"#utility.yul\":15890:15894   */\n      0x00\n        /* \"#utility.yul\":15928:15930   */\n      0x40\n        /* \"#utility.yul\":15917:15926   */\n      dup3\n        /* \"#utility.yul\":15913:15931   */\n      add\n        /* \"#utility.yul\":15905:15931   */\n      swap1\n      pop\n        /* \"#utility.yul\":15941:16012   */\n      tag_557\n        /* \"#utility.yul\":16009:16010   */\n      0x00\n        /* \"#utility.yul\":15998:16007   */\n      dup4\n        /* \"#utility.yul\":15994:16011   */\n      add\n        /* \"#utility.yul\":15985:15991   */\n      dup6\n        /* \"#utility.yul\":15941:16012   */\n      tag_515\n      jump\t// in\n    tag_557:\n        /* \"#utility.yul\":16022:16094   */\n      tag_558\n        /* \"#utility.yul\":16090:16092   */\n      0x20\n        /* \"#utility.yul\":16079:16088   */\n      dup4\n        /* \"#utility.yul\":16075:16093   */\n      add\n        /* \"#utility.yul\":16066:16072   */\n      dup5\n        /* \"#utility.yul\":16022:16094   */\n      tag_515\n      jump\t// in\n    tag_558:\n        /* \"#utility.yul\":15769:16101   */\n      swap4\n      swap3\n      pop\n      pop\n      pop\n      jump\t// out\n        /* \"#utility.yul\":16107:16771   */\n    tag_27:\n        /* \"#utility.yul\":16312:16316   */\n      0x00\n        /* \"#utility.yul\":16350:16353   */\n      0xa0\n        /* \"#utility.yul\":16339:16348   */\n      dup3\n        /* \"#utility.yul\":16335:16354   */\n      add\n        /* \"#utility.yul\":16327:16354   */\n      swap1\n      pop\n        /* \"#utility.yul\":16364:16435   */\n      tag_560\n        /* \"#utility.yul\":16432:16433   */\n      0x00\n        /* \"#utility.yul\":16421:16430   */\n      dup4\n        /* \"#utility.yul\":16417:16434   */\n      add\n        /* \"#utility.yul\":16408:16414   */\n      dup9\n        /* \"#utility.yul\":16364:16435   */\n      tag_515\n      jump\t// in\n    tag_560:\n        /* \"#utility.yul\":16445:16517   */\n      tag_561\n        /* \"#utility.yul\":16513:16515   */\n      0x20\n        /* \"#utility.yul\":16502:16511   */\n      dup4\n        /* \"#utility.yul\":16498:16516   */\n      add\n        /* \"#utility.yul\":16489:16495   */\n      dup8\n        /* \"#utility.yul\":16445:16517   */\n      tag_515\n      jump\t// in\n    tag_561:\n        /* \"#utility.yul\":16527:16599   */\n      tag_562\n        /* \"#utility.yul\":16595:16597   */\n      0x40\n        /* \"#utility.yul\":16584:16593   */\n      dup4\n        /* \"#utility.yul\":16580:16598   */\n      add\n        /* \"#utility.yul\":16571:16577   */\n      dup7\n        /* \"#utility.yul\":16527:16599   */\n      tag_515\n      jump\t// in\n    tag_562:\n        /* \"#utility.yul\":16609:16681   */\n      tag_563\n        /* \"#utility.yul\":16677:16679   */\n      0x60\n        /* \"#utility.yul\":16666:16675   */\n      dup4\n        /* \"#utility.yul\":16662:16680   */\n      add\n        /* \"#utility.yul\":16653:16659   */\n      dup6\n        /* \"#utility.yul\":16609:16681   */\n      tag_515\n      jump\t// in\n    tag_563:\n        /* \"#utility.yul\":16691:16764   */\n      tag_564\n        /* \"#utility.yul\":16759:16762   */\n      0x80\n        /* \"#utility.yul\":16748:16757   */\n      dup4\n        /* \"#utility.yul\":16744:16763   */\n      add\n        /* \"#utility.yul\":16735:16741   */\n      dup5\n        /* \"#utility.yul\":16691:16764   */\n      tag_515\n      jump\t// in\n    tag_564:\n        /* \"#utility.yul\":16107:16771   */\n      swap7\n      swap6\n      pop\n      pop\n      pop\n      pop\n      pop\n      pop\n      jump\t// out\n        /* \"#utility.yul\":16777:17552   */\n    tag_74:\n        /* \"#utility.yul\":17010:17014   */\n      0x00\n        /* \"#utility.yul\":17048:17051   */\n      0xc0\n        /* \"#utility.yul\":17037:17046   */\n      dup3\n        /* \"#utility.yul\":17033:17052   */\n      add\n        /* \"#utility.yul\":17025:17052   */\n      swap1\n      pop\n        /* \"#utility.yul\":17062:17133   */\n      tag_566\n        /* \"#utility.yul\":17130:17131   */\n      0x00\n        /* \"#utility.yul\":17119:17128   */\n      dup4\n        /* \"#utility.yul\":17115:17132   */\n      add\n        /* \"#utility.yul\":17106:17112   */\n      dup10\n        /* \"#utility.yul\":17062:17133   */\n      tag_515\n      jump\t// in\n    tag_566:\n        /* \"#utility.yul\":17143:17215   */\n      tag_567\n        /* \"#utility.yul\":17211:17213   */\n      0x20\n        /* \"#utility.yul\":17200:17209   */\n      dup4\n        /* \"#utility.yul\":17196:17214   */\n      add\n        /* \"#utility.yul\":17187:17193   */\n      dup9\n        /* \"#utility.yul\":17143:17215   */\n      tag_515\n      jump\t// in\n    tag_567:\n        /* \"#utility.yul\":17225:17297   */\n      tag_568\n        /* \"#utility.yul\":17293:17295   */\n      0x40\n        /* \"#utility.yul\":17282:17291   */\n      dup4\n        /* \"#utility.yul\":17278:17296   */\n      add\n        /* \"#utility.yul\":17269:17275   */\n      dup8\n        /* \"#utility.yul\":17225:17297   */\n      tag_515\n      jump\t// in\n    tag_568:\n        /* \"#utility.yul\":17307:17379   */\n      tag_569\n        /* \"#utility.yul\":17375:17377   */\n      0x60\n        /* \"#utility.yul\":17364:17373   */\n      dup4\n        /* \"#utility.yul\":17360:17378   */\n      add\n        /* \"#utility.yul\":17351:17357   */\n      dup7\n        /* \"#utility.yul\":17307:17379   */\n      tag_515\n      jump\t// in\n    tag_569:\n        /* \"#utility.yul\":17389:17462   */\n      tag_570\n        /* \"#utility.yul\":17457:17460   */\n      0x80\n        /* \"#utility.yul\":17446:17455   */\n      dup4\n        /* \"#utility.yul\":17442:17461   */\n      add\n        /* \"#utility.yul\":17433:17439   */\n      dup6\n        /* \"#utility.yul\":17389:17462   */\n      tag_515\n      jump\t// in\n    tag_570:\n        /* \"#utility.yul\":17472:17545   */\n      tag_571\n        /* \"#utility.yul\":17540:17543   */\n      0xa0\n        /* \"#utility.yul\":17529:17538   */\n      dup4\n        /* \"#utility.yul\":17525:17544   */\n      add\n        /* \"#utility.yul\":17516:17522   */\n      dup5\n        /* \"#utility.yul\":17472:17545   */\n      tag_515\n      jump\t// in\n    tag_571:\n        /* \"#utility.yul\":16777:17552   */\n      swap8\n      swap7\n      pop\n      pop\n      pop\n      pop\n      pop\n      pop\n      pop\n      jump\t// out\n        /* \"#utility.yul\":17639:17781   */\n    tag_428:\n        /* \"#utility.yul\":17716:17720   */\n      0x00\n        /* \"#utility.yul\":17739:17742   */\n      dup2\n        /* \"#utility.yul\":17731:17742   */\n      swap1\n      pop\n        /* \"#utility.yul\":17769:17773   */\n      0x20\n        /* \"#utility.yul\":17764:17767   */\n      dup3\n        /* \"#utility.yul\":17760:17774   */\n      add\n        /* \"#utility.yul\":17752:17774   */\n      swap1\n      pop\n        /* \"#utility.yul\":17639:17781   */\n      swap2\n      swap1\n      pop\n      jump\t// out\n        /* \"#utility.yul\":17787:17911   */\n    tag_424:\n        /* \"#utility.yul\":17864:17870   */\n      0x00\n        /* \"#utility.yul\":17898:17903   */\n      dup2\n        /* \"#utility.yul\":17892:17904   */\n      mload\n        /* \"#utility.yul\":17882:17904   */\n      swap1\n      pop\n        /* \"#utility.yul\":17787:17911   */\n      swap2\n      swap1\n      pop\n      jump\t// out\n        /* \"#utility.yul\":17917:18015   */\n    tag_438:\n        /* \"#utility.yul\":17968:17974   */\n      0x00\n        /* \"#utility.yul\":18002:18007   */\n      dup2\n        /* \"#utility.yul\":17996:18008   */\n      mload\n        /* \"#utility.yul\":17986:18008   */\n      swap1\n      pop\n        /* \"#utility.yul\":17917:18015   */\n      swap2\n      swap1\n      pop\n      jump\t// out\n        /* \"#utility.yul\":18021:18120   */\n    tag_453:\n        /* \"#utility.yul\":18073:18079   */\n      0x00\n        /* \"#utility.yul\":18107:18112   */\n      dup2\n        /* \"#utility.yul\":18101:18113   */\n      mload\n        /* \"#utility.yul\":18091:18113   */\n      swap1\n      pop\n        /* \"#utility.yul\":18021:18120   */\n      swap2\n      swap1\n      pop\n      jump\t// out\n        /* \"#utility.yul\":18126:18249   */\n    tag_434:\n        /* \"#utility.yul\":18206:18210   */\n      0x00\n        /* \"#utility.yul\":18238:18242   */\n      0x20\n        /* \"#utility.yul\":18233:18236   */\n      dup3\n        /* \"#utility.yul\":18229:18243   */\n      add\n        /* \"#utility.yul\":18221:18243   */\n      swap1\n      pop\n        /* \"#utility.yul\":18126:18249   */\n      swap2\n      swap1\n      pop\n      jump\t// out\n        /* \"#utility.yul\":18255:18449   */\n    tag_426:\n        /* \"#utility.yul\":18364:18375   */\n      0x00\n        /* \"#utility.yul\":18398:18404   */\n      dup3\n        /* \"#utility.yul\":18393:18396   */\n      dup3\n        /* \"#utility.yul\":18386:18405   */\n      mstore\n        /* \"#utility.yul\":18438:18442   */\n      0x20\n        /* \"#utility.yul\":18433:18436   */\n      dup3\n        /* \"#utility.yul\":18429:18443   */\n      add\n        /* \"#utility.yul\":18414:18443   */\n      swap1\n      pop\n        /* \"#utility.yul\":18255:18449   */\n      swap3\n      swap2\n      pop\n      pop\n      jump\t// out\n        /* \"#utility.yul\":18455:18602   */\n    tag_440:\n        /* \"#utility.yul\":18556:18567   */\n      0x00\n        /* \"#utility.yul\":18593:18596   */\n      dup2\n        /* \"#utility.yul\":18578:18596   */\n      swap1\n      pop\n        /* \"#utility.yul\":18455:18602   */\n      swap3\n      swap2\n      pop\n      pop\n      jump\t// out\n        /* \"#utility.yul\":18608:18767   */\n    tag_455:\n        /* \"#utility.yul\":18682:18693   */\n      0x00\n        /* \"#utility.yul\":18716:18722   */\n      dup3\n        /* \"#utility.yul\":18711:18714   */\n      dup3\n        /* \"#utility.yul\":18704:18723   */\n      mstore\n        /* \"#utility.yul\":18756:18760   */\n      0x20\n        /* \"#utility.yul\":18751:18754   */\n      dup3\n        /* \"#utility.yul\":18747:18761   */\n      add\n        /* \"#utility.yul\":18732:18761   */\n      swap1\n      pop\n        /* \"#utility.yul\":18608:18767   */\n      swap3\n      swap2\n      pop\n      pop\n      jump\t// out\n        /* \"#utility.yul\":18773:18942   */\n    tag_463:\n        /* \"#utility.yul\":18857:18868   */\n      0x00\n        /* \"#utility.yul\":18891:18897   */\n      dup3\n        /* \"#utility.yul\":18886:18889   */\n      dup3\n        /* \"#utility.yul\":18879:18898   */\n      mstore\n        /* \"#utility.yul\":18931:18935   */\n      0x20\n        /* \"#utility.yul\":18926:18929   */\n      dup3\n        /* \"#utility.yul\":18922:18936   */\n      add\n        /* \"#utility.yul\":18907:18936   */\n      swap1\n      pop\n        /* \"#utility.yul\":18773:18942   */\n      swap3\n      swap2\n      pop\n      pop\n      jump\t// out\n        /* \"#utility.yul\":18948:19253   */\n    tag_122:\n        /* \"#utility.yul\":18988:18991   */\n      0x00\n        /* \"#utility.yul\":19007:19027   */\n      tag_584\n        /* \"#utility.yul\":19025:19026   */\n      dup3\n        /* \"#utility.yul\":19007:19027   */\n      tag_514\n      jump\t// in\n    tag_584:\n        /* \"#utility.yul\":19002:19027   */\n      swap2\n      pop\n        /* \"#utility.yul\":19041:19061   */\n      tag_585\n        /* \"#utility.yul\":19059:19060   */\n      dup4\n        /* \"#utility.yul\":19041:19061   */\n      tag_514\n      jump\t// in\n    tag_585:\n        /* \"#utility.yul\":19036:19061   */\n      swap3\n      pop\n        /* \"#utility.yul\":19195:19196   */\n      dup3\n        /* \"#utility.yul\":19127:19193   */\n      0xffffffffffffffffffffffffffffffffffffffffffffffffffffffffffffffff\n        /* \"#utility.yul\":19123:19197   */\n      sub\n        /* \"#utility.yul\":19120:19121   */\n      dup3\n        /* \"#utility.yul\":19117:19198   */\n      gt\n        /* \"#utility.yul\":19114:19221   */\n      iszero\n      tag_586\n      jumpi\n        /* \"#utility.yul\":19201:19219   */\n      tag_587\n      tag_588\n      jump\t// in\n    tag_587:\n        /* \"#utility.yul\":19114:19221   */\n    tag_586:\n        /* \"#utility.yul\":19245:19246   */\n      dup3\n        /* \"#utility.yul\":19242:19243   */\n      dup3\n        /* \"#utility.yul\":19238:19247   */\n      add\n        /* \"#utility.yul\":19231:19247   */\n      swap1\n      pop\n        /* \"#utility.yul\":18948:19253   */\n      swap3\n      swap2\n      pop\n      pop\n      jump\t// out\n        /* \"#utility.yul\":19259:19444   */\n    tag_195:\n        /* \"#utility.yul\":19299:19300   */\n      0x00\n        /* \"#utility.yul\":19316:19336   */\n      tag_590\n        /* \"#utility.yul\":19334:19335   */\n      dup3\n        /* \"#utility.yul\":19316:19336   */\n      tag_514\n      jump\t// in\n    tag_590:\n        /* \"#utility.yul\":19311:19336   */\n      swap2\n      pop\n        /* \"#utility.yul\":19350:19370   */\n      tag_591\n        /* \"#utility.yul\":19368:19369   */\n      dup4\n        /* \"#utility.yul\":19350:19370   */\n      tag_514\n      jump\t// in\n    tag_591:\n        /* \"#utility.yul\":19345:19370   */\n      swap3\n      pop\n        /* \"#utility.yul\":19389:19390   */\n      dup3\n        /* \"#utility.yul\":19379:19414   */\n      tag_592\n      jumpi\n        /* \"#utility.yul\":19394:19412   */\n      tag_593\n      tag_594\n      jump\t// in\n    tag_593:\n        /* \"#utility.yul\":19379:19414   */\n    tag_592:\n        /* \"#utility.yul\":19436:19437   */\n      dup3\n        /* \"#utility.yul\":19433:19434   */\n      dup3\n        /* \"#utility.yul\":19429:19438   */\n      div\n        /* \"#utility.yul\":19424:19438   */\n      swap1\n      pop\n        /* \"#utility.yul\":19259:19444   */\n      swap3\n      swap2\n      pop\n      pop\n      jump\t// out\n        /* \"#utility.yul\":19450:19798   */\n    tag_203:\n        /* \"#utility.yul\":19490:19497   */\n      0x00\n        /* \"#utility.yul\":19513:19533   */\n      tag_596\n        /* \"#utility.yul\":19531:19532   */\n      dup3\n        /* \"#utility.yul\":19513:19533   */\n      tag_514\n      jump\t// in\n    tag_596:\n        /* \"#utility.yul\":19508:19533   */\n      swap2\n      pop\n        /* \"#utility.yul\":19547:19567   */\n      tag_597\n        /* \"#utility.yul\":19565:19566   */\n      dup4\n        /* \"#utility.yul\":19547:19567   */\n      tag_514\n      jump\t// in\n    tag_597:\n        /* \"#utility.yul\":19542:19567   */\n      swap3\n      pop\n        /* \"#utility.yul\":19735:19736   */\n      dup2\n        /* \"#utility.yul\":19667:19733   */\n      0xffffffffffffffffffffffffffffffffffffffffffffffffffffffffffffffff\n        /* \"#utility.yul\":19663:19737   */\n      div\n        /* \"#utility.yul\":19660:19661   */\n      dup4\n        /* \"#utility.yul\":19657:19738   */\n      gt\n        /* \"#utility.yul\":19652:19653   */\n      dup3\n        /* \"#utility.yul\":19645:19654   */\n      iszero\n        /* \"#utility.yul\":19638:19655   */\n      iszero\n        /* \"#utility.yul\":19634:19739   */\n      and\n        /* \"#utility.yul\":19631:19762   */\n      iszero\n      tag_598\n      jumpi\n        /* \"#utility.yul\":19742:19760   */\n      tag_599\n      tag_588\n      jump\t// in\n    tag_599:\n        /* \"#utility.yul\":19631:19762   */\n    tag_598:\n        /* \"#utility.yul\":19790:19791   */\n      dup3\n        /* \"#utility.yul\":19787:19788   */\n      dup3\n        /* \"#utility.yul\":19783:19792   */\n      mul\n        /* \"#utility.yul\":19772:19792   */\n      swap1\n      pop\n        /* \"#utility.yul\":19450:19798   */\n      swap3\n      swap2\n      pop\n      pop\n      jump\t// out\n        /* \"#utility.yul\":19804:19995   */\n    tag_109:\n        /* \"#utility.yul\":19844:19848   */\n      0x00\n        /* \"#utility.yul\":19864:19884   */\n      tag_601\n        /* \"#utility.yul\":19882:19883   */\n      dup3\n        /* \"#utility.yul\":19864:19884   */\n      tag_514\n      jump\t// in\n    tag_601:\n        /* \"#utility.yul\":19859:19884   */\n      swap2\n      pop\n        /* \"#utility.yul\":19898:19918   */\n      tag_602\n        /* \"#utility.yul\":19916:19917   */\n      dup4\n        /* \"#utility.yul\":19898:19918   */\n      tag_514\n      jump\t// in\n    tag_602:\n        /* \"#utility.yul\":19893:19918   */\n      swap3\n      pop\n        /* \"#utility.yul\":19937:19938   */\n      dup3\n        /* \"#utility.yul\":19934:19935   */\n      dup3\n        /* \"#utility.yul\":19931:19939   */\n      lt\n        /* \"#utility.yul\":19928:19962   */\n      iszero\n      tag_603\n      jumpi\n        /* \"#utility.yul\":19942:19960   */\n      tag_604\n      tag_588\n      jump\t// in\n    tag_604:\n        /* \"#utility.yul\":19928:19962   */\n    tag_603:\n        /* \"#utility.yul\":19987:19988   */\n      dup3\n        /* \"#utility.yul\":19984:19985   */\n      dup3\n        /* \"#utility.yul\":19980:19989   */\n      sub\n        /* \"#utility.yul\":19972:19989   */\n      swap1\n      pop\n        /* \"#utility.yul\":19804:19995   */\n      swap3\n      swap2\n      pop\n      pop\n      jump\t// out\n        /* \"#utility.yul\":20001:20097   */\n    tag_420:\n        /* \"#utility.yul\":20038:20045   */\n      0x00\n        /* \"#utility.yul\":20067:20091   */\n      tag_606\n        /* \"#utility.yul\":20085:20090   */\n      dup3\n        /* \"#utility.yul\":20067:20091   */\n      tag_607\n      jump\t// in\n    tag_606:\n        /* \"#utility.yul\":20056:20091   */\n      swap1\n      pop\n        /* \"#utility.yul\":20001:20097   */\n      swap2\n      swap1\n      pop\n      jump\t// out\n        /* \"#utility.yul\":20103:20193   */\n    tag_608:\n        /* \"#utility.yul\":20137:20144   */\n      0x00\n        /* \"#utility.yul\":20180:20185   */\n      dup2\n        /* \"#utility.yul\":20173:20186   */\n      iszero\n        /* \"#utility.yul\":20166:20187   */\n      iszero\n        /* \"#utility.yul\":20155:20187   */\n      swap1\n      pop\n        /* \"#utility.yul\":20103:20193   */\n      swap2\n      swap1\n      pop\n      jump\t// out\n        /* \"#utility.yul\":20199:20325   */\n    tag_607:\n        /* \"#utility.yul\":20236:20243   */\n      0x00\n        /* \"#utility.yul\":20276:20318   */\n      0xffffffffffffffffffffffffffffffffffffffff\n        /* \"#utility.yul\":20269:20274   */\n      dup3\n        /* \"#utility.yul\":20265:20319   */\n      and\n        /* \"#utility.yul\":20254:20319   */\n      swap1\n      pop\n        /* \"#utility.yul\":20199:20325   */\n      swap2\n      swap1\n      pop\n      jump\t// out\n        /* \"#utility.yul\":20331:20408   */\n    tag_514:\n        /* \"#utility.yul\":20368:20375   */\n      0x00\n        /* \"#utility.yul\":20397:20402   */\n      dup2\n        /* \"#utility.yul\":20386:20402   */\n      swap1\n      pop\n        /* \"#utility.yul\":20331:20408   */\n      swap2\n      swap1\n      pop\n      jump\t// out\n        /* \"#utility.yul\":20414:20566   */\n    tag_446:\n        /* \"#utility.yul\":20490:20499   */\n      0x00\n        /* \"#utility.yul\":20523:20560   */\n      tag_613\n        /* \"#utility.yul\":20554:20559   */\n      dup3\n        /* \"#utility.yul\":20523:20560   */\n      tag_614\n      jump\t// in\n    tag_613:\n        /* \"#utility.yul\":20510:20560   */\n      swap1\n      pop\n        /* \"#utility.yul\":20414:20566   */\n      swap2\n      swap1\n      pop\n      jump\t// out\n        /* \"#utility.yul\":20572:20716   */\n    tag_450:\n        /* \"#utility.yul\":20640:20649   */\n      0x00\n        /* \"#utility.yul\":20673:20710   */\n      tag_616\n        /* \"#utility.yul\":20704:20709   */\n      dup3\n        /* \"#utility.yul\":20673:20710   */\n      tag_614\n      jump\t// in\n    tag_616:\n        /* \"#utility.yul\":20660:20710   */\n      swap1\n      pop\n        /* \"#utility.yul\":20572:20716   */\n      swap2\n      swap1\n      pop\n      jump\t// out\n        /* \"#utility.yul\":20722:20848   */\n    tag_614:\n        /* \"#utility.yul\":20772:20781   */\n      0x00\n        /* \"#utility.yul\":20805:20842   */\n      tag_618\n        /* \"#utility.yul\":20836:20841   */\n      dup3\n        /* \"#utility.yul\":20805:20842   */\n      tag_619\n      jump\t// in\n    tag_618:\n        /* \"#utility.yul\":20792:20842   */\n      swap1\n      pop\n        /* \"#utility.yul\":20722:20848   */\n      swap2\n      swap1\n      pop\n      jump\t// out\n        /* \"#utility.yul\":20854:20967   */\n    tag_619:\n        /* \"#utility.yul\":20904:20913   */\n      0x00\n        /* \"#utility.yul\":20937:20961   */\n      tag_621\n        /* \"#utility.yul\":20955:20960   */\n      dup3\n        /* \"#utility.yul\":20937:20961   */\n      tag_607\n      jump\t// in\n    tag_621:\n        /* \"#utility.yul\":20924:20961   */\n      swap1\n      pop\n        /* \"#utility.yul\":20854:20967   */\n      swap2\n      swap1\n      pop\n      jump\t// out\n        /* \"#utility.yul\":20973:21280   */\n    tag_442:\n        /* \"#utility.yul\":21041:21042   */\n      0x00\n        /* \"#utility.yul\":21051:21164   */\n    tag_623:\n        /* \"#utility.yul\":21065:21071   */\n      dup4\n        /* \"#utility.yul\":21062:21063   */\n      dup2\n        /* \"#utility.yul\":21059:21072   */\n      lt\n        /* \"#utility.yul\":21051:21164   */\n      iszero\n      tag_625\n      jumpi\n        /* \"#utility.yul\":21150:21151   */\n      dup1\n        /* \"#utility.yul\":21145:21148   */\n      dup3\n        /* \"#utility.yul\":21141:21152   */\n      add\n        /* \"#utility.yul\":21135:21153   */\n      mload\n        /* \"#utility.yul\":21131:21132   */\n      dup2\n        /* \"#utility.yul\":21126:21129   */\n      dup5\n        /* \"#utility.yul\":21122:21133   */\n      add\n        /* \"#utility.yul\":21115:21154   */\n      mstore\n        /* \"#utility.yul\":21087:21089   */\n      0x20\n        /* \"#utility.yul\":21084:21085   */\n      dup2\n        /* \"#utility.yul\":21080:21090   */\n      add\n        /* \"#utility.yul\":21075:21090   */\n      swap1\n      pop\n        /* \"#utility.yul\":21051:21164   */\n      jump(tag_623)\n    tag_625:\n        /* \"#utility.yul\":21182:21188   */\n      dup4\n        /* \"#utility.yul\":21179:21180   */\n      dup2\n        /* \"#utility.yul\":21176:21189   */\n      gt\n        /* \"#utility.yul\":21173:21274   */\n      iszero\n      tag_626\n      jumpi\n        /* \"#utility.yul\":21262:21263   */\n      0x00\n        /* \"#utility.yul\":21253:21259   */\n      dup5\n        /* \"#utility.yul\":21248:21251   */\n      dup5\n        /* \"#utility.yul\":21244:21260   */\n      add\n        /* \"#utility.yul\":21237:21264   */\n      mstore\n        /* \"#utility.yul\":21173:21274   */\n    tag_626:\n        /* \"#utility.yul\":21022:21280   */\n      pop\n        /* \"#utility.yul\":20973:21280   */\n      pop\n      pop\n      pop\n      jump\t// out\n        /* \"#utility.yul\":21286:21519   */\n    tag_135:\n        /* \"#utility.yul\":21325:21328   */\n      0x00\n        /* \"#utility.yul\":21348:21372   */\n      tag_628\n        /* \"#utility.yul\":21366:21371   */\n      dup3\n        /* \"#utility.yul\":21348:21372   */\n      tag_514\n      jump\t// in\n    tag_628:\n        /* \"#utility.yul\":21339:21372   */\n      swap2\n      pop\n        /* \"#utility.yul\":21394:21460   */\n      0xffffffffffffffffffffffffffffffffffffffffffffffffffffffffffffffff\n        /* \"#utility.yul\":21387:21392   */\n      dup3\n        /* \"#utility.yul\":21384:21461   */\n      eq\n        /* \"#utility.yul\":21381:21484   */\n      iszero\n      tag_629\n      jumpi\n        /* \"#utility.yul\":21464:21482   */\n      tag_630\n      tag_588\n      jump\t// in\n    tag_630:\n        /* \"#utility.yul\":21381:21484   */\n    tag_629:\n        /* \"#utility.yul\":21511:21512   */\n      0x01\n        /* \"#utility.yul\":21504:21509   */\n      dup3\n        /* \"#utility.yul\":21500:21513   */\n      add\n        /* \"#utility.yul\":21493:21513   */\n      swap1\n      pop\n        /* \"#utility.yul\":21286:21519   */\n      swap2\n      swap1\n      pop\n      jump\t// out\n        /* \"#utility.yul\":21525:21705   */\n    tag_588:\n        /* \"#utility.yul\":21573:21650   */\n      0x4e487b7100000000000000000000000000000000000000000000000000000000\n        /* \"#utility.yul\":21570:21571   */\n      0x00\n        /* \"#utility.yul\":21563:21651   */\n      mstore\n        /* \"#utility.yul\":21670:21674   */\n      0x11\n        /* \"#utility.yul\":21667:21668   */\n      0x04\n        /* \"#utility.yul\":21660:21675   */\n      mstore\n        /* \"#utility.yul\":21694:21698   */\n      0x24\n        /* \"#utility.yul\":21691:21692   */\n      0x00\n        /* \"#utility.yul\":21684:21699   */\n      revert\n        /* \"#utility.yul\":21711:21891   */\n    tag_594:\n        /* \"#utility.yul\":21759:21836   */\n      0x4e487b7100000000000000000000000000000000000000000000000000000000\n        /* \"#utility.yul\":21756:21757   */\n      0x00\n        /* \"#utility.yul\":21749:21837   */\n      mstore\n        /* \"#utility.yul\":21856:21860   */\n      0x12\n        /* \"#utility.yul\":21853:21854   */\n      0x04\n        /* \"#utility.yul\":21846:21861   */\n      mstore\n        /* \"#utility.yul\":21880:21884   */\n      0x24\n        /* \"#utility.yul\":21877:21878   */\n      0x00\n        /* \"#utility.yul\":21870:21885   */\n      revert\n        /* \"#utility.yul\":21897:22077   */\n    tag_138:\n        /* \"#utility.yul\":21945:22022   */\n      0x4e487b7100000000000000000000000000000000000000000000000000000000\n        /* \"#utility.yul\":21942:21943   */\n      0x00\n        /* \"#utility.yul\":21935:22023   */\n      mstore\n        /* \"#utility.yul\":22042:22046   */\n      0x31\n        /* \"#utility.yul\":22039:22040   */\n      0x04\n        /* \"#utility.yul\":22032:22047   */\n      mstore\n        /* \"#utility.yul\":22066:22070   */\n      0x24\n        /* \"#utility.yul\":22063:22064   */\n      0x00\n        /* \"#utility.yul\":22056:22071   */\n      revert\n        /* \"#utility.yul\":22083:22263   */\n    tag_97:\n        /* \"#utility.yul\":22131:22208   */\n      0x4e487b7100000000000000000000000000000000000000000000000000000000\n        /* \"#utility.yul\":22128:22129   */\n      0x00\n        /* \"#utility.yul\":22121:22209   */\n      mstore\n        /* \"#utility.yul\":22228:22232   */\n      0x32\n        /* \"#utility.yul\":22225:22226   */\n      0x04\n        /* \"#utility.yul\":22218:22233   */\n      mstore\n        /* \"#utility.yul\":22252:22256   */\n      0x24\n        /* \"#utility.yul\":22249:22250   */\n      0x00\n        /* \"#utility.yul\":22242:22257   */\n      revert\n        /* \"#utility.yul\":22269:22449   */\n    tag_149:\n        /* \"#utility.yul\":22317:22394   */\n      0x4e487b7100000000000000000000000000000000000000000000000000000000\n        /* \"#utility.yul\":22314:22315   */\n      0x00\n        /* \"#utility.yul\":22307:22395   */\n      mstore\n        /* \"#utility.yul\":22414:22418   */\n      0x41\n        /* \"#utility.yul\":22411:22412   */\n      0x04\n        /* \"#utility.yul\":22404:22419   */\n      mstore\n        /* \"#utility.yul\":22438:22442   */\n      0x24\n        /* \"#utility.yul\":22435:22436   */\n      0x00\n        /* \"#utility.yul\":22428:22443   */\n      revert\n        /* \"#utility.yul\":22578:22695   */\n    tag_393:\n        /* \"#utility.yul\":22687:22688   */\n      0x00\n        /* \"#utility.yul\":22684:22685   */\n      dup1\n        /* \"#utility.yul\":22677:22689   */\n      revert\n        /* \"#utility.yul\":22701:22803   */\n    tag_458:\n        /* \"#utility.yul\":22742:22748   */\n      0x00\n        /* \"#utility.yul\":22793:22795   */\n      0x1f\n        /* \"#utility.yul\":22789:22796   */\n      not\n        /* \"#utility.yul\":22784:22786   */\n      0x1f\n        /* \"#utility.yul\":22777:22782   */\n      dup4\n        /* \"#utility.yul\":22773:22787   */\n      add\n        /* \"#utility.yul\":22769:22797   */\n      and\n        /* \"#utility.yul\":22759:22797   */\n      swap1\n      pop\n        /* \"#utility.yul\":22701:22803   */\n      swap2\n      swap1\n      pop\n      jump\t// out\n        /* \"#utility.yul\":22809:23029   */\n    tag_470:\n        /* \"#utility.yul\":22949:22983   */\n      0x556e7374616b653a2052656465656d61626c6520746f6b656e20756e636c6169\n        /* \"#utility.yul\":22945:22946   */\n      0x00\n        /* \"#utility.yul\":22937:22943   */\n      dup3\n        /* \"#utility.yul\":22933:22947   */\n      add\n        /* \"#utility.yul\":22926:22984   */\n      mstore\n        /* \"#utility.yul\":23018:23021   */\n      0x6d00000000000000000000000000000000000000000000000000000000000000\n        /* \"#utility.yul\":23013:23015   */\n      0x20\n        /* \"#utility.yul\":23005:23011   */\n      dup3\n        /* \"#utility.yul\":23001:23016   */\n      add\n        /* \"#utility.yul\":22994:23022   */\n      mstore\n        /* \"#utility.yul\":22809:23029   */\n      pop\n      jump\t// out\n        /* \"#utility.yul\":23035:23212   */\n    tag_475:\n        /* \"#utility.yul\":23175:23204   */\n      0x496e7465726573743a204e6f7468696e6720746f2072656465656d0000000000\n        /* \"#utility.yul\":23171:23172   */\n      0x00\n        /* \"#utility.yul\":23163:23169   */\n      dup3\n        /* \"#utility.yul\":23159:23173   */\n      add\n        /* \"#utility.yul\":23152:23205   */\n      mstore\n        /* \"#utility.yul\":23035:23212   */\n      pop\n      jump\t// out\n        /* \"#utility.yul\":23218:23443   */\n    tag_480:\n        /* \"#utility.yul\":23358:23392   */\n      0x416464726573733a20696e73756666696369656e742062616c616e636520666f\n        /* \"#utility.yul\":23354:23355   */\n      0x00\n        /* \"#utility.yul\":23346:23352   */\n      dup3\n        /* \"#utility.yul\":23342:23356   */\n      add\n        /* \"#utility.yul\":23335:23393   */\n      mstore\n        /* \"#utility.yul\":23427:23435   */\n      0x722063616c6c0000000000000000000000000000000000000000000000000000\n        /* \"#utility.yul\":23422:23424   */\n      0x20\n        /* \"#utility.yul\":23414:23420   */\n      dup3\n        /* \"#utility.yul\":23410:23425   */\n      add\n        /* \"#utility.yul\":23403:23436   */\n      mstore\n        /* \"#utility.yul\":23218:23443   */\n      pop\n      jump\t// out\n        /* \"#utility.yul\":23449:23627   */\n    tag_485:\n        /* \"#utility.yul\":23589:23619   */\n      0x57697468647261773a20416d6f756e74206d757374206265203e203000000000\n        /* \"#utility.yul\":23585:23586   */\n      0x00\n        /* \"#utility.yul\":23577:23583   */\n      dup3\n        /* \"#utility.yul\":23573:23587   */\n      add\n        /* \"#utility.yul\":23566:23620   */\n      mstore\n        /* \"#utility.yul\":23449:23627   */\n      pop\n      jump\t// out\n        /* \"#utility.yul\":23633:23812   */\n    tag_490:\n        /* \"#utility.yul\":23773:23804   */\n      0x416464726573733a2063616c6c20746f206e6f6e2d636f6e7472616374000000\n        /* \"#utility.yul\":23769:23770   */\n      0x00\n        /* \"#utility.yul\":23761:23767   */\n      dup3\n        /* \"#utility.yul\":23757:23771   */\n      add\n        /* \"#utility.yul\":23750:23805   */\n      mstore\n        /* \"#utility.yul\":23633:23812   */\n      pop\n      jump\t// out\n        /* \"#utility.yul\":23818:24047   */\n    tag_495:\n        /* \"#utility.yul\":23958:23992   */\n      0x5361666545524332303a204552433230206f7065726174696f6e20646964206e\n        /* \"#utility.yul\":23954:23955   */\n      0x00\n        /* \"#utility.yul\":23946:23952   */\n      dup3\n        /* \"#utility.yul\":23942:23956   */\n      add\n        /* \"#utility.yul\":23935:23993   */\n      mstore\n        /* \"#utility.yul\":24027:24039   */\n      0x6f74207375636365656400000000000000000000000000000000000000000000\n        /* \"#utility.yul\":24022:24024   */\n      0x20\n        /* \"#utility.yul\":24014:24020   */\n      dup3\n        /* \"#utility.yul\":24010:24025   */\n      add\n        /* \"#utility.yul\":24003:24040   */\n      mstore\n        /* \"#utility.yul\":23818:24047   */\n      pop\n      jump\t// out\n        /* \"#utility.yul\":24053:24234   */\n    tag_500:\n        /* \"#utility.yul\":24193:24226   */\n      0x5265656e7472616e637947756172643a207265656e7472616e742063616c6c00\n        /* \"#utility.yul\":24189:24190   */\n      0x00\n        /* \"#utility.yul\":24181:24187   */\n      dup3\n        /* \"#utility.yul\":24177:24191   */\n      add\n        /* \"#utility.yul\":24170:24227   */\n      mstore\n        /* \"#utility.yul\":24053:24234   */\n      pop\n      jump\t// out\n        /* \"#utility.yul\":24240:24417   */\n    tag_505:\n        /* \"#utility.yul\":24380:24409   */\n      0x4465706f7369743a20416d6f756e74206d757374206265203e20300000000000\n        /* \"#utility.yul\":24376:24377   */\n      0x00\n        /* \"#utility.yul\":24368:24374   */\n      dup3\n        /* \"#utility.yul\":24364:24378   */\n      add\n        /* \"#utility.yul\":24357:24410   */\n      mstore\n        /* \"#utility.yul\":24240:24417   */\n      pop\n      jump\t// out\n        /* \"#utility.yul\":24423:24545   */\n    tag_381:\n        /* \"#utility.yul\":24496:24520   */\n      tag_649\n        /* \"#utility.yul\":24514:24519   */\n      dup2\n        /* \"#utility.yul\":24496:24520   */\n      tag_420\n      jump\t// in\n    tag_649:\n        /* \"#utility.yul\":24489:24494   */\n      dup2\n        /* \"#utility.yul\":24486:24521   */\n      eq\n        /* \"#utility.yul\":24476:24539   */\n      tag_650\n      jumpi\n        /* \"#utility.yul\":24535:24536   */\n      0x00\n        /* \"#utility.yul\":24532:24533   */\n      dup1\n        /* \"#utility.yul\":24525:24537   */\n      revert\n        /* \"#utility.yul\":24476:24539   */\n    tag_650:\n        /* \"#utility.yul\":24423:24545   */\n      pop\n      jump\t// out\n        /* \"#utility.yul\":24551:24667   */\n    tag_385:\n        /* \"#utility.yul\":24621:24642   */\n      tag_652\n        /* \"#utility.yul\":24636:24641   */\n      dup2\n        /* \"#utility.yul\":24621:24642   */\n      tag_608\n      jump\t// in\n    tag_652:\n        /* \"#utility.yul\":24614:24619   */\n      dup2\n        /* \"#utility.yul\":24611:24643   */\n      eq\n        /* \"#utility.yul\":24601:24661   */\n      tag_653\n      jumpi\n        /* \"#utility.yul\":24657:24658   */\n      0x00\n        /* \"#utility.yul\":24654:24655   */\n      dup1\n        /* \"#utility.yul\":24647:24659   */\n      revert\n        /* \"#utility.yul\":24601:24661   */\n    tag_653:\n        /* \"#utility.yul\":24551:24667   */\n      pop\n      jump\t// out\n        /* \"#utility.yul\":24673:24795   */\n    tag_389:\n        /* \"#utility.yul\":24746:24770   */\n      tag_655\n        /* \"#utility.yul\":24764:24769   */\n      dup2\n        /* \"#utility.yul\":24746:24770   */\n      tag_514\n      jump\t// in\n    tag_655:\n        /* \"#utility.yul\":24739:24744   */\n      dup2\n        /* \"#utility.yul\":24736:24771   */\n      eq\n        /* \"#utility.yul\":24726:24789   */\n      tag_656\n      jumpi\n        /* \"#utility.yul\":24785:24786   */\n      0x00\n        /* \"#utility.yul\":24782:24783   */\n      dup1\n        /* \"#utility.yul\":24775:24787   */\n      revert\n        /* \"#utility.yul\":24726:24789   */\n    tag_656:\n        /* \"#utility.yul\":24673:24795   */\n      pop\n      jump\t// out\n\n    auxdata: 0xa2646970667358221220f0d25e51786e727569f2b6701b76465beb893332ad465f11cf8ebfd52a5b37d264736f6c63430008070033\n}\n",
				"bytecode": {
					"linkReferences": {},
					"object": "60c0604052600260015560096002556305f5e100624c4b4062000023919062000135565b6003553480156200003357600080fd5b50604051620032d2380380620032d28339818101604052810190620000599190620000ee565b60016000819055508173ffffffffffffffffffffffffffffffffffffffff1660808173ffffffffffffffffffffffffffffffffffffffff1660601b815250508073ffffffffffffffffffffffffffffffffffffffff1660a08173ffffffffffffffffffffffffffffffffffffffff1660601b81525050505062000222565b600081519050620000e88162000208565b92915050565b6000806040838503121562000108576200010762000203565b5b60006200011885828601620000d7565b92505060206200012b85828601620000d7565b9150509250929050565b60006200014282620001ca565b91506200014f83620001ca565b9250817fffffffffffffffffffffffffffffffffffffffffffffffffffffffffffffffff04831182151516156200018b576200018a620001d4565b5b828202905092915050565b6000620001a382620001aa565b9050919050565b600073ffffffffffffffffffffffffffffffffffffffff82169050919050565b6000819050919050565b7f4e487b7100000000000000000000000000000000000000000000000000000000600052601160045260246000fd5b600080fd5b620002138162000196565b81146200021f57600080fd5b50565b60805160601c60a05160601c61305a6200027860003960008181610c6301528181610e24015261198d01526000818161098e01528181610d2b01528181610d72015281816116f80152611b3b015261305a6000f3fe608060405234801561001057600080fd5b50600436106101005760003560e01c8063ccd34cd511610097578063f5bb23ab11610066578063f5bb23ab146102a0578063f71f71af146102d5578063f76024c4146102f3578063fe961f611461031157610100565b8063ccd34cd514610218578063cf57ee6914610236578063d0a4724714610266578063d720a5151461028457610100565b80639b147bc6116100d35780639b147bc6146101915780639fd53034146101c2578063b0797b8e146101cc578063b6b55f25146101fc57610100565b8063118b9535146101055780632e17de781461013957806345ef79af146101555780637c3a00fd14610173575b600080fd5b61011f600480360381019061011a919061239d565b61032f565b6040516101309594939291906129d3565b60405180910390f35b610153600480360381019061014e9190612437565b610365565b005b61015d610a2d565b60405161016a919061298f565b60405180910390f35b61017b610a33565b604051610188919061298f565b60405180910390f35b6101ab60048036038101906101a691906123ca565b610a39565b6040516101b99291906127ec565b60405180910390f35b6101ca610bb2565b005b6101e660048036038101906101e1919061239d565b611641565b6040516101f39190612974565b60405180910390f35b61021660048036038101906102119190612437565b61165f565b005b610220611937565b60405161022d919061298f565b60405180910390f35b610250600480360381019061024b919061239d565b61193f565b60405161025d919061298f565b60405180910390f35b61026e61198b565b60405161027b919061281c565b60405180910390f35b61029e60048036038101906102999190612464565b6119af565b005b6102ba60048036038101906102b591906123ca565b611ae0565b6040516102cc96959493929190612a26565b60405180910390f35b6102dd611b39565b6040516102ea9190612837565b60405180910390f35b6102fb611b5d565b604051610308919061298f565b60405180910390f35b610319611b63565b604051610326919061298f565b60405180910390f35b60056020528060005260406000206000915090508060000154908060010154908060020154908060030154908060040154905085565b600260005414156103ab576040517f08c379a00000000000000000000000000000000000000000000000000000000081526004016103a290612934565b60405180910390fd5b600260008190555060006103bf3383611b69565b90506000816040015114610408576040517f08c379a00000000000000000000000000000000000000000000000000000000081526004016103ff90612874565b60405180910390fd5b6000600660003373ffffffffffffffffffffffffffffffffffffffff1673ffffffffffffffffffffffffffffffffffffffff168152602001908152602001600020838154811061045b5761045a612db1565b5b906000526020600020906006020160020154116104ad576040517f08c379a00000000000000000000000000000000000000000000000000000000081526004016104a4906128d4565b60405180910390fd5b6000600660003373ffffffffffffffffffffffffffffffffffffffff1673ffffffffffffffffffffffffffffffffffffffff1681526020019081526020016000208381548110610500576104ff612db1565b5b9060005260206000209060060201600201549050600660003373ffffffffffffffffffffffffffffffffffffffff1673ffffffffffffffffffffffffffffffffffffffff168152602001908152602001600020838154811061056557610564612db1565b5b9060005260206000209060060201600201546004546105849190612be4565b600481905550600660003373ffffffffffffffffffffffffffffffffffffffff1673ffffffffffffffffffffffffffffffffffffffff16815260200190815260200160002083815481106105db576105da612db1565b5b906000526020600020906006020160020154600560003373ffffffffffffffffffffffffffffffffffffffff1673ffffffffffffffffffffffffffffffffffffffff168152602001908152602001600020600001600082825461063e9190612be4565b92505081905550600660003373ffffffffffffffffffffffffffffffffffffffff1673ffffffffffffffffffffffffffffffffffffffff168152602001908152602001600020838154811061069657610695612db1565b5b906000526020600020906006020160020154600560003373ffffffffffffffffffffffffffffffffffffffff1673ffffffffffffffffffffffffffffffffffffffff16815260200190815260200160002060010160008282546106f99190612be4565b92505081905550600660003373ffffffffffffffffffffffffffffffffffffffff1673ffffffffffffffffffffffffffffffffffffffff168152602001908152602001600020838154811061075157610750612db1565b5b9060005260206000209060060201600201546003546107709190612b03565b60038190555060008390505b6001600660003373ffffffffffffffffffffffffffffffffffffffff1673ffffffffffffffffffffffffffffffffffffffff168152602001908152602001600020805490506107cb9190612be4565b8110156108ee57600660003373ffffffffffffffffffffffffffffffffffffffff1673ffffffffffffffffffffffffffffffffffffffff16815260200190815260200160002060018261081e9190612b03565b8154811061082f5761082e612db1565b5b9060005260206000209060060201600660003373ffffffffffffffffffffffffffffffffffffffff1673ffffffffffffffffffffffffffffffffffffffff168152602001908152602001600020828154811061088e5761088d612db1565b5b906000526020600020906006020160008201548160000155600182015481600101556002820154816002015560038201548160030155600482015481600401556005820154816005015590505080806108e690612cdb565b91505061077c565b50600660003373ffffffffffffffffffffffffffffffffffffffff1673ffffffffffffffffffffffffffffffffffffffff16815260200190815260200160002080548061093e5761093d612d82565b5b600190038181906000526020600020906006020160008082016000905560018201600090556002820160009055600382016000905560048201600090556005820160009055505090556109d233827f000000000000000000000000000000000000000000000000000000000000000073ffffffffffffffffffffffffffffffffffffffff16611edd9092919063ffffffff16565b3373ffffffffffffffffffffffffffffffffffffffff167f85082129d87b2fe11527cb1b3b7a520aeb5aa6913f88a3d8757fe40d1db02fdd82604051610a18919061298f565b60405180910390a25050600160008190555050565b60035481565b60025481565b6060610a4361233d565b6000610a4f8585611b69565b90506000600367ffffffffffffffff811115610a6e57610a6d612de0565b5b604051908082528060200260200182016040528015610aa157816020015b6060815260200190600190039081610a8c5790505b5090506040518060400160405280600d81526020017f6275796261636b416d6f756e740000000000000000000000000000000000000081525081600081518110610aee57610aed612db1565b5b60200260200101819052506040518060400160405280600e81526020017f696e746572657374416d6f756e7400000000000000000000000000000000000081525081600181518110610b4357610b42612db1565b5b60200260200101819052506040518060400160405280601081526020017f72656465656d61626c65416d6f756e740000000000000000000000000000000081525081600281518110610b9857610b97612db1565b5b602002602001018190525080829350935050509250929050565b60026000541415610bf8576040517f08c379a0000000000000000000000000000000000000000000000000000000008152600401610bef90612934565b60405180910390fd5b60026000819055506000610c0b33611f63565b9050600081604001511415610c55576040517f08c379a0000000000000000000000000000000000000000000000000000000008152600401610c4c90612894565b60405180910390fd5b6000816020015114610d14577f000000000000000000000000000000000000000000000000000000000000000073ffffffffffffffffffffffffffffffffffffffff166374920d303383602001516040518363ffffffff1660e01b8152600401610cc09291906127c3565b602060405180830381600087803b158015610cda57600080fd5b505af1158015610cee573d6000803e3d6000fd5b505050506040513d601f19601f82011682018060405250810190610d12919061240a565b505b6000816000015114610d7057610d6f3382600001517f000000000000000000000000000000000000000000000000000000000000000073ffffffffffffffffffffffffffffffffffffffff16611edd9092919063ffffffff16565b5b7f000000000000000000000000000000000000000000000000000000000000000073ffffffffffffffffffffffffffffffffffffffff166371c2fc9e3383600001516040518363ffffffff1660e01b8152600401610dcf9291906127c3565b602060405180830381600087803b158015610de957600080fd5b505af1158015610dfd573d6000803e3d6000fd5b505050506040513d601f19601f82011682018060405250810190610e21919061240a565b507f000000000000000000000000000000000000000000000000000000000000000073ffffffffffffffffffffffffffffffffffffffff166371c2fc9e3383602001516040518363ffffffff1660e01b8152600401610e819291906127c3565b602060405180830381600087803b158015610e9b57600080fd5b505af1158015610eaf573d6000803e3d6000fd5b505050506040513d601f19601f82011682018060405250810190610ed3919061240a565b5060005b600660003373ffffffffffffffffffffffffffffffffffffffff1673ffffffffffffffffffffffffffffffffffffffff168152602001908152602001600020805490508110156115f257600062278d00600660003373ffffffffffffffffffffffffffffffffffffffff1673ffffffffffffffffffffffffffffffffffffffff1681526020019081526020016000208381548110610f7857610f77612db1565b5b90600052602060002090600602016000015442610f959190612be4565b610f9f9190612b59565b90506001546064610fb09190612b59565b811115610fc9576001546064610fc69190612b59565b90505b6000606482600660003373ffffffffffffffffffffffffffffffffffffffff1673ffffffffffffffffffffffffffffffffffffffff168152602001908152602001600020858154811061101f5761101e612db1565b5b90600052602060002090600602016001015460015461103e9190612b8a565b6110489190612b8a565b6110529190612b59565b90506000600660003373ffffffffffffffffffffffffffffffffffffffff1673ffffffffffffffffffffffffffffffffffffffff16815260200190815260200160002084815481106110a7576110a6612db1565b5b90600052602060002090600602016001015490506000805b8481101561119657600c6064846002546110d99190612b8a565b6110e39190612b59565b6110ed9190612b59565b826110f89190612b03565b91506064600660003373ffffffffffffffffffffffffffffffffffffffff1673ffffffffffffffffffffffffffffffffffffffff168152602001908152602001600020878154811061114d5761114c612db1565b5b90600052602060002090600602016001015460015461116c9190612b8a565b6111769190612b59565b836111819190612be4565b9250808061118e90612cdb565b9150506110bf565b506000600660003373ffffffffffffffffffffffffffffffffffffffff1673ffffffffffffffffffffffffffffffffffffffff16815260200190815260200160002086815481106111ea576111e9612db1565b5b906000526020600020906006020160050154846112079190612be4565b90506000600660003373ffffffffffffffffffffffffffffffffffffffff1673ffffffffffffffffffffffffffffffffffffffff168152602001908152602001600020878154811061125c5761125b612db1565b5b906000526020600020906006020160040154836112799190612be4565b905081600660003373ffffffffffffffffffffffffffffffffffffffff1673ffffffffffffffffffffffffffffffffffffffff16815260200190815260200160002088815481106112cd576112cc612db1565b5b906000526020600020906006020160020160008282546112ed9190612be4565b9250508190555081600560003373ffffffffffffffffffffffffffffffffffffffff1673ffffffffffffffffffffffffffffffffffffffff16815260200190815260200160002060010160008282546113469190612be4565b9250508190555080600660003373ffffffffffffffffffffffffffffffffffffffff1673ffffffffffffffffffffffffffffffffffffffff168152602001908152602001600020888154811061139f5761139e612db1565b5b906000526020600020906006020160040160008282546113bf9190612b03565b9250508190555080600560003373ffffffffffffffffffffffffffffffffffffffff1673ffffffffffffffffffffffffffffffffffffffff16815260200190815260200160002060040160008282546114189190612b03565b9250508190555081600660003373ffffffffffffffffffffffffffffffffffffffff1673ffffffffffffffffffffffffffffffffffffffff168152602001908152602001600020888154811061147157611470612db1565b5b906000526020600020906006020160050160008282546114919190612b03565b9250508190555081600560003373ffffffffffffffffffffffffffffffffffffffff1673ffffffffffffffffffffffffffffffffffffffff16815260200190815260200160002060030160008282546114ea9190612b03565b9250508190555080826114fd9190612b03565b600660003373ffffffffffffffffffffffffffffffffffffffff1673ffffffffffffffffffffffffffffffffffffffff168152602001908152602001600020888154811061154e5761154d612db1565b5b9060005260206000209060060201600301600082825461156e9190612b03565b9250508190555080826115819190612b03565b600560003373ffffffffffffffffffffffffffffffffffffffff1673ffffffffffffffffffffffffffffffffffffffff16815260200190815260200160002060020160008282546115d29190612b03565b9250508190555050505050505080806115ea90612cdb565b915050610ed7565b503373ffffffffffffffffffffffffffffffffffffffff167fd2c2928212b87e3b9cb2cf37231739682c8bec99936d3798e7386ca23ea133a360405160405180910390a2506001600081905550565b61164961233d565b600061165483611f63565b905080915050919050565b600260005414156116a5576040517f08c379a000000000000000000000000000000000000000000000000000000000815260040161169c90612934565b60405180910390fd5b6002600081905550600081116116f0576040517f08c379a00000000000000000000000000000000000000000000000000000000081526004016116e790612954565b60405180910390fd5b61173d3330837f000000000000000000000000000000000000000000000000000000000000000073ffffffffffffffffffffffffffffffffffffffff16612037909392919063ffffffff16565b80600560003373ffffffffffffffffffffffffffffffffffffffff1673ffffffffffffffffffffffffffffffffffffffff168152602001908152602001600020600001600082825461178f9190612b03565b9250508190555080600560003373ffffffffffffffffffffffffffffffffffffffff1673ffffffffffffffffffffffffffffffffffffffff16815260200190815260200160002060010160008282546117e89190612b03565b92505081905550600660003373ffffffffffffffffffffffffffffffffffffffff1673ffffffffffffffffffffffffffffffffffffffff1681526020019081526020016000206040518060c00160405280428152602001838152602001838152602001600081526020016000815260200160008152509080600181540180825580915050600190039060005260206000209060060201600090919091909150600082015181600001556020820151816001015560408201518160020155606082015181600301556080820151816004015560a08201518160050155505080600460008282546118d79190612b03565b925050819055503373ffffffffffffffffffffffffffffffffffffffff167fe1fffcc4923d04b559f4d29a8bfc6cda04eb5b0d3c460751c2402c5c5cc9109c82604051611924919061298f565b60405180910390a2600160008190555050565b6305f5e10081565b6000600660008373ffffffffffffffffffffffffffffffffffffffff1673ffffffffffffffffffffffffffffffffffffffff168152602001908152602001600020805490509050919050565b7f000000000000000000000000000000000000000000000000000000000000000081565b600260005414156119f5576040517f08c379a00000000000000000000000000000000000000000000000000000000081526004016119ec90612934565b60405180910390fd5b60026000819055508162015180611a0c9190612b8a565b600660003373ffffffffffffffffffffffffffffffffffffffff1673ffffffffffffffffffffffffffffffffffffffff1681526020019081526020016000208281548110611a5d57611a5c612db1565b5b90600052602060002090600602016000016000828254611a7d9190612be4565b925050819055503373ffffffffffffffffffffffffffffffffffffffff167f6dc049a7e6a75ca211ecf0c13acc2e9556629b677527cfbe710f1fdb5c330af58383604051611acc9291906129aa565b60405180910390a260016000819055505050565b60066020528160005260406000208181548110611afc57600080fd5b9060005260206000209060060201600091509150508060000154908060010154908060020154908060030154908060040154908060050154905086565b7f000000000000000000000000000000000000000000000000000000000000000081565b60015481565b60045481565b611b7161233d565b600062278d00600660008673ffffffffffffffffffffffffffffffffffffffff1673ffffffffffffffffffffffffffffffffffffffff1681526020019081526020016000208481548110611bc857611bc7612db1565b5b90600052602060002090600602016000015442611be59190612be4565b611bef9190612b59565b90506000606482600660008873ffffffffffffffffffffffffffffffffffffffff1673ffffffffffffffffffffffffffffffffffffffff1681526020019081526020016000208681548110611c4757611c46612db1565b5b906000526020600020906006020160010154600154611c669190612b8a565b611c709190612b8a565b611c7a9190612b59565b90506000600660008773ffffffffffffffffffffffffffffffffffffffff1673ffffffffffffffffffffffffffffffffffffffff1681526020019081526020016000208581548110611ccf57611cce612db1565b5b90600052602060002090600602016001015490506000805b84811015611dbe57600c606484600254611d019190612b8a565b611d0b9190612b59565b611d159190612b59565b82611d209190612b03565b91506064600660008a73ffffffffffffffffffffffffffffffffffffffff1673ffffffffffffffffffffffffffffffffffffffff1681526020019081526020016000208881548110611d7557611d74612db1565b5b906000526020600020906006020160010154600154611d949190612b8a565b611d9e9190612b59565b83611da99190612be4565b92508080611db690612cdb565b915050611ce7565b506000600660008973ffffffffffffffffffffffffffffffffffffffff1673ffffffffffffffffffffffffffffffffffffffff1681526020019081526020016000208781548110611e1257611e11612db1565b5b90600052602060002090600602016005015484611e2f9190612be4565b90506000600660008a73ffffffffffffffffffffffffffffffffffffffff1673ffffffffffffffffffffffffffffffffffffffff1681526020019081526020016000208881548110611e8457611e83612db1565b5b90600052602060002090600602016004015483611ea19190612be4565b9050600060405180606001604052808481526020018381526020018385611ec89190612b03565b81525090508097505050505050505092915050565b611f5e8363a9059cbb60e01b8484604051602401611efc9291906127c3565b604051602081830303815290604052907bffffffffffffffffffffffffffffffffffffffffffffffffffffffff19166020820180517bffffffffffffffffffffffffffffffffffffffffffffffffffffffff83818316178352505050506120c0565b505050565b611f6b61233d565b60008060005b600660008673ffffffffffffffffffffffffffffffffffffffff1673ffffffffffffffffffffffffffffffffffffffff16815260200190815260200160002080549050811015612001576000611fc78683611b69565b9050806000015184611fd99190612b03565b9350806020015183611feb9190612b03565b9250508080611ff990612cdb565b915050611f71565b506000604051806060016040528084815260200183815260200183856120279190612b03565b8152509050809350505050919050565b6120ba846323b872dd60e01b8585856040516024016120589392919061278c565b604051602081830303815290604052907bffffffffffffffffffffffffffffffffffffffffffffffffffffffff19166020820180517bffffffffffffffffffffffffffffffffffffffffffffffffffffffff83818316178352505050506120c0565b50505050565b6000612122826040518060400160405280602081526020017f5361666545524332303a206c6f772d6c6576656c2063616c6c206661696c65648152508573ffffffffffffffffffffffffffffffffffffffff166121879092919063ffffffff16565b90506000815111156121825780806020019051810190612142919061240a565b612181576040517f08c379a000000000000000000000000000000000000000000000000000000000815260040161217890612914565b60405180910390fd5b5b505050565b6060612196848460008561219f565b90509392505050565b6060824710156121e4576040517f08c379a00000000000000000000000000000000000000000000000000000000081526004016121db906128b4565b60405180910390fd5b6121ed856122b3565b61222c576040517f08c379a0000000000000000000000000000000000000000000000000000000008152600401612223906128f4565b60405180910390fd5b6000808673ffffffffffffffffffffffffffffffffffffffff1685876040516122559190612775565b60006040518083038185875af1925050503d8060008114612292576040519150601f19603f3d011682016040523d82523d6000602084013e612297565b606091505b50915091506122a78282866122d6565b92505050949350505050565b6000808273ffffffffffffffffffffffffffffffffffffffff163b119050919050565b606083156122e657829050612336565b6000835111156122f95782518084602001fd5b816040517f08c379a000000000000000000000000000000000000000000000000000000000815260040161232d9190612852565b60405180910390fd5b9392505050565b60405180606001604052806000815260200160008152602001600081525090565b60008135905061236d81612fdf565b92915050565b60008151905061238281612ff6565b92915050565b6000813590506123978161300d565b92915050565b6000602082840312156123b3576123b2612e0f565b5b60006123c18482850161235e565b91505092915050565b600080604083850312156123e1576123e0612e0f565b5b60006123ef8582860161235e565b925050602061240085828601612388565b9150509250929050565b6000602082840312156124205761241f612e0f565b5b600061242e84828501612373565b91505092915050565b60006020828403121561244d5761244c612e0f565b5b600061245b84828501612388565b91505092915050565b6000806040838503121561247b5761247a612e0f565b5b600061248985828601612388565b925050602061249a85828601612388565b9150509250929050565b60006124b0838361258b565b905092915050565b6124c181612c18565b82525050565b60006124d282612a97565b6124dc8185612ac5565b9350836020820285016124ee85612a87565b8060005b8581101561252a578484038952815161250b85826124a4565b945061251683612ab8565b925060208a019950506001810190506124f2565b50829750879550505050505092915050565b600061254782612aa2565b6125518185612ad6565b9350612561818560208601612ca8565b80840191505092915050565b61257681612c60565b82525050565b61258581612c72565b82525050565b600061259682612aad565b6125a08185612ae1565b93506125b0818560208601612ca8565b6125b981612e14565b840191505092915050565b60006125cf82612aad565b6125d98185612af2565b93506125e9818560208601612ca8565b6125f281612e14565b840191505092915050565b600061260a602183612af2565b915061261582612e25565b604082019050919050565b600061262d601b83612af2565b915061263882612e74565b602082019050919050565b6000612650602683612af2565b915061265b82612e9d565b604082019050919050565b6000612673601c83612af2565b915061267e82612eec565b602082019050919050565b6000612696601d83612af2565b91506126a182612f15565b602082019050919050565b60006126b9602a83612af2565b91506126c482612f3e565b604082019050919050565b60006126dc601f83612af2565b91506126e782612f8d565b602082019050919050565b60006126ff601b83612af2565b915061270a82612fb6565b602082019050919050565b60608201600082015161272b6000850182612757565b50602082015161273e6020850182612757565b5060408201516127516040850182612757565b50505050565b61276081612c56565b82525050565b61276f81612c56565b82525050565b6000612781828461253c565b915081905092915050565b60006060820190506127a160008301866124b8565b6127ae60208301856124b8565b6127bb6040830184612766565b949350505050565b60006040820190506127d860008301856124b8565b6127e56020830184612766565b9392505050565b6000608082019050818103600083015261280681856124c7565b90506128156020830184612715565b9392505050565b6000602082019050612831600083018461256d565b92915050565b600060208201905061284c600083018461257c565b92915050565b6000602082019050818103600083015261286c81846125c4565b905092915050565b6000602082019050818103600083015261288d816125fd565b9050919050565b600060208201905081810360008301526128ad81612620565b9050919050565b600060208201905081810360008301526128cd81612643565b9050919050565b600060208201905081810360008301526128ed81612666565b9050919050565b6000602082019050818103600083015261290d81612689565b9050919050565b6000602082019050818103600083015261292d816126ac565b9050919050565b6000602082019050818103600083015261294d816126cf565b9050919050565b6000602082019050818103600083015261296d816126f2565b9050919050565b60006060820190506129896000830184612715565b92915050565b60006020820190506129a46000830184612766565b92915050565b60006040820190506129bf6000830185612766565b6129cc6020830184612766565b9392505050565b600060a0820190506129e86000830188612766565b6129f56020830187612766565b612a026040830186612766565b612a0f6060830185612766565b612a1c6080830184612766565b9695505050505050565b600060c082019050612a3b6000830189612766565b612a486020830188612766565b612a556040830187612766565b612a626060830186612766565b612a6f6080830185612766565b612a7c60a0830184612766565b979650505050505050565b6000819050602082019050919050565b600081519050919050565b600081519050919050565b600081519050919050565b6000602082019050919050565b600082825260208201905092915050565b600081905092915050565b600082825260208201905092915050565b600082825260208201905092915050565b6000612b0e82612c56565b9150612b1983612c56565b9250827fffffffffffffffffffffffffffffffffffffffffffffffffffffffffffffffff03821115612b4e57612b4d612d24565b5b828201905092915050565b6000612b6482612c56565b9150612b6f83612c56565b925082612b7f57612b7e612d53565b5b828204905092915050565b6000612b9582612c56565b9150612ba083612c56565b9250817fffffffffffffffffffffffffffffffffffffffffffffffffffffffffffffffff0483118215151615612bd957612bd8612d24565b5b828202905092915050565b6000612bef82612c56565b9150612bfa83612c56565b925082821015612c0d57612c0c612d24565b5b828203905092915050565b6000612c2382612c36565b9050919050565b60008115159050919050565b600073ffffffffffffffffffffffffffffffffffffffff82169050919050565b6000819050919050565b6000612c6b82612c84565b9050919050565b6000612c7d82612c84565b9050919050565b6000612c8f82612c96565b9050919050565b6000612ca182612c36565b9050919050565b60005b83811015612cc6578082015181840152602081019050612cab565b83811115612cd5576000848401525b50505050565b6000612ce682612c56565b91507fffffffffffffffffffffffffffffffffffffffffffffffffffffffffffffffff821415612d1957612d18612d24565b5b600182019050919050565b7f4e487b7100000000000000000000000000000000000000000000000000000000600052601160045260246000fd5b7f4e487b7100000000000000000000000000000000000000000000000000000000600052601260045260246000fd5b7f4e487b7100000000000000000000000000000000000000000000000000000000600052603160045260246000fd5b7f4e487b7100000000000000000000000000000000000000000000000000000000600052603260045260246000fd5b7f4e487b7100000000000000000000000000000000000000000000000000000000600052604160045260246000fd5b600080fd5b6000601f19601f8301169050919050565b7f556e7374616b653a2052656465656d61626c6520746f6b656e20756e636c616960008201527f6d00000000000000000000000000000000000000000000000000000000000000602082015250565b7f496e7465726573743a204e6f7468696e6720746f2072656465656d0000000000600082015250565b7f416464726573733a20696e73756666696369656e742062616c616e636520666f60008201527f722063616c6c0000000000000000000000000000000000000000000000000000602082015250565b7f57697468647261773a20416d6f756e74206d757374206265203e203000000000600082015250565b7f416464726573733a2063616c6c20746f206e6f6e2d636f6e7472616374000000600082015250565b7f5361666545524332303a204552433230206f7065726174696f6e20646964206e60008201527f6f74207375636365656400000000000000000000000000000000000000000000602082015250565b7f5265656e7472616e637947756172643a207265656e7472616e742063616c6c00600082015250565b7f4465706f7369743a20416d6f756e74206d757374206265203e20300000000000600082015250565b612fe881612c18565b8114612ff357600080fd5b50565b612fff81612c2a565b811461300a57600080fd5b50565b61301681612c56565b811461302157600080fd5b5056fea2646970667358221220f0d25e51786e727569f2b6701b76465beb893332ad465f11cf8ebfd52a5b37d264736f6c63430008070033",
					"opcodes": "PUSH1 0xC0 PUSH1 0x40 MSTORE PUSH1 0x2 PUSH1 0x1 SSTORE PUSH1 0x9 PUSH1 0x2 SSTORE PUSH4 0x5F5E100 PUSH3 0x4C4B40 PUSH3 0x23 SWAP2 SWAP1 PUSH3 0x135 JUMP JUMPDEST PUSH1 0x3 SSTORE CALLVALUE DUP1 ISZERO PUSH3 0x33 JUMPI PUSH1 0x0 DUP1 REVERT JUMPDEST POP PUSH1 0x40 MLOAD PUSH3 0x32D2 CODESIZE SUB DUP1 PUSH3 0x32D2 DUP4 CODECOPY DUP2 DUP2 ADD PUSH1 0x40 MSTORE DUP2 ADD SWAP1 PUSH3 0x59 SWAP2 SWAP1 PUSH3 0xEE JUMP JUMPDEST PUSH1 0x1 PUSH1 0x0 DUP2 SWAP1 SSTORE POP DUP2 PUSH20 0xFFFFFFFFFFFFFFFFFFFFFFFFFFFFFFFFFFFFFFFF AND PUSH1 0x80 DUP2 PUSH20 0xFFFFFFFFFFFFFFFFFFFFFFFFFFFFFFFFFFFFFFFF AND PUSH1 0x60 SHL DUP2 MSTORE POP POP DUP1 PUSH20 0xFFFFFFFFFFFFFFFFFFFFFFFFFFFFFFFFFFFFFFFF AND PUSH1 0xA0 DUP2 PUSH20 0xFFFFFFFFFFFFFFFFFFFFFFFFFFFFFFFFFFFFFFFF AND PUSH1 0x60 SHL DUP2 MSTORE POP POP POP POP PUSH3 0x222 JUMP JUMPDEST PUSH1 0x0 DUP2 MLOAD SWAP1 POP PUSH3 0xE8 DUP2 PUSH3 0x208 JUMP JUMPDEST SWAP3 SWAP2 POP POP JUMP JUMPDEST PUSH1 0x0 DUP1 PUSH1 0x40 DUP4 DUP6 SUB SLT ISZERO PUSH3 0x108 JUMPI PUSH3 0x107 PUSH3 0x203 JUMP JUMPDEST JUMPDEST PUSH1 0x0 PUSH3 0x118 DUP6 DUP3 DUP7 ADD PUSH3 0xD7 JUMP JUMPDEST SWAP3 POP POP PUSH1 0x20 PUSH3 0x12B DUP6 DUP3 DUP7 ADD PUSH3 0xD7 JUMP JUMPDEST SWAP2 POP POP SWAP3 POP SWAP3 SWAP1 POP JUMP JUMPDEST PUSH1 0x0 PUSH3 0x142 DUP3 PUSH3 0x1CA JUMP JUMPDEST SWAP2 POP PUSH3 0x14F DUP4 PUSH3 0x1CA JUMP JUMPDEST SWAP3 POP DUP2 PUSH32 0xFFFFFFFFFFFFFFFFFFFFFFFFFFFFFFFFFFFFFFFFFFFFFFFFFFFFFFFFFFFFFFFF DIV DUP4 GT DUP3 ISZERO ISZERO AND ISZERO PUSH3 0x18B JUMPI PUSH3 0x18A PUSH3 0x1D4 JUMP JUMPDEST JUMPDEST DUP3 DUP3 MUL SWAP1 POP SWAP3 SWAP2 POP POP JUMP JUMPDEST PUSH1 0x0 PUSH3 0x1A3 DUP3 PUSH3 0x1AA JUMP JUMPDEST SWAP1 POP SWAP2 SWAP1 POP JUMP JUMPDEST PUSH1 0x0 PUSH20 0xFFFFFFFFFFFFFFFFFFFFFFFFFFFFFFFFFFFFFFFF DUP3 AND SWAP1 POP SWAP2 SWAP1 POP JUMP JUMPDEST PUSH1 0x0 DUP2 SWAP1 POP SWAP2 SWAP1 POP JUMP JUMPDEST PUSH32 0x4E487B7100000000000000000000000000000000000000000000000000000000 PUSH1 0x0 MSTORE PUSH1 0x11 PUSH1 0x4 MSTORE PUSH1 0x24 PUSH1 0x0 REVERT JUMPDEST PUSH1 0x0 DUP1 REVERT JUMPDEST PUSH3 0x213 DUP2 PUSH3 0x196 JUMP JUMPDEST DUP2 EQ PUSH3 0x21F JUMPI PUSH1 0x0 DUP1 REVERT JUMPDEST POP JUMP JUMPDEST PUSH1 0x80 MLOAD PUSH1 0x60 SHR PUSH1 0xA0 MLOAD PUSH1 0x60 SHR PUSH2 0x305A PUSH3 0x278 PUSH1 0x0 CODECOPY PUSH1 0x0 DUP2 DUP2 PUSH2 0xC63 ADD MSTORE DUP2 DUP2 PUSH2 0xE24 ADD MSTORE PUSH2 0x198D ADD MSTORE PUSH1 0x0 DUP2 DUP2 PUSH2 0x98E ADD MSTORE DUP2 DUP2 PUSH2 0xD2B ADD MSTORE DUP2 DUP2 PUSH2 0xD72 ADD MSTORE DUP2 DUP2 PUSH2 0x16F8 ADD MSTORE PUSH2 0x1B3B ADD MSTORE PUSH2 0x305A PUSH1 0x0 RETURN INVALID PUSH1 0x80 PUSH1 0x40 MSTORE CALLVALUE DUP1 ISZERO PUSH2 0x10 JUMPI PUSH1 0x0 DUP1 REVERT JUMPDEST POP PUSH1 0x4 CALLDATASIZE LT PUSH2 0x100 JUMPI PUSH1 0x0 CALLDATALOAD PUSH1 0xE0 SHR DUP1 PUSH4 0xCCD34CD5 GT PUSH2 0x97 JUMPI DUP1 PUSH4 0xF5BB23AB GT PUSH2 0x66 JUMPI DUP1 PUSH4 0xF5BB23AB EQ PUSH2 0x2A0 JUMPI DUP1 PUSH4 0xF71F71AF EQ PUSH2 0x2D5 JUMPI DUP1 PUSH4 0xF76024C4 EQ PUSH2 0x2F3 JUMPI DUP1 PUSH4 0xFE961F61 EQ PUSH2 0x311 JUMPI PUSH2 0x100 JUMP JUMPDEST DUP1 PUSH4 0xCCD34CD5 EQ PUSH2 0x218 JUMPI DUP1 PUSH4 0xCF57EE69 EQ PUSH2 0x236 JUMPI DUP1 PUSH4 0xD0A47247 EQ PUSH2 0x266 JUMPI DUP1 PUSH4 0xD720A515 EQ PUSH2 0x284 JUMPI PUSH2 0x100 JUMP JUMPDEST DUP1 PUSH4 0x9B147BC6 GT PUSH2 0xD3 JUMPI DUP1 PUSH4 0x9B147BC6 EQ PUSH2 0x191 JUMPI DUP1 PUSH4 0x9FD53034 EQ PUSH2 0x1C2 JUMPI DUP1 PUSH4 0xB0797B8E EQ PUSH2 0x1CC JUMPI DUP1 PUSH4 0xB6B55F25 EQ PUSH2 0x1FC JUMPI PUSH2 0x100 JUMP JUMPDEST DUP1 PUSH4 0x118B9535 EQ PUSH2 0x105 JUMPI DUP1 PUSH4 0x2E17DE78 EQ PUSH2 0x139 JUMPI DUP1 PUSH4 0x45EF79AF EQ PUSH2 0x155 JUMPI DUP1 PUSH4 0x7C3A00FD EQ PUSH2 0x173 JUMPI JUMPDEST PUSH1 0x0 DUP1 REVERT JUMPDEST PUSH2 0x11F PUSH1 0x4 DUP1 CALLDATASIZE SUB DUP2 ADD SWAP1 PUSH2 0x11A SWAP2 SWAP1 PUSH2 0x239D JUMP JUMPDEST PUSH2 0x32F JUMP JUMPDEST PUSH1 0x40 MLOAD PUSH2 0x130 SWAP6 SWAP5 SWAP4 SWAP3 SWAP2 SWAP1 PUSH2 0x29D3 JUMP JUMPDEST PUSH1 0x40 MLOAD DUP1 SWAP2 SUB SWAP1 RETURN JUMPDEST PUSH2 0x153 PUSH1 0x4 DUP1 CALLDATASIZE SUB DUP2 ADD SWAP1 PUSH2 0x14E SWAP2 SWAP1 PUSH2 0x2437 JUMP JUMPDEST PUSH2 0x365 JUMP JUMPDEST STOP JUMPDEST PUSH2 0x15D PUSH2 0xA2D JUMP JUMPDEST PUSH1 0x40 MLOAD PUSH2 0x16A SWAP2 SWAP1 PUSH2 0x298F JUMP JUMPDEST PUSH1 0x40 MLOAD DUP1 SWAP2 SUB SWAP1 RETURN JUMPDEST PUSH2 0x17B PUSH2 0xA33 JUMP JUMPDEST PUSH1 0x40 MLOAD PUSH2 0x188 SWAP2 SWAP1 PUSH2 0x298F JUMP JUMPDEST PUSH1 0x40 MLOAD DUP1 SWAP2 SUB SWAP1 RETURN JUMPDEST PUSH2 0x1AB PUSH1 0x4 DUP1 CALLDATASIZE SUB DUP2 ADD SWAP1 PUSH2 0x1A6 SWAP2 SWAP1 PUSH2 0x23CA JUMP JUMPDEST PUSH2 0xA39 JUMP JUMPDEST PUSH1 0x40 MLOAD PUSH2 0x1B9 SWAP3 SWAP2 SWAP1 PUSH2 0x27EC JUMP JUMPDEST PUSH1 0x40 MLOAD DUP1 SWAP2 SUB SWAP1 RETURN JUMPDEST PUSH2 0x1CA PUSH2 0xBB2 JUMP JUMPDEST STOP JUMPDEST PUSH2 0x1E6 PUSH1 0x4 DUP1 CALLDATASIZE SUB DUP2 ADD SWAP1 PUSH2 0x1E1 SWAP2 SWAP1 PUSH2 0x239D JUMP JUMPDEST PUSH2 0x1641 JUMP JUMPDEST PUSH1 0x40 MLOAD PUSH2 0x1F3 SWAP2 SWAP1 PUSH2 0x2974 JUMP JUMPDEST PUSH1 0x40 MLOAD DUP1 SWAP2 SUB SWAP1 RETURN JUMPDEST PUSH2 0x216 PUSH1 0x4 DUP1 CALLDATASIZE SUB DUP2 ADD SWAP1 PUSH2 0x211 SWAP2 SWAP1 PUSH2 0x2437 JUMP JUMPDEST PUSH2 0x165F JUMP JUMPDEST STOP JUMPDEST PUSH2 0x220 PUSH2 0x1937 JUMP JUMPDEST PUSH1 0x40 MLOAD PUSH2 0x22D SWAP2 SWAP1 PUSH2 0x298F JUMP JUMPDEST PUSH1 0x40 MLOAD DUP1 SWAP2 SUB SWAP1 RETURN JUMPDEST PUSH2 0x250 PUSH1 0x4 DUP1 CALLDATASIZE SUB DUP2 ADD SWAP1 PUSH2 0x24B SWAP2 SWAP1 PUSH2 0x239D JUMP JUMPDEST PUSH2 0x193F JUMP JUMPDEST PUSH1 0x40 MLOAD PUSH2 0x25D SWAP2 SWAP1 PUSH2 0x298F JUMP JUMPDEST PUSH1 0x40 MLOAD DUP1 SWAP2 SUB SWAP1 RETURN JUMPDEST PUSH2 0x26E PUSH2 0x198B JUMP JUMPDEST PUSH1 0x40 MLOAD PUSH2 0x27B SWAP2 SWAP1 PUSH2 0x281C JUMP JUMPDEST PUSH1 0x40 MLOAD DUP1 SWAP2 SUB SWAP1 RETURN JUMPDEST PUSH2 0x29E PUSH1 0x4 DUP1 CALLDATASIZE SUB DUP2 ADD SWAP1 PUSH2 0x299 SWAP2 SWAP1 PUSH2 0x2464 JUMP JUMPDEST PUSH2 0x19AF JUMP JUMPDEST STOP JUMPDEST PUSH2 0x2BA PUSH1 0x4 DUP1 CALLDATASIZE SUB DUP2 ADD SWAP1 PUSH2 0x2B5 SWAP2 SWAP1 PUSH2 0x23CA JUMP JUMPDEST PUSH2 0x1AE0 JUMP JUMPDEST PUSH1 0x40 MLOAD PUSH2 0x2CC SWAP7 SWAP6 SWAP5 SWAP4 SWAP3 SWAP2 SWAP1 PUSH2 0x2A26 JUMP JUMPDEST PUSH1 0x40 MLOAD DUP1 SWAP2 SUB SWAP1 RETURN JUMPDEST PUSH2 0x2DD PUSH2 0x1B39 JUMP JUMPDEST PUSH1 0x40 MLOAD PUSH2 0x2EA SWAP2 SWAP1 PUSH2 0x2837 JUMP JUMPDEST PUSH1 0x40 MLOAD DUP1 SWAP2 SUB SWAP1 RETURN JUMPDEST PUSH2 0x2FB PUSH2 0x1B5D JUMP JUMPDEST PUSH1 0x40 MLOAD PUSH2 0x308 SWAP2 SWAP1 PUSH2 0x298F JUMP JUMPDEST PUSH1 0x40 MLOAD DUP1 SWAP2 SUB SWAP1 RETURN JUMPDEST PUSH2 0x319 PUSH2 0x1B63 JUMP JUMPDEST PUSH1 0x40 MLOAD PUSH2 0x326 SWAP2 SWAP1 PUSH2 0x298F JUMP JUMPDEST PUSH1 0x40 MLOAD DUP1 SWAP2 SUB SWAP1 RETURN JUMPDEST PUSH1 0x5 PUSH1 0x20 MSTORE DUP1 PUSH1 0x0 MSTORE PUSH1 0x40 PUSH1 0x0 KECCAK256 PUSH1 0x0 SWAP2 POP SWAP1 POP DUP1 PUSH1 0x0 ADD SLOAD SWAP1 DUP1 PUSH1 0x1 ADD SLOAD SWAP1 DUP1 PUSH1 0x2 ADD SLOAD SWAP1 DUP1 PUSH1 0x3 ADD SLOAD SWAP1 DUP1 PUSH1 0x4 ADD SLOAD SWAP1 POP DUP6 JUMP JUMPDEST PUSH1 0x2 PUSH1 0x0 SLOAD EQ ISZERO PUSH2 0x3AB JUMPI PUSH1 0x40 MLOAD PUSH32 0x8C379A000000000000000000000000000000000000000000000000000000000 DUP2 MSTORE PUSH1 0x4 ADD PUSH2 0x3A2 SWAP1 PUSH2 0x2934 JUMP JUMPDEST PUSH1 0x40 MLOAD DUP1 SWAP2 SUB SWAP1 REVERT JUMPDEST PUSH1 0x2 PUSH1 0x0 DUP2 SWAP1 SSTORE POP PUSH1 0x0 PUSH2 0x3BF CALLER DUP4 PUSH2 0x1B69 JUMP JUMPDEST SWAP1 POP PUSH1 0x0 DUP2 PUSH1 0x40 ADD MLOAD EQ PUSH2 0x408 JUMPI PUSH1 0x40 MLOAD PUSH32 0x8C379A000000000000000000000000000000000000000000000000000000000 DUP2 MSTORE PUSH1 0x4 ADD PUSH2 0x3FF SWAP1 PUSH2 0x2874 JUMP JUMPDEST PUSH1 0x40 MLOAD DUP1 SWAP2 SUB SWAP1 REVERT JUMPDEST PUSH1 0x0 PUSH1 0x6 PUSH1 0x0 CALLER PUSH20 0xFFFFFFFFFFFFFFFFFFFFFFFFFFFFFFFFFFFFFFFF AND PUSH20 0xFFFFFFFFFFFFFFFFFFFFFFFFFFFFFFFFFFFFFFFF AND DUP2 MSTORE PUSH1 0x20 ADD SWAP1 DUP2 MSTORE PUSH1 0x20 ADD PUSH1 0x0 KECCAK256 DUP4 DUP2 SLOAD DUP2 LT PUSH2 0x45B JUMPI PUSH2 0x45A PUSH2 0x2DB1 JUMP JUMPDEST JUMPDEST SWAP1 PUSH1 0x0 MSTORE PUSH1 0x20 PUSH1 0x0 KECCAK256 SWAP1 PUSH1 0x6 MUL ADD PUSH1 0x2 ADD SLOAD GT PUSH2 0x4AD JUMPI PUSH1 0x40 MLOAD PUSH32 0x8C379A000000000000000000000000000000000000000000000000000000000 DUP2 MSTORE PUSH1 0x4 ADD PUSH2 0x4A4 SWAP1 PUSH2 0x28D4 JUMP JUMPDEST PUSH1 0x40 MLOAD DUP1 SWAP2 SUB SWAP1 REVERT JUMPDEST PUSH1 0x0 PUSH1 0x6 PUSH1 0x0 CALLER PUSH20 0xFFFFFFFFFFFFFFFFFFFFFFFFFFFFFFFFFFFFFFFF AND PUSH20 0xFFFFFFFFFFFFFFFFFFFFFFFFFFFFFFFFFFFFFFFF AND DUP2 MSTORE PUSH1 0x20 ADD SWAP1 DUP2 MSTORE PUSH1 0x20 ADD PUSH1 0x0 KECCAK256 DUP4 DUP2 SLOAD DUP2 LT PUSH2 0x500 JUMPI PUSH2 0x4FF PUSH2 0x2DB1 JUMP JUMPDEST JUMPDEST SWAP1 PUSH1 0x0 MSTORE PUSH1 0x20 PUSH1 0x0 KECCAK256 SWAP1 PUSH1 0x6 MUL ADD PUSH1 0x2 ADD SLOAD SWAP1 POP PUSH1 0x6 PUSH1 0x0 CALLER PUSH20 0xFFFFFFFFFFFFFFFFFFFFFFFFFFFFFFFFFFFFFFFF AND PUSH20 0xFFFFFFFFFFFFFFFFFFFFFFFFFFFFFFFFFFFFFFFF AND DUP2 MSTORE PUSH1 0x20 ADD SWAP1 DUP2 MSTORE PUSH1 0x20 ADD PUSH1 0x0 KECCAK256 DUP4 DUP2 SLOAD DUP2 LT PUSH2 0x565 JUMPI PUSH2 0x564 PUSH2 0x2DB1 JUMP JUMPDEST JUMPDEST SWAP1 PUSH1 0x0 MSTORE PUSH1 0x20 PUSH1 0x0 KECCAK256 SWAP1 PUSH1 0x6 MUL ADD PUSH1 0x2 ADD SLOAD PUSH1 0x4 SLOAD PUSH2 0x584 SWAP2 SWAP1 PUSH2 0x2BE4 JUMP JUMPDEST PUSH1 0x4 DUP2 SWAP1 SSTORE POP PUSH1 0x6 PUSH1 0x0 CALLER PUSH20 0xFFFFFFFFFFFFFFFFFFFFFFFFFFFFFFFFFFFFFFFF AND PUSH20 0xFFFFFFFFFFFFFFFFFFFFFFFFFFFFFFFFFFFFFFFF AND DUP2 MSTORE PUSH1 0x20 ADD SWAP1 DUP2 MSTORE PUSH1 0x20 ADD PUSH1 0x0 KECCAK256 DUP4 DUP2 SLOAD DUP2 LT PUSH2 0x5DB JUMPI PUSH2 0x5DA PUSH2 0x2DB1 JUMP JUMPDEST JUMPDEST SWAP1 PUSH1 0x0 MSTORE PUSH1 0x20 PUSH1 0x0 KECCAK256 SWAP1 PUSH1 0x6 MUL ADD PUSH1 0x2 ADD SLOAD PUSH1 0x5 PUSH1 0x0 CALLER PUSH20 0xFFFFFFFFFFFFFFFFFFFFFFFFFFFFFFFFFFFFFFFF AND PUSH20 0xFFFFFFFFFFFFFFFFFFFFFFFFFFFFFFFFFFFFFFFF AND DUP2 MSTORE PUSH1 0x20 ADD SWAP1 DUP2 MSTORE PUSH1 0x20 ADD PUSH1 0x0 KECCAK256 PUSH1 0x0 ADD PUSH1 0x0 DUP3 DUP3 SLOAD PUSH2 0x63E SWAP2 SWAP1 PUSH2 0x2BE4 JUMP JUMPDEST SWAP3 POP POP DUP2 SWAP1 SSTORE POP PUSH1 0x6 PUSH1 0x0 CALLER PUSH20 0xFFFFFFFFFFFFFFFFFFFFFFFFFFFFFFFFFFFFFFFF AND PUSH20 0xFFFFFFFFFFFFFFFFFFFFFFFFFFFFFFFFFFFFFFFF AND DUP2 MSTORE PUSH1 0x20 ADD SWAP1 DUP2 MSTORE PUSH1 0x20 ADD PUSH1 0x0 KECCAK256 DUP4 DUP2 SLOAD DUP2 LT PUSH2 0x696 JUMPI PUSH2 0x695 PUSH2 0x2DB1 JUMP JUMPDEST JUMPDEST SWAP1 PUSH1 0x0 MSTORE PUSH1 0x20 PUSH1 0x0 KECCAK256 SWAP1 PUSH1 0x6 MUL ADD PUSH1 0x2 ADD SLOAD PUSH1 0x5 PUSH1 0x0 CALLER PUSH20 0xFFFFFFFFFFFFFFFFFFFFFFFFFFFFFFFFFFFFFFFF AND PUSH20 0xFFFFFFFFFFFFFFFFFFFFFFFFFFFFFFFFFFFFFFFF AND DUP2 MSTORE PUSH1 0x20 ADD SWAP1 DUP2 MSTORE PUSH1 0x20 ADD PUSH1 0x0 KECCAK256 PUSH1 0x1 ADD PUSH1 0x0 DUP3 DUP3 SLOAD PUSH2 0x6F9 SWAP2 SWAP1 PUSH2 0x2BE4 JUMP JUMPDEST SWAP3 POP POP DUP2 SWAP1 SSTORE POP PUSH1 0x6 PUSH1 0x0 CALLER PUSH20 0xFFFFFFFFFFFFFFFFFFFFFFFFFFFFFFFFFFFFFFFF AND PUSH20 0xFFFFFFFFFFFFFFFFFFFFFFFFFFFFFFFFFFFFFFFF AND DUP2 MSTORE PUSH1 0x20 ADD SWAP1 DUP2 MSTORE PUSH1 0x20 ADD PUSH1 0x0 KECCAK256 DUP4 DUP2 SLOAD DUP2 LT PUSH2 0x751 JUMPI PUSH2 0x750 PUSH2 0x2DB1 JUMP JUMPDEST JUMPDEST SWAP1 PUSH1 0x0 MSTORE PUSH1 0x20 PUSH1 0x0 KECCAK256 SWAP1 PUSH1 0x6 MUL ADD PUSH1 0x2 ADD SLOAD PUSH1 0x3 SLOAD PUSH2 0x770 SWAP2 SWAP1 PUSH2 0x2B03 JUMP JUMPDEST PUSH1 0x3 DUP2 SWAP1 SSTORE POP PUSH1 0x0 DUP4 SWAP1 POP JUMPDEST PUSH1 0x1 PUSH1 0x6 PUSH1 0x0 CALLER PUSH20 0xFFFFFFFFFFFFFFFFFFFFFFFFFFFFFFFFFFFFFFFF AND PUSH20 0xFFFFFFFFFFFFFFFFFFFFFFFFFFFFFFFFFFFFFFFF AND DUP2 MSTORE PUSH1 0x20 ADD SWAP1 DUP2 MSTORE PUSH1 0x20 ADD PUSH1 0x0 KECCAK256 DUP1 SLOAD SWAP1 POP PUSH2 0x7CB SWAP2 SWAP1 PUSH2 0x2BE4 JUMP JUMPDEST DUP2 LT ISZERO PUSH2 0x8EE JUMPI PUSH1 0x6 PUSH1 0x0 CALLER PUSH20 0xFFFFFFFFFFFFFFFFFFFFFFFFFFFFFFFFFFFFFFFF AND PUSH20 0xFFFFFFFFFFFFFFFFFFFFFFFFFFFFFFFFFFFFFFFF AND DUP2 MSTORE PUSH1 0x20 ADD SWAP1 DUP2 MSTORE PUSH1 0x20 ADD PUSH1 0x0 KECCAK256 PUSH1 0x1 DUP3 PUSH2 0x81E SWAP2 SWAP1 PUSH2 0x2B03 JUMP JUMPDEST DUP2 SLOAD DUP2 LT PUSH2 0x82F JUMPI PUSH2 0x82E PUSH2 0x2DB1 JUMP JUMPDEST JUMPDEST SWAP1 PUSH1 0x0 MSTORE PUSH1 0x20 PUSH1 0x0 KECCAK256 SWAP1 PUSH1 0x6 MUL ADD PUSH1 0x6 PUSH1 0x0 CALLER PUSH20 0xFFFFFFFFFFFFFFFFFFFFFFFFFFFFFFFFFFFFFFFF AND PUSH20 0xFFFFFFFFFFFFFFFFFFFFFFFFFFFFFFFFFFFFFFFF AND DUP2 MSTORE PUSH1 0x20 ADD SWAP1 DUP2 MSTORE PUSH1 0x20 ADD PUSH1 0x0 KECCAK256 DUP3 DUP2 SLOAD DUP2 LT PUSH2 0x88E JUMPI PUSH2 0x88D PUSH2 0x2DB1 JUMP JUMPDEST JUMPDEST SWAP1 PUSH1 0x0 MSTORE PUSH1 0x20 PUSH1 0x0 KECCAK256 SWAP1 PUSH1 0x6 MUL ADD PUSH1 0x0 DUP3 ADD SLOAD DUP2 PUSH1 0x0 ADD SSTORE PUSH1 0x1 DUP3 ADD SLOAD DUP2 PUSH1 0x1 ADD SSTORE PUSH1 0x2 DUP3 ADD SLOAD DUP2 PUSH1 0x2 ADD SSTORE PUSH1 0x3 DUP3 ADD SLOAD DUP2 PUSH1 0x3 ADD SSTORE PUSH1 0x4 DUP3 ADD SLOAD DUP2 PUSH1 0x4 ADD SSTORE PUSH1 0x5 DUP3 ADD SLOAD DUP2 PUSH1 0x5 ADD SSTORE SWAP1 POP POP DUP1 DUP1 PUSH2 0x8E6 SWAP1 PUSH2 0x2CDB JUMP JUMPDEST SWAP2 POP POP PUSH2 0x77C JUMP JUMPDEST POP PUSH1 0x6 PUSH1 0x0 CALLER PUSH20 0xFFFFFFFFFFFFFFFFFFFFFFFFFFFFFFFFFFFFFFFF AND PUSH20 0xFFFFFFFFFFFFFFFFFFFFFFFFFFFFFFFFFFFFFFFF AND DUP2 MSTORE PUSH1 0x20 ADD SWAP1 DUP2 MSTORE PUSH1 0x20 ADD PUSH1 0x0 KECCAK256 DUP1 SLOAD DUP1 PUSH2 0x93E JUMPI PUSH2 0x93D PUSH2 0x2D82 JUMP JUMPDEST JUMPDEST PUSH1 0x1 SWAP1 SUB DUP2 DUP2 SWAP1 PUSH1 0x0 MSTORE PUSH1 0x20 PUSH1 0x0 KECCAK256 SWAP1 PUSH1 0x6 MUL ADD PUSH1 0x0 DUP1 DUP3 ADD PUSH1 0x0 SWAP1 SSTORE PUSH1 0x1 DUP3 ADD PUSH1 0x0 SWAP1 SSTORE PUSH1 0x2 DUP3 ADD PUSH1 0x0 SWAP1 SSTORE PUSH1 0x3 DUP3 ADD PUSH1 0x0 SWAP1 SSTORE PUSH1 0x4 DUP3 ADD PUSH1 0x0 SWAP1 SSTORE PUSH1 0x5 DUP3 ADD PUSH1 0x0 SWAP1 SSTORE POP POP SWAP1 SSTORE PUSH2 0x9D2 CALLER DUP3 PUSH32 0x0 PUSH20 0xFFFFFFFFFFFFFFFFFFFFFFFFFFFFFFFFFFFFFFFF AND PUSH2 0x1EDD SWAP1 SWAP3 SWAP2 SWAP1 PUSH4 0xFFFFFFFF AND JUMP JUMPDEST CALLER PUSH20 0xFFFFFFFFFFFFFFFFFFFFFFFFFFFFFFFFFFFFFFFF AND PUSH32 0x85082129D87B2FE11527CB1B3B7A520AEB5AA6913F88A3D8757FE40D1DB02FDD DUP3 PUSH1 0x40 MLOAD PUSH2 0xA18 SWAP2 SWAP1 PUSH2 0x298F JUMP JUMPDEST PUSH1 0x40 MLOAD DUP1 SWAP2 SUB SWAP1 LOG2 POP POP PUSH1 0x1 PUSH1 0x0 DUP2 SWAP1 SSTORE POP POP JUMP JUMPDEST PUSH1 0x3 SLOAD DUP2 JUMP JUMPDEST PUSH1 0x2 SLOAD DUP2 JUMP JUMPDEST PUSH1 0x60 PUSH2 0xA43 PUSH2 0x233D JUMP JUMPDEST PUSH1 0x0 PUSH2 0xA4F DUP6 DUP6 PUSH2 0x1B69 JUMP JUMPDEST SWAP1 POP PUSH1 0x0 PUSH1 0x3 PUSH8 0xFFFFFFFFFFFFFFFF DUP2 GT ISZERO PUSH2 0xA6E JUMPI PUSH2 0xA6D PUSH2 0x2DE0 JUMP JUMPDEST JUMPDEST PUSH1 0x40 MLOAD SWAP1 DUP1 DUP3 MSTORE DUP1 PUSH1 0x20 MUL PUSH1 0x20 ADD DUP3 ADD PUSH1 0x40 MSTORE DUP1 ISZERO PUSH2 0xAA1 JUMPI DUP2 PUSH1 0x20 ADD JUMPDEST PUSH1 0x60 DUP2 MSTORE PUSH1 0x20 ADD SWAP1 PUSH1 0x1 SWAP1 SUB SWAP1 DUP2 PUSH2 0xA8C JUMPI SWAP1 POP JUMPDEST POP SWAP1 POP PUSH1 0x40 MLOAD DUP1 PUSH1 0x40 ADD PUSH1 0x40 MSTORE DUP1 PUSH1 0xD DUP2 MSTORE PUSH1 0x20 ADD PUSH32 0x6275796261636B416D6F756E7400000000000000000000000000000000000000 DUP2 MSTORE POP DUP2 PUSH1 0x0 DUP2 MLOAD DUP2 LT PUSH2 0xAEE JUMPI PUSH2 0xAED PUSH2 0x2DB1 JUMP JUMPDEST JUMPDEST PUSH1 0x20 MUL PUSH1 0x20 ADD ADD DUP2 SWAP1 MSTORE POP PUSH1 0x40 MLOAD DUP1 PUSH1 0x40 ADD PUSH1 0x40 MSTORE DUP1 PUSH1 0xE DUP2 MSTORE PUSH1 0x20 ADD PUSH32 0x696E746572657374416D6F756E74000000000000000000000000000000000000 DUP2 MSTORE POP DUP2 PUSH1 0x1 DUP2 MLOAD DUP2 LT PUSH2 0xB43 JUMPI PUSH2 0xB42 PUSH2 0x2DB1 JUMP JUMPDEST JUMPDEST PUSH1 0x20 MUL PUSH1 0x20 ADD ADD DUP2 SWAP1 MSTORE POP PUSH1 0x40 MLOAD DUP1 PUSH1 0x40 ADD PUSH1 0x40 MSTORE DUP1 PUSH1 0x10 DUP2 MSTORE PUSH1 0x20 ADD PUSH32 0x72656465656D61626C65416D6F756E7400000000000000000000000000000000 DUP2 MSTORE POP DUP2 PUSH1 0x2 DUP2 MLOAD DUP2 LT PUSH2 0xB98 JUMPI PUSH2 0xB97 PUSH2 0x2DB1 JUMP JUMPDEST JUMPDEST PUSH1 0x20 MUL PUSH1 0x20 ADD ADD DUP2 SWAP1 MSTORE POP DUP1 DUP3 SWAP4 POP SWAP4 POP POP POP SWAP3 POP SWAP3 SWAP1 POP JUMP JUMPDEST PUSH1 0x2 PUSH1 0x0 SLOAD EQ ISZERO PUSH2 0xBF8 JUMPI PUSH1 0x40 MLOAD PUSH32 0x8C379A000000000000000000000000000000000000000000000000000000000 DUP2 MSTORE PUSH1 0x4 ADD PUSH2 0xBEF SWAP1 PUSH2 0x2934 JUMP JUMPDEST PUSH1 0x40 MLOAD DUP1 SWAP2 SUB SWAP1 REVERT JUMPDEST PUSH1 0x2 PUSH1 0x0 DUP2 SWAP1 SSTORE POP PUSH1 0x0 PUSH2 0xC0B CALLER PUSH2 0x1F63 JUMP JUMPDEST SWAP1 POP PUSH1 0x0 DUP2 PUSH1 0x40 ADD MLOAD EQ ISZERO PUSH2 0xC55 JUMPI PUSH1 0x40 MLOAD PUSH32 0x8C379A000000000000000000000000000000000000000000000000000000000 DUP2 MSTORE PUSH1 0x4 ADD PUSH2 0xC4C SWAP1 PUSH2 0x2894 JUMP JUMPDEST PUSH1 0x40 MLOAD DUP1 SWAP2 SUB SWAP1 REVERT JUMPDEST PUSH1 0x0 DUP2 PUSH1 0x20 ADD MLOAD EQ PUSH2 0xD14 JUMPI PUSH32 0x0 PUSH20 0xFFFFFFFFFFFFFFFFFFFFFFFFFFFFFFFFFFFFFFFF AND PUSH4 0x74920D30 CALLER DUP4 PUSH1 0x20 ADD MLOAD PUSH1 0x40 MLOAD DUP4 PUSH4 0xFFFFFFFF AND PUSH1 0xE0 SHL DUP2 MSTORE PUSH1 0x4 ADD PUSH2 0xCC0 SWAP3 SWAP2 SWAP1 PUSH2 0x27C3 JUMP JUMPDEST PUSH1 0x20 PUSH1 0x40 MLOAD DUP1 DUP4 SUB DUP2 PUSH1 0x0 DUP8 DUP1 EXTCODESIZE ISZERO DUP1 ISZERO PUSH2 0xCDA JUMPI PUSH1 0x0 DUP1 REVERT JUMPDEST POP GAS CALL ISZERO DUP1 ISZERO PUSH2 0xCEE JUMPI RETURNDATASIZE PUSH1 0x0 DUP1 RETURNDATACOPY RETURNDATASIZE PUSH1 0x0 REVERT JUMPDEST POP POP POP POP PUSH1 0x40 MLOAD RETURNDATASIZE PUSH1 0x1F NOT PUSH1 0x1F DUP3 ADD AND DUP3 ADD DUP1 PUSH1 0x40 MSTORE POP DUP2 ADD SWAP1 PUSH2 0xD12 SWAP2 SWAP1 PUSH2 0x240A JUMP JUMPDEST POP JUMPDEST PUSH1 0x0 DUP2 PUSH1 0x0 ADD MLOAD EQ PUSH2 0xD70 JUMPI PUSH2 0xD6F CALLER DUP3 PUSH1 0x0 ADD MLOAD PUSH32 0x0 PUSH20 0xFFFFFFFFFFFFFFFFFFFFFFFFFFFFFFFFFFFFFFFF AND PUSH2 0x1EDD SWAP1 SWAP3 SWAP2 SWAP1 PUSH4 0xFFFFFFFF AND JUMP JUMPDEST JUMPDEST PUSH32 0x0 PUSH20 0xFFFFFFFFFFFFFFFFFFFFFFFFFFFFFFFFFFFFFFFF AND PUSH4 0x71C2FC9E CALLER DUP4 PUSH1 0x0 ADD MLOAD PUSH1 0x40 MLOAD DUP4 PUSH4 0xFFFFFFFF AND PUSH1 0xE0 SHL DUP2 MSTORE PUSH1 0x4 ADD PUSH2 0xDCF SWAP3 SWAP2 SWAP1 PUSH2 0x27C3 JUMP JUMPDEST PUSH1 0x20 PUSH1 0x40 MLOAD DUP1 DUP4 SUB DUP2 PUSH1 0x0 DUP8 DUP1 EXTCODESIZE ISZERO DUP1 ISZERO PUSH2 0xDE9 JUMPI PUSH1 0x0 DUP1 REVERT JUMPDEST POP GAS CALL ISZERO DUP1 ISZERO PUSH2 0xDFD JUMPI RETURNDATASIZE PUSH1 0x0 DUP1 RETURNDATACOPY RETURNDATASIZE PUSH1 0x0 REVERT JUMPDEST POP POP POP POP PUSH1 0x40 MLOAD RETURNDATASIZE PUSH1 0x1F NOT PUSH1 0x1F DUP3 ADD AND DUP3 ADD DUP1 PUSH1 0x40 MSTORE POP DUP2 ADD SWAP1 PUSH2 0xE21 SWAP2 SWAP1 PUSH2 0x240A JUMP JUMPDEST POP PUSH32 0x0 PUSH20 0xFFFFFFFFFFFFFFFFFFFFFFFFFFFFFFFFFFFFFFFF AND PUSH4 0x71C2FC9E CALLER DUP4 PUSH1 0x20 ADD MLOAD PUSH1 0x40 MLOAD DUP4 PUSH4 0xFFFFFFFF AND PUSH1 0xE0 SHL DUP2 MSTORE PUSH1 0x4 ADD PUSH2 0xE81 SWAP3 SWAP2 SWAP1 PUSH2 0x27C3 JUMP JUMPDEST PUSH1 0x20 PUSH1 0x40 MLOAD DUP1 DUP4 SUB DUP2 PUSH1 0x0 DUP8 DUP1 EXTCODESIZE ISZERO DUP1 ISZERO PUSH2 0xE9B JUMPI PUSH1 0x0 DUP1 REVERT JUMPDEST POP GAS CALL ISZERO DUP1 ISZERO PUSH2 0xEAF JUMPI RETURNDATASIZE PUSH1 0x0 DUP1 RETURNDATACOPY RETURNDATASIZE PUSH1 0x0 REVERT JUMPDEST POP POP POP POP PUSH1 0x40 MLOAD RETURNDATASIZE PUSH1 0x1F NOT PUSH1 0x1F DUP3 ADD AND DUP3 ADD DUP1 PUSH1 0x40 MSTORE POP DUP2 ADD SWAP1 PUSH2 0xED3 SWAP2 SWAP1 PUSH2 0x240A JUMP JUMPDEST POP PUSH1 0x0 JUMPDEST PUSH1 0x6 PUSH1 0x0 CALLER PUSH20 0xFFFFFFFFFFFFFFFFFFFFFFFFFFFFFFFFFFFFFFFF AND PUSH20 0xFFFFFFFFFFFFFFFFFFFFFFFFFFFFFFFFFFFFFFFF AND DUP2 MSTORE PUSH1 0x20 ADD SWAP1 DUP2 MSTORE PUSH1 0x20 ADD PUSH1 0x0 KECCAK256 DUP1 SLOAD SWAP1 POP DUP2 LT ISZERO PUSH2 0x15F2 JUMPI PUSH1 0x0 PUSH3 0x278D00 PUSH1 0x6 PUSH1 0x0 CALLER PUSH20 0xFFFFFFFFFFFFFFFFFFFFFFFFFFFFFFFFFFFFFFFF AND PUSH20 0xFFFFFFFFFFFFFFFFFFFFFFFFFFFFFFFFFFFFFFFF AND DUP2 MSTORE PUSH1 0x20 ADD SWAP1 DUP2 MSTORE PUSH1 0x20 ADD PUSH1 0x0 KECCAK256 DUP4 DUP2 SLOAD DUP2 LT PUSH2 0xF78 JUMPI PUSH2 0xF77 PUSH2 0x2DB1 JUMP JUMPDEST JUMPDEST SWAP1 PUSH1 0x0 MSTORE PUSH1 0x20 PUSH1 0x0 KECCAK256 SWAP1 PUSH1 0x6 MUL ADD PUSH1 0x0 ADD SLOAD TIMESTAMP PUSH2 0xF95 SWAP2 SWAP1 PUSH2 0x2BE4 JUMP JUMPDEST PUSH2 0xF9F SWAP2 SWAP1 PUSH2 0x2B59 JUMP JUMPDEST SWAP1 POP PUSH1 0x1 SLOAD PUSH1 0x64 PUSH2 0xFB0 SWAP2 SWAP1 PUSH2 0x2B59 JUMP JUMPDEST DUP2 GT ISZERO PUSH2 0xFC9 JUMPI PUSH1 0x1 SLOAD PUSH1 0x64 PUSH2 0xFC6 SWAP2 SWAP1 PUSH2 0x2B59 JUMP JUMPDEST SWAP1 POP JUMPDEST PUSH1 0x0 PUSH1 0x64 DUP3 PUSH1 0x6 PUSH1 0x0 CALLER PUSH20 0xFFFFFFFFFFFFFFFFFFFFFFFFFFFFFFFFFFFFFFFF AND PUSH20 0xFFFFFFFFFFFFFFFFFFFFFFFFFFFFFFFFFFFFFFFF AND DUP2 MSTORE PUSH1 0x20 ADD SWAP1 DUP2 MSTORE PUSH1 0x20 ADD PUSH1 0x0 KECCAK256 DUP6 DUP2 SLOAD DUP2 LT PUSH2 0x101F JUMPI PUSH2 0x101E PUSH2 0x2DB1 JUMP JUMPDEST JUMPDEST SWAP1 PUSH1 0x0 MSTORE PUSH1 0x20 PUSH1 0x0 KECCAK256 SWAP1 PUSH1 0x6 MUL ADD PUSH1 0x1 ADD SLOAD PUSH1 0x1 SLOAD PUSH2 0x103E SWAP2 SWAP1 PUSH2 0x2B8A JUMP JUMPDEST PUSH2 0x1048 SWAP2 SWAP1 PUSH2 0x2B8A JUMP JUMPDEST PUSH2 0x1052 SWAP2 SWAP1 PUSH2 0x2B59 JUMP JUMPDEST SWAP1 POP PUSH1 0x0 PUSH1 0x6 PUSH1 0x0 CALLER PUSH20 0xFFFFFFFFFFFFFFFFFFFFFFFFFFFFFFFFFFFFFFFF AND PUSH20 0xFFFFFFFFFFFFFFFFFFFFFFFFFFFFFFFFFFFFFFFF AND DUP2 MSTORE PUSH1 0x20 ADD SWAP1 DUP2 MSTORE PUSH1 0x20 ADD PUSH1 0x0 KECCAK256 DUP5 DUP2 SLOAD DUP2 LT PUSH2 0x10A7 JUMPI PUSH2 0x10A6 PUSH2 0x2DB1 JUMP JUMPDEST JUMPDEST SWAP1 PUSH1 0x0 MSTORE PUSH1 0x20 PUSH1 0x0 KECCAK256 SWAP1 PUSH1 0x6 MUL ADD PUSH1 0x1 ADD SLOAD SWAP1 POP PUSH1 0x0 DUP1 JUMPDEST DUP5 DUP2 LT ISZERO PUSH2 0x1196 JUMPI PUSH1 0xC PUSH1 0x64 DUP5 PUSH1 0x2 SLOAD PUSH2 0x10D9 SWAP2 SWAP1 PUSH2 0x2B8A JUMP JUMPDEST PUSH2 0x10E3 SWAP2 SWAP1 PUSH2 0x2B59 JUMP JUMPDEST PUSH2 0x10ED SWAP2 SWAP1 PUSH2 0x2B59 JUMP JUMPDEST DUP3 PUSH2 0x10F8 SWAP2 SWAP1 PUSH2 0x2B03 JUMP JUMPDEST SWAP2 POP PUSH1 0x64 PUSH1 0x6 PUSH1 0x0 CALLER PUSH20 0xFFFFFFFFFFFFFFFFFFFFFFFFFFFFFFFFFFFFFFFF AND PUSH20 0xFFFFFFFFFFFFFFFFFFFFFFFFFFFFFFFFFFFFFFFF AND DUP2 MSTORE PUSH1 0x20 ADD SWAP1 DUP2 MSTORE PUSH1 0x20 ADD PUSH1 0x0 KECCAK256 DUP8 DUP2 SLOAD DUP2 LT PUSH2 0x114D JUMPI PUSH2 0x114C PUSH2 0x2DB1 JUMP JUMPDEST JUMPDEST SWAP1 PUSH1 0x0 MSTORE PUSH1 0x20 PUSH1 0x0 KECCAK256 SWAP1 PUSH1 0x6 MUL ADD PUSH1 0x1 ADD SLOAD PUSH1 0x1 SLOAD PUSH2 0x116C SWAP2 SWAP1 PUSH2 0x2B8A JUMP JUMPDEST PUSH2 0x1176 SWAP2 SWAP1 PUSH2 0x2B59 JUMP JUMPDEST DUP4 PUSH2 0x1181 SWAP2 SWAP1 PUSH2 0x2BE4 JUMP JUMPDEST SWAP3 POP DUP1 DUP1 PUSH2 0x118E SWAP1 PUSH2 0x2CDB JUMP JUMPDEST SWAP2 POP POP PUSH2 0x10BF JUMP JUMPDEST POP PUSH1 0x0 PUSH1 0x6 PUSH1 0x0 CALLER PUSH20 0xFFFFFFFFFFFFFFFFFFFFFFFFFFFFFFFFFFFFFFFF AND PUSH20 0xFFFFFFFFFFFFFFFFFFFFFFFFFFFFFFFFFFFFFFFF AND DUP2 MSTORE PUSH1 0x20 ADD SWAP1 DUP2 MSTORE PUSH1 0x20 ADD PUSH1 0x0 KECCAK256 DUP7 DUP2 SLOAD DUP2 LT PUSH2 0x11EA JUMPI PUSH2 0x11E9 PUSH2 0x2DB1 JUMP JUMPDEST JUMPDEST SWAP1 PUSH1 0x0 MSTORE PUSH1 0x20 PUSH1 0x0 KECCAK256 SWAP1 PUSH1 0x6 MUL ADD PUSH1 0x5 ADD SLOAD DUP5 PUSH2 0x1207 SWAP2 SWAP1 PUSH2 0x2BE4 JUMP JUMPDEST SWAP1 POP PUSH1 0x0 PUSH1 0x6 PUSH1 0x0 CALLER PUSH20 0xFFFFFFFFFFFFFFFFFFFFFFFFFFFFFFFFFFFFFFFF AND PUSH20 0xFFFFFFFFFFFFFFFFFFFFFFFFFFFFFFFFFFFFFFFF AND DUP2 MSTORE PUSH1 0x20 ADD SWAP1 DUP2 MSTORE PUSH1 0x20 ADD PUSH1 0x0 KECCAK256 DUP8 DUP2 SLOAD DUP2 LT PUSH2 0x125C JUMPI PUSH2 0x125B PUSH2 0x2DB1 JUMP JUMPDEST JUMPDEST SWAP1 PUSH1 0x0 MSTORE PUSH1 0x20 PUSH1 0x0 KECCAK256 SWAP1 PUSH1 0x6 MUL ADD PUSH1 0x4 ADD SLOAD DUP4 PUSH2 0x1279 SWAP2 SWAP1 PUSH2 0x2BE4 JUMP JUMPDEST SWAP1 POP DUP2 PUSH1 0x6 PUSH1 0x0 CALLER PUSH20 0xFFFFFFFFFFFFFFFFFFFFFFFFFFFFFFFFFFFFFFFF AND PUSH20 0xFFFFFFFFFFFFFFFFFFFFFFFFFFFFFFFFFFFFFFFF AND DUP2 MSTORE PUSH1 0x20 ADD SWAP1 DUP2 MSTORE PUSH1 0x20 ADD PUSH1 0x0 KECCAK256 DUP9 DUP2 SLOAD DUP2 LT PUSH2 0x12CD JUMPI PUSH2 0x12CC PUSH2 0x2DB1 JUMP JUMPDEST JUMPDEST SWAP1 PUSH1 0x0 MSTORE PUSH1 0x20 PUSH1 0x0 KECCAK256 SWAP1 PUSH1 0x6 MUL ADD PUSH1 0x2 ADD PUSH1 0x0 DUP3 DUP3 SLOAD PUSH2 0x12ED SWAP2 SWAP1 PUSH2 0x2BE4 JUMP JUMPDEST SWAP3 POP POP DUP2 SWAP1 SSTORE POP DUP2 PUSH1 0x5 PUSH1 0x0 CALLER PUSH20 0xFFFFFFFFFFFFFFFFFFFFFFFFFFFFFFFFFFFFFFFF AND PUSH20 0xFFFFFFFFFFFFFFFFFFFFFFFFFFFFFFFFFFFFFFFF AND DUP2 MSTORE PUSH1 0x20 ADD SWAP1 DUP2 MSTORE PUSH1 0x20 ADD PUSH1 0x0 KECCAK256 PUSH1 0x1 ADD PUSH1 0x0 DUP3 DUP3 SLOAD PUSH2 0x1346 SWAP2 SWAP1 PUSH2 0x2BE4 JUMP JUMPDEST SWAP3 POP POP DUP2 SWAP1 SSTORE POP DUP1 PUSH1 0x6 PUSH1 0x0 CALLER PUSH20 0xFFFFFFFFFFFFFFFFFFFFFFFFFFFFFFFFFFFFFFFF AND PUSH20 0xFFFFFFFFFFFFFFFFFFFFFFFFFFFFFFFFFFFFFFFF AND DUP2 MSTORE PUSH1 0x20 ADD SWAP1 DUP2 MSTORE PUSH1 0x20 ADD PUSH1 0x0 KECCAK256 DUP9 DUP2 SLOAD DUP2 LT PUSH2 0x139F JUMPI PUSH2 0x139E PUSH2 0x2DB1 JUMP JUMPDEST JUMPDEST SWAP1 PUSH1 0x0 MSTORE PUSH1 0x20 PUSH1 0x0 KECCAK256 SWAP1 PUSH1 0x6 MUL ADD PUSH1 0x4 ADD PUSH1 0x0 DUP3 DUP3 SLOAD PUSH2 0x13BF SWAP2 SWAP1 PUSH2 0x2B03 JUMP JUMPDEST SWAP3 POP POP DUP2 SWAP1 SSTORE POP DUP1 PUSH1 0x5 PUSH1 0x0 CALLER PUSH20 0xFFFFFFFFFFFFFFFFFFFFFFFFFFFFFFFFFFFFFFFF AND PUSH20 0xFFFFFFFFFFFFFFFFFFFFFFFFFFFFFFFFFFFFFFFF AND DUP2 MSTORE PUSH1 0x20 ADD SWAP1 DUP2 MSTORE PUSH1 0x20 ADD PUSH1 0x0 KECCAK256 PUSH1 0x4 ADD PUSH1 0x0 DUP3 DUP3 SLOAD PUSH2 0x1418 SWAP2 SWAP1 PUSH2 0x2B03 JUMP JUMPDEST SWAP3 POP POP DUP2 SWAP1 SSTORE POP DUP2 PUSH1 0x6 PUSH1 0x0 CALLER PUSH20 0xFFFFFFFFFFFFFFFFFFFFFFFFFFFFFFFFFFFFFFFF AND PUSH20 0xFFFFFFFFFFFFFFFFFFFFFFFFFFFFFFFFFFFFFFFF AND DUP2 MSTORE PUSH1 0x20 ADD SWAP1 DUP2 MSTORE PUSH1 0x20 ADD PUSH1 0x0 KECCAK256 DUP9 DUP2 SLOAD DUP2 LT PUSH2 0x1471 JUMPI PUSH2 0x1470 PUSH2 0x2DB1 JUMP JUMPDEST JUMPDEST SWAP1 PUSH1 0x0 MSTORE PUSH1 0x20 PUSH1 0x0 KECCAK256 SWAP1 PUSH1 0x6 MUL ADD PUSH1 0x5 ADD PUSH1 0x0 DUP3 DUP3 SLOAD PUSH2 0x1491 SWAP2 SWAP1 PUSH2 0x2B03 JUMP JUMPDEST SWAP3 POP POP DUP2 SWAP1 SSTORE POP DUP2 PUSH1 0x5 PUSH1 0x0 CALLER PUSH20 0xFFFFFFFFFFFFFFFFFFFFFFFFFFFFFFFFFFFFFFFF AND PUSH20 0xFFFFFFFFFFFFFFFFFFFFFFFFFFFFFFFFFFFFFFFF AND DUP2 MSTORE PUSH1 0x20 ADD SWAP1 DUP2 MSTORE PUSH1 0x20 ADD PUSH1 0x0 KECCAK256 PUSH1 0x3 ADD PUSH1 0x0 DUP3 DUP3 SLOAD PUSH2 0x14EA SWAP2 SWAP1 PUSH2 0x2B03 JUMP JUMPDEST SWAP3 POP POP DUP2 SWAP1 SSTORE POP DUP1 DUP3 PUSH2 0x14FD SWAP2 SWAP1 PUSH2 0x2B03 JUMP JUMPDEST PUSH1 0x6 PUSH1 0x0 CALLER PUSH20 0xFFFFFFFFFFFFFFFFFFFFFFFFFFFFFFFFFFFFFFFF AND PUSH20 0xFFFFFFFFFFFFFFFFFFFFFFFFFFFFFFFFFFFFFFFF AND DUP2 MSTORE PUSH1 0x20 ADD SWAP1 DUP2 MSTORE PUSH1 0x20 ADD PUSH1 0x0 KECCAK256 DUP9 DUP2 SLOAD DUP2 LT PUSH2 0x154E JUMPI PUSH2 0x154D PUSH2 0x2DB1 JUMP JUMPDEST JUMPDEST SWAP1 PUSH1 0x0 MSTORE PUSH1 0x20 PUSH1 0x0 KECCAK256 SWAP1 PUSH1 0x6 MUL ADD PUSH1 0x3 ADD PUSH1 0x0 DUP3 DUP3 SLOAD PUSH2 0x156E SWAP2 SWAP1 PUSH2 0x2B03 JUMP JUMPDEST SWAP3 POP POP DUP2 SWAP1 SSTORE POP DUP1 DUP3 PUSH2 0x1581 SWAP2 SWAP1 PUSH2 0x2B03 JUMP JUMPDEST PUSH1 0x5 PUSH1 0x0 CALLER PUSH20 0xFFFFFFFFFFFFFFFFFFFFFFFFFFFFFFFFFFFFFFFF AND PUSH20 0xFFFFFFFFFFFFFFFFFFFFFFFFFFFFFFFFFFFFFFFF AND DUP2 MSTORE PUSH1 0x20 ADD SWAP1 DUP2 MSTORE PUSH1 0x20 ADD PUSH1 0x0 KECCAK256 PUSH1 0x2 ADD PUSH1 0x0 DUP3 DUP3 SLOAD PUSH2 0x15D2 SWAP2 SWAP1 PUSH2 0x2B03 JUMP JUMPDEST SWAP3 POP POP DUP2 SWAP1 SSTORE POP POP POP POP POP POP POP DUP1 DUP1 PUSH2 0x15EA SWAP1 PUSH2 0x2CDB JUMP JUMPDEST SWAP2 POP POP PUSH2 0xED7 JUMP JUMPDEST POP CALLER PUSH20 0xFFFFFFFFFFFFFFFFFFFFFFFFFFFFFFFFFFFFFFFF AND PUSH32 0xD2C2928212B87E3B9CB2CF37231739682C8BEC99936D3798E7386CA23EA133A3 PUSH1 0x40 MLOAD PUSH1 0x40 MLOAD DUP1 SWAP2 SUB SWAP1 LOG2 POP PUSH1 0x1 PUSH1 0x0 DUP2 SWAP1 SSTORE POP JUMP JUMPDEST PUSH2 0x1649 PUSH2 0x233D JUMP JUMPDEST PUSH1 0x0 PUSH2 0x1654 DUP4 PUSH2 0x1F63 JUMP JUMPDEST SWAP1 POP DUP1 SWAP2 POP POP SWAP2 SWAP1 POP JUMP JUMPDEST PUSH1 0x2 PUSH1 0x0 SLOAD EQ ISZERO PUSH2 0x16A5 JUMPI PUSH1 0x40 MLOAD PUSH32 0x8C379A000000000000000000000000000000000000000000000000000000000 DUP2 MSTORE PUSH1 0x4 ADD PUSH2 0x169C SWAP1 PUSH2 0x2934 JUMP JUMPDEST PUSH1 0x40 MLOAD DUP1 SWAP2 SUB SWAP1 REVERT JUMPDEST PUSH1 0x2 PUSH1 0x0 DUP2 SWAP1 SSTORE POP PUSH1 0x0 DUP2 GT PUSH2 0x16F0 JUMPI PUSH1 0x40 MLOAD PUSH32 0x8C379A000000000000000000000000000000000000000000000000000000000 DUP2 MSTORE PUSH1 0x4 ADD PUSH2 0x16E7 SWAP1 PUSH2 0x2954 JUMP JUMPDEST PUSH1 0x40 MLOAD DUP1 SWAP2 SUB SWAP1 REVERT JUMPDEST PUSH2 0x173D CALLER ADDRESS DUP4 PUSH32 0x0 PUSH20 0xFFFFFFFFFFFFFFFFFFFFFFFFFFFFFFFFFFFFFFFF AND PUSH2 0x2037 SWAP1 SWAP4 SWAP3 SWAP2 SWAP1 PUSH4 0xFFFFFFFF AND JUMP JUMPDEST DUP1 PUSH1 0x5 PUSH1 0x0 CALLER PUSH20 0xFFFFFFFFFFFFFFFFFFFFFFFFFFFFFFFFFFFFFFFF AND PUSH20 0xFFFFFFFFFFFFFFFFFFFFFFFFFFFFFFFFFFFFFFFF AND DUP2 MSTORE PUSH1 0x20 ADD SWAP1 DUP2 MSTORE PUSH1 0x20 ADD PUSH1 0x0 KECCAK256 PUSH1 0x0 ADD PUSH1 0x0 DUP3 DUP3 SLOAD PUSH2 0x178F SWAP2 SWAP1 PUSH2 0x2B03 JUMP JUMPDEST SWAP3 POP POP DUP2 SWAP1 SSTORE POP DUP1 PUSH1 0x5 PUSH1 0x0 CALLER PUSH20 0xFFFFFFFFFFFFFFFFFFFFFFFFFFFFFFFFFFFFFFFF AND PUSH20 0xFFFFFFFFFFFFFFFFFFFFFFFFFFFFFFFFFFFFFFFF AND DUP2 MSTORE PUSH1 0x20 ADD SWAP1 DUP2 MSTORE PUSH1 0x20 ADD PUSH1 0x0 KECCAK256 PUSH1 0x1 ADD PUSH1 0x0 DUP3 DUP3 SLOAD PUSH2 0x17E8 SWAP2 SWAP1 PUSH2 0x2B03 JUMP JUMPDEST SWAP3 POP POP DUP2 SWAP1 SSTORE POP PUSH1 0x6 PUSH1 0x0 CALLER PUSH20 0xFFFFFFFFFFFFFFFFFFFFFFFFFFFFFFFFFFFFFFFF AND PUSH20 0xFFFFFFFFFFFFFFFFFFFFFFFFFFFFFFFFFFFFFFFF AND DUP2 MSTORE PUSH1 0x20 ADD SWAP1 DUP2 MSTORE PUSH1 0x20 ADD PUSH1 0x0 KECCAK256 PUSH1 0x40 MLOAD DUP1 PUSH1 0xC0 ADD PUSH1 0x40 MSTORE DUP1 TIMESTAMP DUP2 MSTORE PUSH1 0x20 ADD DUP4 DUP2 MSTORE PUSH1 0x20 ADD DUP4 DUP2 MSTORE PUSH1 0x20 ADD PUSH1 0x0 DUP2 MSTORE PUSH1 0x20 ADD PUSH1 0x0 DUP2 MSTORE PUSH1 0x20 ADD PUSH1 0x0 DUP2 MSTORE POP SWAP1 DUP1 PUSH1 0x1 DUP2 SLOAD ADD DUP1 DUP3 SSTORE DUP1 SWAP2 POP POP PUSH1 0x1 SWAP1 SUB SWAP1 PUSH1 0x0 MSTORE PUSH1 0x20 PUSH1 0x0 KECCAK256 SWAP1 PUSH1 0x6 MUL ADD PUSH1 0x0 SWAP1 SWAP2 SWAP1 SWAP2 SWAP1 SWAP2 POP PUSH1 0x0 DUP3 ADD MLOAD DUP2 PUSH1 0x0 ADD SSTORE PUSH1 0x20 DUP3 ADD MLOAD DUP2 PUSH1 0x1 ADD SSTORE PUSH1 0x40 DUP3 ADD MLOAD DUP2 PUSH1 0x2 ADD SSTORE PUSH1 0x60 DUP3 ADD MLOAD DUP2 PUSH1 0x3 ADD SSTORE PUSH1 0x80 DUP3 ADD MLOAD DUP2 PUSH1 0x4 ADD SSTORE PUSH1 0xA0 DUP3 ADD MLOAD DUP2 PUSH1 0x5 ADD SSTORE POP POP DUP1 PUSH1 0x4 PUSH1 0x0 DUP3 DUP3 SLOAD PUSH2 0x18D7 SWAP2 SWAP1 PUSH2 0x2B03 JUMP JUMPDEST SWAP3 POP POP DUP2 SWAP1 SSTORE POP CALLER PUSH20 0xFFFFFFFFFFFFFFFFFFFFFFFFFFFFFFFFFFFFFFFF AND PUSH32 0xE1FFFCC4923D04B559F4D29A8BFC6CDA04EB5B0D3C460751C2402C5C5CC9109C DUP3 PUSH1 0x40 MLOAD PUSH2 0x1924 SWAP2 SWAP1 PUSH2 0x298F JUMP JUMPDEST PUSH1 0x40 MLOAD DUP1 SWAP2 SUB SWAP1 LOG2 PUSH1 0x1 PUSH1 0x0 DUP2 SWAP1 SSTORE POP POP JUMP JUMPDEST PUSH4 0x5F5E100 DUP2 JUMP JUMPDEST PUSH1 0x0 PUSH1 0x6 PUSH1 0x0 DUP4 PUSH20 0xFFFFFFFFFFFFFFFFFFFFFFFFFFFFFFFFFFFFFFFF AND PUSH20 0xFFFFFFFFFFFFFFFFFFFFFFFFFFFFFFFFFFFFFFFF AND DUP2 MSTORE PUSH1 0x20 ADD SWAP1 DUP2 MSTORE PUSH1 0x20 ADD PUSH1 0x0 KECCAK256 DUP1 SLOAD SWAP1 POP SWAP1 POP SWAP2 SWAP1 POP JUMP JUMPDEST PUSH32 0x0 DUP2 JUMP JUMPDEST PUSH1 0x2 PUSH1 0x0 SLOAD EQ ISZERO PUSH2 0x19F5 JUMPI PUSH1 0x40 MLOAD PUSH32 0x8C379A000000000000000000000000000000000000000000000000000000000 DUP2 MSTORE PUSH1 0x4 ADD PUSH2 0x19EC SWAP1 PUSH2 0x2934 JUMP JUMPDEST PUSH1 0x40 MLOAD DUP1 SWAP2 SUB SWAP1 REVERT JUMPDEST PUSH1 0x2 PUSH1 0x0 DUP2 SWAP1 SSTORE POP DUP2 PUSH3 0x15180 PUSH2 0x1A0C SWAP2 SWAP1 PUSH2 0x2B8A JUMP JUMPDEST PUSH1 0x6 PUSH1 0x0 CALLER PUSH20 0xFFFFFFFFFFFFFFFFFFFFFFFFFFFFFFFFFFFFFFFF AND PUSH20 0xFFFFFFFFFFFFFFFFFFFFFFFFFFFFFFFFFFFFFFFF AND DUP2 MSTORE PUSH1 0x20 ADD SWAP1 DUP2 MSTORE PUSH1 0x20 ADD PUSH1 0x0 KECCAK256 DUP3 DUP2 SLOAD DUP2 LT PUSH2 0x1A5D JUMPI PUSH2 0x1A5C PUSH2 0x2DB1 JUMP JUMPDEST JUMPDEST SWAP1 PUSH1 0x0 MSTORE PUSH1 0x20 PUSH1 0x0 KECCAK256 SWAP1 PUSH1 0x6 MUL ADD PUSH1 0x0 ADD PUSH1 0x0 DUP3 DUP3 SLOAD PUSH2 0x1A7D SWAP2 SWAP1 PUSH2 0x2BE4 JUMP JUMPDEST SWAP3 POP POP DUP2 SWAP1 SSTORE POP CALLER PUSH20 0xFFFFFFFFFFFFFFFFFFFFFFFFFFFFFFFFFFFFFFFF AND PUSH32 0x6DC049A7E6A75CA211ECF0C13ACC2E9556629B677527CFBE710F1FDB5C330AF5 DUP4 DUP4 PUSH1 0x40 MLOAD PUSH2 0x1ACC SWAP3 SWAP2 SWAP1 PUSH2 0x29AA JUMP JUMPDEST PUSH1 0x40 MLOAD DUP1 SWAP2 SUB SWAP1 LOG2 PUSH1 0x1 PUSH1 0x0 DUP2 SWAP1 SSTORE POP POP POP JUMP JUMPDEST PUSH1 0x6 PUSH1 0x20 MSTORE DUP2 PUSH1 0x0 MSTORE PUSH1 0x40 PUSH1 0x0 KECCAK256 DUP2 DUP2 SLOAD DUP2 LT PUSH2 0x1AFC JUMPI PUSH1 0x0 DUP1 REVERT JUMPDEST SWAP1 PUSH1 0x0 MSTORE PUSH1 0x20 PUSH1 0x0 KECCAK256 SWAP1 PUSH1 0x6 MUL ADD PUSH1 0x0 SWAP2 POP SWAP2 POP POP DUP1 PUSH1 0x0 ADD SLOAD SWAP1 DUP1 PUSH1 0x1 ADD SLOAD SWAP1 DUP1 PUSH1 0x2 ADD SLOAD SWAP1 DUP1 PUSH1 0x3 ADD SLOAD SWAP1 DUP1 PUSH1 0x4 ADD SLOAD SWAP1 DUP1 PUSH1 0x5 ADD SLOAD SWAP1 POP DUP7 JUMP JUMPDEST PUSH32 0x0 DUP2 JUMP JUMPDEST PUSH1 0x1 SLOAD DUP2 JUMP JUMPDEST PUSH1 0x4 SLOAD DUP2 JUMP JUMPDEST PUSH2 0x1B71 PUSH2 0x233D JUMP JUMPDEST PUSH1 0x0 PUSH3 0x278D00 PUSH1 0x6 PUSH1 0x0 DUP7 PUSH20 0xFFFFFFFFFFFFFFFFFFFFFFFFFFFFFFFFFFFFFFFF AND PUSH20 0xFFFFFFFFFFFFFFFFFFFFFFFFFFFFFFFFFFFFFFFF AND DUP2 MSTORE PUSH1 0x20 ADD SWAP1 DUP2 MSTORE PUSH1 0x20 ADD PUSH1 0x0 KECCAK256 DUP5 DUP2 SLOAD DUP2 LT PUSH2 0x1BC8 JUMPI PUSH2 0x1BC7 PUSH2 0x2DB1 JUMP JUMPDEST JUMPDEST SWAP1 PUSH1 0x0 MSTORE PUSH1 0x20 PUSH1 0x0 KECCAK256 SWAP1 PUSH1 0x6 MUL ADD PUSH1 0x0 ADD SLOAD TIMESTAMP PUSH2 0x1BE5 SWAP2 SWAP1 PUSH2 0x2BE4 JUMP JUMPDEST PUSH2 0x1BEF SWAP2 SWAP1 PUSH2 0x2B59 JUMP JUMPDEST SWAP1 POP PUSH1 0x0 PUSH1 0x64 DUP3 PUSH1 0x6 PUSH1 0x0 DUP9 PUSH20 0xFFFFFFFFFFFFFFFFFFFFFFFFFFFFFFFFFFFFFFFF AND PUSH20 0xFFFFFFFFFFFFFFFFFFFFFFFFFFFFFFFFFFFFFFFF AND DUP2 MSTORE PUSH1 0x20 ADD SWAP1 DUP2 MSTORE PUSH1 0x20 ADD PUSH1 0x0 KECCAK256 DUP7 DUP2 SLOAD DUP2 LT PUSH2 0x1C47 JUMPI PUSH2 0x1C46 PUSH2 0x2DB1 JUMP JUMPDEST JUMPDEST SWAP1 PUSH1 0x0 MSTORE PUSH1 0x20 PUSH1 0x0 KECCAK256 SWAP1 PUSH1 0x6 MUL ADD PUSH1 0x1 ADD SLOAD PUSH1 0x1 SLOAD PUSH2 0x1C66 SWAP2 SWAP1 PUSH2 0x2B8A JUMP JUMPDEST PUSH2 0x1C70 SWAP2 SWAP1 PUSH2 0x2B8A JUMP JUMPDEST PUSH2 0x1C7A SWAP2 SWAP1 PUSH2 0x2B59 JUMP JUMPDEST SWAP1 POP PUSH1 0x0 PUSH1 0x6 PUSH1 0x0 DUP8 PUSH20 0xFFFFFFFFFFFFFFFFFFFFFFFFFFFFFFFFFFFFFFFF AND PUSH20 0xFFFFFFFFFFFFFFFFFFFFFFFFFFFFFFFFFFFFFFFF AND DUP2 MSTORE PUSH1 0x20 ADD SWAP1 DUP2 MSTORE PUSH1 0x20 ADD PUSH1 0x0 KECCAK256 DUP6 DUP2 SLOAD DUP2 LT PUSH2 0x1CCF JUMPI PUSH2 0x1CCE PUSH2 0x2DB1 JUMP JUMPDEST JUMPDEST SWAP1 PUSH1 0x0 MSTORE PUSH1 0x20 PUSH1 0x0 KECCAK256 SWAP1 PUSH1 0x6 MUL ADD PUSH1 0x1 ADD SLOAD SWAP1 POP PUSH1 0x0 DUP1 JUMPDEST DUP5 DUP2 LT ISZERO PUSH2 0x1DBE JUMPI PUSH1 0xC PUSH1 0x64 DUP5 PUSH1 0x2 SLOAD PUSH2 0x1D01 SWAP2 SWAP1 PUSH2 0x2B8A JUMP JUMPDEST PUSH2 0x1D0B SWAP2 SWAP1 PUSH2 0x2B59 JUMP JUMPDEST PUSH2 0x1D15 SWAP2 SWAP1 PUSH2 0x2B59 JUMP JUMPDEST DUP3 PUSH2 0x1D20 SWAP2 SWAP1 PUSH2 0x2B03 JUMP JUMPDEST SWAP2 POP PUSH1 0x64 PUSH1 0x6 PUSH1 0x0 DUP11 PUSH20 0xFFFFFFFFFFFFFFFFFFFFFFFFFFFFFFFFFFFFFFFF AND PUSH20 0xFFFFFFFFFFFFFFFFFFFFFFFFFFFFFFFFFFFFFFFF AND DUP2 MSTORE PUSH1 0x20 ADD SWAP1 DUP2 MSTORE PUSH1 0x20 ADD PUSH1 0x0 KECCAK256 DUP9 DUP2 SLOAD DUP2 LT PUSH2 0x1D75 JUMPI PUSH2 0x1D74 PUSH2 0x2DB1 JUMP JUMPDEST JUMPDEST SWAP1 PUSH1 0x0 MSTORE PUSH1 0x20 PUSH1 0x0 KECCAK256 SWAP1 PUSH1 0x6 MUL ADD PUSH1 0x1 ADD SLOAD PUSH1 0x1 SLOAD PUSH2 0x1D94 SWAP2 SWAP1 PUSH2 0x2B8A JUMP JUMPDEST PUSH2 0x1D9E SWAP2 SWAP1 PUSH2 0x2B59 JUMP JUMPDEST DUP4 PUSH2 0x1DA9 SWAP2 SWAP1 PUSH2 0x2BE4 JUMP JUMPDEST SWAP3 POP DUP1 DUP1 PUSH2 0x1DB6 SWAP1 PUSH2 0x2CDB JUMP JUMPDEST SWAP2 POP POP PUSH2 0x1CE7 JUMP JUMPDEST POP PUSH1 0x0 PUSH1 0x6 PUSH1 0x0 DUP10 PUSH20 0xFFFFFFFFFFFFFFFFFFFFFFFFFFFFFFFFFFFFFFFF AND PUSH20 0xFFFFFFFFFFFFFFFFFFFFFFFFFFFFFFFFFFFFFFFF AND DUP2 MSTORE PUSH1 0x20 ADD SWAP1 DUP2 MSTORE PUSH1 0x20 ADD PUSH1 0x0 KECCAK256 DUP8 DUP2 SLOAD DUP2 LT PUSH2 0x1E12 JUMPI PUSH2 0x1E11 PUSH2 0x2DB1 JUMP JUMPDEST JUMPDEST SWAP1 PUSH1 0x0 MSTORE PUSH1 0x20 PUSH1 0x0 KECCAK256 SWAP1 PUSH1 0x6 MUL ADD PUSH1 0x5 ADD SLOAD DUP5 PUSH2 0x1E2F SWAP2 SWAP1 PUSH2 0x2BE4 JUMP JUMPDEST SWAP1 POP PUSH1 0x0 PUSH1 0x6 PUSH1 0x0 DUP11 PUSH20 0xFFFFFFFFFFFFFFFFFFFFFFFFFFFFFFFFFFFFFFFF AND PUSH20 0xFFFFFFFFFFFFFFFFFFFFFFFFFFFFFFFFFFFFFFFF AND DUP2 MSTORE PUSH1 0x20 ADD SWAP1 DUP2 MSTORE PUSH1 0x20 ADD PUSH1 0x0 KECCAK256 DUP9 DUP2 SLOAD DUP2 LT PUSH2 0x1E84 JUMPI PUSH2 0x1E83 PUSH2 0x2DB1 JUMP JUMPDEST JUMPDEST SWAP1 PUSH1 0x0 MSTORE PUSH1 0x20 PUSH1 0x0 KECCAK256 SWAP1 PUSH1 0x6 MUL ADD PUSH1 0x4 ADD SLOAD DUP4 PUSH2 0x1EA1 SWAP2 SWAP1 PUSH2 0x2BE4 JUMP JUMPDEST SWAP1 POP PUSH1 0x0 PUSH1 0x40 MLOAD DUP1 PUSH1 0x60 ADD PUSH1 0x40 MSTORE DUP1 DUP5 DUP2 MSTORE PUSH1 0x20 ADD DUP4 DUP2 MSTORE PUSH1 0x20 ADD DUP4 DUP6 PUSH2 0x1EC8 SWAP2 SWAP1 PUSH2 0x2B03 JUMP JUMPDEST DUP2 MSTORE POP SWAP1 POP DUP1 SWAP8 POP POP POP POP POP POP POP POP SWAP3 SWAP2 POP POP JUMP JUMPDEST PUSH2 0x1F5E DUP4 PUSH4 0xA9059CBB PUSH1 0xE0 SHL DUP5 DUP5 PUSH1 0x40 MLOAD PUSH1 0x24 ADD PUSH2 0x1EFC SWAP3 SWAP2 SWAP1 PUSH2 0x27C3 JUMP JUMPDEST PUSH1 0x40 MLOAD PUSH1 0x20 DUP2 DUP4 SUB SUB DUP2 MSTORE SWAP1 PUSH1 0x40 MSTORE SWAP1 PUSH28 0xFFFFFFFFFFFFFFFFFFFFFFFFFFFFFFFFFFFFFFFFFFFFFFFFFFFFFFFF NOT AND PUSH1 0x20 DUP3 ADD DUP1 MLOAD PUSH28 0xFFFFFFFFFFFFFFFFFFFFFFFFFFFFFFFFFFFFFFFFFFFFFFFFFFFFFFFF DUP4 DUP2 DUP4 AND OR DUP4 MSTORE POP POP POP POP PUSH2 0x20C0 JUMP JUMPDEST POP POP POP JUMP JUMPDEST PUSH2 0x1F6B PUSH2 0x233D JUMP JUMPDEST PUSH1 0x0 DUP1 PUSH1 0x0 JUMPDEST PUSH1 0x6 PUSH1 0x0 DUP7 PUSH20 0xFFFFFFFFFFFFFFFFFFFFFFFFFFFFFFFFFFFFFFFF AND PUSH20 0xFFFFFFFFFFFFFFFFFFFFFFFFFFFFFFFFFFFFFFFF AND DUP2 MSTORE PUSH1 0x20 ADD SWAP1 DUP2 MSTORE PUSH1 0x20 ADD PUSH1 0x0 KECCAK256 DUP1 SLOAD SWAP1 POP DUP2 LT ISZERO PUSH2 0x2001 JUMPI PUSH1 0x0 PUSH2 0x1FC7 DUP7 DUP4 PUSH2 0x1B69 JUMP JUMPDEST SWAP1 POP DUP1 PUSH1 0x0 ADD MLOAD DUP5 PUSH2 0x1FD9 SWAP2 SWAP1 PUSH2 0x2B03 JUMP JUMPDEST SWAP4 POP DUP1 PUSH1 0x20 ADD MLOAD DUP4 PUSH2 0x1FEB SWAP2 SWAP1 PUSH2 0x2B03 JUMP JUMPDEST SWAP3 POP POP DUP1 DUP1 PUSH2 0x1FF9 SWAP1 PUSH2 0x2CDB JUMP JUMPDEST SWAP2 POP POP PUSH2 0x1F71 JUMP JUMPDEST POP PUSH1 0x0 PUSH1 0x40 MLOAD DUP1 PUSH1 0x60 ADD PUSH1 0x40 MSTORE DUP1 DUP5 DUP2 MSTORE PUSH1 0x20 ADD DUP4 DUP2 MSTORE PUSH1 0x20 ADD DUP4 DUP6 PUSH2 0x2027 SWAP2 SWAP1 PUSH2 0x2B03 JUMP JUMPDEST DUP2 MSTORE POP SWAP1 POP DUP1 SWAP4 POP POP POP POP SWAP2 SWAP1 POP JUMP JUMPDEST PUSH2 0x20BA DUP5 PUSH4 0x23B872DD PUSH1 0xE0 SHL DUP6 DUP6 DUP6 PUSH1 0x40 MLOAD PUSH1 0x24 ADD PUSH2 0x2058 SWAP4 SWAP3 SWAP2 SWAP1 PUSH2 0x278C JUMP JUMPDEST PUSH1 0x40 MLOAD PUSH1 0x20 DUP2 DUP4 SUB SUB DUP2 MSTORE SWAP1 PUSH1 0x40 MSTORE SWAP1 PUSH28 0xFFFFFFFFFFFFFFFFFFFFFFFFFFFFFFFFFFFFFFFFFFFFFFFFFFFFFFFF NOT AND PUSH1 0x20 DUP3 ADD DUP1 MLOAD PUSH28 0xFFFFFFFFFFFFFFFFFFFFFFFFFFFFFFFFFFFFFFFFFFFFFFFFFFFFFFFF DUP4 DUP2 DUP4 AND OR DUP4 MSTORE POP POP POP POP PUSH2 0x20C0 JUMP JUMPDEST POP POP POP POP JUMP JUMPDEST PUSH1 0x0 PUSH2 0x2122 DUP3 PUSH1 0x40 MLOAD DUP1 PUSH1 0x40 ADD PUSH1 0x40 MSTORE DUP1 PUSH1 0x20 DUP2 MSTORE PUSH1 0x20 ADD PUSH32 0x5361666545524332303A206C6F772D6C6576656C2063616C6C206661696C6564 DUP2 MSTORE POP DUP6 PUSH20 0xFFFFFFFFFFFFFFFFFFFFFFFFFFFFFFFFFFFFFFFF AND PUSH2 0x2187 SWAP1 SWAP3 SWAP2 SWAP1 PUSH4 0xFFFFFFFF AND JUMP JUMPDEST SWAP1 POP PUSH1 0x0 DUP2 MLOAD GT ISZERO PUSH2 0x2182 JUMPI DUP1 DUP1 PUSH1 0x20 ADD SWAP1 MLOAD DUP2 ADD SWAP1 PUSH2 0x2142 SWAP2 SWAP1 PUSH2 0x240A JUMP JUMPDEST PUSH2 0x2181 JUMPI PUSH1 0x40 MLOAD PUSH32 0x8C379A000000000000000000000000000000000000000000000000000000000 DUP2 MSTORE PUSH1 0x4 ADD PUSH2 0x2178 SWAP1 PUSH2 0x2914 JUMP JUMPDEST PUSH1 0x40 MLOAD DUP1 SWAP2 SUB SWAP1 REVERT JUMPDEST JUMPDEST POP POP POP JUMP JUMPDEST PUSH1 0x60 PUSH2 0x2196 DUP5 DUP5 PUSH1 0x0 DUP6 PUSH2 0x219F JUMP JUMPDEST SWAP1 POP SWAP4 SWAP3 POP POP POP JUMP JUMPDEST PUSH1 0x60 DUP3 SELFBALANCE LT ISZERO PUSH2 0x21E4 JUMPI PUSH1 0x40 MLOAD PUSH32 0x8C379A000000000000000000000000000000000000000000000000000000000 DUP2 MSTORE PUSH1 0x4 ADD PUSH2 0x21DB SWAP1 PUSH2 0x28B4 JUMP JUMPDEST PUSH1 0x40 MLOAD DUP1 SWAP2 SUB SWAP1 REVERT JUMPDEST PUSH2 0x21ED DUP6 PUSH2 0x22B3 JUMP JUMPDEST PUSH2 0x222C JUMPI PUSH1 0x40 MLOAD PUSH32 0x8C379A000000000000000000000000000000000000000000000000000000000 DUP2 MSTORE PUSH1 0x4 ADD PUSH2 0x2223 SWAP1 PUSH2 0x28F4 JUMP JUMPDEST PUSH1 0x40 MLOAD DUP1 SWAP2 SUB SWAP1 REVERT JUMPDEST PUSH1 0x0 DUP1 DUP7 PUSH20 0xFFFFFFFFFFFFFFFFFFFFFFFFFFFFFFFFFFFFFFFF AND DUP6 DUP8 PUSH1 0x40 MLOAD PUSH2 0x2255 SWAP2 SWAP1 PUSH2 0x2775 JUMP JUMPDEST PUSH1 0x0 PUSH1 0x40 MLOAD DUP1 DUP4 SUB DUP2 DUP6 DUP8 GAS CALL SWAP3 POP POP POP RETURNDATASIZE DUP1 PUSH1 0x0 DUP2 EQ PUSH2 0x2292 JUMPI PUSH1 0x40 MLOAD SWAP2 POP PUSH1 0x1F NOT PUSH1 0x3F RETURNDATASIZE ADD AND DUP3 ADD PUSH1 0x40 MSTORE RETURNDATASIZE DUP3 MSTORE RETURNDATASIZE PUSH1 0x0 PUSH1 0x20 DUP5 ADD RETURNDATACOPY PUSH2 0x2297 JUMP JUMPDEST PUSH1 0x60 SWAP2 POP JUMPDEST POP SWAP2 POP SWAP2 POP PUSH2 0x22A7 DUP3 DUP3 DUP7 PUSH2 0x22D6 JUMP JUMPDEST SWAP3 POP POP POP SWAP5 SWAP4 POP POP POP POP JUMP JUMPDEST PUSH1 0x0 DUP1 DUP3 PUSH20 0xFFFFFFFFFFFFFFFFFFFFFFFFFFFFFFFFFFFFFFFF AND EXTCODESIZE GT SWAP1 POP SWAP2 SWAP1 POP JUMP JUMPDEST PUSH1 0x60 DUP4 ISZERO PUSH2 0x22E6 JUMPI DUP3 SWAP1 POP PUSH2 0x2336 JUMP JUMPDEST PUSH1 0x0 DUP4 MLOAD GT ISZERO PUSH2 0x22F9 JUMPI DUP3 MLOAD DUP1 DUP5 PUSH1 0x20 ADD REVERT JUMPDEST DUP2 PUSH1 0x40 MLOAD PUSH32 0x8C379A000000000000000000000000000000000000000000000000000000000 DUP2 MSTORE PUSH1 0x4 ADD PUSH2 0x232D SWAP2 SWAP1 PUSH2 0x2852 JUMP JUMPDEST PUSH1 0x40 MLOAD DUP1 SWAP2 SUB SWAP1 REVERT JUMPDEST SWAP4 SWAP3 POP POP POP JUMP JUMPDEST PUSH1 0x40 MLOAD DUP1 PUSH1 0x60 ADD PUSH1 0x40 MSTORE DUP1 PUSH1 0x0 DUP2 MSTORE PUSH1 0x20 ADD PUSH1 0x0 DUP2 MSTORE PUSH1 0x20 ADD PUSH1 0x0 DUP2 MSTORE POP SWAP1 JUMP JUMPDEST PUSH1 0x0 DUP2 CALLDATALOAD SWAP1 POP PUSH2 0x236D DUP2 PUSH2 0x2FDF JUMP JUMPDEST SWAP3 SWAP2 POP POP JUMP JUMPDEST PUSH1 0x0 DUP2 MLOAD SWAP1 POP PUSH2 0x2382 DUP2 PUSH2 0x2FF6 JUMP JUMPDEST SWAP3 SWAP2 POP POP JUMP JUMPDEST PUSH1 0x0 DUP2 CALLDATALOAD SWAP1 POP PUSH2 0x2397 DUP2 PUSH2 0x300D JUMP JUMPDEST SWAP3 SWAP2 POP POP JUMP JUMPDEST PUSH1 0x0 PUSH1 0x20 DUP3 DUP5 SUB SLT ISZERO PUSH2 0x23B3 JUMPI PUSH2 0x23B2 PUSH2 0x2E0F JUMP JUMPDEST JUMPDEST PUSH1 0x0 PUSH2 0x23C1 DUP5 DUP3 DUP6 ADD PUSH2 0x235E JUMP JUMPDEST SWAP2 POP POP SWAP3 SWAP2 POP POP JUMP JUMPDEST PUSH1 0x0 DUP1 PUSH1 0x40 DUP4 DUP6 SUB SLT ISZERO PUSH2 0x23E1 JUMPI PUSH2 0x23E0 PUSH2 0x2E0F JUMP JUMPDEST JUMPDEST PUSH1 0x0 PUSH2 0x23EF DUP6 DUP3 DUP7 ADD PUSH2 0x235E JUMP JUMPDEST SWAP3 POP POP PUSH1 0x20 PUSH2 0x2400 DUP6 DUP3 DUP7 ADD PUSH2 0x2388 JUMP JUMPDEST SWAP2 POP POP SWAP3 POP SWAP3 SWAP1 POP JUMP JUMPDEST PUSH1 0x0 PUSH1 0x20 DUP3 DUP5 SUB SLT ISZERO PUSH2 0x2420 JUMPI PUSH2 0x241F PUSH2 0x2E0F JUMP JUMPDEST JUMPDEST PUSH1 0x0 PUSH2 0x242E DUP5 DUP3 DUP6 ADD PUSH2 0x2373 JUMP JUMPDEST SWAP2 POP POP SWAP3 SWAP2 POP POP JUMP JUMPDEST PUSH1 0x0 PUSH1 0x20 DUP3 DUP5 SUB SLT ISZERO PUSH2 0x244D JUMPI PUSH2 0x244C PUSH2 0x2E0F JUMP JUMPDEST JUMPDEST PUSH1 0x0 PUSH2 0x245B DUP5 DUP3 DUP6 ADD PUSH2 0x2388 JUMP JUMPDEST SWAP2 POP POP SWAP3 SWAP2 POP POP JUMP JUMPDEST PUSH1 0x0 DUP1 PUSH1 0x40 DUP4 DUP6 SUB SLT ISZERO PUSH2 0x247B JUMPI PUSH2 0x247A PUSH2 0x2E0F JUMP JUMPDEST JUMPDEST PUSH1 0x0 PUSH2 0x2489 DUP6 DUP3 DUP7 ADD PUSH2 0x2388 JUMP JUMPDEST SWAP3 POP POP PUSH1 0x20 PUSH2 0x249A DUP6 DUP3 DUP7 ADD PUSH2 0x2388 JUMP JUMPDEST SWAP2 POP POP SWAP3 POP SWAP3 SWAP1 POP JUMP JUMPDEST PUSH1 0x0 PUSH2 0x24B0 DUP4 DUP4 PUSH2 0x258B JUMP JUMPDEST SWAP1 POP SWAP3 SWAP2 POP POP JUMP JUMPDEST PUSH2 0x24C1 DUP2 PUSH2 0x2C18 JUMP JUMPDEST DUP3 MSTORE POP POP JUMP JUMPDEST PUSH1 0x0 PUSH2 0x24D2 DUP3 PUSH2 0x2A97 JUMP JUMPDEST PUSH2 0x24DC DUP2 DUP6 PUSH2 0x2AC5 JUMP JUMPDEST SWAP4 POP DUP4 PUSH1 0x20 DUP3 MUL DUP6 ADD PUSH2 0x24EE DUP6 PUSH2 0x2A87 JUMP JUMPDEST DUP1 PUSH1 0x0 JUMPDEST DUP6 DUP2 LT ISZERO PUSH2 0x252A JUMPI DUP5 DUP5 SUB DUP10 MSTORE DUP2 MLOAD PUSH2 0x250B DUP6 DUP3 PUSH2 0x24A4 JUMP JUMPDEST SWAP5 POP PUSH2 0x2516 DUP4 PUSH2 0x2AB8 JUMP JUMPDEST SWAP3 POP PUSH1 0x20 DUP11 ADD SWAP10 POP POP PUSH1 0x1 DUP2 ADD SWAP1 POP PUSH2 0x24F2 JUMP JUMPDEST POP DUP3 SWAP8 POP DUP8 SWAP6 POP POP POP POP POP POP SWAP3 SWAP2 POP POP JUMP JUMPDEST PUSH1 0x0 PUSH2 0x2547 DUP3 PUSH2 0x2AA2 JUMP JUMPDEST PUSH2 0x2551 DUP2 DUP6 PUSH2 0x2AD6 JUMP JUMPDEST SWAP4 POP PUSH2 0x2561 DUP2 DUP6 PUSH1 0x20 DUP7 ADD PUSH2 0x2CA8 JUMP JUMPDEST DUP1 DUP5 ADD SWAP2 POP POP SWAP3 SWAP2 POP POP JUMP JUMPDEST PUSH2 0x2576 DUP2 PUSH2 0x2C60 JUMP JUMPDEST DUP3 MSTORE POP POP JUMP JUMPDEST PUSH2 0x2585 DUP2 PUSH2 0x2C72 JUMP JUMPDEST DUP3 MSTORE POP POP JUMP JUMPDEST PUSH1 0x0 PUSH2 0x2596 DUP3 PUSH2 0x2AAD JUMP JUMPDEST PUSH2 0x25A0 DUP2 DUP6 PUSH2 0x2AE1 JUMP JUMPDEST SWAP4 POP PUSH2 0x25B0 DUP2 DUP6 PUSH1 0x20 DUP7 ADD PUSH2 0x2CA8 JUMP JUMPDEST PUSH2 0x25B9 DUP2 PUSH2 0x2E14 JUMP JUMPDEST DUP5 ADD SWAP2 POP POP SWAP3 SWAP2 POP POP JUMP JUMPDEST PUSH1 0x0 PUSH2 0x25CF DUP3 PUSH2 0x2AAD JUMP JUMPDEST PUSH2 0x25D9 DUP2 DUP6 PUSH2 0x2AF2 JUMP JUMPDEST SWAP4 POP PUSH2 0x25E9 DUP2 DUP6 PUSH1 0x20 DUP7 ADD PUSH2 0x2CA8 JUMP JUMPDEST PUSH2 0x25F2 DUP2 PUSH2 0x2E14 JUMP JUMPDEST DUP5 ADD SWAP2 POP POP SWAP3 SWAP2 POP POP JUMP JUMPDEST PUSH1 0x0 PUSH2 0x260A PUSH1 0x21 DUP4 PUSH2 0x2AF2 JUMP JUMPDEST SWAP2 POP PUSH2 0x2615 DUP3 PUSH2 0x2E25 JUMP JUMPDEST PUSH1 0x40 DUP3 ADD SWAP1 POP SWAP2 SWAP1 POP JUMP JUMPDEST PUSH1 0x0 PUSH2 0x262D PUSH1 0x1B DUP4 PUSH2 0x2AF2 JUMP JUMPDEST SWAP2 POP PUSH2 0x2638 DUP3 PUSH2 0x2E74 JUMP JUMPDEST PUSH1 0x20 DUP3 ADD SWAP1 POP SWAP2 SWAP1 POP JUMP JUMPDEST PUSH1 0x0 PUSH2 0x2650 PUSH1 0x26 DUP4 PUSH2 0x2AF2 JUMP JUMPDEST SWAP2 POP PUSH2 0x265B DUP3 PUSH2 0x2E9D JUMP JUMPDEST PUSH1 0x40 DUP3 ADD SWAP1 POP SWAP2 SWAP1 POP JUMP JUMPDEST PUSH1 0x0 PUSH2 0x2673 PUSH1 0x1C DUP4 PUSH2 0x2AF2 JUMP JUMPDEST SWAP2 POP PUSH2 0x267E DUP3 PUSH2 0x2EEC JUMP JUMPDEST PUSH1 0x20 DUP3 ADD SWAP1 POP SWAP2 SWAP1 POP JUMP JUMPDEST PUSH1 0x0 PUSH2 0x2696 PUSH1 0x1D DUP4 PUSH2 0x2AF2 JUMP JUMPDEST SWAP2 POP PUSH2 0x26A1 DUP3 PUSH2 0x2F15 JUMP JUMPDEST PUSH1 0x20 DUP3 ADD SWAP1 POP SWAP2 SWAP1 POP JUMP JUMPDEST PUSH1 0x0 PUSH2 0x26B9 PUSH1 0x2A DUP4 PUSH2 0x2AF2 JUMP JUMPDEST SWAP2 POP PUSH2 0x26C4 DUP3 PUSH2 0x2F3E JUMP JUMPDEST PUSH1 0x40 DUP3 ADD SWAP1 POP SWAP2 SWAP1 POP JUMP JUMPDEST PUSH1 0x0 PUSH2 0x26DC PUSH1 0x1F DUP4 PUSH2 0x2AF2 JUMP JUMPDEST SWAP2 POP PUSH2 0x26E7 DUP3 PUSH2 0x2F8D JUMP JUMPDEST PUSH1 0x20 DUP3 ADD SWAP1 POP SWAP2 SWAP1 POP JUMP JUMPDEST PUSH1 0x0 PUSH2 0x26FF PUSH1 0x1B DUP4 PUSH2 0x2AF2 JUMP JUMPDEST SWAP2 POP PUSH2 0x270A DUP3 PUSH2 0x2FB6 JUMP JUMPDEST PUSH1 0x20 DUP3 ADD SWAP1 POP SWAP2 SWAP1 POP JUMP JUMPDEST PUSH1 0x60 DUP3 ADD PUSH1 0x0 DUP3 ADD MLOAD PUSH2 0x272B PUSH1 0x0 DUP6 ADD DUP3 PUSH2 0x2757 JUMP JUMPDEST POP PUSH1 0x20 DUP3 ADD MLOAD PUSH2 0x273E PUSH1 0x20 DUP6 ADD DUP3 PUSH2 0x2757 JUMP JUMPDEST POP PUSH1 0x40 DUP3 ADD MLOAD PUSH2 0x2751 PUSH1 0x40 DUP6 ADD DUP3 PUSH2 0x2757 JUMP JUMPDEST POP POP POP POP JUMP JUMPDEST PUSH2 0x2760 DUP2 PUSH2 0x2C56 JUMP JUMPDEST DUP3 MSTORE POP POP JUMP JUMPDEST PUSH2 0x276F DUP2 PUSH2 0x2C56 JUMP JUMPDEST DUP3 MSTORE POP POP JUMP JUMPDEST PUSH1 0x0 PUSH2 0x2781 DUP3 DUP5 PUSH2 0x253C JUMP JUMPDEST SWAP2 POP DUP2 SWAP1 POP SWAP3 SWAP2 POP POP JUMP JUMPDEST PUSH1 0x0 PUSH1 0x60 DUP3 ADD SWAP1 POP PUSH2 0x27A1 PUSH1 0x0 DUP4 ADD DUP7 PUSH2 0x24B8 JUMP JUMPDEST PUSH2 0x27AE PUSH1 0x20 DUP4 ADD DUP6 PUSH2 0x24B8 JUMP JUMPDEST PUSH2 0x27BB PUSH1 0x40 DUP4 ADD DUP5 PUSH2 0x2766 JUMP JUMPDEST SWAP5 SWAP4 POP POP POP POP JUMP JUMPDEST PUSH1 0x0 PUSH1 0x40 DUP3 ADD SWAP1 POP PUSH2 0x27D8 PUSH1 0x0 DUP4 ADD DUP6 PUSH2 0x24B8 JUMP JUMPDEST PUSH2 0x27E5 PUSH1 0x20 DUP4 ADD DUP5 PUSH2 0x2766 JUMP JUMPDEST SWAP4 SWAP3 POP POP POP JUMP JUMPDEST PUSH1 0x0 PUSH1 0x80 DUP3 ADD SWAP1 POP DUP2 DUP2 SUB PUSH1 0x0 DUP4 ADD MSTORE PUSH2 0x2806 DUP2 DUP6 PUSH2 0x24C7 JUMP JUMPDEST SWAP1 POP PUSH2 0x2815 PUSH1 0x20 DUP4 ADD DUP5 PUSH2 0x2715 JUMP JUMPDEST SWAP4 SWAP3 POP POP POP JUMP JUMPDEST PUSH1 0x0 PUSH1 0x20 DUP3 ADD SWAP1 POP PUSH2 0x2831 PUSH1 0x0 DUP4 ADD DUP5 PUSH2 0x256D JUMP JUMPDEST SWAP3 SWAP2 POP POP JUMP JUMPDEST PUSH1 0x0 PUSH1 0x20 DUP3 ADD SWAP1 POP PUSH2 0x284C PUSH1 0x0 DUP4 ADD DUP5 PUSH2 0x257C JUMP JUMPDEST SWAP3 SWAP2 POP POP JUMP JUMPDEST PUSH1 0x0 PUSH1 0x20 DUP3 ADD SWAP1 POP DUP2 DUP2 SUB PUSH1 0x0 DUP4 ADD MSTORE PUSH2 0x286C DUP2 DUP5 PUSH2 0x25C4 JUMP JUMPDEST SWAP1 POP SWAP3 SWAP2 POP POP JUMP JUMPDEST PUSH1 0x0 PUSH1 0x20 DUP3 ADD SWAP1 POP DUP2 DUP2 SUB PUSH1 0x0 DUP4 ADD MSTORE PUSH2 0x288D DUP2 PUSH2 0x25FD JUMP JUMPDEST SWAP1 POP SWAP2 SWAP1 POP JUMP JUMPDEST PUSH1 0x0 PUSH1 0x20 DUP3 ADD SWAP1 POP DUP2 DUP2 SUB PUSH1 0x0 DUP4 ADD MSTORE PUSH2 0x28AD DUP2 PUSH2 0x2620 JUMP JUMPDEST SWAP1 POP SWAP2 SWAP1 POP JUMP JUMPDEST PUSH1 0x0 PUSH1 0x20 DUP3 ADD SWAP1 POP DUP2 DUP2 SUB PUSH1 0x0 DUP4 ADD MSTORE PUSH2 0x28CD DUP2 PUSH2 0x2643 JUMP JUMPDEST SWAP1 POP SWAP2 SWAP1 POP JUMP JUMPDEST PUSH1 0x0 PUSH1 0x20 DUP3 ADD SWAP1 POP DUP2 DUP2 SUB PUSH1 0x0 DUP4 ADD MSTORE PUSH2 0x28ED DUP2 PUSH2 0x2666 JUMP JUMPDEST SWAP1 POP SWAP2 SWAP1 POP JUMP JUMPDEST PUSH1 0x0 PUSH1 0x20 DUP3 ADD SWAP1 POP DUP2 DUP2 SUB PUSH1 0x0 DUP4 ADD MSTORE PUSH2 0x290D DUP2 PUSH2 0x2689 JUMP JUMPDEST SWAP1 POP SWAP2 SWAP1 POP JUMP JUMPDEST PUSH1 0x0 PUSH1 0x20 DUP3 ADD SWAP1 POP DUP2 DUP2 SUB PUSH1 0x0 DUP4 ADD MSTORE PUSH2 0x292D DUP2 PUSH2 0x26AC JUMP JUMPDEST SWAP1 POP SWAP2 SWAP1 POP JUMP JUMPDEST PUSH1 0x0 PUSH1 0x20 DUP3 ADD SWAP1 POP DUP2 DUP2 SUB PUSH1 0x0 DUP4 ADD MSTORE PUSH2 0x294D DUP2 PUSH2 0x26CF JUMP JUMPDEST SWAP1 POP SWAP2 SWAP1 POP JUMP JUMPDEST PUSH1 0x0 PUSH1 0x20 DUP3 ADD SWAP1 POP DUP2 DUP2 SUB PUSH1 0x0 DUP4 ADD MSTORE PUSH2 0x296D DUP2 PUSH2 0x26F2 JUMP JUMPDEST SWAP1 POP SWAP2 SWAP1 POP JUMP JUMPDEST PUSH1 0x0 PUSH1 0x60 DUP3 ADD SWAP1 POP PUSH2 0x2989 PUSH1 0x0 DUP4 ADD DUP5 PUSH2 0x2715 JUMP JUMPDEST SWAP3 SWAP2 POP POP JUMP JUMPDEST PUSH1 0x0 PUSH1 0x20 DUP3 ADD SWAP1 POP PUSH2 0x29A4 PUSH1 0x0 DUP4 ADD DUP5 PUSH2 0x2766 JUMP JUMPDEST SWAP3 SWAP2 POP POP JUMP JUMPDEST PUSH1 0x0 PUSH1 0x40 DUP3 ADD SWAP1 POP PUSH2 0x29BF PUSH1 0x0 DUP4 ADD DUP6 PUSH2 0x2766 JUMP JUMPDEST PUSH2 0x29CC PUSH1 0x20 DUP4 ADD DUP5 PUSH2 0x2766 JUMP JUMPDEST SWAP4 SWAP3 POP POP POP JUMP JUMPDEST PUSH1 0x0 PUSH1 0xA0 DUP3 ADD SWAP1 POP PUSH2 0x29E8 PUSH1 0x0 DUP4 ADD DUP9 PUSH2 0x2766 JUMP JUMPDEST PUSH2 0x29F5 PUSH1 0x20 DUP4 ADD DUP8 PUSH2 0x2766 JUMP JUMPDEST PUSH2 0x2A02 PUSH1 0x40 DUP4 ADD DUP7 PUSH2 0x2766 JUMP JUMPDEST PUSH2 0x2A0F PUSH1 0x60 DUP4 ADD DUP6 PUSH2 0x2766 JUMP JUMPDEST PUSH2 0x2A1C PUSH1 0x80 DUP4 ADD DUP5 PUSH2 0x2766 JUMP JUMPDEST SWAP7 SWAP6 POP POP POP POP POP POP JUMP JUMPDEST PUSH1 0x0 PUSH1 0xC0 DUP3 ADD SWAP1 POP PUSH2 0x2A3B PUSH1 0x0 DUP4 ADD DUP10 PUSH2 0x2766 JUMP JUMPDEST PUSH2 0x2A48 PUSH1 0x20 DUP4 ADD DUP9 PUSH2 0x2766 JUMP JUMPDEST PUSH2 0x2A55 PUSH1 0x40 DUP4 ADD DUP8 PUSH2 0x2766 JUMP JUMPDEST PUSH2 0x2A62 PUSH1 0x60 DUP4 ADD DUP7 PUSH2 0x2766 JUMP JUMPDEST PUSH2 0x2A6F PUSH1 0x80 DUP4 ADD DUP6 PUSH2 0x2766 JUMP JUMPDEST PUSH2 0x2A7C PUSH1 0xA0 DUP4 ADD DUP5 PUSH2 0x2766 JUMP JUMPDEST SWAP8 SWAP7 POP POP POP POP POP POP POP JUMP JUMPDEST PUSH1 0x0 DUP2 SWAP1 POP PUSH1 0x20 DUP3 ADD SWAP1 POP SWAP2 SWAP1 POP JUMP JUMPDEST PUSH1 0x0 DUP2 MLOAD SWAP1 POP SWAP2 SWAP1 POP JUMP JUMPDEST PUSH1 0x0 DUP2 MLOAD SWAP1 POP SWAP2 SWAP1 POP JUMP JUMPDEST PUSH1 0x0 DUP2 MLOAD SWAP1 POP SWAP2 SWAP1 POP JUMP JUMPDEST PUSH1 0x0 PUSH1 0x20 DUP3 ADD SWAP1 POP SWAP2 SWAP1 POP JUMP JUMPDEST PUSH1 0x0 DUP3 DUP3 MSTORE PUSH1 0x20 DUP3 ADD SWAP1 POP SWAP3 SWAP2 POP POP JUMP JUMPDEST PUSH1 0x0 DUP2 SWAP1 POP SWAP3 SWAP2 POP POP JUMP JUMPDEST PUSH1 0x0 DUP3 DUP3 MSTORE PUSH1 0x20 DUP3 ADD SWAP1 POP SWAP3 SWAP2 POP POP JUMP JUMPDEST PUSH1 0x0 DUP3 DUP3 MSTORE PUSH1 0x20 DUP3 ADD SWAP1 POP SWAP3 SWAP2 POP POP JUMP JUMPDEST PUSH1 0x0 PUSH2 0x2B0E DUP3 PUSH2 0x2C56 JUMP JUMPDEST SWAP2 POP PUSH2 0x2B19 DUP4 PUSH2 0x2C56 JUMP JUMPDEST SWAP3 POP DUP3 PUSH32 0xFFFFFFFFFFFFFFFFFFFFFFFFFFFFFFFFFFFFFFFFFFFFFFFFFFFFFFFFFFFFFFFF SUB DUP3 GT ISZERO PUSH2 0x2B4E JUMPI PUSH2 0x2B4D PUSH2 0x2D24 JUMP JUMPDEST JUMPDEST DUP3 DUP3 ADD SWAP1 POP SWAP3 SWAP2 POP POP JUMP JUMPDEST PUSH1 0x0 PUSH2 0x2B64 DUP3 PUSH2 0x2C56 JUMP JUMPDEST SWAP2 POP PUSH2 0x2B6F DUP4 PUSH2 0x2C56 JUMP JUMPDEST SWAP3 POP DUP3 PUSH2 0x2B7F JUMPI PUSH2 0x2B7E PUSH2 0x2D53 JUMP JUMPDEST JUMPDEST DUP3 DUP3 DIV SWAP1 POP SWAP3 SWAP2 POP POP JUMP JUMPDEST PUSH1 0x0 PUSH2 0x2B95 DUP3 PUSH2 0x2C56 JUMP JUMPDEST SWAP2 POP PUSH2 0x2BA0 DUP4 PUSH2 0x2C56 JUMP JUMPDEST SWAP3 POP DUP2 PUSH32 0xFFFFFFFFFFFFFFFFFFFFFFFFFFFFFFFFFFFFFFFFFFFFFFFFFFFFFFFFFFFFFFFF DIV DUP4 GT DUP3 ISZERO ISZERO AND ISZERO PUSH2 0x2BD9 JUMPI PUSH2 0x2BD8 PUSH2 0x2D24 JUMP JUMPDEST JUMPDEST DUP3 DUP3 MUL SWAP1 POP SWAP3 SWAP2 POP POP JUMP JUMPDEST PUSH1 0x0 PUSH2 0x2BEF DUP3 PUSH2 0x2C56 JUMP JUMPDEST SWAP2 POP PUSH2 0x2BFA DUP4 PUSH2 0x2C56 JUMP JUMPDEST SWAP3 POP DUP3 DUP3 LT ISZERO PUSH2 0x2C0D JUMPI PUSH2 0x2C0C PUSH2 0x2D24 JUMP JUMPDEST JUMPDEST DUP3 DUP3 SUB SWAP1 POP SWAP3 SWAP2 POP POP JUMP JUMPDEST PUSH1 0x0 PUSH2 0x2C23 DUP3 PUSH2 0x2C36 JUMP JUMPDEST SWAP1 POP SWAP2 SWAP1 POP JUMP JUMPDEST PUSH1 0x0 DUP2 ISZERO ISZERO SWAP1 POP SWAP2 SWAP1 POP JUMP JUMPDEST PUSH1 0x0 PUSH20 0xFFFFFFFFFFFFFFFFFFFFFFFFFFFFFFFFFFFFFFFF DUP3 AND SWAP1 POP SWAP2 SWAP1 POP JUMP JUMPDEST PUSH1 0x0 DUP2 SWAP1 POP SWAP2 SWAP1 POP JUMP JUMPDEST PUSH1 0x0 PUSH2 0x2C6B DUP3 PUSH2 0x2C84 JUMP JUMPDEST SWAP1 POP SWAP2 SWAP1 POP JUMP JUMPDEST PUSH1 0x0 PUSH2 0x2C7D DUP3 PUSH2 0x2C84 JUMP JUMPDEST SWAP1 POP SWAP2 SWAP1 POP JUMP JUMPDEST PUSH1 0x0 PUSH2 0x2C8F DUP3 PUSH2 0x2C96 JUMP JUMPDEST SWAP1 POP SWAP2 SWAP1 POP JUMP JUMPDEST PUSH1 0x0 PUSH2 0x2CA1 DUP3 PUSH2 0x2C36 JUMP JUMPDEST SWAP1 POP SWAP2 SWAP1 POP JUMP JUMPDEST PUSH1 0x0 JUMPDEST DUP4 DUP2 LT ISZERO PUSH2 0x2CC6 JUMPI DUP1 DUP3 ADD MLOAD DUP2 DUP5 ADD MSTORE PUSH1 0x20 DUP2 ADD SWAP1 POP PUSH2 0x2CAB JUMP JUMPDEST DUP4 DUP2 GT ISZERO PUSH2 0x2CD5 JUMPI PUSH1 0x0 DUP5 DUP5 ADD MSTORE JUMPDEST POP POP POP POP JUMP JUMPDEST PUSH1 0x0 PUSH2 0x2CE6 DUP3 PUSH2 0x2C56 JUMP JUMPDEST SWAP2 POP PUSH32 0xFFFFFFFFFFFFFFFFFFFFFFFFFFFFFFFFFFFFFFFFFFFFFFFFFFFFFFFFFFFFFFFF DUP3 EQ ISZERO PUSH2 0x2D19 JUMPI PUSH2 0x2D18 PUSH2 0x2D24 JUMP JUMPDEST JUMPDEST PUSH1 0x1 DUP3 ADD SWAP1 POP SWAP2 SWAP1 POP JUMP JUMPDEST PUSH32 0x4E487B7100000000000000000000000000000000000000000000000000000000 PUSH1 0x0 MSTORE PUSH1 0x11 PUSH1 0x4 MSTORE PUSH1 0x24 PUSH1 0x0 REVERT JUMPDEST PUSH32 0x4E487B7100000000000000000000000000000000000000000000000000000000 PUSH1 0x0 MSTORE PUSH1 0x12 PUSH1 0x4 MSTORE PUSH1 0x24 PUSH1 0x0 REVERT JUMPDEST PUSH32 0x4E487B7100000000000000000000000000000000000000000000000000000000 PUSH1 0x0 MSTORE PUSH1 0x31 PUSH1 0x4 MSTORE PUSH1 0x24 PUSH1 0x0 REVERT JUMPDEST PUSH32 0x4E487B7100000000000000000000000000000000000000000000000000000000 PUSH1 0x0 MSTORE PUSH1 0x32 PUSH1 0x4 MSTORE PUSH1 0x24 PUSH1 0x0 REVERT JUMPDEST PUSH32 0x4E487B7100000000000000000000000000000000000000000000000000000000 PUSH1 0x0 MSTORE PUSH1 0x41 PUSH1 0x4 MSTORE PUSH1 0x24 PUSH1 0x0 REVERT JUMPDEST PUSH1 0x0 DUP1 REVERT JUMPDEST PUSH1 0x0 PUSH1 0x1F NOT PUSH1 0x1F DUP4 ADD AND SWAP1 POP SWAP2 SWAP1 POP JUMP JUMPDEST PUSH32 0x556E7374616B653A2052656465656D61626C6520746F6B656E20756E636C6169 PUSH1 0x0 DUP3 ADD MSTORE PUSH32 0x6D00000000000000000000000000000000000000000000000000000000000000 PUSH1 0x20 DUP3 ADD MSTORE POP JUMP JUMPDEST PUSH32 0x496E7465726573743A204E6F7468696E6720746F2072656465656D0000000000 PUSH1 0x0 DUP3 ADD MSTORE POP JUMP JUMPDEST PUSH32 0x416464726573733A20696E73756666696369656E742062616C616E636520666F PUSH1 0x0 DUP3 ADD MSTORE PUSH32 0x722063616C6C0000000000000000000000000000000000000000000000000000 PUSH1 0x20 DUP3 ADD MSTORE POP JUMP JUMPDEST PUSH32 0x57697468647261773A20416D6F756E74206D757374206265203E203000000000 PUSH1 0x0 DUP3 ADD MSTORE POP JUMP JUMPDEST PUSH32 0x416464726573733A2063616C6C20746F206E6F6E2D636F6E7472616374000000 PUSH1 0x0 DUP3 ADD MSTORE POP JUMP JUMPDEST PUSH32 0x5361666545524332303A204552433230206F7065726174696F6E20646964206E PUSH1 0x0 DUP3 ADD MSTORE PUSH32 0x6F74207375636365656400000000000000000000000000000000000000000000 PUSH1 0x20 DUP3 ADD MSTORE POP JUMP JUMPDEST PUSH32 0x5265656E7472616E637947756172643A207265656E7472616E742063616C6C00 PUSH1 0x0 DUP3 ADD MSTORE POP JUMP JUMPDEST PUSH32 0x4465706F7369743A20416D6F756E74206D757374206265203E20300000000000 PUSH1 0x0 DUP3 ADD MSTORE POP JUMP JUMPDEST PUSH2 0x2FE8 DUP2 PUSH2 0x2C18 JUMP JUMPDEST DUP2 EQ PUSH2 0x2FF3 JUMPI PUSH1 0x0 DUP1 REVERT JUMPDEST POP JUMP JUMPDEST PUSH2 0x2FFF DUP2 PUSH2 0x2C2A JUMP JUMPDEST DUP2 EQ PUSH2 0x300A JUMPI PUSH1 0x0 DUP1 REVERT JUMPDEST POP JUMP JUMPDEST PUSH2 0x3016 DUP2 PUSH2 0x2C56 JUMP JUMPDEST DUP2 EQ PUSH2 0x3021 JUMPI PUSH1 0x0 DUP1 REVERT JUMPDEST POP JUMP INVALID LOG2 PUSH5 0x6970667358 0x22 SLT KECCAK256 CREATE 0xD2 0x5E MLOAD PUSH25 0x6E727569F2B6701B76465BEB893332AD465F11CF8EBFD52A5B CALLDATACOPY 0xD2 PUSH5 0x736F6C6343 STOP ADDMOD SMOD STOP CALLER "
				},
				"gasEstimates": {
					"creation": {
						"codeDepositCost": "2475600",
						"executionCost": "infinite",
						"totalCost": "infinite"
					},
					"external": {
						"HackInterestToken()": "infinite",
						"HackToken()": "infinite",
						"PRECISION_FACTOR()": "352",
						"buybackRate()": "2495",
						"deposit(uint256)": "infinite",
						"getRedeemableAmount(address,uint256)": "infinite",
						"getStakeCount(address)": "2894",
						"getTotalRedeemableAmount(address)": "infinite",
						"interestRate()": "2519",
						"redeemInterest()": "infinite",
						"stakeLimit()": "2497",
						"stakeMapping(address,uint256)": "infinite",
						"totalAmountStaked()": "2517",
						"unstake(uint256)": "infinite",
						"updateDateTest(uint256,uint256)": "infinite",
						"userMapping(address)": "infinite"
					},
					"internal": {
						"calculateRedeemable(address,uint256)": "infinite",
						"calculateTotalRedeemable(address)": "infinite"
					}
				},
				"methodIdentifiers": {
					"HackInterestToken()": "d0a47247",
					"HackToken()": "f71f71af",
					"PRECISION_FACTOR()": "ccd34cd5",
					"buybackRate()": "f76024c4",
					"deposit(uint256)": "b6b55f25",
					"getRedeemableAmount(address,uint256)": "9b147bc6",
					"getStakeCount(address)": "cf57ee69",
					"getTotalRedeemableAmount(address)": "b0797b8e",
					"interestRate()": "7c3a00fd",
					"redeemInterest()": "9fd53034",
					"stakeLimit()": "45ef79af",
					"stakeMapping(address,uint256)": "f5bb23ab",
					"totalAmountStaked()": "fe961f61",
					"unstake(uint256)": "2e17de78",
					"updateDateTest(uint256,uint256)": "d720a515",
					"userMapping(address)": "118b9535"
				}
			},
			"storageLayout": {
				"storage": [
					{
						"astId": 10,
						"contract": "contracts/TokenStaking.sol:TokenStaking",
						"label": "_status",
						"offset": 0,
						"slot": "0",
						"type": "t_uint256"
					},
					{
						"astId": 835,
						"contract": "contracts/TokenStaking.sol:TokenStaking",
						"label": "buybackRate",
						"offset": 0,
						"slot": "1",
						"type": "t_uint256"
					},
					{
						"astId": 838,
						"contract": "contracts/TokenStaking.sol:TokenStaking",
						"label": "interestRate",
						"offset": 0,
						"slot": "2",
						"type": "t_uint256"
					},
					{
						"astId": 843,
						"contract": "contracts/TokenStaking.sol:TokenStaking",
						"label": "stakeLimit",
						"offset": 0,
						"slot": "3",
						"type": "t_uint256"
					},
					{
						"astId": 851,
						"contract": "contracts/TokenStaking.sol:TokenStaking",
						"label": "totalAmountStaked",
						"offset": 0,
						"slot": "4",
						"type": "t_uint256"
					},
					{
						"astId": 856,
						"contract": "contracts/TokenStaking.sol:TokenStaking",
						"label": "userMapping",
						"offset": 0,
						"slot": "5",
						"type": "t_mapping(t_address,t_struct(UserInfo)820_storage)"
					},
					{
						"astId": 862,
						"contract": "contracts/TokenStaking.sol:TokenStaking",
						"label": "stakeMapping",
						"offset": 0,
						"slot": "6",
						"type": "t_mapping(t_address,t_array(t_struct(StakeInfo)809_storage)dyn_storage)"
					}
				],
				"types": {
					"t_address": {
						"encoding": "inplace",
						"label": "address",
						"numberOfBytes": "20"
					},
					"t_array(t_struct(StakeInfo)809_storage)dyn_storage": {
						"base": "t_struct(StakeInfo)809_storage",
						"encoding": "dynamic_array",
						"label": "struct TokenStaking.StakeInfo[]",
						"numberOfBytes": "32"
					},
					"t_mapping(t_address,t_array(t_struct(StakeInfo)809_storage)dyn_storage)": {
						"encoding": "mapping",
						"key": "t_address",
						"label": "mapping(address => struct TokenStaking.StakeInfo[])",
						"numberOfBytes": "32",
						"value": "t_array(t_struct(StakeInfo)809_storage)dyn_storage"
					},
					"t_mapping(t_address,t_struct(UserInfo)820_storage)": {
						"encoding": "mapping",
						"key": "t_address",
						"label": "mapping(address => struct TokenStaking.UserInfo)",
						"numberOfBytes": "32",
						"value": "t_struct(UserInfo)820_storage"
					},
					"t_struct(StakeInfo)809_storage": {
						"encoding": "inplace",
						"label": "struct TokenStaking.StakeInfo",
						"members": [
							{
								"astId": 798,
								"contract": "contracts/TokenStaking.sol:TokenStaking",
								"label": "dateStaked",
								"offset": 0,
								"slot": "0",
								"type": "t_uint256"
							},
							{
								"astId": 800,
								"contract": "contracts/TokenStaking.sol:TokenStaking",
								"label": "initialAmount",
								"offset": 0,
								"slot": "1",
								"type": "t_uint256"
							},
							{
								"astId": 802,
								"contract": "contracts/TokenStaking.sol:TokenStaking",
								"label": "balanceAmount",
								"offset": 0,
								"slot": "2",
								"type": "t_uint256"
							},
							{
								"astId": 804,
								"contract": "contracts/TokenStaking.sol:TokenStaking",
								"label": "redeemedAmount",
								"offset": 0,
								"slot": "3",
								"type": "t_uint256"
							},
							{
								"astId": 806,
								"contract": "contracts/TokenStaking.sol:TokenStaking",
								"label": "interestAmount",
								"offset": 0,
								"slot": "4",
								"type": "t_uint256"
							},
							{
								"astId": 808,
								"contract": "contracts/TokenStaking.sol:TokenStaking",
								"label": "buybackAmount",
								"offset": 0,
								"slot": "5",
								"type": "t_uint256"
							}
						],
						"numberOfBytes": "192"
					},
					"t_struct(UserInfo)820_storage": {
						"encoding": "inplace",
						"label": "struct TokenStaking.UserInfo",
						"members": [
							{
								"astId": 811,
								"contract": "contracts/TokenStaking.sol:TokenStaking",
								"label": "totalInitialAmount",
								"offset": 0,
								"slot": "0",
								"type": "t_uint256"
							},
							{
								"astId": 813,
								"contract": "contracts/TokenStaking.sol:TokenStaking",
								"label": "totalBalanceAmount",
								"offset": 0,
								"slot": "1",
								"type": "t_uint256"
							},
							{
								"astId": 815,
								"contract": "contracts/TokenStaking.sol:TokenStaking",
								"label": "totalRedeemedAmount",
								"offset": 0,
								"slot": "2",
								"type": "t_uint256"
							},
							{
								"astId": 817,
								"contract": "contracts/TokenStaking.sol:TokenStaking",
								"label": "totalBuybackAmount",
								"offset": 0,
								"slot": "3",
								"type": "t_uint256"
							},
							{
								"astId": 819,
								"contract": "contracts/TokenStaking.sol:TokenStaking",
								"label": "totalInterestAmount",
								"offset": 0,
								"slot": "4",
								"type": "t_uint256"
							}
						],
						"numberOfBytes": "160"
					},
					"t_uint256": {
						"encoding": "inplace",
						"label": "uint256",
						"numberOfBytes": "32"
					}
				}
			},
			"userdoc": {
				"kind": "user",
				"methods": {
					"constructor": {
						"notice": "Constructor"
					},
					"deposit(uint256)": {
						"notice": "Deposit staked tokens and earn interest"
					},
					"unstake(uint256)": {
						"notice": "Withdraw all staked tokens and collect tokens"
					}
				},
				"notice": "It handles the distribution of Hack token.",
				"version": 1
			}
		}
	}
}