{
	"data": {
		"bytecode": {
			"linkReferences": {},
			"object": "60c0604052600260015560096002556305f5e100624c4b4062000023919062000135565b6003553480156200003357600080fd5b50604051620032d2380380620032d28339818101604052810190620000599190620000ee565b60016000819055508173ffffffffffffffffffffffffffffffffffffffff1660808173ffffffffffffffffffffffffffffffffffffffff1660601b815250508073ffffffffffffffffffffffffffffffffffffffff1660a08173ffffffffffffffffffffffffffffffffffffffff1660601b81525050505062000222565b600081519050620000e88162000208565b92915050565b6000806040838503121562000108576200010762000203565b5b60006200011885828601620000d7565b92505060206200012b85828601620000d7565b9150509250929050565b60006200014282620001ca565b91506200014f83620001ca565b9250817fffffffffffffffffffffffffffffffffffffffffffffffffffffffffffffffff04831182151516156200018b576200018a620001d4565b5b828202905092915050565b6000620001a382620001aa565b9050919050565b600073ffffffffffffffffffffffffffffffffffffffff82169050919050565b6000819050919050565b7f4e487b7100000000000000000000000000000000000000000000000000000000600052601160045260246000fd5b600080fd5b620002138162000196565b81146200021f57600080fd5b50565b60805160601c60a05160601c61305a6200027860003960008181610c6301528181610e24015261198d01526000818161098e01528181610d2b01528181610d72015281816116f80152611b3b015261305a6000f3fe608060405234801561001057600080fd5b50600436106101005760003560e01c8063ccd34cd511610097578063f5bb23ab11610066578063f5bb23ab146102a0578063f71f71af146102d5578063f76024c4146102f3578063fe961f611461031157610100565b8063ccd34cd514610218578063cf57ee6914610236578063d0a4724714610266578063d720a5151461028457610100565b80639b147bc6116100d35780639b147bc6146101915780639fd53034146101c2578063b0797b8e146101cc578063b6b55f25146101fc57610100565b8063118b9535146101055780632e17de781461013957806345ef79af146101555780637c3a00fd14610173575b600080fd5b61011f600480360381019061011a919061239d565b61032f565b6040516101309594939291906129d3565b60405180910390f35b610153600480360381019061014e9190612437565b610365565b005b61015d610a2d565b60405161016a919061298f565b60405180910390f35b61017b610a33565b604051610188919061298f565b60405180910390f35b6101ab60048036038101906101a691906123ca565b610a39565b6040516101b99291906127ec565b60405180910390f35b6101ca610bb2565b005b6101e660048036038101906101e1919061239d565b611641565b6040516101f39190612974565b60405180910390f35b61021660048036038101906102119190612437565b61165f565b005b610220611937565b60405161022d919061298f565b60405180910390f35b610250600480360381019061024b919061239d565b61193f565b60405161025d919061298f565b60405180910390f35b61026e61198b565b60405161027b919061281c565b60405180910390f35b61029e60048036038101906102999190612464565b6119af565b005b6102ba60048036038101906102b591906123ca565b611ae0565b6040516102cc96959493929190612a26565b60405180910390f35b6102dd611b39565b6040516102ea9190612837565b60405180910390f35b6102fb611b5d565b604051610308919061298f565b60405180910390f35b610319611b63565b604051610326919061298f565b60405180910390f35b60056020528060005260406000206000915090508060000154908060010154908060020154908060030154908060040154905085565b600260005414156103ab576040517f08c379a00000000000000000000000000000000000000000000000000000000081526004016103a290612934565b60405180910390fd5b600260008190555060006103bf3383611b69565b90506000816040015114610408576040517f08c379a00000000000000000000000000000000000000000000000000000000081526004016103ff90612874565b60405180910390fd5b6000600660003373ffffffffffffffffffffffffffffffffffffffff1673ffffffffffffffffffffffffffffffffffffffff168152602001908152602001600020838154811061045b5761045a612db1565b5b906000526020600020906006020160020154116104ad576040517f08c379a00000000000000000000000000000000000000000000000000000000081526004016104a4906128d4565b60405180910390fd5b6000600660003373ffffffffffffffffffffffffffffffffffffffff1673ffffffffffffffffffffffffffffffffffffffff1681526020019081526020016000208381548110610500576104ff612db1565b5b9060005260206000209060060201600201549050600660003373ffffffffffffffffffffffffffffffffffffffff1673ffffffffffffffffffffffffffffffffffffffff168152602001908152602001600020838154811061056557610564612db1565b5b9060005260206000209060060201600201546004546105849190612be4565b600481905550600660003373ffffffffffffffffffffffffffffffffffffffff1673ffffffffffffffffffffffffffffffffffffffff16815260200190815260200160002083815481106105db576105da612db1565b5b906000526020600020906006020160020154600560003373ffffffffffffffffffffffffffffffffffffffff1673ffffffffffffffffffffffffffffffffffffffff168152602001908152602001600020600001600082825461063e9190612be4565b92505081905550600660003373ffffffffffffffffffffffffffffffffffffffff1673ffffffffffffffffffffffffffffffffffffffff168152602001908152602001600020838154811061069657610695612db1565b5b906000526020600020906006020160020154600560003373ffffffffffffffffffffffffffffffffffffffff1673ffffffffffffffffffffffffffffffffffffffff16815260200190815260200160002060010160008282546106f99190612be4565b92505081905550600660003373ffffffffffffffffffffffffffffffffffffffff1673ffffffffffffffffffffffffffffffffffffffff168152602001908152602001600020838154811061075157610750612db1565b5b9060005260206000209060060201600201546003546107709190612b03565b60038190555060008390505b6001600660003373ffffffffffffffffffffffffffffffffffffffff1673ffffffffffffffffffffffffffffffffffffffff168152602001908152602001600020805490506107cb9190612be4565b8110156108ee57600660003373ffffffffffffffffffffffffffffffffffffffff1673ffffffffffffffffffffffffffffffffffffffff16815260200190815260200160002060018261081e9190612b03565b8154811061082f5761082e612db1565b5b9060005260206000209060060201600660003373ffffffffffffffffffffffffffffffffffffffff1673ffffffffffffffffffffffffffffffffffffffff168152602001908152602001600020828154811061088e5761088d612db1565b5b906000526020600020906006020160008201548160000155600182015481600101556002820154816002015560038201548160030155600482015481600401556005820154816005015590505080806108e690612cdb565b91505061077c565b50600660003373ffffffffffffffffffffffffffffffffffffffff1673ffffffffffffffffffffffffffffffffffffffff16815260200190815260200160002080548061093e5761093d612d82565b5b600190038181906000526020600020906006020160008082016000905560018201600090556002820160009055600382016000905560048201600090556005820160009055505090556109d233827f000000000000000000000000000000000000000000000000000000000000000073ffffffffffffffffffffffffffffffffffffffff16611edd9092919063ffffffff16565b3373ffffffffffffffffffffffffffffffffffffffff167f85082129d87b2fe11527cb1b3b7a520aeb5aa6913f88a3d8757fe40d1db02fdd82604051610a18919061298f565b60405180910390a25050600160008190555050565b60035481565b60025481565b6060610a4361233d565b6000610a4f8585611b69565b90506000600367ffffffffffffffff811115610a6e57610a6d612de0565b5b604051908082528060200260200182016040528015610aa157816020015b6060815260200190600190039081610a8c5790505b5090506040518060400160405280600d81526020017f6275796261636b416d6f756e740000000000000000000000000000000000000081525081600081518110610aee57610aed612db1565b5b60200260200101819052506040518060400160405280600e81526020017f696e746572657374416d6f756e7400000000000000000000000000000000000081525081600181518110610b4357610b42612db1565b5b60200260200101819052506040518060400160405280601081526020017f72656465656d61626c65416d6f756e740000000000000000000000000000000081525081600281518110610b9857610b97612db1565b5b602002602001018190525080829350935050509250929050565b60026000541415610bf8576040517f08c379a0000000000000000000000000000000000000000000000000000000008152600401610bef90612934565b60405180910390fd5b60026000819055506000610c0b33611f63565b9050600081604001511415610c55576040517f08c379a0000000000000000000000000000000000000000000000000000000008152600401610c4c90612894565b60405180910390fd5b6000816020015114610d14577f000000000000000000000000000000000000000000000000000000000000000073ffffffffffffffffffffffffffffffffffffffff166374920d303383602001516040518363ffffffff1660e01b8152600401610cc09291906127c3565b602060405180830381600087803b158015610cda57600080fd5b505af1158015610cee573d6000803e3d6000fd5b505050506040513d601f19601f82011682018060405250810190610d12919061240a565b505b6000816000015114610d7057610d6f3382600001517f000000000000000000000000000000000000000000000000000000000000000073ffffffffffffffffffffffffffffffffffffffff16611edd9092919063ffffffff16565b5b7f000000000000000000000000000000000000000000000000000000000000000073ffffffffffffffffffffffffffffffffffffffff166371c2fc9e3383600001516040518363ffffffff1660e01b8152600401610dcf9291906127c3565b602060405180830381600087803b158015610de957600080fd5b505af1158015610dfd573d6000803e3d6000fd5b505050506040513d601f19601f82011682018060405250810190610e21919061240a565b507f000000000000000000000000000000000000000000000000000000000000000073ffffffffffffffffffffffffffffffffffffffff166371c2fc9e3383602001516040518363ffffffff1660e01b8152600401610e819291906127c3565b602060405180830381600087803b158015610e9b57600080fd5b505af1158015610eaf573d6000803e3d6000fd5b505050506040513d601f19601f82011682018060405250810190610ed3919061240a565b5060005b600660003373ffffffffffffffffffffffffffffffffffffffff1673ffffffffffffffffffffffffffffffffffffffff168152602001908152602001600020805490508110156115f257600062278d00600660003373ffffffffffffffffffffffffffffffffffffffff1673ffffffffffffffffffffffffffffffffffffffff1681526020019081526020016000208381548110610f7857610f77612db1565b5b90600052602060002090600602016000015442610f959190612be4565b610f9f9190612b59565b90506001546064610fb09190612b59565b811115610fc9576001546064610fc69190612b59565b90505b6000606482600660003373ffffffffffffffffffffffffffffffffffffffff1673ffffffffffffffffffffffffffffffffffffffff168152602001908152602001600020858154811061101f5761101e612db1565b5b90600052602060002090600602016001015460015461103e9190612b8a565b6110489190612b8a565b6110529190612b59565b90506000600660003373ffffffffffffffffffffffffffffffffffffffff1673ffffffffffffffffffffffffffffffffffffffff16815260200190815260200160002084815481106110a7576110a6612db1565b5b90600052602060002090600602016001015490506000805b8481101561119657600c6064846002546110d99190612b8a565b6110e39190612b59565b6110ed9190612b59565b826110f89190612b03565b91506064600660003373ffffffffffffffffffffffffffffffffffffffff1673ffffffffffffffffffffffffffffffffffffffff168152602001908152602001600020878154811061114d5761114c612db1565b5b90600052602060002090600602016001015460015461116c9190612b8a565b6111769190612b59565b836111819190612be4565b9250808061118e90612cdb565b9150506110bf565b506000600660003373ffffffffffffffffffffffffffffffffffffffff1673ffffffffffffffffffffffffffffffffffffffff16815260200190815260200160002086815481106111ea576111e9612db1565b5b906000526020600020906006020160050154846112079190612be4565b90506000600660003373ffffffffffffffffffffffffffffffffffffffff1673ffffffffffffffffffffffffffffffffffffffff168152602001908152602001600020878154811061125c5761125b612db1565b5b906000526020600020906006020160040154836112799190612be4565b905081600660003373ffffffffffffffffffffffffffffffffffffffff1673ffffffffffffffffffffffffffffffffffffffff16815260200190815260200160002088815481106112cd576112cc612db1565b5b906000526020600020906006020160020160008282546112ed9190612be4565b9250508190555081600560003373ffffffffffffffffffffffffffffffffffffffff1673ffffffffffffffffffffffffffffffffffffffff16815260200190815260200160002060010160008282546113469190612be4565b9250508190555080600660003373ffffffffffffffffffffffffffffffffffffffff1673ffffffffffffffffffffffffffffffffffffffff168152602001908152602001600020888154811061139f5761139e612db1565b5b906000526020600020906006020160040160008282546113bf9190612b03565b9250508190555080600560003373ffffffffffffffffffffffffffffffffffffffff1673ffffffffffffffffffffffffffffffffffffffff16815260200190815260200160002060040160008282546114189190612b03565b9250508190555081600660003373ffffffffffffffffffffffffffffffffffffffff1673ffffffffffffffffffffffffffffffffffffffff168152602001908152602001600020888154811061147157611470612db1565b5b906000526020600020906006020160050160008282546114919190612b03565b9250508190555081600560003373ffffffffffffffffffffffffffffffffffffffff1673ffffffffffffffffffffffffffffffffffffffff16815260200190815260200160002060030160008282546114ea9190612b03565b9250508190555080826114fd9190612b03565b600660003373ffffffffffffffffffffffffffffffffffffffff1673ffffffffffffffffffffffffffffffffffffffff168152602001908152602001600020888154811061154e5761154d612db1565b5b9060005260206000209060060201600301600082825461156e9190612b03565b9250508190555080826115819190612b03565b600560003373ffffffffffffffffffffffffffffffffffffffff1673ffffffffffffffffffffffffffffffffffffffff16815260200190815260200160002060020160008282546115d29190612b03565b9250508190555050505050505080806115ea90612cdb565b915050610ed7565b503373ffffffffffffffffffffffffffffffffffffffff167fd2c2928212b87e3b9cb2cf37231739682c8bec99936d3798e7386ca23ea133a360405160405180910390a2506001600081905550565b61164961233d565b600061165483611f63565b905080915050919050565b600260005414156116a5576040517f08c379a000000000000000000000000000000000000000000000000000000000815260040161169c90612934565b60405180910390fd5b6002600081905550600081116116f0576040517f08c379a00000000000000000000000000000000000000000000000000000000081526004016116e790612954565b60405180910390fd5b61173d3330837f000000000000000000000000000000000000000000000000000000000000000073ffffffffffffffffffffffffffffffffffffffff16612037909392919063ffffffff16565b80600560003373ffffffffffffffffffffffffffffffffffffffff1673ffffffffffffffffffffffffffffffffffffffff168152602001908152602001600020600001600082825461178f9190612b03565b9250508190555080600560003373ffffffffffffffffffffffffffffffffffffffff1673ffffffffffffffffffffffffffffffffffffffff16815260200190815260200160002060010160008282546117e89190612b03565b92505081905550600660003373ffffffffffffffffffffffffffffffffffffffff1673ffffffffffffffffffffffffffffffffffffffff1681526020019081526020016000206040518060c00160405280428152602001838152602001838152602001600081526020016000815260200160008152509080600181540180825580915050600190039060005260206000209060060201600090919091909150600082015181600001556020820151816001015560408201518160020155606082015181600301556080820151816004015560a08201518160050155505080600460008282546118d79190612b03565b925050819055503373ffffffffffffffffffffffffffffffffffffffff167fe1fffcc4923d04b559f4d29a8bfc6cda04eb5b0d3c460751c2402c5c5cc9109c82604051611924919061298f565b60405180910390a2600160008190555050565b6305f5e10081565b6000600660008373ffffffffffffffffffffffffffffffffffffffff1673ffffffffffffffffffffffffffffffffffffffff168152602001908152602001600020805490509050919050565b7f000000000000000000000000000000000000000000000000000000000000000081565b600260005414156119f5576040517f08c379a00000000000000000000000000000000000000000000000000000000081526004016119ec90612934565b60405180910390fd5b60026000819055508162015180611a0c9190612b8a565b600660003373ffffffffffffffffffffffffffffffffffffffff1673ffffffffffffffffffffffffffffffffffffffff1681526020019081526020016000208281548110611a5d57611a5c612db1565b5b90600052602060002090600602016000016000828254611a7d9190612be4565b925050819055503373ffffffffffffffffffffffffffffffffffffffff167f6dc049a7e6a75ca211ecf0c13acc2e9556629b677527cfbe710f1fdb5c330af58383604051611acc9291906129aa565b60405180910390a260016000819055505050565b60066020528160005260406000208181548110611afc57600080fd5b9060005260206000209060060201600091509150508060000154908060010154908060020154908060030154908060040154908060050154905086565b7f000000000000000000000000000000000000000000000000000000000000000081565b60015481565b60045481565b611b7161233d565b600062278d00600660008673ffffffffffffffffffffffffffffffffffffffff1673ffffffffffffffffffffffffffffffffffffffff1681526020019081526020016000208481548110611bc857611bc7612db1565b5b90600052602060002090600602016000015442611be59190612be4565b611bef9190612b59565b90506000606482600660008873ffffffffffffffffffffffffffffffffffffffff1673ffffffffffffffffffffffffffffffffffffffff1681526020019081526020016000208681548110611c4757611c46612db1565b5b906000526020600020906006020160010154600154611c669190612b8a565b611c709190612b8a565b611c7a9190612b59565b90506000600660008773ffffffffffffffffffffffffffffffffffffffff1673ffffffffffffffffffffffffffffffffffffffff1681526020019081526020016000208581548110611ccf57611cce612db1565b5b90600052602060002090600602016001015490506000805b84811015611dbe57600c606484600254611d019190612b8a565b611d0b9190612b59565b611d159190612b59565b82611d209190612b03565b91506064600660008a73ffffffffffffffffffffffffffffffffffffffff1673ffffffffffffffffffffffffffffffffffffffff1681526020019081526020016000208881548110611d7557611d74612db1565b5b906000526020600020906006020160010154600154611d949190612b8a565b611d9e9190612b59565b83611da99190612be4565b92508080611db690612cdb565b915050611ce7565b506000600660008973ffffffffffffffffffffffffffffffffffffffff1673ffffffffffffffffffffffffffffffffffffffff1681526020019081526020016000208781548110611e1257611e11612db1565b5b90600052602060002090600602016005015484611e2f9190612be4565b90506000600660008a73ffffffffffffffffffffffffffffffffffffffff1673ffffffffffffffffffffffffffffffffffffffff1681526020019081526020016000208881548110611e8457611e83612db1565b5b90600052602060002090600602016004015483611ea19190612be4565b9050600060405180606001604052808481526020018381526020018385611ec89190612b03565b81525090508097505050505050505092915050565b611f5e8363a9059cbb60e01b8484604051602401611efc9291906127c3565b604051602081830303815290604052907bffffffffffffffffffffffffffffffffffffffffffffffffffffffff19166020820180517bffffffffffffffffffffffffffffffffffffffffffffffffffffffff83818316178352505050506120c0565b505050565b611f6b61233d565b60008060005b600660008673ffffffffffffffffffffffffffffffffffffffff1673ffffffffffffffffffffffffffffffffffffffff16815260200190815260200160002080549050811015612001576000611fc78683611b69565b9050806000015184611fd99190612b03565b9350806020015183611feb9190612b03565b9250508080611ff990612cdb565b915050611f71565b506000604051806060016040528084815260200183815260200183856120279190612b03565b8152509050809350505050919050565b6120ba846323b872dd60e01b8585856040516024016120589392919061278c565b604051602081830303815290604052907bffffffffffffffffffffffffffffffffffffffffffffffffffffffff19166020820180517bffffffffffffffffffffffffffffffffffffffffffffffffffffffff83818316178352505050506120c0565b50505050565b6000612122826040518060400160405280602081526020017f5361666545524332303a206c6f772d6c6576656c2063616c6c206661696c65648152508573ffffffffffffffffffffffffffffffffffffffff166121879092919063ffffffff16565b90506000815111156121825780806020019051810190612142919061240a565b612181576040517f08c379a000000000000000000000000000000000000000000000000000000000815260040161217890612914565b60405180910390fd5b5b505050565b6060612196848460008561219f565b90509392505050565b6060824710156121e4576040517f08c379a00000000000000000000000000000000000000000000000000000000081526004016121db906128b4565b60405180910390fd5b6121ed856122b3565b61222c576040517f08c379a0000000000000000000000000000000000000000000000000000000008152600401612223906128f4565b60405180910390fd5b6000808673ffffffffffffffffffffffffffffffffffffffff1685876040516122559190612775565b60006040518083038185875af1925050503d8060008114612292576040519150601f19603f3d011682016040523d82523d6000602084013e612297565b606091505b50915091506122a78282866122d6565b92505050949350505050565b6000808273ffffffffffffffffffffffffffffffffffffffff163b119050919050565b606083156122e657829050612336565b6000835111156122f95782518084602001fd5b816040517f08c379a000000000000000000000000000000000000000000000000000000000815260040161232d9190612852565b60405180910390fd5b9392505050565b60405180606001604052806000815260200160008152602001600081525090565b60008135905061236d81612fdf565b92915050565b60008151905061238281612ff6565b92915050565b6000813590506123978161300d565b92915050565b6000602082840312156123b3576123b2612e0f565b5b60006123c18482850161235e565b91505092915050565b600080604083850312156123e1576123e0612e0f565b5b60006123ef8582860161235e565b925050602061240085828601612388565b9150509250929050565b6000602082840312156124205761241f612e0f565b5b600061242e84828501612373565b91505092915050565b60006020828403121561244d5761244c612e0f565b5b600061245b84828501612388565b91505092915050565b6000806040838503121561247b5761247a612e0f565b5b600061248985828601612388565b925050602061249a85828601612388565b9150509250929050565b60006124b0838361258b565b905092915050565b6124c181612c18565b82525050565b60006124d282612a97565b6124dc8185612ac5565b9350836020820285016124ee85612a87565b8060005b8581101561252a578484038952815161250b85826124a4565b945061251683612ab8565b925060208a019950506001810190506124f2565b50829750879550505050505092915050565b600061254782612aa2565b6125518185612ad6565b9350612561818560208601612ca8565b80840191505092915050565b61257681612c60565b82525050565b61258581612c72565b82525050565b600061259682612aad565b6125a08185612ae1565b93506125b0818560208601612ca8565b6125b981612e14565b840191505092915050565b60006125cf82612aad565b6125d98185612af2565b93506125e9818560208601612ca8565b6125f281612e14565b840191505092915050565b600061260a602183612af2565b915061261582612e25565b604082019050919050565b600061262d601b83612af2565b915061263882612e74565b602082019050919050565b6000612650602683612af2565b915061265b82612e9d565b604082019050919050565b6000612673601c83612af2565b915061267e82612eec565b602082019050919050565b6000612696601d83612af2565b91506126a182612f15565b602082019050919050565b60006126b9602a83612af2565b91506126c482612f3e565b604082019050919050565b60006126dc601f83612af2565b91506126e782612f8d565b602082019050919050565b60006126ff601b83612af2565b915061270a82612fb6565b602082019050919050565b60608201600082015161272b6000850182612757565b50602082015161273e6020850182612757565b5060408201516127516040850182612757565b50505050565b61276081612c56565b82525050565b61276f81612c56565b82525050565b6000612781828461253c565b915081905092915050565b60006060820190506127a160008301866124b8565b6127ae60208301856124b8565b6127bb6040830184612766565b949350505050565b60006040820190506127d860008301856124b8565b6127e56020830184612766565b9392505050565b6000608082019050818103600083015261280681856124c7565b90506128156020830184612715565b9392505050565b6000602082019050612831600083018461256d565b92915050565b600060208201905061284c600083018461257c565b92915050565b6000602082019050818103600083015261286c81846125c4565b905092915050565b6000602082019050818103600083015261288d816125fd565b9050919050565b600060208201905081810360008301526128ad81612620565b9050919050565b600060208201905081810360008301526128cd81612643565b9050919050565b600060208201905081810360008301526128ed81612666565b9050919050565b6000602082019050818103600083015261290d81612689565b9050919050565b6000602082019050818103600083015261292d816126ac565b9050919050565b6000602082019050818103600083015261294d816126cf565b9050919050565b6000602082019050818103600083015261296d816126f2565b9050919050565b60006060820190506129896000830184612715565b92915050565b60006020820190506129a46000830184612766565b92915050565b60006040820190506129bf6000830185612766565b6129cc6020830184612766565b9392505050565b600060a0820190506129e86000830188612766565b6129f56020830187612766565b612a026040830186612766565b612a0f6060830185612766565b612a1c6080830184612766565b9695505050505050565b600060c082019050612a3b6000830189612766565b612a486020830188612766565b612a556040830187612766565b612a626060830186612766565b612a6f6080830185612766565b612a7c60a0830184612766565b979650505050505050565b6000819050602082019050919050565b600081519050919050565b600081519050919050565b600081519050919050565b6000602082019050919050565b600082825260208201905092915050565b600081905092915050565b600082825260208201905092915050565b600082825260208201905092915050565b6000612b0e82612c56565b9150612b1983612c56565b9250827fffffffffffffffffffffffffffffffffffffffffffffffffffffffffffffffff03821115612b4e57612b4d612d24565b5b828201905092915050565b6000612b6482612c56565b9150612b6f83612c56565b925082612b7f57612b7e612d53565b5b828204905092915050565b6000612b9582612c56565b9150612ba083612c56565b9250817fffffffffffffffffffffffffffffffffffffffffffffffffffffffffffffffff0483118215151615612bd957612bd8612d24565b5b828202905092915050565b6000612bef82612c56565b9150612bfa83612c56565b925082821015612c0d57612c0c612d24565b5b828203905092915050565b6000612c2382612c36565b9050919050565b60008115159050919050565b600073ffffffffffffffffffffffffffffffffffffffff82169050919050565b6000819050919050565b6000612c6b82612c84565b9050919050565b6000612c7d82612c84565b9050919050565b6000612c8f82612c96565b9050919050565b6000612ca182612c36565b9050919050565b60005b83811015612cc6578082015181840152602081019050612cab565b83811115612cd5576000848401525b50505050565b6000612ce682612c56565b91507fffffffffffffffffffffffffffffffffffffffffffffffffffffffffffffffff821415612d1957612d18612d24565b5b600182019050919050565b7f4e487b7100000000000000000000000000000000000000000000000000000000600052601160045260246000fd5b7f4e487b7100000000000000000000000000000000000000000000000000000000600052601260045260246000fd5b7f4e487b7100000000000000000000000000000000000000000000000000000000600052603160045260246000fd5b7f4e487b7100000000000000000000000000000000000000000000000000000000600052603260045260246000fd5b7f4e487b7100000000000000000000000000000000000000000000000000000000600052604160045260246000fd5b600080fd5b6000601f19601f8301169050919050565b7f556e7374616b653a2052656465656d61626c6520746f6b656e20756e636c616960008201527f6d00000000000000000000000000000000000000000000000000000000000000602082015250565b7f496e7465726573743a204e6f7468696e6720746f2072656465656d0000000000600082015250565b7f416464726573733a20696e73756666696369656e742062616c616e636520666f60008201527f722063616c6c0000000000000000000000000000000000000000000000000000602082015250565b7f57697468647261773a20416d6f756e74206d757374206265203e203000000000600082015250565b7f416464726573733a2063616c6c20746f206e6f6e2d636f6e7472616374000000600082015250565b7f5361666545524332303a204552433230206f7065726174696f6e20646964206e60008201527f6f74207375636365656400000000000000000000000000000000000000000000602082015250565b7f5265656e7472616e637947756172643a207265656e7472616e742063616c6c00600082015250565b7f4465706f7369743a20416d6f756e74206d757374206265203e20300000000000600082015250565b612fe881612c18565b8114612ff357600080fd5b50565b612fff81612c2a565b811461300a57600080fd5b50565b61301681612c56565b811461302157600080fd5b5056fea26469706673582212201e07c1c1bcf335802b4b1220b6dd6ec1a65bc03a186c55afd69dbe1fdc85f53264736f6c63430008070033",
			"opcodes": "PUSH1 0xC0 PUSH1 0x40 MSTORE PUSH1 0x2 PUSH1 0x1 SSTORE PUSH1 0x9 PUSH1 0x2 SSTORE PUSH4 0x5F5E100 PUSH3 0x4C4B40 PUSH3 0x23 SWAP2 SWAP1 PUSH3 0x135 JUMP JUMPDEST PUSH1 0x3 SSTORE CALLVALUE DUP1 ISZERO PUSH3 0x33 JUMPI PUSH1 0x0 DUP1 REVERT JUMPDEST POP PUSH1 0x40 MLOAD PUSH3 0x32D2 CODESIZE SUB DUP1 PUSH3 0x32D2 DUP4 CODECOPY DUP2 DUP2 ADD PUSH1 0x40 MSTORE DUP2 ADD SWAP1 PUSH3 0x59 SWAP2 SWAP1 PUSH3 0xEE JUMP JUMPDEST PUSH1 0x1 PUSH1 0x0 DUP2 SWAP1 SSTORE POP DUP2 PUSH20 0xFFFFFFFFFFFFFFFFFFFFFFFFFFFFFFFFFFFFFFFF AND PUSH1 0x80 DUP2 PUSH20 0xFFFFFFFFFFFFFFFFFFFFFFFFFFFFFFFFFFFFFFFF AND PUSH1 0x60 SHL DUP2 MSTORE POP POP DUP1 PUSH20 0xFFFFFFFFFFFFFFFFFFFFFFFFFFFFFFFFFFFFFFFF AND PUSH1 0xA0 DUP2 PUSH20 0xFFFFFFFFFFFFFFFFFFFFFFFFFFFFFFFFFFFFFFFF AND PUSH1 0x60 SHL DUP2 MSTORE POP POP POP POP PUSH3 0x222 JUMP JUMPDEST PUSH1 0x0 DUP2 MLOAD SWAP1 POP PUSH3 0xE8 DUP2 PUSH3 0x208 JUMP JUMPDEST SWAP3 SWAP2 POP POP JUMP JUMPDEST PUSH1 0x0 DUP1 PUSH1 0x40 DUP4 DUP6 SUB SLT ISZERO PUSH3 0x108 JUMPI PUSH3 0x107 PUSH3 0x203 JUMP JUMPDEST JUMPDEST PUSH1 0x0 PUSH3 0x118 DUP6 DUP3 DUP7 ADD PUSH3 0xD7 JUMP JUMPDEST SWAP3 POP POP PUSH1 0x20 PUSH3 0x12B DUP6 DUP3 DUP7 ADD PUSH3 0xD7 JUMP JUMPDEST SWAP2 POP POP SWAP3 POP SWAP3 SWAP1 POP JUMP JUMPDEST PUSH1 0x0 PUSH3 0x142 DUP3 PUSH3 0x1CA JUMP JUMPDEST SWAP2 POP PUSH3 0x14F DUP4 PUSH3 0x1CA JUMP JUMPDEST SWAP3 POP DUP2 PUSH32 0xFFFFFFFFFFFFFFFFFFFFFFFFFFFFFFFFFFFFFFFFFFFFFFFFFFFFFFFFFFFFFFFF DIV DUP4 GT DUP3 ISZERO ISZERO AND ISZERO PUSH3 0x18B JUMPI PUSH3 0x18A PUSH3 0x1D4 JUMP JUMPDEST JUMPDEST DUP3 DUP3 MUL SWAP1 POP SWAP3 SWAP2 POP POP JUMP JUMPDEST PUSH1 0x0 PUSH3 0x1A3 DUP3 PUSH3 0x1AA JUMP JUMPDEST SWAP1 POP SWAP2 SWAP1 POP JUMP JUMPDEST PUSH1 0x0 PUSH20 0xFFFFFFFFFFFFFFFFFFFFFFFFFFFFFFFFFFFFFFFF DUP3 AND SWAP1 POP SWAP2 SWAP1 POP JUMP JUMPDEST PUSH1 0x0 DUP2 SWAP1 POP SWAP2 SWAP1 POP JUMP JUMPDEST PUSH32 0x4E487B7100000000000000000000000000000000000000000000000000000000 PUSH1 0x0 MSTORE PUSH1 0x11 PUSH1 0x4 MSTORE PUSH1 0x24 PUSH1 0x0 REVERT JUMPDEST PUSH1 0x0 DUP1 REVERT JUMPDEST PUSH3 0x213 DUP2 PUSH3 0x196 JUMP JUMPDEST DUP2 EQ PUSH3 0x21F JUMPI PUSH1 0x0 DUP1 REVERT JUMPDEST POP JUMP JUMPDEST PUSH1 0x80 MLOAD PUSH1 0x60 SHR PUSH1 0xA0 MLOAD PUSH1 0x60 SHR PUSH2 0x305A PUSH3 0x278 PUSH1 0x0 CODECOPY PUSH1 0x0 DUP2 DUP2 PUSH2 0xC63 ADD MSTORE DUP2 DUP2 PUSH2 0xE24 ADD MSTORE PUSH2 0x198D ADD MSTORE PUSH1 0x0 DUP2 DUP2 PUSH2 0x98E ADD MSTORE DUP2 DUP2 PUSH2 0xD2B ADD MSTORE DUP2 DUP2 PUSH2 0xD72 ADD MSTORE DUP2 DUP2 PUSH2 0x16F8 ADD MSTORE PUSH2 0x1B3B ADD MSTORE PUSH2 0x305A PUSH1 0x0 RETURN INVALID PUSH1 0x80 PUSH1 0x40 MSTORE CALLVALUE DUP1 ISZERO PUSH2 0x10 JUMPI PUSH1 0x0 DUP1 REVERT JUMPDEST POP PUSH1 0x4 CALLDATASIZE LT PUSH2 0x100 JUMPI PUSH1 0x0 CALLDATALOAD PUSH1 0xE0 SHR DUP1 PUSH4 0xCCD34CD5 GT PUSH2 0x97 JUMPI DUP1 PUSH4 0xF5BB23AB GT PUSH2 0x66 JUMPI DUP1 PUSH4 0xF5BB23AB EQ PUSH2 0x2A0 JUMPI DUP1 PUSH4 0xF71F71AF EQ PUSH2 0x2D5 JUMPI DUP1 PUSH4 0xF76024C4 EQ PUSH2 0x2F3 JUMPI DUP1 PUSH4 0xFE961F61 EQ PUSH2 0x311 JUMPI PUSH2 0x100 JUMP JUMPDEST DUP1 PUSH4 0xCCD34CD5 EQ PUSH2 0x218 JUMPI DUP1 PUSH4 0xCF57EE69 EQ PUSH2 0x236 JUMPI DUP1 PUSH4 0xD0A47247 EQ PUSH2 0x266 JUMPI DUP1 PUSH4 0xD720A515 EQ PUSH2 0x284 JUMPI PUSH2 0x100 JUMP JUMPDEST DUP1 PUSH4 0x9B147BC6 GT PUSH2 0xD3 JUMPI DUP1 PUSH4 0x9B147BC6 EQ PUSH2 0x191 JUMPI DUP1 PUSH4 0x9FD53034 EQ PUSH2 0x1C2 JUMPI DUP1 PUSH4 0xB0797B8E EQ PUSH2 0x1CC JUMPI DUP1 PUSH4 0xB6B55F25 EQ PUSH2 0x1FC JUMPI PUSH2 0x100 JUMP JUMPDEST DUP1 PUSH4 0x118B9535 EQ PUSH2 0x105 JUMPI DUP1 PUSH4 0x2E17DE78 EQ PUSH2 0x139 JUMPI DUP1 PUSH4 0x45EF79AF EQ PUSH2 0x155 JUMPI DUP1 PUSH4 0x7C3A00FD EQ PUSH2 0x173 JUMPI JUMPDEST PUSH1 0x0 DUP1 REVERT JUMPDEST PUSH2 0x11F PUSH1 0x4 DUP1 CALLDATASIZE SUB DUP2 ADD SWAP1 PUSH2 0x11A SWAP2 SWAP1 PUSH2 0x239D JUMP JUMPDEST PUSH2 0x32F JUMP JUMPDEST PUSH1 0x40 MLOAD PUSH2 0x130 SWAP6 SWAP5 SWAP4 SWAP3 SWAP2 SWAP1 PUSH2 0x29D3 JUMP JUMPDEST PUSH1 0x40 MLOAD DUP1 SWAP2 SUB SWAP1 RETURN JUMPDEST PUSH2 0x153 PUSH1 0x4 DUP1 CALLDATASIZE SUB DUP2 ADD SWAP1 PUSH2 0x14E SWAP2 SWAP1 PUSH2 0x2437 JUMP JUMPDEST PUSH2 0x365 JUMP JUMPDEST STOP JUMPDEST PUSH2 0x15D PUSH2 0xA2D JUMP JUMPDEST PUSH1 0x40 MLOAD PUSH2 0x16A SWAP2 SWAP1 PUSH2 0x298F JUMP JUMPDEST PUSH1 0x40 MLOAD DUP1 SWAP2 SUB SWAP1 RETURN JUMPDEST PUSH2 0x17B PUSH2 0xA33 JUMP JUMPDEST PUSH1 0x40 MLOAD PUSH2 0x188 SWAP2 SWAP1 PUSH2 0x298F JUMP JUMPDEST PUSH1 0x40 MLOAD DUP1 SWAP2 SUB SWAP1 RETURN JUMPDEST PUSH2 0x1AB PUSH1 0x4 DUP1 CALLDATASIZE SUB DUP2 ADD SWAP1 PUSH2 0x1A6 SWAP2 SWAP1 PUSH2 0x23CA JUMP JUMPDEST PUSH2 0xA39 JUMP JUMPDEST PUSH1 0x40 MLOAD PUSH2 0x1B9 SWAP3 SWAP2 SWAP1 PUSH2 0x27EC JUMP JUMPDEST PUSH1 0x40 MLOAD DUP1 SWAP2 SUB SWAP1 RETURN JUMPDEST PUSH2 0x1CA PUSH2 0xBB2 JUMP JUMPDEST STOP JUMPDEST PUSH2 0x1E6 PUSH1 0x4 DUP1 CALLDATASIZE SUB DUP2 ADD SWAP1 PUSH2 0x1E1 SWAP2 SWAP1 PUSH2 0x239D JUMP JUMPDEST PUSH2 0x1641 JUMP JUMPDEST PUSH1 0x40 MLOAD PUSH2 0x1F3 SWAP2 SWAP1 PUSH2 0x2974 JUMP JUMPDEST PUSH1 0x40 MLOAD DUP1 SWAP2 SUB SWAP1 RETURN JUMPDEST PUSH2 0x216 PUSH1 0x4 DUP1 CALLDATASIZE SUB DUP2 ADD SWAP1 PUSH2 0x211 SWAP2 SWAP1 PUSH2 0x2437 JUMP JUMPDEST PUSH2 0x165F JUMP JUMPDEST STOP JUMPDEST PUSH2 0x220 PUSH2 0x1937 JUMP JUMPDEST PUSH1 0x40 MLOAD PUSH2 0x22D SWAP2 SWAP1 PUSH2 0x298F JUMP JUMPDEST PUSH1 0x40 MLOAD DUP1 SWAP2 SUB SWAP1 RETURN JUMPDEST PUSH2 0x250 PUSH1 0x4 DUP1 CALLDATASIZE SUB DUP2 ADD SWAP1 PUSH2 0x24B SWAP2 SWAP1 PUSH2 0x239D JUMP JUMPDEST PUSH2 0x193F JUMP JUMPDEST PUSH1 0x40 MLOAD PUSH2 0x25D SWAP2 SWAP1 PUSH2 0x298F JUMP JUMPDEST PUSH1 0x40 MLOAD DUP1 SWAP2 SUB SWAP1 RETURN JUMPDEST PUSH2 0x26E PUSH2 0x198B JUMP JUMPDEST PUSH1 0x40 MLOAD PUSH2 0x27B SWAP2 SWAP1 PUSH2 0x281C JUMP JUMPDEST PUSH1 0x40 MLOAD DUP1 SWAP2 SUB SWAP1 RETURN JUMPDEST PUSH2 0x29E PUSH1 0x4 DUP1 CALLDATASIZE SUB DUP2 ADD SWAP1 PUSH2 0x299 SWAP2 SWAP1 PUSH2 0x2464 JUMP JUMPDEST PUSH2 0x19AF JUMP JUMPDEST STOP JUMPDEST PUSH2 0x2BA PUSH1 0x4 DUP1 CALLDATASIZE SUB DUP2 ADD SWAP1 PUSH2 0x2B5 SWAP2 SWAP1 PUSH2 0x23CA JUMP JUMPDEST PUSH2 0x1AE0 JUMP JUMPDEST PUSH1 0x40 MLOAD PUSH2 0x2CC SWAP7 SWAP6 SWAP5 SWAP4 SWAP3 SWAP2 SWAP1 PUSH2 0x2A26 JUMP JUMPDEST PUSH1 0x40 MLOAD DUP1 SWAP2 SUB SWAP1 RETURN JUMPDEST PUSH2 0x2DD PUSH2 0x1B39 JUMP JUMPDEST PUSH1 0x40 MLOAD PUSH2 0x2EA SWAP2 SWAP1 PUSH2 0x2837 JUMP JUMPDEST PUSH1 0x40 MLOAD DUP1 SWAP2 SUB SWAP1 RETURN JUMPDEST PUSH2 0x2FB PUSH2 0x1B5D JUMP JUMPDEST PUSH1 0x40 MLOAD PUSH2 0x308 SWAP2 SWAP1 PUSH2 0x298F JUMP JUMPDEST PUSH1 0x40 MLOAD DUP1 SWAP2 SUB SWAP1 RETURN JUMPDEST PUSH2 0x319 PUSH2 0x1B63 JUMP JUMPDEST PUSH1 0x40 MLOAD PUSH2 0x326 SWAP2 SWAP1 PUSH2 0x298F JUMP JUMPDEST PUSH1 0x40 MLOAD DUP1 SWAP2 SUB SWAP1 RETURN JUMPDEST PUSH1 0x5 PUSH1 0x20 MSTORE DUP1 PUSH1 0x0 MSTORE PUSH1 0x40 PUSH1 0x0 KECCAK256 PUSH1 0x0 SWAP2 POP SWAP1 POP DUP1 PUSH1 0x0 ADD SLOAD SWAP1 DUP1 PUSH1 0x1 ADD SLOAD SWAP1 DUP1 PUSH1 0x2 ADD SLOAD SWAP1 DUP1 PUSH1 0x3 ADD SLOAD SWAP1 DUP1 PUSH1 0x4 ADD SLOAD SWAP1 POP DUP6 JUMP JUMPDEST PUSH1 0x2 PUSH1 0x0 SLOAD EQ ISZERO PUSH2 0x3AB JUMPI PUSH1 0x40 MLOAD PUSH32 0x8C379A000000000000000000000000000000000000000000000000000000000 DUP2 MSTORE PUSH1 0x4 ADD PUSH2 0x3A2 SWAP1 PUSH2 0x2934 JUMP JUMPDEST PUSH1 0x40 MLOAD DUP1 SWAP2 SUB SWAP1 REVERT JUMPDEST PUSH1 0x2 PUSH1 0x0 DUP2 SWAP1 SSTORE POP PUSH1 0x0 PUSH2 0x3BF CALLER DUP4 PUSH2 0x1B69 JUMP JUMPDEST SWAP1 POP PUSH1 0x0 DUP2 PUSH1 0x40 ADD MLOAD EQ PUSH2 0x408 JUMPI PUSH1 0x40 MLOAD PUSH32 0x8C379A000000000000000000000000000000000000000000000000000000000 DUP2 MSTORE PUSH1 0x4 ADD PUSH2 0x3FF SWAP1 PUSH2 0x2874 JUMP JUMPDEST PUSH1 0x40 MLOAD DUP1 SWAP2 SUB SWAP1 REVERT JUMPDEST PUSH1 0x0 PUSH1 0x6 PUSH1 0x0 CALLER PUSH20 0xFFFFFFFFFFFFFFFFFFFFFFFFFFFFFFFFFFFFFFFF AND PUSH20 0xFFFFFFFFFFFFFFFFFFFFFFFFFFFFFFFFFFFFFFFF AND DUP2 MSTORE PUSH1 0x20 ADD SWAP1 DUP2 MSTORE PUSH1 0x20 ADD PUSH1 0x0 KECCAK256 DUP4 DUP2 SLOAD DUP2 LT PUSH2 0x45B JUMPI PUSH2 0x45A PUSH2 0x2DB1 JUMP JUMPDEST JUMPDEST SWAP1 PUSH1 0x0 MSTORE PUSH1 0x20 PUSH1 0x0 KECCAK256 SWAP1 PUSH1 0x6 MUL ADD PUSH1 0x2 ADD SLOAD GT PUSH2 0x4AD JUMPI PUSH1 0x40 MLOAD PUSH32 0x8C379A000000000000000000000000000000000000000000000000000000000 DUP2 MSTORE PUSH1 0x4 ADD PUSH2 0x4A4 SWAP1 PUSH2 0x28D4 JUMP JUMPDEST PUSH1 0x40 MLOAD DUP1 SWAP2 SUB SWAP1 REVERT JUMPDEST PUSH1 0x0 PUSH1 0x6 PUSH1 0x0 CALLER PUSH20 0xFFFFFFFFFFFFFFFFFFFFFFFFFFFFFFFFFFFFFFFF AND PUSH20 0xFFFFFFFFFFFFFFFFFFFFFFFFFFFFFFFFFFFFFFFF AND DUP2 MSTORE PUSH1 0x20 ADD SWAP1 DUP2 MSTORE PUSH1 0x20 ADD PUSH1 0x0 KECCAK256 DUP4 DUP2 SLOAD DUP2 LT PUSH2 0x500 JUMPI PUSH2 0x4FF PUSH2 0x2DB1 JUMP JUMPDEST JUMPDEST SWAP1 PUSH1 0x0 MSTORE PUSH1 0x20 PUSH1 0x0 KECCAK256 SWAP1 PUSH1 0x6 MUL ADD PUSH1 0x2 ADD SLOAD SWAP1 POP PUSH1 0x6 PUSH1 0x0 CALLER PUSH20 0xFFFFFFFFFFFFFFFFFFFFFFFFFFFFFFFFFFFFFFFF AND PUSH20 0xFFFFFFFFFFFFFFFFFFFFFFFFFFFFFFFFFFFFFFFF AND DUP2 MSTORE PUSH1 0x20 ADD SWAP1 DUP2 MSTORE PUSH1 0x20 ADD PUSH1 0x0 KECCAK256 DUP4 DUP2 SLOAD DUP2 LT PUSH2 0x565 JUMPI PUSH2 0x564 PUSH2 0x2DB1 JUMP JUMPDEST JUMPDEST SWAP1 PUSH1 0x0 MSTORE PUSH1 0x20 PUSH1 0x0 KECCAK256 SWAP1 PUSH1 0x6 MUL ADD PUSH1 0x2 ADD SLOAD PUSH1 0x4 SLOAD PUSH2 0x584 SWAP2 SWAP1 PUSH2 0x2BE4 JUMP JUMPDEST PUSH1 0x4 DUP2 SWAP1 SSTORE POP PUSH1 0x6 PUSH1 0x0 CALLER PUSH20 0xFFFFFFFFFFFFFFFFFFFFFFFFFFFFFFFFFFFFFFFF AND PUSH20 0xFFFFFFFFFFFFFFFFFFFFFFFFFFFFFFFFFFFFFFFF AND DUP2 MSTORE PUSH1 0x20 ADD SWAP1 DUP2 MSTORE PUSH1 0x20 ADD PUSH1 0x0 KECCAK256 DUP4 DUP2 SLOAD DUP2 LT PUSH2 0x5DB JUMPI PUSH2 0x5DA PUSH2 0x2DB1 JUMP JUMPDEST JUMPDEST SWAP1 PUSH1 0x0 MSTORE PUSH1 0x20 PUSH1 0x0 KECCAK256 SWAP1 PUSH1 0x6 MUL ADD PUSH1 0x2 ADD SLOAD PUSH1 0x5 PUSH1 0x0 CALLER PUSH20 0xFFFFFFFFFFFFFFFFFFFFFFFFFFFFFFFFFFFFFFFF AND PUSH20 0xFFFFFFFFFFFFFFFFFFFFFFFFFFFFFFFFFFFFFFFF AND DUP2 MSTORE PUSH1 0x20 ADD SWAP1 DUP2 MSTORE PUSH1 0x20 ADD PUSH1 0x0 KECCAK256 PUSH1 0x0 ADD PUSH1 0x0 DUP3 DUP3 SLOAD PUSH2 0x63E SWAP2 SWAP1 PUSH2 0x2BE4 JUMP JUMPDEST SWAP3 POP POP DUP2 SWAP1 SSTORE POP PUSH1 0x6 PUSH1 0x0 CALLER PUSH20 0xFFFFFFFFFFFFFFFFFFFFFFFFFFFFFFFFFFFFFFFF AND PUSH20 0xFFFFFFFFFFFFFFFFFFFFFFFFFFFFFFFFFFFFFFFF AND DUP2 MSTORE PUSH1 0x20 ADD SWAP1 DUP2 MSTORE PUSH1 0x20 ADD PUSH1 0x0 KECCAK256 DUP4 DUP2 SLOAD DUP2 LT PUSH2 0x696 JUMPI PUSH2 0x695 PUSH2 0x2DB1 JUMP JUMPDEST JUMPDEST SWAP1 PUSH1 0x0 MSTORE PUSH1 0x20 PUSH1 0x0 KECCAK256 SWAP1 PUSH1 0x6 MUL ADD PUSH1 0x2 ADD SLOAD PUSH1 0x5 PUSH1 0x0 CALLER PUSH20 0xFFFFFFFFFFFFFFFFFFFFFFFFFFFFFFFFFFFFFFFF AND PUSH20 0xFFFFFFFFFFFFFFFFFFFFFFFFFFFFFFFFFFFFFFFF AND DUP2 MSTORE PUSH1 0x20 ADD SWAP1 DUP2 MSTORE PUSH1 0x20 ADD PUSH1 0x0 KECCAK256 PUSH1 0x1 ADD PUSH1 0x0 DUP3 DUP3 SLOAD PUSH2 0x6F9 SWAP2 SWAP1 PUSH2 0x2BE4 JUMP JUMPDEST SWAP3 POP POP DUP2 SWAP1 SSTORE POP PUSH1 0x6 PUSH1 0x0 CALLER PUSH20 0xFFFFFFFFFFFFFFFFFFFFFFFFFFFFFFFFFFFFFFFF AND PUSH20 0xFFFFFFFFFFFFFFFFFFFFFFFFFFFFFFFFFFFFFFFF AND DUP2 MSTORE PUSH1 0x20 ADD SWAP1 DUP2 MSTORE PUSH1 0x20 ADD PUSH1 0x0 KECCAK256 DUP4 DUP2 SLOAD DUP2 LT PUSH2 0x751 JUMPI PUSH2 0x750 PUSH2 0x2DB1 JUMP JUMPDEST JUMPDEST SWAP1 PUSH1 0x0 MSTORE PUSH1 0x20 PUSH1 0x0 KECCAK256 SWAP1 PUSH1 0x6 MUL ADD PUSH1 0x2 ADD SLOAD PUSH1 0x3 SLOAD PUSH2 0x770 SWAP2 SWAP1 PUSH2 0x2B03 JUMP JUMPDEST PUSH1 0x3 DUP2 SWAP1 SSTORE POP PUSH1 0x0 DUP4 SWAP1 POP JUMPDEST PUSH1 0x1 PUSH1 0x6 PUSH1 0x0 CALLER PUSH20 0xFFFFFFFFFFFFFFFFFFFFFFFFFFFFFFFFFFFFFFFF AND PUSH20 0xFFFFFFFFFFFFFFFFFFFFFFFFFFFFFFFFFFFFFFFF AND DUP2 MSTORE PUSH1 0x20 ADD SWAP1 DUP2 MSTORE PUSH1 0x20 ADD PUSH1 0x0 KECCAK256 DUP1 SLOAD SWAP1 POP PUSH2 0x7CB SWAP2 SWAP1 PUSH2 0x2BE4 JUMP JUMPDEST DUP2 LT ISZERO PUSH2 0x8EE JUMPI PUSH1 0x6 PUSH1 0x0 CALLER PUSH20 0xFFFFFFFFFFFFFFFFFFFFFFFFFFFFFFFFFFFFFFFF AND PUSH20 0xFFFFFFFFFFFFFFFFFFFFFFFFFFFFFFFFFFFFFFFF AND DUP2 MSTORE PUSH1 0x20 ADD SWAP1 DUP2 MSTORE PUSH1 0x20 ADD PUSH1 0x0 KECCAK256 PUSH1 0x1 DUP3 PUSH2 0x81E SWAP2 SWAP1 PUSH2 0x2B03 JUMP JUMPDEST DUP2 SLOAD DUP2 LT PUSH2 0x82F JUMPI PUSH2 0x82E PUSH2 0x2DB1 JUMP JUMPDEST JUMPDEST SWAP1 PUSH1 0x0 MSTORE PUSH1 0x20 PUSH1 0x0 KECCAK256 SWAP1 PUSH1 0x6 MUL ADD PUSH1 0x6 PUSH1 0x0 CALLER PUSH20 0xFFFFFFFFFFFFFFFFFFFFFFFFFFFFFFFFFFFFFFFF AND PUSH20 0xFFFFFFFFFFFFFFFFFFFFFFFFFFFFFFFFFFFFFFFF AND DUP2 MSTORE PUSH1 0x20 ADD SWAP1 DUP2 MSTORE PUSH1 0x20 ADD PUSH1 0x0 KECCAK256 DUP3 DUP2 SLOAD DUP2 LT PUSH2 0x88E JUMPI PUSH2 0x88D PUSH2 0x2DB1 JUMP JUMPDEST JUMPDEST SWAP1 PUSH1 0x0 MSTORE PUSH1 0x20 PUSH1 0x0 KECCAK256 SWAP1 PUSH1 0x6 MUL ADD PUSH1 0x0 DUP3 ADD SLOAD DUP2 PUSH1 0x0 ADD SSTORE PUSH1 0x1 DUP3 ADD SLOAD DUP2 PUSH1 0x1 ADD SSTORE PUSH1 0x2 DUP3 ADD SLOAD DUP2 PUSH1 0x2 ADD SSTORE PUSH1 0x3 DUP3 ADD SLOAD DUP2 PUSH1 0x3 ADD SSTORE PUSH1 0x4 DUP3 ADD SLOAD DUP2 PUSH1 0x4 ADD SSTORE PUSH1 0x5 DUP3 ADD SLOAD DUP2 PUSH1 0x5 ADD SSTORE SWAP1 POP POP DUP1 DUP1 PUSH2 0x8E6 SWAP1 PUSH2 0x2CDB JUMP JUMPDEST SWAP2 POP POP PUSH2 0x77C JUMP JUMPDEST POP PUSH1 0x6 PUSH1 0x0 CALLER PUSH20 0xFFFFFFFFFFFFFFFFFFFFFFFFFFFFFFFFFFFFFFFF AND PUSH20 0xFFFFFFFFFFFFFFFFFFFFFFFFFFFFFFFFFFFFFFFF AND DUP2 MSTORE PUSH1 0x20 ADD SWAP1 DUP2 MSTORE PUSH1 0x20 ADD PUSH1 0x0 KECCAK256 DUP1 SLOAD DUP1 PUSH2 0x93E JUMPI PUSH2 0x93D PUSH2 0x2D82 JUMP JUMPDEST JUMPDEST PUSH1 0x1 SWAP1 SUB DUP2 DUP2 SWAP1 PUSH1 0x0 MSTORE PUSH1 0x20 PUSH1 0x0 KECCAK256 SWAP1 PUSH1 0x6 MUL ADD PUSH1 0x0 DUP1 DUP3 ADD PUSH1 0x0 SWAP1 SSTORE PUSH1 0x1 DUP3 ADD PUSH1 0x0 SWAP1 SSTORE PUSH1 0x2 DUP3 ADD PUSH1 0x0 SWAP1 SSTORE PUSH1 0x3 DUP3 ADD PUSH1 0x0 SWAP1 SSTORE PUSH1 0x4 DUP3 ADD PUSH1 0x0 SWAP1 SSTORE PUSH1 0x5 DUP3 ADD PUSH1 0x0 SWAP1 SSTORE POP POP SWAP1 SSTORE PUSH2 0x9D2 CALLER DUP3 PUSH32 0x0 PUSH20 0xFFFFFFFFFFFFFFFFFFFFFFFFFFFFFFFFFFFFFFFF AND PUSH2 0x1EDD SWAP1 SWAP3 SWAP2 SWAP1 PUSH4 0xFFFFFFFF AND JUMP JUMPDEST CALLER PUSH20 0xFFFFFFFFFFFFFFFFFFFFFFFFFFFFFFFFFFFFFFFF AND PUSH32 0x85082129D87B2FE11527CB1B3B7A520AEB5AA6913F88A3D8757FE40D1DB02FDD DUP3 PUSH1 0x40 MLOAD PUSH2 0xA18 SWAP2 SWAP1 PUSH2 0x298F JUMP JUMPDEST PUSH1 0x40 MLOAD DUP1 SWAP2 SUB SWAP1 LOG2 POP POP PUSH1 0x1 PUSH1 0x0 DUP2 SWAP1 SSTORE POP POP JUMP JUMPDEST PUSH1 0x3 SLOAD DUP2 JUMP JUMPDEST PUSH1 0x2 SLOAD DUP2 JUMP JUMPDEST PUSH1 0x60 PUSH2 0xA43 PUSH2 0x233D JUMP JUMPDEST PUSH1 0x0 PUSH2 0xA4F DUP6 DUP6 PUSH2 0x1B69 JUMP JUMPDEST SWAP1 POP PUSH1 0x0 PUSH1 0x3 PUSH8 0xFFFFFFFFFFFFFFFF DUP2 GT ISZERO PUSH2 0xA6E JUMPI PUSH2 0xA6D PUSH2 0x2DE0 JUMP JUMPDEST JUMPDEST PUSH1 0x40 MLOAD SWAP1 DUP1 DUP3 MSTORE DUP1 PUSH1 0x20 MUL PUSH1 0x20 ADD DUP3 ADD PUSH1 0x40 MSTORE DUP1 ISZERO PUSH2 0xAA1 JUMPI DUP2 PUSH1 0x20 ADD JUMPDEST PUSH1 0x60 DUP2 MSTORE PUSH1 0x20 ADD SWAP1 PUSH1 0x1 SWAP1 SUB SWAP1 DUP2 PUSH2 0xA8C JUMPI SWAP1 POP JUMPDEST POP SWAP1 POP PUSH1 0x40 MLOAD DUP1 PUSH1 0x40 ADD PUSH1 0x40 MSTORE DUP1 PUSH1 0xD DUP2 MSTORE PUSH1 0x20 ADD PUSH32 0x6275796261636B416D6F756E7400000000000000000000000000000000000000 DUP2 MSTORE POP DUP2 PUSH1 0x0 DUP2 MLOAD DUP2 LT PUSH2 0xAEE JUMPI PUSH2 0xAED PUSH2 0x2DB1 JUMP JUMPDEST JUMPDEST PUSH1 0x20 MUL PUSH1 0x20 ADD ADD DUP2 SWAP1 MSTORE POP PUSH1 0x40 MLOAD DUP1 PUSH1 0x40 ADD PUSH1 0x40 MSTORE DUP1 PUSH1 0xE DUP2 MSTORE PUSH1 0x20 ADD PUSH32 0x696E746572657374416D6F756E74000000000000000000000000000000000000 DUP2 MSTORE POP DUP2 PUSH1 0x1 DUP2 MLOAD DUP2 LT PUSH2 0xB43 JUMPI PUSH2 0xB42 PUSH2 0x2DB1 JUMP JUMPDEST JUMPDEST PUSH1 0x20 MUL PUSH1 0x20 ADD ADD DUP2 SWAP1 MSTORE POP PUSH1 0x40 MLOAD DUP1 PUSH1 0x40 ADD PUSH1 0x40 MSTORE DUP1 PUSH1 0x10 DUP2 MSTORE PUSH1 0x20 ADD PUSH32 0x72656465656D61626C65416D6F756E7400000000000000000000000000000000 DUP2 MSTORE POP DUP2 PUSH1 0x2 DUP2 MLOAD DUP2 LT PUSH2 0xB98 JUMPI PUSH2 0xB97 PUSH2 0x2DB1 JUMP JUMPDEST JUMPDEST PUSH1 0x20 MUL PUSH1 0x20 ADD ADD DUP2 SWAP1 MSTORE POP DUP1 DUP3 SWAP4 POP SWAP4 POP POP POP SWAP3 POP SWAP3 SWAP1 POP JUMP JUMPDEST PUSH1 0x2 PUSH1 0x0 SLOAD EQ ISZERO PUSH2 0xBF8 JUMPI PUSH1 0x40 MLOAD PUSH32 0x8C379A000000000000000000000000000000000000000000000000000000000 DUP2 MSTORE PUSH1 0x4 ADD PUSH2 0xBEF SWAP1 PUSH2 0x2934 JUMP JUMPDEST PUSH1 0x40 MLOAD DUP1 SWAP2 SUB SWAP1 REVERT JUMPDEST PUSH1 0x2 PUSH1 0x0 DUP2 SWAP1 SSTORE POP PUSH1 0x0 PUSH2 0xC0B CALLER PUSH2 0x1F63 JUMP JUMPDEST SWAP1 POP PUSH1 0x0 DUP2 PUSH1 0x40 ADD MLOAD EQ ISZERO PUSH2 0xC55 JUMPI PUSH1 0x40 MLOAD PUSH32 0x8C379A000000000000000000000000000000000000000000000000000000000 DUP2 MSTORE PUSH1 0x4 ADD PUSH2 0xC4C SWAP1 PUSH2 0x2894 JUMP JUMPDEST PUSH1 0x40 MLOAD DUP1 SWAP2 SUB SWAP1 REVERT JUMPDEST PUSH1 0x0 DUP2 PUSH1 0x20 ADD MLOAD EQ PUSH2 0xD14 JUMPI PUSH32 0x0 PUSH20 0xFFFFFFFFFFFFFFFFFFFFFFFFFFFFFFFFFFFFFFFF AND PUSH4 0x74920D30 CALLER DUP4 PUSH1 0x20 ADD MLOAD PUSH1 0x40 MLOAD DUP4 PUSH4 0xFFFFFFFF AND PUSH1 0xE0 SHL DUP2 MSTORE PUSH1 0x4 ADD PUSH2 0xCC0 SWAP3 SWAP2 SWAP1 PUSH2 0x27C3 JUMP JUMPDEST PUSH1 0x20 PUSH1 0x40 MLOAD DUP1 DUP4 SUB DUP2 PUSH1 0x0 DUP8 DUP1 EXTCODESIZE ISZERO DUP1 ISZERO PUSH2 0xCDA JUMPI PUSH1 0x0 DUP1 REVERT JUMPDEST POP GAS CALL ISZERO DUP1 ISZERO PUSH2 0xCEE JUMPI RETURNDATASIZE PUSH1 0x0 DUP1 RETURNDATACOPY RETURNDATASIZE PUSH1 0x0 REVERT JUMPDEST POP POP POP POP PUSH1 0x40 MLOAD RETURNDATASIZE PUSH1 0x1F NOT PUSH1 0x1F DUP3 ADD AND DUP3 ADD DUP1 PUSH1 0x40 MSTORE POP DUP2 ADD SWAP1 PUSH2 0xD12 SWAP2 SWAP1 PUSH2 0x240A JUMP JUMPDEST POP JUMPDEST PUSH1 0x0 DUP2 PUSH1 0x0 ADD MLOAD EQ PUSH2 0xD70 JUMPI PUSH2 0xD6F CALLER DUP3 PUSH1 0x0 ADD MLOAD PUSH32 0x0 PUSH20 0xFFFFFFFFFFFFFFFFFFFFFFFFFFFFFFFFFFFFFFFF AND PUSH2 0x1EDD SWAP1 SWAP3 SWAP2 SWAP1 PUSH4 0xFFFFFFFF AND JUMP JUMPDEST JUMPDEST PUSH32 0x0 PUSH20 0xFFFFFFFFFFFFFFFFFFFFFFFFFFFFFFFFFFFFFFFF AND PUSH4 0x71C2FC9E CALLER DUP4 PUSH1 0x0 ADD MLOAD PUSH1 0x40 MLOAD DUP4 PUSH4 0xFFFFFFFF AND PUSH1 0xE0 SHL DUP2 MSTORE PUSH1 0x4 ADD PUSH2 0xDCF SWAP3 SWAP2 SWAP1 PUSH2 0x27C3 JUMP JUMPDEST PUSH1 0x20 PUSH1 0x40 MLOAD DUP1 DUP4 SUB DUP2 PUSH1 0x0 DUP8 DUP1 EXTCODESIZE ISZERO DUP1 ISZERO PUSH2 0xDE9 JUMPI PUSH1 0x0 DUP1 REVERT JUMPDEST POP GAS CALL ISZERO DUP1 ISZERO PUSH2 0xDFD JUMPI RETURNDATASIZE PUSH1 0x0 DUP1 RETURNDATACOPY RETURNDATASIZE PUSH1 0x0 REVERT JUMPDEST POP POP POP POP PUSH1 0x40 MLOAD RETURNDATASIZE PUSH1 0x1F NOT PUSH1 0x1F DUP3 ADD AND DUP3 ADD DUP1 PUSH1 0x40 MSTORE POP DUP2 ADD SWAP1 PUSH2 0xE21 SWAP2 SWAP1 PUSH2 0x240A JUMP JUMPDEST POP PUSH32 0x0 PUSH20 0xFFFFFFFFFFFFFFFFFFFFFFFFFFFFFFFFFFFFFFFF AND PUSH4 0x71C2FC9E CALLER DUP4 PUSH1 0x20 ADD MLOAD PUSH1 0x40 MLOAD DUP4 PUSH4 0xFFFFFFFF AND PUSH1 0xE0 SHL DUP2 MSTORE PUSH1 0x4 ADD PUSH2 0xE81 SWAP3 SWAP2 SWAP1 PUSH2 0x27C3 JUMP JUMPDEST PUSH1 0x20 PUSH1 0x40 MLOAD DUP1 DUP4 SUB DUP2 PUSH1 0x0 DUP8 DUP1 EXTCODESIZE ISZERO DUP1 ISZERO PUSH2 0xE9B JUMPI PUSH1 0x0 DUP1 REVERT JUMPDEST POP GAS CALL ISZERO DUP1 ISZERO PUSH2 0xEAF JUMPI RETURNDATASIZE PUSH1 0x0 DUP1 RETURNDATACOPY RETURNDATASIZE PUSH1 0x0 REVERT JUMPDEST POP POP POP POP PUSH1 0x40 MLOAD RETURNDATASIZE PUSH1 0x1F NOT PUSH1 0x1F DUP3 ADD AND DUP3 ADD DUP1 PUSH1 0x40 MSTORE POP DUP2 ADD SWAP1 PUSH2 0xED3 SWAP2 SWAP1 PUSH2 0x240A JUMP JUMPDEST POP PUSH1 0x0 JUMPDEST PUSH1 0x6 PUSH1 0x0 CALLER PUSH20 0xFFFFFFFFFFFFFFFFFFFFFFFFFFFFFFFFFFFFFFFF AND PUSH20 0xFFFFFFFFFFFFFFFFFFFFFFFFFFFFFFFFFFFFFFFF AND DUP2 MSTORE PUSH1 0x20 ADD SWAP1 DUP2 MSTORE PUSH1 0x20 ADD PUSH1 0x0 KECCAK256 DUP1 SLOAD SWAP1 POP DUP2 LT ISZERO PUSH2 0x15F2 JUMPI PUSH1 0x0 PUSH3 0x278D00 PUSH1 0x6 PUSH1 0x0 CALLER PUSH20 0xFFFFFFFFFFFFFFFFFFFFFFFFFFFFFFFFFFFFFFFF AND PUSH20 0xFFFFFFFFFFFFFFFFFFFFFFFFFFFFFFFFFFFFFFFF AND DUP2 MSTORE PUSH1 0x20 ADD SWAP1 DUP2 MSTORE PUSH1 0x20 ADD PUSH1 0x0 KECCAK256 DUP4 DUP2 SLOAD DUP2 LT PUSH2 0xF78 JUMPI PUSH2 0xF77 PUSH2 0x2DB1 JUMP JUMPDEST JUMPDEST SWAP1 PUSH1 0x0 MSTORE PUSH1 0x20 PUSH1 0x0 KECCAK256 SWAP1 PUSH1 0x6 MUL ADD PUSH1 0x0 ADD SLOAD TIMESTAMP PUSH2 0xF95 SWAP2 SWAP1 PUSH2 0x2BE4 JUMP JUMPDEST PUSH2 0xF9F SWAP2 SWAP1 PUSH2 0x2B59 JUMP JUMPDEST SWAP1 POP PUSH1 0x1 SLOAD PUSH1 0x64 PUSH2 0xFB0 SWAP2 SWAP1 PUSH2 0x2B59 JUMP JUMPDEST DUP2 GT ISZERO PUSH2 0xFC9 JUMPI PUSH1 0x1 SLOAD PUSH1 0x64 PUSH2 0xFC6 SWAP2 SWAP1 PUSH2 0x2B59 JUMP JUMPDEST SWAP1 POP JUMPDEST PUSH1 0x0 PUSH1 0x64 DUP3 PUSH1 0x6 PUSH1 0x0 CALLER PUSH20 0xFFFFFFFFFFFFFFFFFFFFFFFFFFFFFFFFFFFFFFFF AND PUSH20 0xFFFFFFFFFFFFFFFFFFFFFFFFFFFFFFFFFFFFFFFF AND DUP2 MSTORE PUSH1 0x20 ADD SWAP1 DUP2 MSTORE PUSH1 0x20 ADD PUSH1 0x0 KECCAK256 DUP6 DUP2 SLOAD DUP2 LT PUSH2 0x101F JUMPI PUSH2 0x101E PUSH2 0x2DB1 JUMP JUMPDEST JUMPDEST SWAP1 PUSH1 0x0 MSTORE PUSH1 0x20 PUSH1 0x0 KECCAK256 SWAP1 PUSH1 0x6 MUL ADD PUSH1 0x1 ADD SLOAD PUSH1 0x1 SLOAD PUSH2 0x103E SWAP2 SWAP1 PUSH2 0x2B8A JUMP JUMPDEST PUSH2 0x1048 SWAP2 SWAP1 PUSH2 0x2B8A JUMP JUMPDEST PUSH2 0x1052 SWAP2 SWAP1 PUSH2 0x2B59 JUMP JUMPDEST SWAP1 POP PUSH1 0x0 PUSH1 0x6 PUSH1 0x0 CALLER PUSH20 0xFFFFFFFFFFFFFFFFFFFFFFFFFFFFFFFFFFFFFFFF AND PUSH20 0xFFFFFFFFFFFFFFFFFFFFFFFFFFFFFFFFFFFFFFFF AND DUP2 MSTORE PUSH1 0x20 ADD SWAP1 DUP2 MSTORE PUSH1 0x20 ADD PUSH1 0x0 KECCAK256 DUP5 DUP2 SLOAD DUP2 LT PUSH2 0x10A7 JUMPI PUSH2 0x10A6 PUSH2 0x2DB1 JUMP JUMPDEST JUMPDEST SWAP1 PUSH1 0x0 MSTORE PUSH1 0x20 PUSH1 0x0 KECCAK256 SWAP1 PUSH1 0x6 MUL ADD PUSH1 0x1 ADD SLOAD SWAP1 POP PUSH1 0x0 DUP1 JUMPDEST DUP5 DUP2 LT ISZERO PUSH2 0x1196 JUMPI PUSH1 0xC PUSH1 0x64 DUP5 PUSH1 0x2 SLOAD PUSH2 0x10D9 SWAP2 SWAP1 PUSH2 0x2B8A JUMP JUMPDEST PUSH2 0x10E3 SWAP2 SWAP1 PUSH2 0x2B59 JUMP JUMPDEST PUSH2 0x10ED SWAP2 SWAP1 PUSH2 0x2B59 JUMP JUMPDEST DUP3 PUSH2 0x10F8 SWAP2 SWAP1 PUSH2 0x2B03 JUMP JUMPDEST SWAP2 POP PUSH1 0x64 PUSH1 0x6 PUSH1 0x0 CALLER PUSH20 0xFFFFFFFFFFFFFFFFFFFFFFFFFFFFFFFFFFFFFFFF AND PUSH20 0xFFFFFFFFFFFFFFFFFFFFFFFFFFFFFFFFFFFFFFFF AND DUP2 MSTORE PUSH1 0x20 ADD SWAP1 DUP2 MSTORE PUSH1 0x20 ADD PUSH1 0x0 KECCAK256 DUP8 DUP2 SLOAD DUP2 LT PUSH2 0x114D JUMPI PUSH2 0x114C PUSH2 0x2DB1 JUMP JUMPDEST JUMPDEST SWAP1 PUSH1 0x0 MSTORE PUSH1 0x20 PUSH1 0x0 KECCAK256 SWAP1 PUSH1 0x6 MUL ADD PUSH1 0x1 ADD SLOAD PUSH1 0x1 SLOAD PUSH2 0x116C SWAP2 SWAP1 PUSH2 0x2B8A JUMP JUMPDEST PUSH2 0x1176 SWAP2 SWAP1 PUSH2 0x2B59 JUMP JUMPDEST DUP4 PUSH2 0x1181 SWAP2 SWAP1 PUSH2 0x2BE4 JUMP JUMPDEST SWAP3 POP DUP1 DUP1 PUSH2 0x118E SWAP1 PUSH2 0x2CDB JUMP JUMPDEST SWAP2 POP POP PUSH2 0x10BF JUMP JUMPDEST POP PUSH1 0x0 PUSH1 0x6 PUSH1 0x0 CALLER PUSH20 0xFFFFFFFFFFFFFFFFFFFFFFFFFFFFFFFFFFFFFFFF AND PUSH20 0xFFFFFFFFFFFFFFFFFFFFFFFFFFFFFFFFFFFFFFFF AND DUP2 MSTORE PUSH1 0x20 ADD SWAP1 DUP2 MSTORE PUSH1 0x20 ADD PUSH1 0x0 KECCAK256 DUP7 DUP2 SLOAD DUP2 LT PUSH2 0x11EA JUMPI PUSH2 0x11E9 PUSH2 0x2DB1 JUMP JUMPDEST JUMPDEST SWAP1 PUSH1 0x0 MSTORE PUSH1 0x20 PUSH1 0x0 KECCAK256 SWAP1 PUSH1 0x6 MUL ADD PUSH1 0x5 ADD SLOAD DUP5 PUSH2 0x1207 SWAP2 SWAP1 PUSH2 0x2BE4 JUMP JUMPDEST SWAP1 POP PUSH1 0x0 PUSH1 0x6 PUSH1 0x0 CALLER PUSH20 0xFFFFFFFFFFFFFFFFFFFFFFFFFFFFFFFFFFFFFFFF AND PUSH20 0xFFFFFFFFFFFFFFFFFFFFFFFFFFFFFFFFFFFFFFFF AND DUP2 MSTORE PUSH1 0x20 ADD SWAP1 DUP2 MSTORE PUSH1 0x20 ADD PUSH1 0x0 KECCAK256 DUP8 DUP2 SLOAD DUP2 LT PUSH2 0x125C JUMPI PUSH2 0x125B PUSH2 0x2DB1 JUMP JUMPDEST JUMPDEST SWAP1 PUSH1 0x0 MSTORE PUSH1 0x20 PUSH1 0x0 KECCAK256 SWAP1 PUSH1 0x6 MUL ADD PUSH1 0x4 ADD SLOAD DUP4 PUSH2 0x1279 SWAP2 SWAP1 PUSH2 0x2BE4 JUMP JUMPDEST SWAP1 POP DUP2 PUSH1 0x6 PUSH1 0x0 CALLER PUSH20 0xFFFFFFFFFFFFFFFFFFFFFFFFFFFFFFFFFFFFFFFF AND PUSH20 0xFFFFFFFFFFFFFFFFFFFFFFFFFFFFFFFFFFFFFFFF AND DUP2 MSTORE PUSH1 0x20 ADD SWAP1 DUP2 MSTORE PUSH1 0x20 ADD PUSH1 0x0 KECCAK256 DUP9 DUP2 SLOAD DUP2 LT PUSH2 0x12CD JUMPI PUSH2 0x12CC PUSH2 0x2DB1 JUMP JUMPDEST JUMPDEST SWAP1 PUSH1 0x0 MSTORE PUSH1 0x20 PUSH1 0x0 KECCAK256 SWAP1 PUSH1 0x6 MUL ADD PUSH1 0x2 ADD PUSH1 0x0 DUP3 DUP3 SLOAD PUSH2 0x12ED SWAP2 SWAP1 PUSH2 0x2BE4 JUMP JUMPDEST SWAP3 POP POP DUP2 SWAP1 SSTORE POP DUP2 PUSH1 0x5 PUSH1 0x0 CALLER PUSH20 0xFFFFFFFFFFFFFFFFFFFFFFFFFFFFFFFFFFFFFFFF AND PUSH20 0xFFFFFFFFFFFFFFFFFFFFFFFFFFFFFFFFFFFFFFFF AND DUP2 MSTORE PUSH1 0x20 ADD SWAP1 DUP2 MSTORE PUSH1 0x20 ADD PUSH1 0x0 KECCAK256 PUSH1 0x1 ADD PUSH1 0x0 DUP3 DUP3 SLOAD PUSH2 0x1346 SWAP2 SWAP1 PUSH2 0x2BE4 JUMP JUMPDEST SWAP3 POP POP DUP2 SWAP1 SSTORE POP DUP1 PUSH1 0x6 PUSH1 0x0 CALLER PUSH20 0xFFFFFFFFFFFFFFFFFFFFFFFFFFFFFFFFFFFFFFFF AND PUSH20 0xFFFFFFFFFFFFFFFFFFFFFFFFFFFFFFFFFFFFFFFF AND DUP2 MSTORE PUSH1 0x20 ADD SWAP1 DUP2 MSTORE PUSH1 0x20 ADD PUSH1 0x0 KECCAK256 DUP9 DUP2 SLOAD DUP2 LT PUSH2 0x139F JUMPI PUSH2 0x139E PUSH2 0x2DB1 JUMP JUMPDEST JUMPDEST SWAP1 PUSH1 0x0 MSTORE PUSH1 0x20 PUSH1 0x0 KECCAK256 SWAP1 PUSH1 0x6 MUL ADD PUSH1 0x4 ADD PUSH1 0x0 DUP3 DUP3 SLOAD PUSH2 0x13BF SWAP2 SWAP1 PUSH2 0x2B03 JUMP JUMPDEST SWAP3 POP POP DUP2 SWAP1 SSTORE POP DUP1 PUSH1 0x5 PUSH1 0x0 CALLER PUSH20 0xFFFFFFFFFFFFFFFFFFFFFFFFFFFFFFFFFFFFFFFF AND PUSH20 0xFFFFFFFFFFFFFFFFFFFFFFFFFFFFFFFFFFFFFFFF AND DUP2 MSTORE PUSH1 0x20 ADD SWAP1 DUP2 MSTORE PUSH1 0x20 ADD PUSH1 0x0 KECCAK256 PUSH1 0x4 ADD PUSH1 0x0 DUP3 DUP3 SLOAD PUSH2 0x1418 SWAP2 SWAP1 PUSH2 0x2B03 JUMP JUMPDEST SWAP3 POP POP DUP2 SWAP1 SSTORE POP DUP2 PUSH1 0x6 PUSH1 0x0 CALLER PUSH20 0xFFFFFFFFFFFFFFFFFFFFFFFFFFFFFFFFFFFFFFFF AND PUSH20 0xFFFFFFFFFFFFFFFFFFFFFFFFFFFFFFFFFFFFFFFF AND DUP2 MSTORE PUSH1 0x20 ADD SWAP1 DUP2 MSTORE PUSH1 0x20 ADD PUSH1 0x0 KECCAK256 DUP9 DUP2 SLOAD DUP2 LT PUSH2 0x1471 JUMPI PUSH2 0x1470 PUSH2 0x2DB1 JUMP JUMPDEST JUMPDEST SWAP1 PUSH1 0x0 MSTORE PUSH1 0x20 PUSH1 0x0 KECCAK256 SWAP1 PUSH1 0x6 MUL ADD PUSH1 0x5 ADD PUSH1 0x0 DUP3 DUP3 SLOAD PUSH2 0x1491 SWAP2 SWAP1 PUSH2 0x2B03 JUMP JUMPDEST SWAP3 POP POP DUP2 SWAP1 SSTORE POP DUP2 PUSH1 0x5 PUSH1 0x0 CALLER PUSH20 0xFFFFFFFFFFFFFFFFFFFFFFFFFFFFFFFFFFFFFFFF AND PUSH20 0xFFFFFFFFFFFFFFFFFFFFFFFFFFFFFFFFFFFFFFFF AND DUP2 MSTORE PUSH1 0x20 ADD SWAP1 DUP2 MSTORE PUSH1 0x20 ADD PUSH1 0x0 KECCAK256 PUSH1 0x3 ADD PUSH1 0x0 DUP3 DUP3 SLOAD PUSH2 0x14EA SWAP2 SWAP1 PUSH2 0x2B03 JUMP JUMPDEST SWAP3 POP POP DUP2 SWAP1 SSTORE POP DUP1 DUP3 PUSH2 0x14FD SWAP2 SWAP1 PUSH2 0x2B03 JUMP JUMPDEST PUSH1 0x6 PUSH1 0x0 CALLER PUSH20 0xFFFFFFFFFFFFFFFFFFFFFFFFFFFFFFFFFFFFFFFF AND PUSH20 0xFFFFFFFFFFFFFFFFFFFFFFFFFFFFFFFFFFFFFFFF AND DUP2 MSTORE PUSH1 0x20 ADD SWAP1 DUP2 MSTORE PUSH1 0x20 ADD PUSH1 0x0 KECCAK256 DUP9 DUP2 SLOAD DUP2 LT PUSH2 0x154E JUMPI PUSH2 0x154D PUSH2 0x2DB1 JUMP JUMPDEST JUMPDEST SWAP1 PUSH1 0x0 MSTORE PUSH1 0x20 PUSH1 0x0 KECCAK256 SWAP1 PUSH1 0x6 MUL ADD PUSH1 0x3 ADD PUSH1 0x0 DUP3 DUP3 SLOAD PUSH2 0x156E SWAP2 SWAP1 PUSH2 0x2B03 JUMP JUMPDEST SWAP3 POP POP DUP2 SWAP1 SSTORE POP DUP1 DUP3 PUSH2 0x1581 SWAP2 SWAP1 PUSH2 0x2B03 JUMP JUMPDEST PUSH1 0x5 PUSH1 0x0 CALLER PUSH20 0xFFFFFFFFFFFFFFFFFFFFFFFFFFFFFFFFFFFFFFFF AND PUSH20 0xFFFFFFFFFFFFFFFFFFFFFFFFFFFFFFFFFFFFFFFF AND DUP2 MSTORE PUSH1 0x20 ADD SWAP1 DUP2 MSTORE PUSH1 0x20 ADD PUSH1 0x0 KECCAK256 PUSH1 0x2 ADD PUSH1 0x0 DUP3 DUP3 SLOAD PUSH2 0x15D2 SWAP2 SWAP1 PUSH2 0x2B03 JUMP JUMPDEST SWAP3 POP POP DUP2 SWAP1 SSTORE POP POP POP POP POP POP POP DUP1 DUP1 PUSH2 0x15EA SWAP1 PUSH2 0x2CDB JUMP JUMPDEST SWAP2 POP POP PUSH2 0xED7 JUMP JUMPDEST POP CALLER PUSH20 0xFFFFFFFFFFFFFFFFFFFFFFFFFFFFFFFFFFFFFFFF AND PUSH32 0xD2C2928212B87E3B9CB2CF37231739682C8BEC99936D3798E7386CA23EA133A3 PUSH1 0x40 MLOAD PUSH1 0x40 MLOAD DUP1 SWAP2 SUB SWAP1 LOG2 POP PUSH1 0x1 PUSH1 0x0 DUP2 SWAP1 SSTORE POP JUMP JUMPDEST PUSH2 0x1649 PUSH2 0x233D JUMP JUMPDEST PUSH1 0x0 PUSH2 0x1654 DUP4 PUSH2 0x1F63 JUMP JUMPDEST SWAP1 POP DUP1 SWAP2 POP POP SWAP2 SWAP1 POP JUMP JUMPDEST PUSH1 0x2 PUSH1 0x0 SLOAD EQ ISZERO PUSH2 0x16A5 JUMPI PUSH1 0x40 MLOAD PUSH32 0x8C379A000000000000000000000000000000000000000000000000000000000 DUP2 MSTORE PUSH1 0x4 ADD PUSH2 0x169C SWAP1 PUSH2 0x2934 JUMP JUMPDEST PUSH1 0x40 MLOAD DUP1 SWAP2 SUB SWAP1 REVERT JUMPDEST PUSH1 0x2 PUSH1 0x0 DUP2 SWAP1 SSTORE POP PUSH1 0x0 DUP2 GT PUSH2 0x16F0 JUMPI PUSH1 0x40 MLOAD PUSH32 0x8C379A000000000000000000000000000000000000000000000000000000000 DUP2 MSTORE PUSH1 0x4 ADD PUSH2 0x16E7 SWAP1 PUSH2 0x2954 JUMP JUMPDEST PUSH1 0x40 MLOAD DUP1 SWAP2 SUB SWAP1 REVERT JUMPDEST PUSH2 0x173D CALLER ADDRESS DUP4 PUSH32 0x0 PUSH20 0xFFFFFFFFFFFFFFFFFFFFFFFFFFFFFFFFFFFFFFFF AND PUSH2 0x2037 SWAP1 SWAP4 SWAP3 SWAP2 SWAP1 PUSH4 0xFFFFFFFF AND JUMP JUMPDEST DUP1 PUSH1 0x5 PUSH1 0x0 CALLER PUSH20 0xFFFFFFFFFFFFFFFFFFFFFFFFFFFFFFFFFFFFFFFF AND PUSH20 0xFFFFFFFFFFFFFFFFFFFFFFFFFFFFFFFFFFFFFFFF AND DUP2 MSTORE PUSH1 0x20 ADD SWAP1 DUP2 MSTORE PUSH1 0x20 ADD PUSH1 0x0 KECCAK256 PUSH1 0x0 ADD PUSH1 0x0 DUP3 DUP3 SLOAD PUSH2 0x178F SWAP2 SWAP1 PUSH2 0x2B03 JUMP JUMPDEST SWAP3 POP POP DUP2 SWAP1 SSTORE POP DUP1 PUSH1 0x5 PUSH1 0x0 CALLER PUSH20 0xFFFFFFFFFFFFFFFFFFFFFFFFFFFFFFFFFFFFFFFF AND PUSH20 0xFFFFFFFFFFFFFFFFFFFFFFFFFFFFFFFFFFFFFFFF AND DUP2 MSTORE PUSH1 0x20 ADD SWAP1 DUP2 MSTORE PUSH1 0x20 ADD PUSH1 0x0 KECCAK256 PUSH1 0x1 ADD PUSH1 0x0 DUP3 DUP3 SLOAD PUSH2 0x17E8 SWAP2 SWAP1 PUSH2 0x2B03 JUMP JUMPDEST SWAP3 POP POP DUP2 SWAP1 SSTORE POP PUSH1 0x6 PUSH1 0x0 CALLER PUSH20 0xFFFFFFFFFFFFFFFFFFFFFFFFFFFFFFFFFFFFFFFF AND PUSH20 0xFFFFFFFFFFFFFFFFFFFFFFFFFFFFFFFFFFFFFFFF AND DUP2 MSTORE PUSH1 0x20 ADD SWAP1 DUP2 MSTORE PUSH1 0x20 ADD PUSH1 0x0 KECCAK256 PUSH1 0x40 MLOAD DUP1 PUSH1 0xC0 ADD PUSH1 0x40 MSTORE DUP1 TIMESTAMP DUP2 MSTORE PUSH1 0x20 ADD DUP4 DUP2 MSTORE PUSH1 0x20 ADD DUP4 DUP2 MSTORE PUSH1 0x20 ADD PUSH1 0x0 DUP2 MSTORE PUSH1 0x20 ADD PUSH1 0x0 DUP2 MSTORE PUSH1 0x20 ADD PUSH1 0x0 DUP2 MSTORE POP SWAP1 DUP1 PUSH1 0x1 DUP2 SLOAD ADD DUP1 DUP3 SSTORE DUP1 SWAP2 POP POP PUSH1 0x1 SWAP1 SUB SWAP1 PUSH1 0x0 MSTORE PUSH1 0x20 PUSH1 0x0 KECCAK256 SWAP1 PUSH1 0x6 MUL ADD PUSH1 0x0 SWAP1 SWAP2 SWAP1 SWAP2 SWAP1 SWAP2 POP PUSH1 0x0 DUP3 ADD MLOAD DUP2 PUSH1 0x0 ADD SSTORE PUSH1 0x20 DUP3 ADD MLOAD DUP2 PUSH1 0x1 ADD SSTORE PUSH1 0x40 DUP3 ADD MLOAD DUP2 PUSH1 0x2 ADD SSTORE PUSH1 0x60 DUP3 ADD MLOAD DUP2 PUSH1 0x3 ADD SSTORE PUSH1 0x80 DUP3 ADD MLOAD DUP2 PUSH1 0x4 ADD SSTORE PUSH1 0xA0 DUP3 ADD MLOAD DUP2 PUSH1 0x5 ADD SSTORE POP POP DUP1 PUSH1 0x4 PUSH1 0x0 DUP3 DUP3 SLOAD PUSH2 0x18D7 SWAP2 SWAP1 PUSH2 0x2B03 JUMP JUMPDEST SWAP3 POP POP DUP2 SWAP1 SSTORE POP CALLER PUSH20 0xFFFFFFFFFFFFFFFFFFFFFFFFFFFFFFFFFFFFFFFF AND PUSH32 0xE1FFFCC4923D04B559F4D29A8BFC6CDA04EB5B0D3C460751C2402C5C5CC9109C DUP3 PUSH1 0x40 MLOAD PUSH2 0x1924 SWAP2 SWAP1 PUSH2 0x298F JUMP JUMPDEST PUSH1 0x40 MLOAD DUP1 SWAP2 SUB SWAP1 LOG2 PUSH1 0x1 PUSH1 0x0 DUP2 SWAP1 SSTORE POP POP JUMP JUMPDEST PUSH4 0x5F5E100 DUP2 JUMP JUMPDEST PUSH1 0x0 PUSH1 0x6 PUSH1 0x0 DUP4 PUSH20 0xFFFFFFFFFFFFFFFFFFFFFFFFFFFFFFFFFFFFFFFF AND PUSH20 0xFFFFFFFFFFFFFFFFFFFFFFFFFFFFFFFFFFFFFFFF AND DUP2 MSTORE PUSH1 0x20 ADD SWAP1 DUP2 MSTORE PUSH1 0x20 ADD PUSH1 0x0 KECCAK256 DUP1 SLOAD SWAP1 POP SWAP1 POP SWAP2 SWAP1 POP JUMP JUMPDEST PUSH32 0x0 DUP2 JUMP JUMPDEST PUSH1 0x2 PUSH1 0x0 SLOAD EQ ISZERO PUSH2 0x19F5 JUMPI PUSH1 0x40 MLOAD PUSH32 0x8C379A000000000000000000000000000000000000000000000000000000000 DUP2 MSTORE PUSH1 0x4 ADD PUSH2 0x19EC SWAP1 PUSH2 0x2934 JUMP JUMPDEST PUSH1 0x40 MLOAD DUP1 SWAP2 SUB SWAP1 REVERT JUMPDEST PUSH1 0x2 PUSH1 0x0 DUP2 SWAP1 SSTORE POP DUP2 PUSH3 0x15180 PUSH2 0x1A0C SWAP2 SWAP1 PUSH2 0x2B8A JUMP JUMPDEST PUSH1 0x6 PUSH1 0x0 CALLER PUSH20 0xFFFFFFFFFFFFFFFFFFFFFFFFFFFFFFFFFFFFFFFF AND PUSH20 0xFFFFFFFFFFFFFFFFFFFFFFFFFFFFFFFFFFFFFFFF AND DUP2 MSTORE PUSH1 0x20 ADD SWAP1 DUP2 MSTORE PUSH1 0x20 ADD PUSH1 0x0 KECCAK256 DUP3 DUP2 SLOAD DUP2 LT PUSH2 0x1A5D JUMPI PUSH2 0x1A5C PUSH2 0x2DB1 JUMP JUMPDEST JUMPDEST SWAP1 PUSH1 0x0 MSTORE PUSH1 0x20 PUSH1 0x0 KECCAK256 SWAP1 PUSH1 0x6 MUL ADD PUSH1 0x0 ADD PUSH1 0x0 DUP3 DUP3 SLOAD PUSH2 0x1A7D SWAP2 SWAP1 PUSH2 0x2BE4 JUMP JUMPDEST SWAP3 POP POP DUP2 SWAP1 SSTORE POP CALLER PUSH20 0xFFFFFFFFFFFFFFFFFFFFFFFFFFFFFFFFFFFFFFFF AND PUSH32 0x6DC049A7E6A75CA211ECF0C13ACC2E9556629B677527CFBE710F1FDB5C330AF5 DUP4 DUP4 PUSH1 0x40 MLOAD PUSH2 0x1ACC SWAP3 SWAP2 SWAP1 PUSH2 0x29AA JUMP JUMPDEST PUSH1 0x40 MLOAD DUP1 SWAP2 SUB SWAP1 LOG2 PUSH1 0x1 PUSH1 0x0 DUP2 SWAP1 SSTORE POP POP POP JUMP JUMPDEST PUSH1 0x6 PUSH1 0x20 MSTORE DUP2 PUSH1 0x0 MSTORE PUSH1 0x40 PUSH1 0x0 KECCAK256 DUP2 DUP2 SLOAD DUP2 LT PUSH2 0x1AFC JUMPI PUSH1 0x0 DUP1 REVERT JUMPDEST SWAP1 PUSH1 0x0 MSTORE PUSH1 0x20 PUSH1 0x0 KECCAK256 SWAP1 PUSH1 0x6 MUL ADD PUSH1 0x0 SWAP2 POP SWAP2 POP POP DUP1 PUSH1 0x0 ADD SLOAD SWAP1 DUP1 PUSH1 0x1 ADD SLOAD SWAP1 DUP1 PUSH1 0x2 ADD SLOAD SWAP1 DUP1 PUSH1 0x3 ADD SLOAD SWAP1 DUP1 PUSH1 0x4 ADD SLOAD SWAP1 DUP1 PUSH1 0x5 ADD SLOAD SWAP1 POP DUP7 JUMP JUMPDEST PUSH32 0x0 DUP2 JUMP JUMPDEST PUSH1 0x1 SLOAD DUP2 JUMP JUMPDEST PUSH1 0x4 SLOAD DUP2 JUMP JUMPDEST PUSH2 0x1B71 PUSH2 0x233D JUMP JUMPDEST PUSH1 0x0 PUSH3 0x278D00 PUSH1 0x6 PUSH1 0x0 DUP7 PUSH20 0xFFFFFFFFFFFFFFFFFFFFFFFFFFFFFFFFFFFFFFFF AND PUSH20 0xFFFFFFFFFFFFFFFFFFFFFFFFFFFFFFFFFFFFFFFF AND DUP2 MSTORE PUSH1 0x20 ADD SWAP1 DUP2 MSTORE PUSH1 0x20 ADD PUSH1 0x0 KECCAK256 DUP5 DUP2 SLOAD DUP2 LT PUSH2 0x1BC8 JUMPI PUSH2 0x1BC7 PUSH2 0x2DB1 JUMP JUMPDEST JUMPDEST SWAP1 PUSH1 0x0 MSTORE PUSH1 0x20 PUSH1 0x0 KECCAK256 SWAP1 PUSH1 0x6 MUL ADD PUSH1 0x0 ADD SLOAD TIMESTAMP PUSH2 0x1BE5 SWAP2 SWAP1 PUSH2 0x2BE4 JUMP JUMPDEST PUSH2 0x1BEF SWAP2 SWAP1 PUSH2 0x2B59 JUMP JUMPDEST SWAP1 POP PUSH1 0x0 PUSH1 0x64 DUP3 PUSH1 0x6 PUSH1 0x0 DUP9 PUSH20 0xFFFFFFFFFFFFFFFFFFFFFFFFFFFFFFFFFFFFFFFF AND PUSH20 0xFFFFFFFFFFFFFFFFFFFFFFFFFFFFFFFFFFFFFFFF AND DUP2 MSTORE PUSH1 0x20 ADD SWAP1 DUP2 MSTORE PUSH1 0x20 ADD PUSH1 0x0 KECCAK256 DUP7 DUP2 SLOAD DUP2 LT PUSH2 0x1C47 JUMPI PUSH2 0x1C46 PUSH2 0x2DB1 JUMP JUMPDEST JUMPDEST SWAP1 PUSH1 0x0 MSTORE PUSH1 0x20 PUSH1 0x0 KECCAK256 SWAP1 PUSH1 0x6 MUL ADD PUSH1 0x1 ADD SLOAD PUSH1 0x1 SLOAD PUSH2 0x1C66 SWAP2 SWAP1 PUSH2 0x2B8A JUMP JUMPDEST PUSH2 0x1C70 SWAP2 SWAP1 PUSH2 0x2B8A JUMP JUMPDEST PUSH2 0x1C7A SWAP2 SWAP1 PUSH2 0x2B59 JUMP JUMPDEST SWAP1 POP PUSH1 0x0 PUSH1 0x6 PUSH1 0x0 DUP8 PUSH20 0xFFFFFFFFFFFFFFFFFFFFFFFFFFFFFFFFFFFFFFFF AND PUSH20 0xFFFFFFFFFFFFFFFFFFFFFFFFFFFFFFFFFFFFFFFF AND DUP2 MSTORE PUSH1 0x20 ADD SWAP1 DUP2 MSTORE PUSH1 0x20 ADD PUSH1 0x0 KECCAK256 DUP6 DUP2 SLOAD DUP2 LT PUSH2 0x1CCF JUMPI PUSH2 0x1CCE PUSH2 0x2DB1 JUMP JUMPDEST JUMPDEST SWAP1 PUSH1 0x0 MSTORE PUSH1 0x20 PUSH1 0x0 KECCAK256 SWAP1 PUSH1 0x6 MUL ADD PUSH1 0x1 ADD SLOAD SWAP1 POP PUSH1 0x0 DUP1 JUMPDEST DUP5 DUP2 LT ISZERO PUSH2 0x1DBE JUMPI PUSH1 0xC PUSH1 0x64 DUP5 PUSH1 0x2 SLOAD PUSH2 0x1D01 SWAP2 SWAP1 PUSH2 0x2B8A JUMP JUMPDEST PUSH2 0x1D0B SWAP2 SWAP1 PUSH2 0x2B59 JUMP JUMPDEST PUSH2 0x1D15 SWAP2 SWAP1 PUSH2 0x2B59 JUMP JUMPDEST DUP3 PUSH2 0x1D20 SWAP2 SWAP1 PUSH2 0x2B03 JUMP JUMPDEST SWAP2 POP PUSH1 0x64 PUSH1 0x6 PUSH1 0x0 DUP11 PUSH20 0xFFFFFFFFFFFFFFFFFFFFFFFFFFFFFFFFFFFFFFFF AND PUSH20 0xFFFFFFFFFFFFFFFFFFFFFFFFFFFFFFFFFFFFFFFF AND DUP2 MSTORE PUSH1 0x20 ADD SWAP1 DUP2 MSTORE PUSH1 0x20 ADD PUSH1 0x0 KECCAK256 DUP9 DUP2 SLOAD DUP2 LT PUSH2 0x1D75 JUMPI PUSH2 0x1D74 PUSH2 0x2DB1 JUMP JUMPDEST JUMPDEST SWAP1 PUSH1 0x0 MSTORE PUSH1 0x20 PUSH1 0x0 KECCAK256 SWAP1 PUSH1 0x6 MUL ADD PUSH1 0x1 ADD SLOAD PUSH1 0x1 SLOAD PUSH2 0x1D94 SWAP2 SWAP1 PUSH2 0x2B8A JUMP JUMPDEST PUSH2 0x1D9E SWAP2 SWAP1 PUSH2 0x2B59 JUMP JUMPDEST DUP4 PUSH2 0x1DA9 SWAP2 SWAP1 PUSH2 0x2BE4 JUMP JUMPDEST SWAP3 POP DUP1 DUP1 PUSH2 0x1DB6 SWAP1 PUSH2 0x2CDB JUMP JUMPDEST SWAP2 POP POP PUSH2 0x1CE7 JUMP JUMPDEST POP PUSH1 0x0 PUSH1 0x6 PUSH1 0x0 DUP10 PUSH20 0xFFFFFFFFFFFFFFFFFFFFFFFFFFFFFFFFFFFFFFFF AND PUSH20 0xFFFFFFFFFFFFFFFFFFFFFFFFFFFFFFFFFFFFFFFF AND DUP2 MSTORE PUSH1 0x20 ADD SWAP1 DUP2 MSTORE PUSH1 0x20 ADD PUSH1 0x0 KECCAK256 DUP8 DUP2 SLOAD DUP2 LT PUSH2 0x1E12 JUMPI PUSH2 0x1E11 PUSH2 0x2DB1 JUMP JUMPDEST JUMPDEST SWAP1 PUSH1 0x0 MSTORE PUSH1 0x20 PUSH1 0x0 KECCAK256 SWAP1 PUSH1 0x6 MUL ADD PUSH1 0x5 ADD SLOAD DUP5 PUSH2 0x1E2F SWAP2 SWAP1 PUSH2 0x2BE4 JUMP JUMPDEST SWAP1 POP PUSH1 0x0 PUSH1 0x6 PUSH1 0x0 DUP11 PUSH20 0xFFFFFFFFFFFFFFFFFFFFFFFFFFFFFFFFFFFFFFFF AND PUSH20 0xFFFFFFFFFFFFFFFFFFFFFFFFFFFFFFFFFFFFFFFF AND DUP2 MSTORE PUSH1 0x20 ADD SWAP1 DUP2 MSTORE PUSH1 0x20 ADD PUSH1 0x0 KECCAK256 DUP9 DUP2 SLOAD DUP2 LT PUSH2 0x1E84 JUMPI PUSH2 0x1E83 PUSH2 0x2DB1 JUMP JUMPDEST JUMPDEST SWAP1 PUSH1 0x0 MSTORE PUSH1 0x20 PUSH1 0x0 KECCAK256 SWAP1 PUSH1 0x6 MUL ADD PUSH1 0x4 ADD SLOAD DUP4 PUSH2 0x1EA1 SWAP2 SWAP1 PUSH2 0x2BE4 JUMP JUMPDEST SWAP1 POP PUSH1 0x0 PUSH1 0x40 MLOAD DUP1 PUSH1 0x60 ADD PUSH1 0x40 MSTORE DUP1 DUP5 DUP2 MSTORE PUSH1 0x20 ADD DUP4 DUP2 MSTORE PUSH1 0x20 ADD DUP4 DUP6 PUSH2 0x1EC8 SWAP2 SWAP1 PUSH2 0x2B03 JUMP JUMPDEST DUP2 MSTORE POP SWAP1 POP DUP1 SWAP8 POP POP POP POP POP POP POP POP SWAP3 SWAP2 POP POP JUMP JUMPDEST PUSH2 0x1F5E DUP4 PUSH4 0xA9059CBB PUSH1 0xE0 SHL DUP5 DUP5 PUSH1 0x40 MLOAD PUSH1 0x24 ADD PUSH2 0x1EFC SWAP3 SWAP2 SWAP1 PUSH2 0x27C3 JUMP JUMPDEST PUSH1 0x40 MLOAD PUSH1 0x20 DUP2 DUP4 SUB SUB DUP2 MSTORE SWAP1 PUSH1 0x40 MSTORE SWAP1 PUSH28 0xFFFFFFFFFFFFFFFFFFFFFFFFFFFFFFFFFFFFFFFFFFFFFFFFFFFFFFFF NOT AND PUSH1 0x20 DUP3 ADD DUP1 MLOAD PUSH28 0xFFFFFFFFFFFFFFFFFFFFFFFFFFFFFFFFFFFFFFFFFFFFFFFFFFFFFFFF DUP4 DUP2 DUP4 AND OR DUP4 MSTORE POP POP POP POP PUSH2 0x20C0 JUMP JUMPDEST POP POP POP JUMP JUMPDEST PUSH2 0x1F6B PUSH2 0x233D JUMP JUMPDEST PUSH1 0x0 DUP1 PUSH1 0x0 JUMPDEST PUSH1 0x6 PUSH1 0x0 DUP7 PUSH20 0xFFFFFFFFFFFFFFFFFFFFFFFFFFFFFFFFFFFFFFFF AND PUSH20 0xFFFFFFFFFFFFFFFFFFFFFFFFFFFFFFFFFFFFFFFF AND DUP2 MSTORE PUSH1 0x20 ADD SWAP1 DUP2 MSTORE PUSH1 0x20 ADD PUSH1 0x0 KECCAK256 DUP1 SLOAD SWAP1 POP DUP2 LT ISZERO PUSH2 0x2001 JUMPI PUSH1 0x0 PUSH2 0x1FC7 DUP7 DUP4 PUSH2 0x1B69 JUMP JUMPDEST SWAP1 POP DUP1 PUSH1 0x0 ADD MLOAD DUP5 PUSH2 0x1FD9 SWAP2 SWAP1 PUSH2 0x2B03 JUMP JUMPDEST SWAP4 POP DUP1 PUSH1 0x20 ADD MLOAD DUP4 PUSH2 0x1FEB SWAP2 SWAP1 PUSH2 0x2B03 JUMP JUMPDEST SWAP3 POP POP DUP1 DUP1 PUSH2 0x1FF9 SWAP1 PUSH2 0x2CDB JUMP JUMPDEST SWAP2 POP POP PUSH2 0x1F71 JUMP JUMPDEST POP PUSH1 0x0 PUSH1 0x40 MLOAD DUP1 PUSH1 0x60 ADD PUSH1 0x40 MSTORE DUP1 DUP5 DUP2 MSTORE PUSH1 0x20 ADD DUP4 DUP2 MSTORE PUSH1 0x20 ADD DUP4 DUP6 PUSH2 0x2027 SWAP2 SWAP1 PUSH2 0x2B03 JUMP JUMPDEST DUP2 MSTORE POP SWAP1 POP DUP1 SWAP4 POP POP POP POP SWAP2 SWAP1 POP JUMP JUMPDEST PUSH2 0x20BA DUP5 PUSH4 0x23B872DD PUSH1 0xE0 SHL DUP6 DUP6 DUP6 PUSH1 0x40 MLOAD PUSH1 0x24 ADD PUSH2 0x2058 SWAP4 SWAP3 SWAP2 SWAP1 PUSH2 0x278C JUMP JUMPDEST PUSH1 0x40 MLOAD PUSH1 0x20 DUP2 DUP4 SUB SUB DUP2 MSTORE SWAP1 PUSH1 0x40 MSTORE SWAP1 PUSH28 0xFFFFFFFFFFFFFFFFFFFFFFFFFFFFFFFFFFFFFFFFFFFFFFFFFFFFFFFF NOT AND PUSH1 0x20 DUP3 ADD DUP1 MLOAD PUSH28 0xFFFFFFFFFFFFFFFFFFFFFFFFFFFFFFFFFFFFFFFFFFFFFFFFFFFFFFFF DUP4 DUP2 DUP4 AND OR DUP4 MSTORE POP POP POP POP PUSH2 0x20C0 JUMP JUMPDEST POP POP POP POP JUMP JUMPDEST PUSH1 0x0 PUSH2 0x2122 DUP3 PUSH1 0x40 MLOAD DUP1 PUSH1 0x40 ADD PUSH1 0x40 MSTORE DUP1 PUSH1 0x20 DUP2 MSTORE PUSH1 0x20 ADD PUSH32 0x5361666545524332303A206C6F772D6C6576656C2063616C6C206661696C6564 DUP2 MSTORE POP DUP6 PUSH20 0xFFFFFFFFFFFFFFFFFFFFFFFFFFFFFFFFFFFFFFFF AND PUSH2 0x2187 SWAP1 SWAP3 SWAP2 SWAP1 PUSH4 0xFFFFFFFF AND JUMP JUMPDEST SWAP1 POP PUSH1 0x0 DUP2 MLOAD GT ISZERO PUSH2 0x2182 JUMPI DUP1 DUP1 PUSH1 0x20 ADD SWAP1 MLOAD DUP2 ADD SWAP1 PUSH2 0x2142 SWAP2 SWAP1 PUSH2 0x240A JUMP JUMPDEST PUSH2 0x2181 JUMPI PUSH1 0x40 MLOAD PUSH32 0x8C379A000000000000000000000000000000000000000000000000000000000 DUP2 MSTORE PUSH1 0x4 ADD PUSH2 0x2178 SWAP1 PUSH2 0x2914 JUMP JUMPDEST PUSH1 0x40 MLOAD DUP1 SWAP2 SUB SWAP1 REVERT JUMPDEST JUMPDEST POP POP POP JUMP JUMPDEST PUSH1 0x60 PUSH2 0x2196 DUP5 DUP5 PUSH1 0x0 DUP6 PUSH2 0x219F JUMP JUMPDEST SWAP1 POP SWAP4 SWAP3 POP POP POP JUMP JUMPDEST PUSH1 0x60 DUP3 SELFBALANCE LT ISZERO PUSH2 0x21E4 JUMPI PUSH1 0x40 MLOAD PUSH32 0x8C379A000000000000000000000000000000000000000000000000000000000 DUP2 MSTORE PUSH1 0x4 ADD PUSH2 0x21DB SWAP1 PUSH2 0x28B4 JUMP JUMPDEST PUSH1 0x40 MLOAD DUP1 SWAP2 SUB SWAP1 REVERT JUMPDEST PUSH2 0x21ED DUP6 PUSH2 0x22B3 JUMP JUMPDEST PUSH2 0x222C JUMPI PUSH1 0x40 MLOAD PUSH32 0x8C379A000000000000000000000000000000000000000000000000000000000 DUP2 MSTORE PUSH1 0x4 ADD PUSH2 0x2223 SWAP1 PUSH2 0x28F4 JUMP JUMPDEST PUSH1 0x40 MLOAD DUP1 SWAP2 SUB SWAP1 REVERT JUMPDEST PUSH1 0x0 DUP1 DUP7 PUSH20 0xFFFFFFFFFFFFFFFFFFFFFFFFFFFFFFFFFFFFFFFF AND DUP6 DUP8 PUSH1 0x40 MLOAD PUSH2 0x2255 SWAP2 SWAP1 PUSH2 0x2775 JUMP JUMPDEST PUSH1 0x0 PUSH1 0x40 MLOAD DUP1 DUP4 SUB DUP2 DUP6 DUP8 GAS CALL SWAP3 POP POP POP RETURNDATASIZE DUP1 PUSH1 0x0 DUP2 EQ PUSH2 0x2292 JUMPI PUSH1 0x40 MLOAD SWAP2 POP PUSH1 0x1F NOT PUSH1 0x3F RETURNDATASIZE ADD AND DUP3 ADD PUSH1 0x40 MSTORE RETURNDATASIZE DUP3 MSTORE RETURNDATASIZE PUSH1 0x0 PUSH1 0x20 DUP5 ADD RETURNDATACOPY PUSH2 0x2297 JUMP JUMPDEST PUSH1 0x60 SWAP2 POP JUMPDEST POP SWAP2 POP SWAP2 POP PUSH2 0x22A7 DUP3 DUP3 DUP7 PUSH2 0x22D6 JUMP JUMPDEST SWAP3 POP POP POP SWAP5 SWAP4 POP POP POP POP JUMP JUMPDEST PUSH1 0x0 DUP1 DUP3 PUSH20 0xFFFFFFFFFFFFFFFFFFFFFFFFFFFFFFFFFFFFFFFF AND EXTCODESIZE GT SWAP1 POP SWAP2 SWAP1 POP JUMP JUMPDEST PUSH1 0x60 DUP4 ISZERO PUSH2 0x22E6 JUMPI DUP3 SWAP1 POP PUSH2 0x2336 JUMP JUMPDEST PUSH1 0x0 DUP4 MLOAD GT ISZERO PUSH2 0x22F9 JUMPI DUP3 MLOAD DUP1 DUP5 PUSH1 0x20 ADD REVERT JUMPDEST DUP2 PUSH1 0x40 MLOAD PUSH32 0x8C379A000000000000000000000000000000000000000000000000000000000 DUP2 MSTORE PUSH1 0x4 ADD PUSH2 0x232D SWAP2 SWAP1 PUSH2 0x2852 JUMP JUMPDEST PUSH1 0x40 MLOAD DUP1 SWAP2 SUB SWAP1 REVERT JUMPDEST SWAP4 SWAP3 POP POP POP JUMP JUMPDEST PUSH1 0x40 MLOAD DUP1 PUSH1 0x60 ADD PUSH1 0x40 MSTORE DUP1 PUSH1 0x0 DUP2 MSTORE PUSH1 0x20 ADD PUSH1 0x0 DUP2 MSTORE PUSH1 0x20 ADD PUSH1 0x0 DUP2 MSTORE POP SWAP1 JUMP JUMPDEST PUSH1 0x0 DUP2 CALLDATALOAD SWAP1 POP PUSH2 0x236D DUP2 PUSH2 0x2FDF JUMP JUMPDEST SWAP3 SWAP2 POP POP JUMP JUMPDEST PUSH1 0x0 DUP2 MLOAD SWAP1 POP PUSH2 0x2382 DUP2 PUSH2 0x2FF6 JUMP JUMPDEST SWAP3 SWAP2 POP POP JUMP JUMPDEST PUSH1 0x0 DUP2 CALLDATALOAD SWAP1 POP PUSH2 0x2397 DUP2 PUSH2 0x300D JUMP JUMPDEST SWAP3 SWAP2 POP POP JUMP JUMPDEST PUSH1 0x0 PUSH1 0x20 DUP3 DUP5 SUB SLT ISZERO PUSH2 0x23B3 JUMPI PUSH2 0x23B2 PUSH2 0x2E0F JUMP JUMPDEST JUMPDEST PUSH1 0x0 PUSH2 0x23C1 DUP5 DUP3 DUP6 ADD PUSH2 0x235E JUMP JUMPDEST SWAP2 POP POP SWAP3 SWAP2 POP POP JUMP JUMPDEST PUSH1 0x0 DUP1 PUSH1 0x40 DUP4 DUP6 SUB SLT ISZERO PUSH2 0x23E1 JUMPI PUSH2 0x23E0 PUSH2 0x2E0F JUMP JUMPDEST JUMPDEST PUSH1 0x0 PUSH2 0x23EF DUP6 DUP3 DUP7 ADD PUSH2 0x235E JUMP JUMPDEST SWAP3 POP POP PUSH1 0x20 PUSH2 0x2400 DUP6 DUP3 DUP7 ADD PUSH2 0x2388 JUMP JUMPDEST SWAP2 POP POP SWAP3 POP SWAP3 SWAP1 POP JUMP JUMPDEST PUSH1 0x0 PUSH1 0x20 DUP3 DUP5 SUB SLT ISZERO PUSH2 0x2420 JUMPI PUSH2 0x241F PUSH2 0x2E0F JUMP JUMPDEST JUMPDEST PUSH1 0x0 PUSH2 0x242E DUP5 DUP3 DUP6 ADD PUSH2 0x2373 JUMP JUMPDEST SWAP2 POP POP SWAP3 SWAP2 POP POP JUMP JUMPDEST PUSH1 0x0 PUSH1 0x20 DUP3 DUP5 SUB SLT ISZERO PUSH2 0x244D JUMPI PUSH2 0x244C PUSH2 0x2E0F JUMP JUMPDEST JUMPDEST PUSH1 0x0 PUSH2 0x245B DUP5 DUP3 DUP6 ADD PUSH2 0x2388 JUMP JUMPDEST SWAP2 POP POP SWAP3 SWAP2 POP POP JUMP JUMPDEST PUSH1 0x0 DUP1 PUSH1 0x40 DUP4 DUP6 SUB SLT ISZERO PUSH2 0x247B JUMPI PUSH2 0x247A PUSH2 0x2E0F JUMP JUMPDEST JUMPDEST PUSH1 0x0 PUSH2 0x2489 DUP6 DUP3 DUP7 ADD PUSH2 0x2388 JUMP JUMPDEST SWAP3 POP POP PUSH1 0x20 PUSH2 0x249A DUP6 DUP3 DUP7 ADD PUSH2 0x2388 JUMP JUMPDEST SWAP2 POP POP SWAP3 POP SWAP3 SWAP1 POP JUMP JUMPDEST PUSH1 0x0 PUSH2 0x24B0 DUP4 DUP4 PUSH2 0x258B JUMP JUMPDEST SWAP1 POP SWAP3 SWAP2 POP POP JUMP JUMPDEST PUSH2 0x24C1 DUP2 PUSH2 0x2C18 JUMP JUMPDEST DUP3 MSTORE POP POP JUMP JUMPDEST PUSH1 0x0 PUSH2 0x24D2 DUP3 PUSH2 0x2A97 JUMP JUMPDEST PUSH2 0x24DC DUP2 DUP6 PUSH2 0x2AC5 JUMP JUMPDEST SWAP4 POP DUP4 PUSH1 0x20 DUP3 MUL DUP6 ADD PUSH2 0x24EE DUP6 PUSH2 0x2A87 JUMP JUMPDEST DUP1 PUSH1 0x0 JUMPDEST DUP6 DUP2 LT ISZERO PUSH2 0x252A JUMPI DUP5 DUP5 SUB DUP10 MSTORE DUP2 MLOAD PUSH2 0x250B DUP6 DUP3 PUSH2 0x24A4 JUMP JUMPDEST SWAP5 POP PUSH2 0x2516 DUP4 PUSH2 0x2AB8 JUMP JUMPDEST SWAP3 POP PUSH1 0x20 DUP11 ADD SWAP10 POP POP PUSH1 0x1 DUP2 ADD SWAP1 POP PUSH2 0x24F2 JUMP JUMPDEST POP DUP3 SWAP8 POP DUP8 SWAP6 POP POP POP POP POP POP SWAP3 SWAP2 POP POP JUMP JUMPDEST PUSH1 0x0 PUSH2 0x2547 DUP3 PUSH2 0x2AA2 JUMP JUMPDEST PUSH2 0x2551 DUP2 DUP6 PUSH2 0x2AD6 JUMP JUMPDEST SWAP4 POP PUSH2 0x2561 DUP2 DUP6 PUSH1 0x20 DUP7 ADD PUSH2 0x2CA8 JUMP JUMPDEST DUP1 DUP5 ADD SWAP2 POP POP SWAP3 SWAP2 POP POP JUMP JUMPDEST PUSH2 0x2576 DUP2 PUSH2 0x2C60 JUMP JUMPDEST DUP3 MSTORE POP POP JUMP JUMPDEST PUSH2 0x2585 DUP2 PUSH2 0x2C72 JUMP JUMPDEST DUP3 MSTORE POP POP JUMP JUMPDEST PUSH1 0x0 PUSH2 0x2596 DUP3 PUSH2 0x2AAD JUMP JUMPDEST PUSH2 0x25A0 DUP2 DUP6 PUSH2 0x2AE1 JUMP JUMPDEST SWAP4 POP PUSH2 0x25B0 DUP2 DUP6 PUSH1 0x20 DUP7 ADD PUSH2 0x2CA8 JUMP JUMPDEST PUSH2 0x25B9 DUP2 PUSH2 0x2E14 JUMP JUMPDEST DUP5 ADD SWAP2 POP POP SWAP3 SWAP2 POP POP JUMP JUMPDEST PUSH1 0x0 PUSH2 0x25CF DUP3 PUSH2 0x2AAD JUMP JUMPDEST PUSH2 0x25D9 DUP2 DUP6 PUSH2 0x2AF2 JUMP JUMPDEST SWAP4 POP PUSH2 0x25E9 DUP2 DUP6 PUSH1 0x20 DUP7 ADD PUSH2 0x2CA8 JUMP JUMPDEST PUSH2 0x25F2 DUP2 PUSH2 0x2E14 JUMP JUMPDEST DUP5 ADD SWAP2 POP POP SWAP3 SWAP2 POP POP JUMP JUMPDEST PUSH1 0x0 PUSH2 0x260A PUSH1 0x21 DUP4 PUSH2 0x2AF2 JUMP JUMPDEST SWAP2 POP PUSH2 0x2615 DUP3 PUSH2 0x2E25 JUMP JUMPDEST PUSH1 0x40 DUP3 ADD SWAP1 POP SWAP2 SWAP1 POP JUMP JUMPDEST PUSH1 0x0 PUSH2 0x262D PUSH1 0x1B DUP4 PUSH2 0x2AF2 JUMP JUMPDEST SWAP2 POP PUSH2 0x2638 DUP3 PUSH2 0x2E74 JUMP JUMPDEST PUSH1 0x20 DUP3 ADD SWAP1 POP SWAP2 SWAP1 POP JUMP JUMPDEST PUSH1 0x0 PUSH2 0x2650 PUSH1 0x26 DUP4 PUSH2 0x2AF2 JUMP JUMPDEST SWAP2 POP PUSH2 0x265B DUP3 PUSH2 0x2E9D JUMP JUMPDEST PUSH1 0x40 DUP3 ADD SWAP1 POP SWAP2 SWAP1 POP JUMP JUMPDEST PUSH1 0x0 PUSH2 0x2673 PUSH1 0x1C DUP4 PUSH2 0x2AF2 JUMP JUMPDEST SWAP2 POP PUSH2 0x267E DUP3 PUSH2 0x2EEC JUMP JUMPDEST PUSH1 0x20 DUP3 ADD SWAP1 POP SWAP2 SWAP1 POP JUMP JUMPDEST PUSH1 0x0 PUSH2 0x2696 PUSH1 0x1D DUP4 PUSH2 0x2AF2 JUMP JUMPDEST SWAP2 POP PUSH2 0x26A1 DUP3 PUSH2 0x2F15 JUMP JUMPDEST PUSH1 0x20 DUP3 ADD SWAP1 POP SWAP2 SWAP1 POP JUMP JUMPDEST PUSH1 0x0 PUSH2 0x26B9 PUSH1 0x2A DUP4 PUSH2 0x2AF2 JUMP JUMPDEST SWAP2 POP PUSH2 0x26C4 DUP3 PUSH2 0x2F3E JUMP JUMPDEST PUSH1 0x40 DUP3 ADD SWAP1 POP SWAP2 SWAP1 POP JUMP JUMPDEST PUSH1 0x0 PUSH2 0x26DC PUSH1 0x1F DUP4 PUSH2 0x2AF2 JUMP JUMPDEST SWAP2 POP PUSH2 0x26E7 DUP3 PUSH2 0x2F8D JUMP JUMPDEST PUSH1 0x20 DUP3 ADD SWAP1 POP SWAP2 SWAP1 POP JUMP JUMPDEST PUSH1 0x0 PUSH2 0x26FF PUSH1 0x1B DUP4 PUSH2 0x2AF2 JUMP JUMPDEST SWAP2 POP PUSH2 0x270A DUP3 PUSH2 0x2FB6 JUMP JUMPDEST PUSH1 0x20 DUP3 ADD SWAP1 POP SWAP2 SWAP1 POP JUMP JUMPDEST PUSH1 0x60 DUP3 ADD PUSH1 0x0 DUP3 ADD MLOAD PUSH2 0x272B PUSH1 0x0 DUP6 ADD DUP3 PUSH2 0x2757 JUMP JUMPDEST POP PUSH1 0x20 DUP3 ADD MLOAD PUSH2 0x273E PUSH1 0x20 DUP6 ADD DUP3 PUSH2 0x2757 JUMP JUMPDEST POP PUSH1 0x40 DUP3 ADD MLOAD PUSH2 0x2751 PUSH1 0x40 DUP6 ADD DUP3 PUSH2 0x2757 JUMP JUMPDEST POP POP POP POP JUMP JUMPDEST PUSH2 0x2760 DUP2 PUSH2 0x2C56 JUMP JUMPDEST DUP3 MSTORE POP POP JUMP JUMPDEST PUSH2 0x276F DUP2 PUSH2 0x2C56 JUMP JUMPDEST DUP3 MSTORE POP POP JUMP JUMPDEST PUSH1 0x0 PUSH2 0x2781 DUP3 DUP5 PUSH2 0x253C JUMP JUMPDEST SWAP2 POP DUP2 SWAP1 POP SWAP3 SWAP2 POP POP JUMP JUMPDEST PUSH1 0x0 PUSH1 0x60 DUP3 ADD SWAP1 POP PUSH2 0x27A1 PUSH1 0x0 DUP4 ADD DUP7 PUSH2 0x24B8 JUMP JUMPDEST PUSH2 0x27AE PUSH1 0x20 DUP4 ADD DUP6 PUSH2 0x24B8 JUMP JUMPDEST PUSH2 0x27BB PUSH1 0x40 DUP4 ADD DUP5 PUSH2 0x2766 JUMP JUMPDEST SWAP5 SWAP4 POP POP POP POP JUMP JUMPDEST PUSH1 0x0 PUSH1 0x40 DUP3 ADD SWAP1 POP PUSH2 0x27D8 PUSH1 0x0 DUP4 ADD DUP6 PUSH2 0x24B8 JUMP JUMPDEST PUSH2 0x27E5 PUSH1 0x20 DUP4 ADD DUP5 PUSH2 0x2766 JUMP JUMPDEST SWAP4 SWAP3 POP POP POP JUMP JUMPDEST PUSH1 0x0 PUSH1 0x80 DUP3 ADD SWAP1 POP DUP2 DUP2 SUB PUSH1 0x0 DUP4 ADD MSTORE PUSH2 0x2806 DUP2 DUP6 PUSH2 0x24C7 JUMP JUMPDEST SWAP1 POP PUSH2 0x2815 PUSH1 0x20 DUP4 ADD DUP5 PUSH2 0x2715 JUMP JUMPDEST SWAP4 SWAP3 POP POP POP JUMP JUMPDEST PUSH1 0x0 PUSH1 0x20 DUP3 ADD SWAP1 POP PUSH2 0x2831 PUSH1 0x0 DUP4 ADD DUP5 PUSH2 0x256D JUMP JUMPDEST SWAP3 SWAP2 POP POP JUMP JUMPDEST PUSH1 0x0 PUSH1 0x20 DUP3 ADD SWAP1 POP PUSH2 0x284C PUSH1 0x0 DUP4 ADD DUP5 PUSH2 0x257C JUMP JUMPDEST SWAP3 SWAP2 POP POP JUMP JUMPDEST PUSH1 0x0 PUSH1 0x20 DUP3 ADD SWAP1 POP DUP2 DUP2 SUB PUSH1 0x0 DUP4 ADD MSTORE PUSH2 0x286C DUP2 DUP5 PUSH2 0x25C4 JUMP JUMPDEST SWAP1 POP SWAP3 SWAP2 POP POP JUMP JUMPDEST PUSH1 0x0 PUSH1 0x20 DUP3 ADD SWAP1 POP DUP2 DUP2 SUB PUSH1 0x0 DUP4 ADD MSTORE PUSH2 0x288D DUP2 PUSH2 0x25FD JUMP JUMPDEST SWAP1 POP SWAP2 SWAP1 POP JUMP JUMPDEST PUSH1 0x0 PUSH1 0x20 DUP3 ADD SWAP1 POP DUP2 DUP2 SUB PUSH1 0x0 DUP4 ADD MSTORE PUSH2 0x28AD DUP2 PUSH2 0x2620 JUMP JUMPDEST SWAP1 POP SWAP2 SWAP1 POP JUMP JUMPDEST PUSH1 0x0 PUSH1 0x20 DUP3 ADD SWAP1 POP DUP2 DUP2 SUB PUSH1 0x0 DUP4 ADD MSTORE PUSH2 0x28CD DUP2 PUSH2 0x2643 JUMP JUMPDEST SWAP1 POP SWAP2 SWAP1 POP JUMP JUMPDEST PUSH1 0x0 PUSH1 0x20 DUP3 ADD SWAP1 POP DUP2 DUP2 SUB PUSH1 0x0 DUP4 ADD MSTORE PUSH2 0x28ED DUP2 PUSH2 0x2666 JUMP JUMPDEST SWAP1 POP SWAP2 SWAP1 POP JUMP JUMPDEST PUSH1 0x0 PUSH1 0x20 DUP3 ADD SWAP1 POP DUP2 DUP2 SUB PUSH1 0x0 DUP4 ADD MSTORE PUSH2 0x290D DUP2 PUSH2 0x2689 JUMP JUMPDEST SWAP1 POP SWAP2 SWAP1 POP JUMP JUMPDEST PUSH1 0x0 PUSH1 0x20 DUP3 ADD SWAP1 POP DUP2 DUP2 SUB PUSH1 0x0 DUP4 ADD MSTORE PUSH2 0x292D DUP2 PUSH2 0x26AC JUMP JUMPDEST SWAP1 POP SWAP2 SWAP1 POP JUMP JUMPDEST PUSH1 0x0 PUSH1 0x20 DUP3 ADD SWAP1 POP DUP2 DUP2 SUB PUSH1 0x0 DUP4 ADD MSTORE PUSH2 0x294D DUP2 PUSH2 0x26CF JUMP JUMPDEST SWAP1 POP SWAP2 SWAP1 POP JUMP JUMPDEST PUSH1 0x0 PUSH1 0x20 DUP3 ADD SWAP1 POP DUP2 DUP2 SUB PUSH1 0x0 DUP4 ADD MSTORE PUSH2 0x296D DUP2 PUSH2 0x26F2 JUMP JUMPDEST SWAP1 POP SWAP2 SWAP1 POP JUMP JUMPDEST PUSH1 0x0 PUSH1 0x60 DUP3 ADD SWAP1 POP PUSH2 0x2989 PUSH1 0x0 DUP4 ADD DUP5 PUSH2 0x2715 JUMP JUMPDEST SWAP3 SWAP2 POP POP JUMP JUMPDEST PUSH1 0x0 PUSH1 0x20 DUP3 ADD SWAP1 POP PUSH2 0x29A4 PUSH1 0x0 DUP4 ADD DUP5 PUSH2 0x2766 JUMP JUMPDEST SWAP3 SWAP2 POP POP JUMP JUMPDEST PUSH1 0x0 PUSH1 0x40 DUP3 ADD SWAP1 POP PUSH2 0x29BF PUSH1 0x0 DUP4 ADD DUP6 PUSH2 0x2766 JUMP JUMPDEST PUSH2 0x29CC PUSH1 0x20 DUP4 ADD DUP5 PUSH2 0x2766 JUMP JUMPDEST SWAP4 SWAP3 POP POP POP JUMP JUMPDEST PUSH1 0x0 PUSH1 0xA0 DUP3 ADD SWAP1 POP PUSH2 0x29E8 PUSH1 0x0 DUP4 ADD DUP9 PUSH2 0x2766 JUMP JUMPDEST PUSH2 0x29F5 PUSH1 0x20 DUP4 ADD DUP8 PUSH2 0x2766 JUMP JUMPDEST PUSH2 0x2A02 PUSH1 0x40 DUP4 ADD DUP7 PUSH2 0x2766 JUMP JUMPDEST PUSH2 0x2A0F PUSH1 0x60 DUP4 ADD DUP6 PUSH2 0x2766 JUMP JUMPDEST PUSH2 0x2A1C PUSH1 0x80 DUP4 ADD DUP5 PUSH2 0x2766 JUMP JUMPDEST SWAP7 SWAP6 POP POP POP POP POP POP JUMP JUMPDEST PUSH1 0x0 PUSH1 0xC0 DUP3 ADD SWAP1 POP PUSH2 0x2A3B PUSH1 0x0 DUP4 ADD DUP10 PUSH2 0x2766 JUMP JUMPDEST PUSH2 0x2A48 PUSH1 0x20 DUP4 ADD DUP9 PUSH2 0x2766 JUMP JUMPDEST PUSH2 0x2A55 PUSH1 0x40 DUP4 ADD DUP8 PUSH2 0x2766 JUMP JUMPDEST PUSH2 0x2A62 PUSH1 0x60 DUP4 ADD DUP7 PUSH2 0x2766 JUMP JUMPDEST PUSH2 0x2A6F PUSH1 0x80 DUP4 ADD DUP6 PUSH2 0x2766 JUMP JUMPDEST PUSH2 0x2A7C PUSH1 0xA0 DUP4 ADD DUP5 PUSH2 0x2766 JUMP JUMPDEST SWAP8 SWAP7 POP POP POP POP POP POP POP JUMP JUMPDEST PUSH1 0x0 DUP2 SWAP1 POP PUSH1 0x20 DUP3 ADD SWAP1 POP SWAP2 SWAP1 POP JUMP JUMPDEST PUSH1 0x0 DUP2 MLOAD SWAP1 POP SWAP2 SWAP1 POP JUMP JUMPDEST PUSH1 0x0 DUP2 MLOAD SWAP1 POP SWAP2 SWAP1 POP JUMP JUMPDEST PUSH1 0x0 DUP2 MLOAD SWAP1 POP SWAP2 SWAP1 POP JUMP JUMPDEST PUSH1 0x0 PUSH1 0x20 DUP3 ADD SWAP1 POP SWAP2 SWAP1 POP JUMP JUMPDEST PUSH1 0x0 DUP3 DUP3 MSTORE PUSH1 0x20 DUP3 ADD SWAP1 POP SWAP3 SWAP2 POP POP JUMP JUMPDEST PUSH1 0x0 DUP2 SWAP1 POP SWAP3 SWAP2 POP POP JUMP JUMPDEST PUSH1 0x0 DUP3 DUP3 MSTORE PUSH1 0x20 DUP3 ADD SWAP1 POP SWAP3 SWAP2 POP POP JUMP JUMPDEST PUSH1 0x0 DUP3 DUP3 MSTORE PUSH1 0x20 DUP3 ADD SWAP1 POP SWAP3 SWAP2 POP POP JUMP JUMPDEST PUSH1 0x0 PUSH2 0x2B0E DUP3 PUSH2 0x2C56 JUMP JUMPDEST SWAP2 POP PUSH2 0x2B19 DUP4 PUSH2 0x2C56 JUMP JUMPDEST SWAP3 POP DUP3 PUSH32 0xFFFFFFFFFFFFFFFFFFFFFFFFFFFFFFFFFFFFFFFFFFFFFFFFFFFFFFFFFFFFFFFF SUB DUP3 GT ISZERO PUSH2 0x2B4E JUMPI PUSH2 0x2B4D PUSH2 0x2D24 JUMP JUMPDEST JUMPDEST DUP3 DUP3 ADD SWAP1 POP SWAP3 SWAP2 POP POP JUMP JUMPDEST PUSH1 0x0 PUSH2 0x2B64 DUP3 PUSH2 0x2C56 JUMP JUMPDEST SWAP2 POP PUSH2 0x2B6F DUP4 PUSH2 0x2C56 JUMP JUMPDEST SWAP3 POP DUP3 PUSH2 0x2B7F JUMPI PUSH2 0x2B7E PUSH2 0x2D53 JUMP JUMPDEST JUMPDEST DUP3 DUP3 DIV SWAP1 POP SWAP3 SWAP2 POP POP JUMP JUMPDEST PUSH1 0x0 PUSH2 0x2B95 DUP3 PUSH2 0x2C56 JUMP JUMPDEST SWAP2 POP PUSH2 0x2BA0 DUP4 PUSH2 0x2C56 JUMP JUMPDEST SWAP3 POP DUP2 PUSH32 0xFFFFFFFFFFFFFFFFFFFFFFFFFFFFFFFFFFFFFFFFFFFFFFFFFFFFFFFFFFFFFFFF DIV DUP4 GT DUP3 ISZERO ISZERO AND ISZERO PUSH2 0x2BD9 JUMPI PUSH2 0x2BD8 PUSH2 0x2D24 JUMP JUMPDEST JUMPDEST DUP3 DUP3 MUL SWAP1 POP SWAP3 SWAP2 POP POP JUMP JUMPDEST PUSH1 0x0 PUSH2 0x2BEF DUP3 PUSH2 0x2C56 JUMP JUMPDEST SWAP2 POP PUSH2 0x2BFA DUP4 PUSH2 0x2C56 JUMP JUMPDEST SWAP3 POP DUP3 DUP3 LT ISZERO PUSH2 0x2C0D JUMPI PUSH2 0x2C0C PUSH2 0x2D24 JUMP JUMPDEST JUMPDEST DUP3 DUP3 SUB SWAP1 POP SWAP3 SWAP2 POP POP JUMP JUMPDEST PUSH1 0x0 PUSH2 0x2C23 DUP3 PUSH2 0x2C36 JUMP JUMPDEST SWAP1 POP SWAP2 SWAP1 POP JUMP JUMPDEST PUSH1 0x0 DUP2 ISZERO ISZERO SWAP1 POP SWAP2 SWAP1 POP JUMP JUMPDEST PUSH1 0x0 PUSH20 0xFFFFFFFFFFFFFFFFFFFFFFFFFFFFFFFFFFFFFFFF DUP3 AND SWAP1 POP SWAP2 SWAP1 POP JUMP JUMPDEST PUSH1 0x0 DUP2 SWAP1 POP SWAP2 SWAP1 POP JUMP JUMPDEST PUSH1 0x0 PUSH2 0x2C6B DUP3 PUSH2 0x2C84 JUMP JUMPDEST SWAP1 POP SWAP2 SWAP1 POP JUMP JUMPDEST PUSH1 0x0 PUSH2 0x2C7D DUP3 PUSH2 0x2C84 JUMP JUMPDEST SWAP1 POP SWAP2 SWAP1 POP JUMP JUMPDEST PUSH1 0x0 PUSH2 0x2C8F DUP3 PUSH2 0x2C96 JUMP JUMPDEST SWAP1 POP SWAP2 SWAP1 POP JUMP JUMPDEST PUSH1 0x0 PUSH2 0x2CA1 DUP3 PUSH2 0x2C36 JUMP JUMPDEST SWAP1 POP SWAP2 SWAP1 POP JUMP JUMPDEST PUSH1 0x0 JUMPDEST DUP4 DUP2 LT ISZERO PUSH2 0x2CC6 JUMPI DUP1 DUP3 ADD MLOAD DUP2 DUP5 ADD MSTORE PUSH1 0x20 DUP2 ADD SWAP1 POP PUSH2 0x2CAB JUMP JUMPDEST DUP4 DUP2 GT ISZERO PUSH2 0x2CD5 JUMPI PUSH1 0x0 DUP5 DUP5 ADD MSTORE JUMPDEST POP POP POP POP JUMP JUMPDEST PUSH1 0x0 PUSH2 0x2CE6 DUP3 PUSH2 0x2C56 JUMP JUMPDEST SWAP2 POP PUSH32 0xFFFFFFFFFFFFFFFFFFFFFFFFFFFFFFFFFFFFFFFFFFFFFFFFFFFFFFFFFFFFFFFF DUP3 EQ ISZERO PUSH2 0x2D19 JUMPI PUSH2 0x2D18 PUSH2 0x2D24 JUMP JUMPDEST JUMPDEST PUSH1 0x1 DUP3 ADD SWAP1 POP SWAP2 SWAP1 POP JUMP JUMPDEST PUSH32 0x4E487B7100000000000000000000000000000000000000000000000000000000 PUSH1 0x0 MSTORE PUSH1 0x11 PUSH1 0x4 MSTORE PUSH1 0x24 PUSH1 0x0 REVERT JUMPDEST PUSH32 0x4E487B7100000000000000000000000000000000000000000000000000000000 PUSH1 0x0 MSTORE PUSH1 0x12 PUSH1 0x4 MSTORE PUSH1 0x24 PUSH1 0x0 REVERT JUMPDEST PUSH32 0x4E487B7100000000000000000000000000000000000000000000000000000000 PUSH1 0x0 MSTORE PUSH1 0x31 PUSH1 0x4 MSTORE PUSH1 0x24 PUSH1 0x0 REVERT JUMPDEST PUSH32 0x4E487B7100000000000000000000000000000000000000000000000000000000 PUSH1 0x0 MSTORE PUSH1 0x32 PUSH1 0x4 MSTORE PUSH1 0x24 PUSH1 0x0 REVERT JUMPDEST PUSH32 0x4E487B7100000000000000000000000000000000000000000000000000000000 PUSH1 0x0 MSTORE PUSH1 0x41 PUSH1 0x4 MSTORE PUSH1 0x24 PUSH1 0x0 REVERT JUMPDEST PUSH1 0x0 DUP1 REVERT JUMPDEST PUSH1 0x0 PUSH1 0x1F NOT PUSH1 0x1F DUP4 ADD AND SWAP1 POP SWAP2 SWAP1 POP JUMP JUMPDEST PUSH32 0x556E7374616B653A2052656465656D61626C6520746F6B656E20756E636C6169 PUSH1 0x0 DUP3 ADD MSTORE PUSH32 0x6D00000000000000000000000000000000000000000000000000000000000000 PUSH1 0x20 DUP3 ADD MSTORE POP JUMP JUMPDEST PUSH32 0x496E7465726573743A204E6F7468696E6720746F2072656465656D0000000000 PUSH1 0x0 DUP3 ADD MSTORE POP JUMP JUMPDEST PUSH32 0x416464726573733A20696E73756666696369656E742062616C616E636520666F PUSH1 0x0 DUP3 ADD MSTORE PUSH32 0x722063616C6C0000000000000000000000000000000000000000000000000000 PUSH1 0x20 DUP3 ADD MSTORE POP JUMP JUMPDEST PUSH32 0x57697468647261773A20416D6F756E74206D757374206265203E203000000000 PUSH1 0x0 DUP3 ADD MSTORE POP JUMP JUMPDEST PUSH32 0x416464726573733A2063616C6C20746F206E6F6E2D636F6E7472616374000000 PUSH1 0x0 DUP3 ADD MSTORE POP JUMP JUMPDEST PUSH32 0x5361666545524332303A204552433230206F7065726174696F6E20646964206E PUSH1 0x0 DUP3 ADD MSTORE PUSH32 0x6F74207375636365656400000000000000000000000000000000000000000000 PUSH1 0x20 DUP3 ADD MSTORE POP JUMP JUMPDEST PUSH32 0x5265656E7472616E637947756172643A207265656E7472616E742063616C6C00 PUSH1 0x0 DUP3 ADD MSTORE POP JUMP JUMPDEST PUSH32 0x4465706F7369743A20416D6F756E74206D757374206265203E20300000000000 PUSH1 0x0 DUP3 ADD MSTORE POP JUMP JUMPDEST PUSH2 0x2FE8 DUP2 PUSH2 0x2C18 JUMP JUMPDEST DUP2 EQ PUSH2 0x2FF3 JUMPI PUSH1 0x0 DUP1 REVERT JUMPDEST POP JUMP JUMPDEST PUSH2 0x2FFF DUP2 PUSH2 0x2C2A JUMP JUMPDEST DUP2 EQ PUSH2 0x300A JUMPI PUSH1 0x0 DUP1 REVERT JUMPDEST POP JUMP JUMPDEST PUSH2 0x3016 DUP2 PUSH2 0x2C56 JUMP JUMPDEST DUP2 EQ PUSH2 0x3021 JUMPI PUSH1 0x0 DUP1 REVERT JUMPDEST POP JUMP INVALID LOG2 PUSH5 0x6970667358 0x22 SLT KECCAK256 0x1E SMOD 0xC1 0xC1 0xBC RETURN CALLDATALOAD DUP1 0x2B 0x4B SLT KECCAK256 0xB6 0xDD PUSH15 0xC1A65BC03A186C55AFD69DBE1FDC85 CREATE2 ORIGIN PUSH5 0x736F6C6343 STOP ADDMOD SMOD STOP CALLER "
		},
		"gasEstimates": {
			"creation": {
				"codeDepositCost": "2475600",
				"executionCost": "infinite",
				"totalCost": "infinite"
			},
			"external": {
				"HackInterestToken()": "infinite",
				"HackToken()": "infinite",
				"PRECISION_FACTOR()": "352",
				"buybackRate()": "2495",
				"deposit(uint256)": "infinite",
				"getRedeemableAmount(address,uint256)": "infinite",
				"getStakeCount(address)": "2894",
				"getTotalRedeemableAmount(address)": "infinite",
				"interestRate()": "2519",
				"redeemInterest()": "infinite",
				"stakeLimit()": "2497",
				"stakeMapping(address,uint256)": "infinite",
				"totalAmountStaked()": "2517",
				"unstake(uint256)": "infinite",
				"updateDateTest(uint256,uint256)": "infinite",
				"userMapping(address)": "infinite"
			},
			"internal": {
				"calculateRedeemable(address,uint256)": "infinite",
				"calculateTotalRedeemable(address)": "infinite"
			}
		},
		"methodIdentifiers": {
			"HackInterestToken()": "d0a47247",
			"HackToken()": "f71f71af",
			"PRECISION_FACTOR()": "ccd34cd5",
			"buybackRate()": "f76024c4",
			"deposit(uint256)": "b6b55f25",
			"getRedeemableAmount(address,uint256)": "9b147bc6",
			"getStakeCount(address)": "cf57ee69",
			"getTotalRedeemableAmount(address)": "b0797b8e",
			"interestRate()": "7c3a00fd",
			"redeemInterest()": "9fd53034",
			"stakeLimit()": "45ef79af",
			"stakeMapping(address,uint256)": "f5bb23ab",
			"totalAmountStaked()": "fe961f61",
			"unstake(uint256)": "2e17de78",
			"updateDateTest(uint256,uint256)": "d720a515",
			"userMapping(address)": "118b9535"
		}
	},
	"abi": [
		{
			"inputs": [
				{
					"internalType": "address",
					"name": "_HackToken",
					"type": "address"
				},
				{
					"internalType": "address",
					"name": "_HackInterestToken",
					"type": "address"
				}
			],
			"stateMutability": "nonpayable",
			"type": "constructor"
		},
		{
			"anonymous": false,
			"inputs": [
				{
					"indexed": true,
					"internalType": "address",
					"name": "user",
					"type": "address"
				},
				{
					"indexed": false,
					"internalType": "uint256",
					"name": "amount",
					"type": "uint256"
				}
			],
			"name": "Deposit",
			"type": "event"
		},
		{
			"anonymous": false,
			"inputs": [
				{
					"indexed": true,
					"internalType": "address",
					"name": "user",
					"type": "address"
				}
			],
			"name": "RedeemInterest",
			"type": "event"
		},
		{
			"anonymous": false,
			"inputs": [
				{
					"indexed": true,
					"internalType": "address",
					"name": "user",
					"type": "address"
				},
				{
					"indexed": false,
					"internalType": "uint256",
					"name": "amount",
					"type": "uint256"
				}
			],
			"name": "Unstake",
			"type": "event"
		},
		{
			"anonymous": false,
			"inputs": [
				{
					"indexed": true,
					"internalType": "address",
					"name": "user",
					"type": "address"
				},
				{
					"indexed": false,
					"internalType": "uint256",
					"name": "day",
					"type": "uint256"
				},
				{
					"indexed": false,
					"internalType": "uint256",
					"name": "index",
					"type": "uint256"
				}
			],
			"name": "UpdateDateTest",
			"type": "event"
		},
		{
			"inputs": [],
			"name": "HackInterestToken",
			"outputs": [
				{
					"internalType": "contract IHackInterestToken",
					"name": "",
					"type": "address"
				}
			],
			"stateMutability": "view",
			"type": "function"
		},
		{
			"inputs": [],
			"name": "HackToken",
			"outputs": [
				{
					"internalType": "contract IHackToken",
					"name": "",
					"type": "address"
				}
			],
			"stateMutability": "view",
			"type": "function"
		},
		{
			"inputs": [],
			"name": "PRECISION_FACTOR",
			"outputs": [
				{
					"internalType": "uint256",
					"name": "",
					"type": "uint256"
				}
			],
			"stateMutability": "view",
			"type": "function"
		},
		{
			"inputs": [],
			"name": "buybackRate",
			"outputs": [
				{
					"internalType": "uint256",
					"name": "",
					"type": "uint256"
				}
			],
			"stateMutability": "view",
			"type": "function"
		},
		{
			"inputs": [
				{
					"internalType": "uint256",
					"name": "amount",
					"type": "uint256"
				}
			],
			"name": "deposit",
			"outputs": [],
			"stateMutability": "nonpayable",
			"type": "function"
		},
		{
			"inputs": [
				{
					"internalType": "address",
					"name": "account",
					"type": "address"
				},
				{
					"internalType": "uint256",
					"name": "index",
					"type": "uint256"
				}
			],
			"name": "getRedeemableAmount",
			"outputs": [
				{
					"internalType": "string[]",
					"name": "",
					"type": "string[]"
				},
				{
					"components": [
						{
							"internalType": "uint256",
							"name": "buybackAmount",
							"type": "uint256"
						},
						{
							"internalType": "uint256",
							"name": "interestAmount",
							"type": "uint256"
						},
						{
							"internalType": "uint256",
							"name": "redeemableAmount",
							"type": "uint256"
						}
					],
					"internalType": "struct TokenStaking.RedeemInfo",
					"name": "",
					"type": "tuple"
				}
			],
			"stateMutability": "view",
			"type": "function"
		},
		{
			"inputs": [
				{
					"internalType": "address",
					"name": "account",
					"type": "address"
				}
			],
			"name": "getStakeCount",
			"outputs": [
				{
					"internalType": "uint256",
					"name": "",
					"type": "uint256"
				}
			],
			"stateMutability": "view",
			"type": "function"
		},
		{
			"inputs": [
				{
					"internalType": "address",
					"name": "account",
					"type": "address"
				}
			],
			"name": "getTotalRedeemableAmount",
			"outputs": [
				{
					"components": [
						{
							"internalType": "uint256",
							"name": "buybackAmount",
							"type": "uint256"
						},
						{
							"internalType": "uint256",
							"name": "interestAmount",
							"type": "uint256"
						},
						{
							"internalType": "uint256",
							"name": "redeemableAmount",
							"type": "uint256"
						}
					],
					"internalType": "struct TokenStaking.RedeemInfo",
					"name": "",
					"type": "tuple"
				}
			],
			"stateMutability": "view",
			"type": "function"
		},
		{
			"inputs": [],
			"name": "interestRate",
			"outputs": [
				{
					"internalType": "uint256",
					"name": "",
					"type": "uint256"
				}
			],
			"stateMutability": "view",
			"type": "function"
		},
		{
			"inputs": [],
			"name": "redeemInterest",
			"outputs": [],
			"stateMutability": "nonpayable",
			"type": "function"
		},
		{
			"inputs": [],
			"name": "stakeLimit",
			"outputs": [
				{
					"internalType": "uint256",
					"name": "",
					"type": "uint256"
				}
			],
			"stateMutability": "view",
			"type": "function"
		},
		{
			"inputs": [
				{
					"internalType": "address",
					"name": "",
					"type": "address"
				},
				{
					"internalType": "uint256",
					"name": "",
					"type": "uint256"
				}
			],
			"name": "stakeMapping",
			"outputs": [
				{
					"internalType": "uint256",
					"name": "dateStaked",
					"type": "uint256"
				},
				{
					"internalType": "uint256",
					"name": "initialAmount",
					"type": "uint256"
				},
				{
					"internalType": "uint256",
					"name": "balanceAmount",
					"type": "uint256"
				},
				{
					"internalType": "uint256",
					"name": "redeemedAmount",
					"type": "uint256"
				},
				{
					"internalType": "uint256",
					"name": "interestAmount",
					"type": "uint256"
				},
				{
					"internalType": "uint256",
					"name": "buybackAmount",
					"type": "uint256"
				}
			],
			"stateMutability": "view",
			"type": "function"
		},
		{
			"inputs": [],
			"name": "totalAmountStaked",
			"outputs": [
				{
					"internalType": "uint256",
					"name": "",
					"type": "uint256"
				}
			],
			"stateMutability": "view",
			"type": "function"
		},
		{
			"inputs": [
				{
					"internalType": "uint256",
					"name": "stakeId",
					"type": "uint256"
				}
			],
			"name": "unstake",
			"outputs": [],
			"stateMutability": "nonpayable",
			"type": "function"
		},
		{
			"inputs": [
				{
					"internalType": "uint256",
					"name": "day",
					"type": "uint256"
				},
				{
					"internalType": "uint256",
					"name": "index",
					"type": "uint256"
				}
			],
			"name": "updateDateTest",
			"outputs": [],
			"stateMutability": "nonpayable",
			"type": "function"
		},
		{
			"inputs": [
				{
					"internalType": "address",
					"name": "",
					"type": "address"
				}
			],
			"name": "userMapping",
			"outputs": [
				{
					"internalType": "uint256",
					"name": "totalInitialAmount",
					"type": "uint256"
				},
				{
					"internalType": "uint256",
					"name": "totalBalanceAmount",
					"type": "uint256"
				},
				{
					"internalType": "uint256",
					"name": "totalRedeemedAmount",
					"type": "uint256"
				},
				{
					"internalType": "uint256",
					"name": "totalBuybackAmount",
					"type": "uint256"
				},
				{
					"internalType": "uint256",
					"name": "totalInterestAmount",
					"type": "uint256"
				}
			],
			"stateMutability": "view",
			"type": "function"
		}
	]
}